:020000040800F2
:10000000084E002001010008090100080B0100084A
:100010000D0100080F010008110100080000000098
:1000200000000000000000000000000013010008B4
:10003000150100080000000017010008251700083E
:100040001B0100081B0100081B0100081B01000820
:100050001B0100081B0100081B0100081B01000810
:100060001B0100081B0100081B0100081B01000800
:100070001B0100081B0100081B0100081B010008F0
:100080001B0100081B0100081B0100081B010008E0
:100090001B0100081B0100081B0100081B010008D0
:1000A0001B0100081B0100081B0100081B010008C0
:1000B0001B0100081B0100081B0100081B010008B0
:1000C0001B0100081B0100081B0100081B010008A0
:1000D0001B010008D11700081B0100081B010008C4
:1000E0001B0100081B0100081B010008DFF80CD0F1
:1000F00000F05EFA0048004769680008084E0020DA
:100100000648804706480047FEE7FEE7FEE7FEE7B1
:10011000FEE7FEE7FEE7FEE7FEE7FEE73117000831
:10012000ED00000830B505462A460B4612F8010BD3
:1001300013F8014B08B1A042F8D01CB1002802D03E
:100140006D1CF1E7284630BDCAB2401E10F8011FF1
:100150008A4202D00029F9D100207047421C10F8D1
:10016000011B0029FBD1801A704710B5002200E066
:10017000521C835C8C5CA34201D1002BF8D1D8B215
:10018000E1B2401A10BD30B504460020034600E03D
:100190005B1C934203D2E05CCD5C401BF8D030BDC9
:1001A000034611F8012B00F8012B002AF9D118465B
:1001B000704730B50B46014600202022012409E09B
:1001C00021FA02F59D4205D303FA02F5491B04FA10
:1001D00002F52844151EA2F10102F1DC30BD2DE923
:1001E000F05F0546002092469B46884606468146BB
:1001F00040241BE0284641464746224600F0F9F9D4
:1002000053465A46C01A914110D311461846224609
:1002100000F0E0F92D1A67EB01084F462246012055
:10022000002100F0D7F917EB00094E41201EA4F180
:100230000104DFDC484631462A464346BDE8F09FCC
:100240002DE9FE4F804681EA0300C00F0C46009066
:1002500021F0004123F00045B8EB0200A94105D28E
:100260004046214690461C460B46024623F000407D
:10027000104347D0270DC7F30A00C3F30A51029079
:10028000401A019040286BDAC3F3130040F4801B3E
:100290000098924620B10023D2EB030A63EB0B0BCC
:1002A00001985946C0F14002504600F093F90646C5
:1002B0000D4650465946019A00F0ABF910EB080084
:1002C0006141002487EA115284EAE7731A4340D05F
:1002D000009A62B3019A012A4FEA075215DC001B0B
:1002E00061EB02014FF0004202EA0752CDE9004201
:1002F000001C41F5801132462B4600F0ABF903B0EB
:10030000BDE8F08F40462146F9E7001B61EB020192
:10031000001C41F5801300185B412018A2F500175E
:1003200047EB030140EAD570B6196D4111E06D0845
:100330004FEA360645EAC0754FEA0752001B61EBEB
:100340000201001C41F5801149084FEA30000019F4
:10035000514132462B4603B0BDE8F04F00F06BB977
:100360000098012240000023D0EB020263EBE0730F
:10037000009821464FEAE074B8EB000061EB0401FD
:10038000E9E783F000435BE781F0004158E72DE99E
:10039000FE4F81EA030404F0004421F00041009480
:1003A0004FF0000B23F0004350EA01045ED052EA04
:1003B00003045BD0C3F30A54C1F30A552C44A4F2DE
:1003C000F3340194A0FB0254C1F3130141F48011F2
:1003D000C3F3130343F4801301FB024400FB034EF9
:1003E000840A970A44EA815447EA8357A4FB0768C2
:1003F00002958D0A05FB07854FEA932C04FB0C54EC
:100400002705029D4FEA065847EA1637B5EB08055F
:100410006EEB070C870E920E47EA811742EA8312B1
:10042000A7FB0201B6EB0B0164EB00042B0D43EAC2
:100430000C335E1844EB1C50DA465146E7FB0201D0
:10044000C5F313044FEA0B3343EA14534FEA043263
:10045000019C43EA0603A4F10C040294009CCDE93C
:1004600000B400F0F7F803B0BDE8F08F00200146BB
:10047000F9E72DE9F04D81EA030404F0004B21F087
:10048000004514464FF0000A23F0004150EA0502EF
:1004900020D054EA01021DD0C5F30A570246C5F325
:1004A0001303C1F31300C1F30A5640F4801543F45B
:1004B0008013A7EB0608101BD64608F2FD3873EB35
:1004C000050002D308F1010801E092185B41B8F180
:1004D000000F03DA00200146BDE8F08D00204FF444
:1004E0008011064684460EE0171B73EB050705D303
:1004F000121B63EB050306434CEA010C49084FEA63
:10050000300092185B4150EA0107EDD152EA030036
:1005100012D082EA040083EA0501084305D0101BCB
:10052000AB4106D20122002306E000224FF0004337
:1005300002E06FF0010253101AEB06004CEB085179
:1005400010EB0A0041EB0B01BDE8F04D00F073B871
:10055000C1F30A52C1F3130140F2FF3341F4801199
:100560009A4202DA00200146704740F233439A4231
:10057000A2F2334202DC524200F03BB800F02AB84B
:1005800030B5041E71F1000404DB4FF0004440421A
:1005900064EB0101141E73F1000405DB1C464FF0EF
:1005A0000043524263EB0403994208BF904230BDBE
:1005B000064C074D06E0E06840F0010394E80700B0
:1005C00098471034AC42F6D3FFF794FDD0F40008FE
:1005D000F0F40008202A04DB203A00FA02F100209F
:1005E00070479140C2F1200320FA03F31943904071
:1005F0007047202A04DB203A21FA02F000217047DC
:1006000021FA02F3D040C2F120029140084319467A
:100610007047202A06DBCB17203A41FA02F043EA62
:10062000E07306E041FA02F3D040C2F120029140AB
:1006300008431946704710B5141E73F1000408DA18
:10064000401C41F1000192185B411A4301D120F096
:10065000010010BD2DE9F04D92469B4611B1B1FA53
:1006600081F202E0B0FA80F220329046FFF7B2FF4A
:1006700004460F4640EA0A0041EA0B0153465A4637
:10068000084313D0114653EA010019D0C8F14002C3
:100690005046FFF7AEFF05460E46504659464246C5
:1006A000FFF798FF084305D0012004E020463946B3
:1006B000BDE8F08D0020054346EAE0762C43374341
:1006C0000A986305E40AA0EB08000022FD0A44EA48
:1006D00047540A3002D500200146E9E70105101908
:1006E0006941DDE9084500196941BDE8F04DA2E71F
:1006F00010B5431A934209D28318881803E010F802
:10070000011D03F8011D521EF9D210BD40EA01037C
:100710009B0703D009E008C9121F08C0042AFAD2B7
:1007200003E011F8013B00F8013B521EF9D210BD65
:10073000D2B201E000F8012B491EFBD27047002223
:10074000F6E710B513460A4604461946FFF7F0FFD0
:10075000204610BDF0B480EA0102D40F4200B2EB93
:10076000410F02D20246084611464A0042D0C30D4C
:10077000DDB2C1F3C752AD1A202D35DAC1F316012F
:1007800041F4000204B15242C5F1200602FA06F11A
:100790002A411044B3EBD05F23D0C4B1012DA0EBAC
:1007A000C35009DCF0BC4FF0004202EAC352DBB296
:1007B00000F5000000F040B9400000F1807000EB4F
:1007C000C350A0F1807040EAD170490009E04908A7
:1007D00041EAC071A0EBC35000F50000400800EBF7
:1007E000C350F0BC00F01FB96142012202EB41018D
:1007F000001BF6E7F0BC704781F00041AAE780F0EB
:100800000040A7E780EA010210B502F00043400073
:1008100022D04A001FD0010E01EB1261C0F3560036
:10082000C2F3560240F4000042F40002A0FB022092
:1008300000047F39140400D0401C50EA124001D457
:100840004000491EC2B20C0604EBD010401C400808
:10085000802A02D003E0002010BD20F00100002912
:1008600000DA0020184310BD30B480EA010202F023
:10087000004530F0004221F0004013D090B1C30D8C
:10088000D40DC2F31601C0F31600E41A41F40001BE
:1008900040F400027D34914201D3641C00E0490021
:1008A000002C02DA30BC002070474FF40000002317
:1008B000914201D3891A034340084FEA4101F7D11D
:1008C00051B1914202D14FF0004105E002D24FF008
:1008D000010101E06FF0010103EBC450284430BC7A
:1008E00000F0A1B8002801DBC0F10040002901DBC5
:1008F000C1F10041814201D80120704700207047BA
:10090000002801DBC0F10040002901DBC1F10041FA
:10091000814201D20120704700207047002801DB8E
:10092000C0F10040002901DBC1F10041814201D347
:100930000120704700207047002801DBC0F1004013
:10094000002901DBC1F10041814201D9012070473A
:1009500000207047002801DBC0F10040002901DBC6
:10096000C1F10041814201D1012070470020704750
:10097000C10F80EAE0700844CA079623002100F006
:100980005BB896230022114600F056B80EB540F22F
:10099000334102910021CDE900110A460B46FFF7D1
:1009A00059FE03B000BD00F0004220F00040C10D30
:1009B000C0F3160040F400007F2901DA00207047E0
:1009C000962903DCC1F19601C84001E096398840C0
:1009D000002AF4D04042704720F00040C10DC0F31F
:1009E000160040F400007F2901DA002070479629A4
:1009F00003DCC1F19601C8407047963988407047C2
:100A000000F0004230F000400AD0C10D01F56071E5
:100A1000C0F3160042EA0151C20840071143704773
:100A20000020014670470029A8BF7047401C4900BC
:100A300008BF20F00100704710B4B0FA80FC00FA43
:100A40000CF050EA010404BF10BC704749B1CCF16E
:100A5000200421FA04F411FA0CF118BF01212143FA
:100A60000843A3EB0C01CB1D4FEA00614FEA1020B5
:100A700042BF002010BC704700EBC3501044002957
:100A8000A4BF10BC7047401C490008BF20F0010003
:100A900010BC7047EFF3108072B601F04BF9FCE721
:100AA000ED490130CA6ACB6A9B1A8342FBD3704777
:100AB0002DE9FC4F5E4A04234FF0000A4FF0010875
:100AC0004FF00009904208BF0323009300250C68F3
:100AD00034FA05F208BFBDE8FC8F08FA05FE14EAF7
:100AE0000E0F00F0A1804F68032F16D9112F26D0CA
:100AF000122F28D0524A974213D0524A974210D010
:100B0000514A97420DD0514A97420AD0504A9742D3
:100B100007D0504A974204D022E0DFE807F00218DD
:100B20001B1F8C6844B1012C14BFC0F814E0C0F83E
:100B300010E04FF0080913E04FF0040910E0CC6812
:100B400004F104090CE0CC6804F10C0908E0D1F8C8
:100B50000C9005E0CC6804F1080901E04FF00009B1
:100B600054460746082D4FF00F0228BF203C28BFEF
:100B700004373B6802FA04F609FA04F4B34323434A
:100B80003B60CB79DB064FD52C4A2A4C1368A4F581
:100B90007E7C43F00103136013682F4A03F00103C6
:100BA00090420193019B25F003035CF803B008D049
:100BB0002A4A904207D02A4A009E904208BF022645
:100BC00002E0002600E001260AF00C030F22AF0825
:100BD00002FA03F406FA03F3164E174A2BEA04044A
:100BE00023434CF827304F68FB02B36854BF23EA15
:100BF0000E0443EA0E04B460BB02136854BF23EA38
:100C00000E0443EA0E041460BB03736854BF23EA66
:100C10000E0443EA0E047460FB03336854BF23EAF6
:100C20000E0243EA0E0232600AF1040A01354EE771
:100C300000140140000401400C040140181002405F
:100C400000001110000012100000211000002210FE
:100C5000000031100000321000080140000C01407B
:100C600000100140CD48C06A704700BF10B50F4961
:100C70004FF47A728968B1FBF2F14A1E0021B1EBA0
:100C8000126F11D10A4BF0245A600A4A147099600D
:100C900007210F28196007D84FF0FF300F2100F00F
:100CA0000BF8BE480121017010BD00BF00000020FC
:100CB00010E000E023ED00E010B5104A00F00F0353
:100CC0000F4C043B02442344002848BF03F10C02AC
:100CD00020684FF0FF34C0F30220C31E80F00700ED
:100CE00038BF0023042828BF042004FA00F021EABA
:100CF000000098400001107010BD00BF00E400E04B
:100D00000CED00E0F8B5A64D14460A4695F85110D2
:100D1000012919D16E68B6F5827F0BD1A96849B94E
:100D20000421234685F85110014601B0BDE8F0408A
:100D300000F038B9DFF8A4CEDCF82C3030B12AB19D
:100D400095F85070012F03D10220F8BD0120F8BDA5
:100D50000427012185F8517000276F65EA8785F81F
:100D60005010AA87A863AF862F63C5E91077EF8676
:100D7000A9682A68B1F5004F07D1116821F0400138
:100D80001160116821F4804111601168490603D493
:100D9000116841F040011160E96829B32A68E98FC0
:100DA00031B39168C90705D1DCF82C10C91AA142EA
:100DB000F5D331E0D16820F8021BA863E98F01392F
:100DC000E987ECE72A689168C90705D1DCF82C109F
:100DD000C91AA14208D31FE0117B0170A86B013032
:100DE000A863E98F0139E987E98F0029EAD16E68A4
:100DF000B6F5827F18D1A868B0F5004F02D0B0F5E3
:100E0000806F11D12968B0F5806F0A6822F0400226
:100E10000A6009D1012008E0002085F85000012077
:100E200085F851000320F8BD80200021224600F003
:100E300027FC28B1686D40F02000686520206865B7
:100E4000012085F85100002085F85000686D0028C9
:100E500018BF0120F8BD00BF78000020F8B5E54DAF
:100E6000BC4C0B46E96A94F85160012E05D130B1B3
:100E70002BB194F85060012E03D10220F8BD01205F
:100E8000F8BD0326012784F8516000266665E386D5
:100E900084F85070A3862063A687A663C4E9106611
:100EA000E687A7682668B7F5004F07D1376827F0AF
:100EB00040073760376847F48047376037687F06F8
:100EC00003D4376847F040073760E768D4F804C0B8
:100ED000B7F5006F1ED1BCF1000F18BF012B06D172
:100EE00030F8023BF3602063E38E013BE386236826
:100EF000E68E86B39E68B60704D4EE6A761A9642EA
:100F0000F6D343E030F8026BDE602063E68E013EEC
:100F1000E686EDE7BCF1000F18BF012B07D1007882
:100F20003073206B01302063E38E013BE38623683E
:100F3000E68E86B19E68B60704D4EE6A761A9642AB
:100F4000F6D323E000781873206B01302063E68E1F
:100F5000013EE686ECE7104600F078FB08B1202061
:100F60006065A06838B9002000902068C1680091D1
:100F7000806800900098012084F85100002084F8D7
:100F80005000606D002818BF0120F8BD002084F8D3
:100F90005000012084F851000320F8BD78000020A3
:100FA000901A0020F8B5DFF89CCF6A4E8E46DCF828
:100FB0002C1096F85170012F07D120B1BEF1000F0F
:100FC00018BF002A0BD101250EE07568B5F5827FA8
:100FD00009D1B46802253CB9042FEED004E096F89C
:100FE0005040012C02D102252846F8BD012486F884
:100FF000504096F85140042C1CBF052486F85140FF
:1010000000247465F287F286C6F838E0B287306350
:10101000C6E91044B28635682C68640603D42C688F
:1010200044F040042C60F4687768B4F5006F33D165
:101030000FB1012A06D130F8022BEA603063F28E3C
:10104000013AF28632680125F48E14B9F48F002C2F
:1010500060D09468A4070BD5F48E4CB1012D07D154
:1010600030F8024B0025D4603063F48E013CF486E6
:101070009468E4070AD0F48F44B1D46801252EF8AF
:10108000024BC6F838E0F48F013CF487DCF82C40C2
:10109000641A9C42D8D335E00FB1012A07D10078F9
:1010A0002873306B01303063F08E0138F0860120F8
:1010B000F28E0AB9F28F6AB332689468A4070DD52C
:1010C000F48E5CB1012809D1306B00781073306B5D
:1010D00001303063F08E0138F08600209468E40718
:1010E0000BD0F48F4CB1B06BD2680270B06B013092
:1010F000B063F08F0138F0870120DCF82C20521A01
:101100009A42D5D30020032586F85000012086F8A6
:10111000510069E7184600F099FA28B1002086F8D6
:101120005000202070654EE7B06838B9002000906C
:101130003068C1680091806800900098012086F8AE
:101140005100002086F85000756D002D18BF012554
:101150004AE700BF901A00202DE9F0414A4E14469C
:1011600096F85220202A1CBF0220BDE8F081A8B3C7
:10117000A1B34FF000082222C6F8548086F852200E
:10118000424AC6F84080B187D56AF18700F0E1F99C
:101190000CBF80460746F08F18B3202000F081F97D
:1011A00008BB5FB1B069B0F5805F0FD008B9306A95
:1011B00060B13069406800F07F0009E030690027C5
:1011C00040686FF35F2028F8020B03E03069406845
:1011D00007F8010BF08F0138F087DCE70120BDE84C
:1011E000F081002000E00320202186F85210BDE8A5
:1011F000F08100BF780000202DE9F041224E144616
:1012000096F85120202A1CBF0220BDE8F08138B397
:1012100031B34FF000082122C6F8548086F85120DF
:101220001A4AB186D56AF18600F093F90CBF804660
:101230000746F08EB8B1802000F033F9F0B927B13D
:1012400017F8010B3169486006E038F8021B306975
:1012500000276FF35F214160F08E0138F086E8E7E8
:101260000120BDE8F081402000F01BF9202186F824
:101270005110002818BF0320BDE8F081202086F817
:1012800051000320BDE8F0817001002078000020AB
:101290002222C8234FF4C574CDE90221CDE90043D1
:1012A0000490404659465246702301F081BBCDE977
:1012B0000000284601F0CCB9CDE9025401F078BB1A
:1012C000BDF94403BDF94613BDF94823BDF94A33BE
:1012D000BDF94C43BDF84E53CDE90045704741F28E
:1012E0000510772127220F230090704746904698DB
:1012F000786940F004007861786900F00400469055
:101300000320059002200390704720460BF0C2B9DD
:101310000490404659465246142301F049BB0490BC
:10132000404659465246082301F042BBCDE902210E
:10133000CDE900430490404659465246072301F048
:1013400037BB40465946524670474843EF2190FB11
:10135000F1F06A211E3002460AF038BDBDF84C4358
:10136000BDF94403BDF94613BDF94823BDF94A331D
:1013700000947047092248F2E453CDE9001402902A
:101380007047CDE90076049401F012BB31464FF46A
:10139000A072FFF7ADB90BFB00F000F1AF040B201A
:1013A00021460AF013BF406D0867082081F86800E5
:1013B000062000F0A5BA4946CDF81480CDE903A572
:1013C0000290204658474FF4A07228230AF016BE18
:1013D000CDE900012046802142460BF05BB9012196
:1013E00001FA00F0D5F840124840C5F840027047B5
:1013F0000024092023258926704704904046594639
:10140000524601F0D5BA98F8700099F870108142F0
:10141000704740F28111892221237047CDE90001F4
:10142000182140460BF036B9CDE9004401F010B95F
:10143000D9F89000D8F89010FFF78CBAD9F88C0042
:10144000D8F88C10FFF786BAD9F88800D8F8881039
:10145000FFF780BAD9F88400D8F88410FFF77ABA79
:10146000D9F88000D8F88010FFF774BA4FF4A17152
:101470000D224EF69E73CDE900047047404601F000
:1014800097BAD9F87C00D8F87C10FFF763BA014608
:10149000204601F0C5B9D9F87800D8F87810FFF7E0
:1014A00059BA2946224600F045B9D9F82C00D8F897
:1014B0002C10FFF74FBAD9F85C00D8F85C10FFF792
:1014C00049BAD9F85400D8F85410FFF743BAD9F8FC
:1014D0004C00D8F84C10FFF73DBA0090742004F08F
:1014E00083BF009014200AF0D7BBCDE9031040461B
:1014F000594601F05DBA009014200AF04FBD0190EA
:1015000020460AF07BBE4FF4D4710E2248F6666383
:10151000CDE9000670472046FFF772BAC1F82200F5
:1015200041F2E4004FF492710090704707B0BDE8BB
:10153000F08FCDE90076CDE9024570470C224EF6DA
:101540009E737047691AB1FA81F14909CDE900012A
:101550007047B169326A81F4805151EA02077047DD
:10156000182120460BF096B8062001F0BDB8009473
:1015700001908E200AF042BEB0FA80F04009704718
:101580000B224EF69E73704741F205104121CD2289
:101590004FF4B67370470021284485F8CC12704789
:1015A000002100225047B2F91600B2F91A10B2F920
:1015B0001C207047594652461423704721464FF469
:1015C00096721D2370474046594601F0F1B92146F5
:1015D0004FF495721923CDE90006704705B0BDE8B8
:1015E000F08F20460BF056B82046FFF70BB90020CD
:1015F00031463A4643460090484670470622062345
:10160000009060204047D9F804304FF0FF304FF091
:10161000FF317047CDE90047CDE90265CDF8109064
:1016200070474DF808ED04F0CDFD02460220234638
:1016300084211E9C03905DF808EB7047049040469F
:10164000CDE90076CDE9025401F0B2B970B50C468F
:101650000546022001212A46234600F011F838B938
:10166000802000212A462346002600F009F828B1F0
:101670002B480326416D41F020014165304670BD85
:10168000F8B5E24CDFF898C0E56A5B1B9D189B4AF1
:101690009268E66AC2F3CB326A430092DCF800300B
:1016A0009F6807403F1AB7FA87F77F098F4204BF48
:1016B0000020F8BDE76ABF1BAF4207D2009F009A27
:1016C000013A0092002F08BF3D46E9E7586820F034
:1016D000E0005860DCF80400B0F5827F0BD1DCF844
:1016E0000800B0F5004F02D0B0F5806F03D1186844
:1016F00020F040001860DCF82800B0F5005F07D14A
:10170000186820F400501860186840F40050186001
:1017100000208CF8500001208CF851000320F8BD07
:10172000901A0020B948C16A0131C162704700BFF8
:101730007047000078B53F4BB44D1C6926680640E1
:10174000864204BF002078BDEE6A761A964284BFB6
:10175000032078BDE6687607F0D54028EED08028D3
:10176000ECD026683607E9D500200090206800906C
:10177000606800900098186950E8030F196920F418
:10178000907041E80302002AF5D1186950E8050F6E
:10179000196920F0010041E80502002AF5D1186C12
:1017A000012809D1186950E8030F196920F01000C9
:1017B00041E80302002AF5D1202083F852000020DE
:1017C000186483F8500008205865012078BD00BFD8
:1017D00000F0B0BA0D48BFF34F8F0D4A016801F415
:1017E000E06111430160BFF34F8F00BFFDE700BF11
:1017F0000648BFF34F8F064A016801F4E0611143C8
:101800000160BFF34F8F00BFFDE700BF0CED00E0AC
:101810000400FA05E0B58DF807000DF1070001217D
:101820006422FFF7E9FC00B98CBD0248EA49FFF7E2
:10183000BAFD00BF700100202DE9F84306462C4890
:101840000C462C4F016841F080710160386840F00F
:10185000010038600320D7F804808DF80000300ABA
:101860008DF803608DF80200300C8DF80100002027
:10187000B0EB124F2DD120494FF480101546642251
:101880000860894668460421FFF7E8FA20B9A9B242
:101890002046C822FFF736FA1021C9F800107968EF
:1018A000A1EB0802CC498B688F6B3A448A634FF4F2
:1018B0007A72B3FBF2F28B6BB3FBF2F2CA624A6B41
:1018C0002A444A6338B10A22CE6581F86820FFF7BE
:1018D00053FEBDE8F883002EF9D1042DF7D3002282
:1018E000042AF4D0A35C8D18013285F86230F7E742
:1018F000FCED00E0001000E01008014000000020B6
:1019000084B0062888BF002003900FF2D00927A1D9
:101910003F4EDFF804B120F0040001283B4808BF27
:1019200089466421C06B00EB800001EB800A5021E6
:1019300001EB80073C2101EB8004282101EB8008AA
:101940004546B5F5F07F2ED230484FF4207105643E
:101950003046FEF7F4FE2F4A082041464FF2CA23D4
:10196000D84703982DA14FF2CA2351F82020082010
:101970002146D847082039464A464AF6D753D84721
:101980002D4A082051464AF6D753D8474FF4A07045
:10199000A9B24FF4A072012300960190002000F03C
:1019A00015FA0135CDE7FFF775F800BFD09FD0A03D
:1019B000D09ED092D095D0A0D0ACD0A2D09520D03F
:1019C0009FD09ED094D09AD09BD0AED0A7D095D0A7
:1019D0009DD098D09520464C41534800D09ED09140
:1019E000D09DD09ED092D098D0A2D09520D0A0D01B
:1019F00095D0A1D0A3D0A0D0A1D0AB20D0ADD09A0B
:101A0000D0A0D090D09DD0900000000078000020A1
:101A1000F006002010E70008AD1E000863DE000895
:101A2000A8DE0008BBE8000893E8000811E60008FB
:101A30004CE5000855E60008DEE700082DE9F04F08
:101A400087B0DFF894C104460628084628BF06245C
:101A5000642928BF6420DCF800E074450BD1DCF871
:101A60000420904201D1FFF761BD632903D8821A97
:101A700001D3052AF7D3594E00250022776B9442F3
:101A800006D027FA02F3013203F001031D44F6E702
:101A9000012205EB85050DF11708A2401743776376
:101AA0002427BEF1630918BF07EB8509382707EB28
:101AB0008503BEF1630F4A4F08BF4FF4F0730393E1
:101AC0006329B36B94BF23EA02021A43B263F6257B
:101AD000CCE900402522ADF81A206422B0FBF2F2D6
:101AE00042F030028DF817200A22B0FBF2F303FB1C
:101AF0000505B3FBF2F202EB820245F03005A3EBE1
:101B000042028DF81950012542F030020A284FF0A8
:101B100001008DF8182038BF0220642938BF8044A6
:101B2000039881459FD238464FF42071CDF810902C
:101B3000C6F84090FEF703FE0820102129A24EF6B9
:101B40009E7300F0B3F94FF0000B4FF00009B9F1AC
:101B5000070F2DD0706B05FA09FA10EA0A0F24D08E
:101B60002BA028214AF6D75350F829200BEB8B00E5
:101B700001EB80070820394600F098F92BA24C456C
:101B80004EF69E7108BF4246B06B10EA0A0028A0CC
:101B900018BF0246274808BF084683B239464FF4AB
:101BA000887000F083F90BF1010B09F10109CEE710
:101BB000DDF810900A4F4FF4A0704FF4A07201238B
:101BC000C6F83CB0019000201FFA89F1009700F0A0
:101BD000FDF809F10109A3E70000002078000020CA
:101BE000F0060020D098D09DD098D0A6D098D09064
:101BF000D09BD098D097D090D0A6D098D0AF20D0FE
:101C0000A1D098D0A1D0A2D095D09CD0AB0000009C
:101C10005DE7000876DE000891DE00087EE6000839
:101C200033E600081AE9000892E400082E2E2E0080
:101C30004F4B0000668EFFFF1CB501468DF8070074
:101C40002020104A8DF80400080A8DF80600080CC0
:101C50008DF805000020114213D1344A914210D36F
:101C600000F08AFDFFF780FC314C4FF48010042116
:101C7000206001A809F01FFF1020206000F07CFD0B
:101C800001201CBDFF0FE0FF284B984208D3B0F5A0
:101C9000001F05D8C0F50013934228BFFFF7CCBD45
:101CA000002070472DE9F84F06462048864207D3AA
:101CB000B6F5001F04D8C6F500101446904202D2B3
:101CC0000020BDE8F88F0D464FF4801AE8464FF02B
:101CD000100B44B302208DF803608DF80000300A29
:101CE0008DF80200300C8DF8010000F045FDFFF783
:101CF0003BFC0F4804218146C0F800A0404609F093
:101D0000DAFEF0B2C0F580772846A74228BF274602
:101D1000394609F0D0FEC9F800B0E41B3E443D440A
:101D200000F02AFDD5E70120BDE8F88F0050120031
:101D3000100801401FB51E48006948B3016811F042
:101D4000280F25D0406809070FD01A4800210163E9
:101D50001948009018A0D0E90112C068CDE901121D
:101D60000390684600F0A2FA1FBDEFF3108181B125
:101D70001049C0B214A3A0F150040A6BB4FA84F461
:101D800064099B5C834208BF541C0C63042C0BD079
:101D90001FBD002101228DF80D0001918DF800205A
:101DA00002918DF80C10DCE700200863FFF712FDAC
:101DB00070010020780000200200000000000000F8
:101DC0000000000000000000504348522DE9F0439D
:101DD000B1B0002A64D01D46002B61D00E46010A26
:101DE0008DF8C10010440DF1C0081446DDE93879C2
:101DF000042201388DF8C01041468DF8C300000A56
:101E00008DF8C2002A2004F00FFB300A414604225C
:101E10008DF8C1608DF8C000701901388DF8C300CD
:101E2000000A8DF8C2002B2004F0FEFA1E4E4FF07F
:101E3000004030604FF0005030602C2004F0E8FA91
:101E40004FF40050B046306005FB04F06D46461E6E
:101E50000020711C1BD037F8021B09BA090C29524B
:101E60000230C02804D12846C02109F024FE0020F9
:101E70005EB1B6FBF4F101FB146100294FF00001E3
:101E800008BFA9EB040107EB4107013EE1E718B1E8
:101E900081B2684609F00FFE4FF40040C8F8000018
:101EA00031B0BDE8F08300BF100C01402DE9F04FC8
:101EB000234CDFF894C0DFF894E004EB4009BC4CFD
:101EC000D4F840B01778CFB3C02F07D3547802327C
:101ED00004F03F0467F38A14274600E0013200242F
:101EE000E046352C26D03EF81460B74203D008F106
:101EF0000C080134F5E74FF0000ABAF10C0F19D0C5
:101F000018F80A400AEB01060027082F0FD024FA20
:101F100007F5ED0709D0B34507DBC519AD09042D59
:101F200003D8B345D8BF29F817300137EDE70AF1D8
:101F3000010AE2E709F110090830C3E7BDE8F08FB4
:101F4000F0060020780000204ED30008E4D20008FC
:101F50002DE9F8433B4A904205D995480121416754
:101F60000020BDE8F883DFF8708804468709364E04
:101F7000D8F8780056F82010B94203D1354901EB62
:101F8000801059E00025202D05D056F82500B842D4
:101F900010D00135F7E796462C4A0025012020286D
:101FA00009D052F8251052F820308B4238BF054630
:101FB0000130F4E79646264841684A1C42600AD33D
:101FC000224B00220021202903D043F82120013197
:101FD000F9E7012242601D4941F8252056F82510F5
:101FE000B94224D0016AD0F800C00131016224F066
:101FF0003F00AEEB000101F10109B9F1400F28BF2C
:102000004FF04009BCF1000F06D012494A460023A8
:1020100001EB8511E04740B901204946C8F874003A
:102020000C4800EB8510FEF78AFB46F8257009483E
:10203000C8F8785000EB851004F03F01405CBDE823
:10204000F88300BFAC4F1200C4250020C801002057
:10205000F4000020700900202DE9FE4F8946054656
:102060000A2019461C46904609F070FF0C9F064650
:102070000A20394609F06AFF3978DDF834B04FF0AC
:10208000010A4346CDE9004A00295844314618BFA9
:1020900001446FF001000A2291FBF0F04946441917
:1020A00020460AF0ABF8387848B106EB0B004946F9
:1020B0000A224346CDE9007A20440AF09FF8BDE8A1
:1020C000FE8F00002DE9FE4F0746B848DDE90C9A67
:1020D000984615460E4648F66664007A60BB384658
:1020E00031462A46434609F089FF28B3384631462F
:1020F0002A4643460AF06AF840F6A300BAF1000FF8
:102100004FF0030B31462A46434608BF41F2051003
:10211000CDE900B0384609F00FFE48F66660BAF126
:10212000000F31462A46434608BF43F22920CDE935
:1021300000B0384609F0DAFF09202A464346BAF1D2
:10214000000F04BF4EF69E74CFF6FF74A1B2CDE926
:10215000009038460291314604F046F9BDE8FE8F02
:1021600070B59148914A00210024C378117380F81A
:10217000371180F83411D3720E4A02EB03120E4B62
:10218000182C0CD040CA00EB84050634C5F8C430C6
:10219000A5F8C81003F5F073C5F8D460F0E700782F
:1021A000012818BF70BDBDE8704001F0FDBF00BF41
:1021B0007800002054DB0008441E0020B0B54FF624
:1021C000FF710C2241F2210372B10478013A81EAD5
:1021D0000421082434B10DB2013C03EAD53585EA67
:1021E0004101F7E70130EFE788B2B0BDB0B54FF677
:1021F000FF7241F2210371B10478013982EA0422AD
:10220000082434B115B2013C03EAD53585EA42020F
:10221000F7E70130EFE790B2B0BD000070B560B1F4
:10222000094E05460024B4F5C07F08D0281902F0F5
:102230001CF830B130550134F5E7002401E04FF4CB
:10224000C074204670BD00BFC4270020022904D0FE
:10225000012904D029B94C300FE05C300DE0543036
:102260000BE0A1F12002092A87BF00EB810000F5F5
:10227000A47000EB820000F5117000687047000048
:1022800010B507A202290A4412F8014C05D104F046
:10229000E7F8002818BF012000E00020204410BD0E
:1022A0001F1C1F1E1F1E1F1F1E1F1E1F2DE9F04F6C
:1022B00087B081460078032874D8DFE800F0024137
:1022C0003234DFF854BBB9F90800B9F90A10D9F86B
:1022D000043099F80C209BF8088003F083FE0DF180
:1022E000040A9BF87124BAB39BF87034013A03EBEB
:1022F00043000BEBC007D7E9B64007F53877E2CFCC
:102300008BF871245A1C02F00F02CDE901408BF8C2
:10231000702403AAE2C203F0C3FF504605F032F96D
:10232000DFE7A74815E0FFF76EF9012203F05AFE38
:10233000FFF769F9002207B0BDE8F04F03F052BE85
:102340009F4899F80D10C28C038D0132D2B29A4287
:1023500024D10121417225E09BF80850A84521D0E5
:10236000D9F80400B84900F5FA60886001AC18217A
:102370002046FEF7E4F92846FEF703FB01460390EA
:102380004FF4C870ADF80A000A208DF808000A2042
:1023900003F086FF204605F0F5F803E0C38C044CFB
:1023A000E154C284FFF7C2B8480200207800002040
:1023B000F01C00202DE9F04F87B0814E90F90650B7
:1023C0001C4690F803B090F8048005EB020CB6F9B7
:1023D0001620B6F91890B6F91A70B6F91CE0154631
:1023E00094454A44C8BF6546B6F922309D42D8BFDD
:1023F0001D46039090F9050000EB010A3946BA45E5
:10240000C8BF5146B6F91E008142D8BF01460CEB49
:1024100008009042B8BF0246B6F924008242A8BF25
:10242000024602920AEB0B000EEB07029042B8BF85
:102430000246B6F920008242A8BF024606910492E5
:10244000914280F2BA800298854280F2B680039968
:102450005E465C4A05950888897801F07F0340EA6A
:10246000034B48B200284ED40698049902EB0B07A0
:102470000D1A0599A0EB0A000190A1EB0C0302983C
:10248000814200F09A8003988B460199D24A0493C6
:102490000026CDF814B0C07803FB0018FFF783F8CE
:1024A000069BABEB00004FEA880A4FF0000B00FBE5
:1024B0000230401A444901EB40095D451ED008EB4B
:1024C0000B00BBF1000F01D0C10704D107EB600086
:1024D00001F0CBFE06460AF0040026FA00F010F0E8
:1024E0000F0206D039F81B00214605F0D1F829F873
:1024F0001B000BF1010B0AF1040ADEE7049B0599AE
:1025000001330131BBE705984FF000090125A0EB2D
:102510000C0000FB06F70026AFB12A48584401F032
:10252000A4FE05EB10110022B7EB101F00F00F0600
:102530000BF1010BA1EB0709C8BF7A1A1746C8BFF8
:102540004FF00009E8E70599DFF87C8002988142A6
:1025500033D0039D57460591E8785044874229DAE5
:10256000B9F1000F0AD11748584401F07EFE01214D
:1025700000F00F060BF1010B01EB1019B6B1069834
:10258000874213DB0498874210DA934A059BFFF7D2
:102590000AF8181A50433246401A21463D1838F8B6
:1025A000150005F075F828F81500039DA9F101093B
:1025B0000137D1E705990131C8E7FEF7B7BF00BF82
:1025C0007800002072A60290442900207CB50446C1
:1025D000A0F8D212407901260D46667184F8D40223
:1025E0002046FFF733FEFEF70BFACDE900010A495A
:1025F00005EB450004F52D75084A01EBC0001821D4
:10260000C37D28460AF046F82846FDF7A7FDA4F842
:10261000CD6284F8CC027CBD90EF000879DF000821
:1026200010B5094A536B102B03D1D06B0130D06326
:1026300010BD064C24F8330004EBC3000024013322
:1026400044805363416010BDF4000020701C0020E2
:102650002DE9F041D0F85844002504F1010EDDE9E0
:1026600006C41CB1D4F80080676802E04FF000088F
:10267000002790F8714480F85D5490F87054A0F8E9
:102680005E2480F85C14C0F858E4C0F86034C0F8E8
:1026900064C4C0F86884C0F86C74102C0AD16C1C37
:1026A00004F00F05D0F8744480F870540134C0F879
:1026B00074440F24661C2C4404F00F0480F87164E9
:1026C00004EB440400EBC400A0F8DE220022C0E9C1
:1026D000B83CC0E9BA8780F8DC12C0F8D8E280F8CC
:1026E000DD22BDE8F08100001CB53C4C4FF48011A8
:1026F00021608DF807000DF10700012109F0DBF9D9
:10270000102020601CBD00BF1CB59F200190AB2095
:10271000FFF7EAFF0120FEF7C3F9304C4FF48010B9
:10272000694604226423206001A8FEF73BFC1021C7
:102730002160C8B99DF802109DF801009DF80320A2
:10274000090241EA0040811825488165816D29B15F
:10275000816D6FF07F42914218BF1CBD0B2180F844
:1027600068100520FFF7CCF81D480A2180F8681092
:102770000120FFF7C5F800BF2DE9F84F1648174EA6
:10278000174C4FF480190DF1030A0DF1020B1025BF
:1027900040F6B938C76A05208DF80300504601217C
:1027A000C6F8009009F087F9584601216422FEF727
:1027B000A9FA70B99DF80200074984F860003560F5
:1027C000C96AC91B414504D2C00708BFBDE8F88FDC
:1027D000E4E7FEF75FF900BF780000201008014031
:1027E00000000020F0B50D4C002918BF01214FF466
:1027F0007A7300252246B02D04BF1046F0BD66193D
:10280000B7798F4207D1675D3F1A48BF7F429F4229
:10281000BCBF32463B460835EDE700BFE0D10008BB
:10282000B0B5A1F120035F2B0CD3A1F582621F2A62
:1028300002D8A1F56C7305E0A1F58662202A2ED29C
:10284000A1F2AF33828893422AD21A4C34F8134053
:102850008C4225D1934206D100218A4205D0013114
:102860002029FAD11F23934201D10020B0BD408816
:10287000114A184400F07F01451C01EB810102EB75
:10288000410432F811108D4207D00C49082201EBA7
:10289000C001A01C01F092FC2580A01CB0BD828864
:1028A000044C00239A42D7D034F813508D42D1D033
:1028B0000133F7E760D00008301300207222029045
:1028C0002DE9F04F85B003914FF0000BC1B2029398
:1028D0000192364D4FF000094FF00008C3F800B0E8
:1028E000C2F800B0042928BF5846C7B221A050F84A
:1028F000276000200490B0452ED24FF00C0A4446C9
:10290000B44209D23846214600F03CF8287818B184
:102910000AF10F0A0134F3E7B9F1000F14D009EB03
:102920000A00B0F5917F11D90398834505D101982C
:10293000049901600298C0F800800BF1010B4FF080
:102940000009CDF8108001E04FF00009B44238BF13
:102950000134D144A046CEE70398834504D10198C1
:1029600004990160029806600BF1010005B0BDE812
:10297000F08F00BF22000000250000001F000000B3
:102980001E000000074A084B00EB800002EBC0026B
:1029900003EB401050F82100525C00F11041034855
:1029A00001F00CBC22D60008C4D60008101A002082
:1029B000F8B517460A4604460898BDF81C1041EAC7
:1029C0000045069998B23B4640EA01462946304602
:1029D00003F008FC38B1DDE909106560266060810C
:1029E00001202172F8BD0020F8BD00002DE9F84F4C
:1029F000002867D08146DFF8200499F8002001788C
:102A0000114318D199F802100024022914D18178B9
:102A1000022911D1417899F801208A420BD14179DC
:102A200099F805208A4206D1007A99F808100C1A04
:102A300018BF012400E00024484601F023FCDFF821
:102A4000D8830646404601F01DFC864200D0CCB338
:102A500098F80C0099F80C10814233D198F80000D6
:102A600030B3FEF734FDE0B1FEF72BFDC8B1FEF741
:102A700022FDB0B198F8740099F87410814210D119
:102A800009F1640008F164010C22FDF77CFB40B9F8
:102A9000FEF7B9FC05D198F8080099F808108142B2
:102AA00022D05748574901F0D9FA98F80000D8B910
:102AB000FEF7A9FC0AD198F80A0099F80A10814299
:102AC0000ED111E0BDE8F84F01F06EBBD048D149FE
:102AD00001F0C4FA98F8000030B9FEF794FCEAD08F
:102AE000CE48CF4901F0BAFAD8F81C10D9F81C002A
:102AF00008F07CFF18B1CB48CB4901F0AFFA98F849
:102B00000000002840F0328198F80E0099F80E106D
:102B1000814207D109F10F0008F10F010C22FDF7E6
:102B200032FB18B1C148C24901F098FAD9F8240023
:102B3000D8F82410FDF70EFF30B1D9F82800D8F8E6
:102B40002810FDF707FF18B9B848BA4901F086FA0E
:102B5000D9F83000D8F83010FDF7FCFE18B9B648A7
:102B6000B64901F07BFAD9F83400D8F83410FDF7F3
:102B7000F1FE18B9B248B34901F070FAFEF795FCBE
:102B800038B9B148B14901F069FAB148B14901F029
:102B900065FAFEF79CFC30B1D9F85000D8F8501017
:102BA000FDF7D8FE18B9AC48AC4901F057FAAD486A
:102BB000AB4E08F1640509F1640700244FF0010AE7
:102BC0008346032C20D099F8742098F874100AFAE0
:102BD00004F04A400240120609D03046594601F03E
:102BE0003DFA06F5D816043504370134E9E7084202
:102BF000F7D038682968FDF7ADFE0028EDD0F0E782
:102C0000010023003E011E00FEF75BFC30B1D9F845
:102C10005800D8F85810FDF79DFE18B992488F4912
:102C200001F01CFAFEF747FC30B1D9F86000D8F883
:102C30006010FDF78FFE18B98C48884901F00EFA34
:102C400099F8080098F8081088420FD0884C4FF483
:102C5000D815884E00FB0540314601F0FFF998F881
:102C60000800314600FB054001F0F8F998F83501FD
:102C70000F280FD0FEF70FFC40B1FEF702FC28B181
:102C8000FEF7EEFB10B1FEF710FC18B97A487B494D
:102C900001F0E4F998F836010F280FD0FEF7DAFBBF
:102CA00040B1FEF7D1FB28B1FEF7C8FB10B1FEF72B
:102CB000BFFB18B97248734901F0D0F9FEF7EBFB7E
:102CC00018B97148714901F0C9F9FEF7DAFB18B972
:102CD0006F486E4901F0C2F9FEF7C2FB18B96D48A2
:102CE0006A4901F0BBF9FEF7B5FB18B96A486B49B0
:102CF00001F0B4F9FEF7A8FB18B96948674901F07B
:102D0000ADF9FEF79BFB18B96648644901F0A6F9D6
:102D1000FEF78EFB18B96448604901F09FF9D9F8B5
:102D20003800D8F83810FDF715FED8B1D9F83C00B6
:102D3000D8F83C10FDF70EFEA0B1D9F84000D8F845
:102D40004010FDF707FE68B1D9F84400D8F84410E8
:102D5000FDF700FE30B1D9F84800D8F84810FDF76B
:102D6000F9FD18B95148524901F078F9D8F8C01066
:102D7000D9F8C00008F03AFE18B14E484E4901F0AB
:102D80006DF9002000F11804782C2DD008EB000517
:102D900009EB0006D5F8C410D6F8C40088421BD150
:102DA000B5F8C800B6F8C810814215D195F8D00022
:102DB00096F8D01081420FD1D5F8D410D6F8D400AF
:102DC00008F014FE40B9D5F8D810D6F8D80008F0AD
:102DD0000DFE00282046D5D03848394901F03EF98B
:102DE0003848394901F03AF9D8F83801D9F838119A
:102DF000814207D1B8F83C01B9F83C11814208BFC3
:102E0000BDE8F88F31483249BDE8F84F01F026B9E6
:102E10000A00AF002C015100480200200E014100C1
:102E200021003700000101003A00210012003100AA
:102E3000230157002F001C007400310029001000EE
:102E400075005A0026001500A80031002800100067
:102E50003E009501320013007700B100BF00190059
:102E60008B00B1004F0019007700CC007700E7001D
:102E70000A00AD002C0120000E0024018A0084000D
:102E8000A9002401890084000E002E018C00180086
:102E90000E0054010E007A01A8002E018B001800CC
:102EA000A8004F01A8006F01A8008F013E00690033
:102EB000F6001F0008005B003001120007006500EB
:102EC0003201BC000700510132015B0007005C00C9
:102ED000320151012DE9F04FAFB0002800F06283BC
:102EE000044600200021FEF76EFA00281C943FD013
:102EF000E069E8B394F91B10002904D40FF6BC6113
:102F0000FDF733F9A0B3DFF8BC0E404904243622A4
:102F10001D23C0F81E103E49C0F8221040F6A30041
:102F20000321CDE900404FF4817008F005FF43F222
:102F30002A2000941C9C032136221D2301904FF46B
:102F4000817009F0D3F8E169102008F0FFFFE16912
:102F50000122C0F136004DF61C73CDE900120221AA
:102F6000102290FBF1F0182100F5817009F046F96C
:102F7000217B94F91B0019B9B0F1FF3F00F31283D4
:102F8000DFF8401E214AC0B2C1F81E20204AC1F815
:102F9000222041B2B1F1FF3F1DDD6079002840F0F1
:102FA00001832078DFF81CBEC0B300284AD0032874
:102FB00000F0A781012840F0F582E0784FF0000B87
:102FC000022840F2BF810321FF20079101210C91CB
:102FD000002118913EE3A178052909D10D4800266A
:102FE0004FF0010B34270FF6E05400F54B7528E243
:102FF00010F0180F00F07581074800264FF0010B04
:1030000034270FF6D45400F1C0051AE201003F0145
:103010000100DF019EEFFFFF22F5FFFF002050219E
:10302000FEF7D1F970B194F91B00002802D4A07802
:10303000012807D1656B00212846FDF761FC0028B7
:1030400000F0998100202821FEF7BDF9002800F04A
:103050009480607BC1073FD0DBF8700030B941F24B
:10306000051033212B221823FEF73BFA606AFDF787
:10307000C7FCCDE9000125ACDFF8B02EFEF770FAF1
:103080001C98002103F09EF80246022040212346AE
:103090000190DFF89C0E00902820FEF7DDFF1C98C1
:1030A000806AFDF7ADFCDFF8942ECDE900012046E3
:1030B000182109F0EFFA1C98012103F083F8024669
:1030C0000320234649211C9C0190DFF8680E0090E4
:1030D0002820FEF7C1FF607B410726D5DBF8700092
:1030E00040B941F20510332125220C2300907620AF
:1030F00008F0D2FD206BFDF783FCCDE9000125AC83
:10310000DFF8342EFEF72CFA1C980321032503F078
:1031100059F80246DFF8280E23463D211C9C0195F4
:1031200000908820FEF798FF607B800725D5DBF8AC
:10313000700040B941F20510332124220C23009085
:10314000AA2008F0A9FDE06AFDF75AFCCDE90001CC
:1031500025ACDFF8D82DFEF703FA1C98042103F004
:1031600031F80246032023463D211C9C0190DFF8E4
:10317000B80E0090BC20FEF76FFF002060214FF4D6
:10318000A072302308F03AFF002800F00B82607B29
:10319000DFF8B05D01071BD5286F20B9FEF79FF857
:1031A000422008F079FDA06BFDF72AFCCDE9000173
:1031B00025ACDFF8A02EFEF7D3F91C980721FEF707
:1031C00030FADFF8940E00905520FEF745FF607B43
:1031D000C1061BD5286F20B9FEF781F8752008F0CD
:1031E0005BFDE06BFDF70CFCCDE9000125ACDFF8E1
:1031F000642EFEF7B5F91C980821FEF712FADFF8E5
:10320000580E00908820FEF727FF607B81061BD5B3
:10321000286F20B9FEF763F8A92008F03DFD206C67
:10322000FDF7EEFBCDE9000125ACDFF8282EFEF717
:1032300097F91C980921FEF7F4F9DFF81C0E0090AD
:10324000BC20FEF709FF607B41061BD5286F20B923
:10325000FEF745F8D92008F01FFD606CFDF7D0FBA4
:10326000CDE9000125ACDFF8EC2DFEF779F91C98CB
:103270000A21FEF7D6F9DFF8E00D0090EC20FEF70A
:10328000EBFE607B40B2B0F1FF3F00F38B81DFF8D3
:10329000B40C006F48B941F205106B2127220F23AF
:1032A00000904FF4867008F0F7FCA06CFDF7A8FBC7
:1032B000CDE90001254625ACDFF8982DFEF750F941
:1032C00028460B2102F07EFF024602207821234689
:1032D0000190DFF8840D009040F21F10FEF7BCFE55
:1032E00060E1C81E022824D3012900F09980022938
:1032F00040F09F80DFF8744C43264FF0000B2A27E4
:103300001DE0D4F83801002800F04C8194F87300D7
:1033100000254FF00008002840F02085B4F83E1149
:10332000002900F01985C1EBC101A1F1070800F0E7
:1033300015BD4C264FF0000B32270FF6204448F203
:10334000E4557EE0FF210422012840F07C81607872
:10335000C3B2581E012B08BF40F21711002BB0FA60
:1033600080F018BF0322079218BF01230C93400975
:10337000189008466EE12046032102F023FF8146A3
:103380002846FDF73DFB0DF19408DFF8302CFEF7E1
:1033900045F80A20414608F0D9FD0446E2484FF0BE
:1033A000020A0D2C2546CBF82200E048CBF81E007F
:1033B00040F6A300CDE900A0D8BF0D25172D28BFEA
:1033C000172505F10D0788205C211123A0EB570676
:1033D0003A46304608F0B0FC30465C213A461123AC
:1033E000CDE900A908F082FEE01D05F10906B04212
:1033F00040F38F841DAD0FF6CC3225AB20217C0825
:10340000284609F047F9012068210A224B46029616
:10341000CDE90050C4F18A0008F01DFF00F092BC15
:103420004FF2225000264FF0010B2C270FF62034CC
:10343000E9E5DFF83C4B00264FF0010B232748F667
:10344000D345072001216122212308F0D7FD002860
:1034500000F0A580B648DFF8ECAA1B963E46B54FB3
:1034600043F6CC28012140F23F122223CAF81E0065
:1034700042F62920CAF82270CDE90080012008F028
:10348000DBFBDFF8F09AADB20B200F2109221223EB
:103490000095C84709201221092215230095C84725
:1034A000092015210C2218230095C8470C2018214B
:1034B000102218230095C847102018211322152325
:1034C0000095C84713201521132212230095C847E1
:1034D0001320122111220F230095C8470E200A2124
:1034E0000E2212230095C8479348012140F23F1253
:1034F0002223CAF82270CDF80080CAF81E0042F6D6
:1035000029200190012008F097FB012018210D22AD
:103510002B460094CDE90106172008F09CFEBBF174
:10352000000F36D11C98407898B11121DFF84C2A51
:1035300048F2E453029101210191DFF83C1A01287D
:1035400008BF0A461B9800921621092208F083FE44
:103550001DE01B9E092001240FF62421DFF8245AC8
:10356000FDF708FF16213046A84704200FF6182162
:10357000FDF700FF06F10B001621A84708200FF603
:103580000C21FDF7F7FE06F10F001621A847DFF822
:10359000B4A96A48CAF81E006948CAF822001C9CEF
:1035A000607910B12FB0BDE8F08F207800287FF44B
:1035B000F4ACA07B28B1E17B207C814288BF084627
:1035C00000E00020DFF8C8B900F0030000253BF858
:1035D0001040042D0BD03BF815004E211F221F2355
:1035E00001940090192008F02DFD0135F1E74FF00E
:1035F000000A0FF6A0180FF6B0191C9CBAF1050FBF
:103600003FF4CBACA07B28B10AEB0400407C00F077
:10361000030000E0002058F82A4059F82A503BF8EF
:1036200010700026042E0BD03BF8160041212246D4
:10363000372301970090284608F004FD0136F1E792
:103640000AF1010AD9E70420079000201890002011
:103650000C90FF20179005F0D3FFDFF8E8183748EB
:10366000DFF8E499DFF8E4A9052700240525002602
:10367000C1F81E003348C1F8220001204FF48E71BA
:103680004FF49F72132308F0B9FCA8B3062E33D26F
:103690001C99D1E94B01002808BFC82000FB051385
:1036A000B3F57A7F0DD31846FDF770F9264B00224B
:1036B000FCF7DFFE0DF17408DFF89429FDF7AEFE8C
:1036C00009E00DF17408002B524608BF4A464046F7
:1036D000182108F0DFFFB4FBF7F040F229110722B0
:1036E00049F63553CDE9008B173008F087FD179860
:1036F000013D01360444C0E74FF0000A1DADBAF1A8
:10370000020F00F0AE80BAF1000F1FD01C99032702
:10371000C878012888BF02270C98002818BF022704
:10372000189C084615E000BF5C006D0076009A000A
:1037300007001600010022001600680001003F018A
:103740000100DF0123002F0100408F401C9800245E
:10375000002700EB4700B0F82401002808BF0A202A
:10376000FDF70FF9002C1B9078D1BAF1000F4FF440
:1037700090784FF01E0208BF4FF0090808BF1522CD
:1037800040466521BB2308F039FC002866D0DFF8ED
:10379000B417D648BAF1000F4FF00209C1F8220061
:1037A0004FF49F70A1F81E8008BF1E2008841C994A
:1037B000002607EB470001EBC00000F1CA0100F151
:1037C000C80B1A9100F1CC011991052E46D0BBF817
:1037D000000030B31A985546B0F900101998B0F9A6
:1037E0000000A0EB010AFDF7C3F804460AFB06F04F
:1037F000AA461DADFDF7C5F8BD49FDF703F8014622
:103800002046FCF7A7FF1B99FDF72EF8FDF7F8F807
:10381000CDE90001284618210FF2F87208F03AFFAE
:1038200001E0B4481D90BAF1000F49F6355307D0B6
:103830001C98DFF8E817C07801EBC00030F81730AB
:103840006D200722009500EB990100200190404671
:1038500008F0D4FC09F1B1090136B6E70AF1010A12
:103860004DE71798DFF8C887DFF8D89600271F3094
:1038700006900798874200F02E821C9907EB4700BC
:1038800001EBC00A0D46504610F8D04F159001EBE1
:103890004700B0F82401002808BF0A20FDF771F89E
:1038A00013903CB1E878DFF8741701EBC00030F8F2
:1038B000170001E045F66D404D210D9067207943DA
:1038C000784301F12C020C99002918BF00F13C0249
:1038D0000B9203D000F10D0563260BE01FB1012F01
:1038E00003D15B2505E00D2503E0F525022F08BF78
:1038F000A8254926281F40F26911324644230E901C
:1039000008F07CFB16901C98C07801280CD010BBE6
:10391000032FDFF80C27DFF8100708BF0246F81E58
:1039200018BF012040001EE0DFF8A826022F0BD8A8
:10393000DFF8F016DFF8E8060A4608BF02461C98D2
:103940004078022818BF0A46107800284FF001007E
:1039500008BF022007E0022FDFF87826DFF8C00654
:1039600038BF0246022018901598CDE908250F9619
:10397000A0F10C011E20A9F81E005F481491C9F89F
:1039800022000698A9F820000868002800F0AB8003
:10399000514631F8C84F002C059100F0AF80B0F9C6
:1039A00000000A97FCF7E4FF1399FCF75DFF01465E
:1039B0000AF1CA00CDF80CA04FF000084FF0000B40
:1039C0000025002712900AF1CC0089464FF0000A2A
:1039D0001991119000201A9000201B900020109047
:1039E000A7427AD2169838B31498006830F91700B5
:1039F000FCF7BEFF1399FCF737FF2646199C834658
:103A00002146FCF799FF002818BF5C4658464946F6
:103A100019943446FCF774FF002818BFD9461B9848
:103A20005946FCF797FE1B9058465946FCF7EAFEAC
:103A30001A99FCF78FFE1A901C9890F8340108B17F
:103A4000874246D215980078002842D0022C40D3F5
:103A500012981199B0F90000B1F90010814238DDD7
:103A6000149839462E4605F02BFE00F16A05601EBB
:103A70001099B8FBF0F000F11E0321B11C9991F8E8
:103A800037118F4202D101209A4621E0711B049325
:103A9000A0EB0A00B8BFA91B01F1010300F11F024E
:103AA00050462946B8BF314608F0A8FA68B10D98CB
:103AB00031462B4600905046DDF810A0524608F0E3
:103AC00085F905980488012002E00120DDF810A0A6
:103AD000109017980137804482E7DFF854850A9FD9
:103AE000DDF80CA016E000200BE000BF650020010F
:103AF000000080BEE28094006A001C010020DFF814
:103B000030854FF000094FF0000B199000201A90FB
:103B100000201B900E980F9A40F26911442308F080
:103B20006DFA002800F0D3801C99BAF8C80091F80B
:103B3000371179B168B11498006800EB410030F991
:103B4000020CFCF715FF1399FCF78EFE834601204B
:103B500000E00020A449DFF8EC230E9BC2F82210FD
:103B600023EAE371D1830F991944B1F5A07FA8BF6F
:103B70004FF4A0711184002800F09D8058460A97E8
:103B8000FCF73EFFCDE900011DAE189B182142460F
:103B9000304608F07FFD0E20314608F0D7F9089F27
:103BA00004460920394608F0D1F939784FF0010868
:103BB00020440096CDF804800029214618BF011D3D
:103BC0006FF001000D9B0E2291FBF0F00B9946184F
:103BD00040F27911304608F011FB387850B1A01945
:103BE00040F2791109224BF61863CDE900780430D0
:103BF00008F004FB0AF1C8000088FCF7C2FE80460A
:103C00001A984146FCF730FE002105460027FCF7D4
:103C100069FE0DF1740BD8B928464FF07E51FCF7C0
:103C20008BFE00282F464FF07E5008BF0746142415
:103C300074B128463946FCF717FE01463846FCF7B2
:103C400089FD4FF07C51FCF7DDFD0746013CEFE7B5
:103C500019984146CDF8B8902B972D901B98FCF7FA
:103C600003FEDFF8CC83099E00254FF4C5744FF0A6
:103C700000090DF1AC0A0FF2BC372C90102D18D0B2
:103C80005AF80500FCF7BCFE189BCDE90001584628
:103C90001821424608F0FEFC7859214609224CF2D0
:103CA0005963CDE900B9304408F0A8FA0B34043563
:103CB000E4E70A9F0BE0E3A00D9B40F279110E228E
:103CC0000090012001900B98053808F097FADFF872
:103CD00074920137CDE51C9890F8370188B11E2108
:103CE000013840F21B13A9F81E10D049C9F8221060
:103CF0000699A9F820104EF69E7100911799FDF7CC
:103D000024FB9148C9F81E009048C9F82200FFF72B
:103D100049BC6FF0010101250A224B4690FBF1F0EE
:103D20006821CDE9008500F18806304608F066FA82
:103D3000A3A068210A224B46CDE90005A019033053
:103D400008F05CFA80481C9CCBF81E007F48CBF83A
:103D500022002078FFF729B94FF00008B4F83C1191
:103D6000B1EB080288BF154638B1B4F83E01C0EB8C
:103D7000C00007380D1A98BF0025724E9348852160
:103D80004FF49772FE23C6F81E009148C6F8220031
:103D900041F205100090092007F07EFFA72443F2AE
:103DA0000927B4F5CE7F21D0092021464FF49B721C
:103DB0002346009708F00AF82334F2E731343A3307
:103DC0003200000078000020D090D092D090D0A097
:103DD000D098D0AF00000000D0A0D090D097D0A055
:103DE000D0AFD094000000006901AD01A8B2DFF8A7
:103DF000E4A1072828BF0720232100244843199065
:103E000008EB48004FF000084FEA80091998404538
:103E100000F083801C98CDF87B40CDE91D44D3464B
:103E2000D0F8385155F80970A7B13846FCF796F923
:103E300002460A28394628BF0A221DA8FCF758FC6A
:103E400055F809603046FCF789F9D3460B2888BF3E
:103E500006F10B0B05EB090408F195076668CDE93F
:103E60001A494EB15E493046FCF77FF950B16249BC
:103E70003046FCF77AF958B1DFF86091564D43F6B9
:103E80005D560CE0574D4FF222560FF25C1906E0DA
:103E90004EF69E700FF2681958A500F54B761DA8D6
:103EA000DFF86CA100243946FDF748FB00900E2096
:103EB0000194D04708F1A2010E200C224AF6D753F4
:103EC000CDE900B4D0470120B6B208F19C010C2224
:103ED0000095019051203346D04708F19B070024FC
:103EE0005B200C223346CDF8009039460194D04730
:103EF0001A98806838B1CDE900049A203946FDF758
:103F00001DFB08F07BF9DDF86C900E4EDFF8C4A0C5
:103F100008F1230809F10C0978E70B48C6F81E00E0
:103F20000A48C6F82200FFF73DBB00BF7EDF00084D
:103F3000A4E60008D1E2000888DF000883DF00085B
:103F4000C9E500087800002001003F010100DF0101
:103F5000D097D090D0A0D0AFD0940000D0A0D09077
:103F6000D091D09ED0A2D090000000009CE6000826
:103F700012E80008CDBD000801DD000806DD0008DC
:103F80002855000057C200082F00000046290000F5
:103F9000ECD50008230000002600000025000000EA
:103FA0002600000021000000440000007500000011
:103FB000A9000000D90000000E01000083DF000806
:103FC000D1810000257320D1810000000900370154
:103FD000850083013AED000829E0000865DD00084E
:103FE000AFE00008B8DC0008D09FD180D0B5D0B4D5
:103FF000D183D0BFD1802E00CCE10008C397000050
:10400000D090D0B2D0B0D180D0B8D18F0000000015
:10401000FDC10008252E33670000000090DC000879
:10402000C9E50008D1E20008A4E600086A001C0106
:1040300079DF0008170000001600000018000000DB
:1040400015000000E28094008AE2000889E200087E
:1040500080E200087EDF000854DE00082DE9F04F02
:1040600085B0044680B28209042A02D8620D0E2A65
:1040700001D9002513E0220C02EB114389B2B3F5FC
:10408000F07F084428BF4FF4F073991AB0F5A07F71
:1040900028BF4FF4A070001B80B240EA0145B5F57F
:1040A000803F7DD3A8B200287AD06849DFF8F4B009
:1040B0004FF0000AC86D91F801800130C8655FFAC1
:1040C00088F05FFA8AF1814255D20BEBC1095BF8A7
:1040D000317000952346D9F8046003A8394632466A
:1040E00002F0B7F8A2B2A8B2BBB2811802318B427B
:1040F00022D8B1B20B4402339A421DD84FEA154C74
:104100003B0C0CEB14420232934215D803EB1642DF
:10411000230C023293420FD84FEA164E00FB0CF0EC
:10412000BDF81030BDF812200EFB01005A4300EB21
:104130008000B2EB900F02D90AF1010ABFE70095A7
:1041400001A839463246234602F083F83F48A8F1D9
:104150000108DDE901454FF0000A80F801805FFAAF
:1041600088F05BF830100BEBC0004068C9F8001015
:10417000C9F80400A3E7172809D8344A4BF830409F
:1041800008F101010BEBC0004560517008E00A48DE
:104190002E49CBF804000020CBF800000120487025
:1041A000FDF71CBAFC110020284800214170416530
:1041B00001490020FFF752BF4001E0012DE9F84F0F
:1041C00093468246B1F1104F2ED3080E90282BD87B
:1041D00001F1E0461C49DFF87480DFF87490BBF110
:1041E000000F08BFBDE8F88F06F03F05C5F1400796
:1041F0005F4528BF5F468E421CD8881B013087422E
:1042000018D830460C46FDF7A3FED8F878003A4699
:1042100009EB801041195046FCF76AFA2146ABEBD6
:10422000070B3E44BA44DAE750465A46BDE8F84F19
:10423000FCF75EBA01205946C8F874005046FCF7F6
:104240007EFABDE8F88F00BFAC4F12007800002066
:1042500070090020B0B5044600F007F80546601C60
:1042600000F003F845EA0020B0BDB0F1104F06D3CE
:10427000010E902903D800F1E040FDF769BE0078F7
:104280007047000088B181792F290FD341794A1EE8
:104290000B2A0DD80321DFE802F009061E20222494
:1042A00026282A2C2E30022100E01A21C8B270479D
:1042B0000178032929D001292ED000293CD1827808
:1042C000052A4ED81921DFE802F00304434C535568
:1042D000ECE71621EAE70121E8E70821E6E70921F2
:1042E000E4E70721E2E70421E0E70621DEE7052114
:1042F000DCE70021DAE70A21D8E7007804282FBF9D
:104300001321C0002349C140D0E7B0F83E01242169
:10431000012888BF2521C9E7C178052903D21D22BC
:10432000CA40D20711D140781121022808BF1021BC
:10433000012808BF0F21B9E700790138C0B20B2866
:104340003ABF17A1095C2E21B0E713A0415CADE78D
:10435000007A1A21022808BF1E21012808BF1D214A
:10436000A4E7417801290DD002290DD123219DE731
:104370001B219BE790F91B001921B0F1FF3FC8BF3B
:10438000182193E7202191E7C07A2121002808BF56
:104390001C218BE7131215140E0E0D0B0C000000E0
:1043A0002B2C2D2A292827262C2D2D002DE9F04FE6
:1043B00091B091460E460546FFF764FF83462F20D5
:1043C00005F52D770DF1200CA8719FCFACE89F006B
:1043D000701E162800F2B38695F8CF8295F8CE426B
:1043E00005F52D7ADFE810F0310045005E0072001F
:1043F000770089009800C300240132014801570169
:10440000750187018F0117001700A001BC01CB01C6
:10441000F00100020D02B9F1000F00F19086B9F130
:104420001F0F00F28C8668790238C0B2082800F2AB
:1044300086861A2121FA00F0C00740F080861FFA14
:1044400089F0FCF7CCFF00F015BDB9F1000F00F1C9
:104450007686B9F1030F00F27286002085F800908D
:1044600000214A4600236871FCF721FF012600F075
:1044700001BDB9F1000F00F16286B9F10B0F00F236
:104480005E8685F80490FFF78FFE002001214A46E2
:104490000023CDE9001028460021FEF7D9F80226B6
:1044A00000F0E8BCB9F1010FC0F24986B9F10C0F78
:1044B00000F2458604BF0020A5F88C045FFA89F15C
:1044C000284603F0A9F8032600F0D4BC00200426F7
:1044D000687100F0CFBCB9F1000F00F13086B9F17E
:1044E000020F00F22C866979287A85F80890002955
:1044F00000F01283052600F0BDBCB9F1000F00F1F9
:104500001E86B9F1370F00F21A8628464946FEF793
:104510005DF8062600F0AEBC6E79002085F8CE026C
:10452000012E18BF062E40F0EF81B9F1580F00F0B0
:10453000B481B9F1430F08BF012E00F0AE81B9F18B
:104540003C0F00F0A482B9F1420F08BF012E00F029
:104550009E82A9F13000062E40F0D3830A28C0F0D5
:10456000D783A9F14100062880F04A83D0E3687917
:10457000811EC9B208299ABFDFF8382D52F82110E0
:104580004FF0FF310B2800F0E581062800F016827D
:10459000012840F0358295F8B4020694CDE904A8CC
:1045A0004FF42D7A4FF07E564FF0000803902D28DF
:1045B00008BF40F2B52AB5F8D202002702900020C9
:1045C00015F80A402E2C1CD0002C00F0BA82302C9A
:1045D000C0F0D282392C00F2CF8208F10108B8B1C4
:1045E000D7493046FCF70EF90646A4F13000FCF737
:1045F000BFF93146FCF706F93946FCF7ABF8074638
:1046000002E0002840F0B88201200AF1010AD7E751
:10461000A4F13000FCF7ACF9394607460846C94911
:10462000FCF7F0F83946FCF795F807460020ECE770
:104630006979012940F02A81B5F8D2022A2804BFFD
:10464000C148C5F8F00195F8D40223E1B9F1000F93
:1046500000F17585B9F1040F00F27185484685F8BF
:104660000390FCF785F90346002003210022FCF7A4
:104670001EFE0A2600F0FEBBD5F88072DFF8300C73
:1046800000210A2900F0D88050F82120BA4280F099
:10469000D4800131F5E7B5F8C80018B1AB48AC4992
:1046A000FFF7DCFC95F8840280F00100010685F834
:1046B000840200F0F880002105F1C802002385F88B
:1046C000371185F83411602B00F0F180D152183386
:1046D000F9E7D5F83801B5F83E61002800F0F2801E
:1046E000B5F83C01072180B20630B0FBF1F100299A
:1046F00008BF0121E7E00020042100220023FCF78D
:10470000D6FD0E26B6E36879032840F01885D5F863
:10471000F03126460024284605210022FCF784FEBD
:104720006C7134460F26A5E3B9F1000F00F107853F
:10473000B9F1020F00F2038527466C78484685F8E8
:104740000190FCF715F90346002002210A22FCF72C
:10475000AEFD5FFA89F0261A3C4618BF122689E39F
:10476000002085F8CC02B9F1000F484618BF01209F
:10477000B8EB000685F8CF0218BF13267AE3B9F12B
:10478000000F00F1DC84B9F1040F00F2D88401209D
:10479000CDE90584DFF80C8B0026574685F8D092CA
:1047A000A5F8CD020620687105EBC90000F2862449
:1047B000082E00F0C080A35D38460321424607F072
:1047C00069FF02370136F3E72879062804D1002073
:1047D00085F8850207202871002008210022002387
:1047E000FCF765FD152645E32879072804BF062058
:1047F00028710020092100220023FCF758FD16260D
:1048000038E3A9F262200B2800F20B814E4BDFE85F
:1048100010F00C004E0154012A012A012A012A013C
:104820002A012A012A015E015C0128460321C5F8FC
:10483000F03102F0F1FE55E10A21002600220023AA
:104840000A2938BF0122B9F1000F48BF01231A40DD
:104850001346002918BF4FF0FF33B9F1000FD8BF3E
:104860001346194450F82100C5F88002FCF789F876
:104870000346284603210122CDE90066FDF7E8FE44
:10488000D5F88002874218BF0B26F3E200200629E4
:1048900008BF052068710926ECE20020A5F8CC02CB
:1048A00085F8B402ACE195F8371185F83411C0B23F
:1048B000FCF767F80346002003210222FCF7F7FC0F
:1048C0000C26D7E20221002E3246084608BF0122FC
:1048D0008A4238BF10460EB18A4201D9A5F83E017E
:1048E000B9F1FF3F07DDB9F1000F18BF914240F267
:1048F000AB80012104E0012840F2A5804FF6FF7152
:104900000844A5F83E019FE00B2E40F07981B8F1F4
:10491000000F404618BF0320B9F1420F00F0578145
:10492000B9F1430F40F05B81FCF735FE43F23001F3
:10493000A0F8B41264E11020142685F8CC0221E11D
:10494000CDCCCC3D00002041000080BF07006500B9
:104950003201BF0095F8B40295F8B51200EB800063
:1049600001EB4000A0F5F070472800F37F8295F836
:10497000B71295F8B82201EB810102EB4101A1F5D4
:10498000F0716C2980F27282BAF80420C0EB00103A
:1049900001EB8000A5F8B222DAF80020A0F537601C
:1049A000C5F8AE22FBF7E4FF03462646002428465E
:1049B00006210022FCF738FD6C71ABE095F8CC02C3
:1049C000102840F05382264605F2B52100220EA899
:1049D000082A00F0898011F812306FF036043A2B63
:1049E00038BF6FF02F04234405EB420494F8B4421F
:1049F0003A2C28BF093443EA041383540132E7E711
:104A0000002900F190800A28CDE90584CDE9031A38
:104A100000F0F880072840F0128124264FF02A0881
:104A2000F3E0B9F5967F1ED129790020082940F0DE
:104A3000A38309214FF4967200232971CDE9000068
:104A400028460A214CE0012080B2FBF79AFF03467A
:104A5000002000210322FCF72AFCB5F83E01361A9B
:104A600018BF0D2606E268790C285FD1A9F1640110
:104A70000229C0F09A80B9F5FA7F00F0828140F2F5
:104A8000F511894540F08180264600247BE195F8A8
:104A9000CC12002085F8CD02002900F0B180013948
:104AA00085F8CC12C9B2294481F8B402A8E00020EC
:104AB000C5F8F001FFF778FB14E0D6482A21C5F8C5
:104AC000F0012846FDF782FD0CE04FF07E5395F88B
:104AD000840238B9002003210322CDE900002846D2
:104AE000FDF7B6FD1726C5E195F8D012DDE90E23D6
:104AF00005EBC101C1F88A32C1F8862200210023EA
:104B000095F8D022CDE9001028460721FDF7A0FD39
:104B1000052068713446ACE12978002900F0B680A0
:104B2000BD48BE49BFE000206871A2E129F0010143
:104B300064292AD10A2838D1A9F16400FCF74FFC76
:104B4000D0E703982D2808BF87F00047B8F1010F80
:104B500012DB0298DFF8601700EB400001EBC004A5
:104B60003846E168FBF7CCFE30B921693846FBF7DF
:104B7000E3FE002800F05C81012085F8CE02DDF81C
:104B800010A00826DDE9058474E1A9F16E0189B25F
:104B900003290AD8072808D109EB050090F80E125E
:104BA00081F0010180F80E129CE729F003017829B9
:104BB0007ED100F0FE00082840F08B8009EB050054
:104BC00090F8041281F0010180F804128AE7FCF7E2
:104BD000E2FC90F8B41280F8B51230210EE0A9F191
:104BE000300109290CD895F8CC12002900F00B816E
:104BF000FCF7D1FC90F8B51280F8B59280F8B412A9
:104C0000072637E120264FF0240805EB86004FF0F9
:104C1000000A00F5A474B04511D0E76F206839464A
:104C2000FBF798FE40B92846012132463B462760F3
:104C3000CDE900AAFDF70CFD04340136EBE7039A39
:104C4000022A0ADCD5F87C1205EB8200C0F870124B
:104C500000200F90D5F87C0201E000200F90D5F8DD
:104C600040120E9005EB8200DDE904A80023002429
:104C7000C0F82812D5F840020EA9CDE90001284657
:104C80000221FDF7E5FC6C71069CF2E0644E4FF4E6
:104C9000D817644C00FB07602146FFF7DFF9287A3C
:104CA000214600FB076011B0BDE8F04FFFF7D6B911
:104CB000A9F10A0080B202280BD895F86C02A9F17C
:104CC0000A01274685F86C120E1A18BF1726012410
:104CD00086E0A9F11400022877D3B9F1010F00F0A2
:104CE0004582B9F11E0F40F0538295F86E02032100
:104CF0000130B0FBF1F101EB4101401A85F86E0281
:104D00003AE20A2804D3A9F12D0001283FF678AF32
:104D100095F8CD0220B10020A5F8CC0285F8B402A8
:104D2000B9F12E0F12D0B9F12D0F16D19AF800005B
:104D30002D2840F0078295F8CC2205F2B521504687
:104D4000FBF7D6FC95F8CC0201380CE250462E2138
:104D5000FBF7FAF900287FF453AF1721062E08BF9E
:104D6000102195F8CC0281427FF64AAF411C85F8AC
:104D7000CC120AF80090002195F8CC020AF8001035
:104D80003EE7264601242878B5F98C140EAA07AB15
:104D9000FDF796FD34B1B5F98C140129A4BF013992
:104DA000A5F88C1440F2F5113446894508D1B5F9BF
:104DB0008C144A1C82423EBF88B20130A5F88C0494
:104DC00019481A49FFF74AF98CE695F86D02A9F1DE
:104DD0001401274685F86D120E1A18BF17260024F5
:104DE000B9F1010F05D0B9F11E0F05D195F86E028A
:104DF00007E095F86F0204E0002C00F0E68195F8DA
:104E00006C023C46B9E12844012185F8CC1280F8B7
:104E1000B592E2E640017E48010023003E011D00FC
:104E20000A00AD002C0120000C00280028018D0193
:104E3000E07D002800F0E581029E022E00F2D08184
:104E400005EBC600D0F8D8113846FBF759FDDDE96F
:104E500004A8069C50B9700005EB8000D0F8DC1166
:104E60003846FBF73FFD002840F0FA81012085F825
:104E7000CE0208262846FFF705FA834549D1F7B246
:104E8000132F13D80120E549B84008420ED095F8F9
:104E9000CE0284420AD195F8CF02804506D108A8F7
:104EA0005146FBF762F9002800F049816E79B01E87
:104EB000C0B208289ABFDFF8FC1351F820304FF039
:104EC000FF33172F00F2B7800120D449B8400842C1
:104ED00022D110F4403F41D00020B3FA83F1B9F160
:104EE000030FB8BF0120490901404FF04F0009FBF3
:104EF00000F2084618BF02F16E000A461EBF91225A
:104F00002D21C0F22101012B67D1B9F1030F69DD19
:104F10006EE0FFF749F912E1002100220020012E86
:104F200008BF17220B2E08BF1522012E08BF6020D4
:104F30000B2E08BF6220012E04BF40F21111C0F2F7
:104F400022010B2E04BF40F21311C0F24101062EC4
:104F500040F0F180DE4915226D20ECE0172F6AD178
:104F600029F0010C86F00A0009EB4902D34C42F209
:104F7000811E8CF0640151EA00074FF000004FF0F1
:104F8000000108BF04EB42104F22A9F16E0409FB97
:104F900002F8032C4FF00004B3FA83F238BF012467
:104FA0005209144018BFA8EB0E000022002F08BFC2
:104FB000CF22002C18BFC322002F04BF5221C0F201
:104FC0001C01002C1CBF6621C0F21B01012B38D133
:104FD00029F00303782B3AD041E0B9F1030F07DC45
:104FE000022B05D13620B949912209FB00F07F3010
:104FF0000024B9F1080FB8BF0124DD1EB5FA85F50C
:105000006D092C4009EB49141FBF04F17200F7220F
:105010003421C0F21D01B9F1020F00F38C80042B82
:1050200040F0898009EB8900AD21182201EBC00016
:105030004FF014117FE0002E48D000210020002204
:1050400079E029F00304782C09D1022B07D136200E
:105050009B4941F6CE0209FB00F0801AC322002EC4
:1050600069D12B78022B22D1A9F10A040026032C46
:1050700038BF01262C79651E84F00207B5FA85F544
:105080006D0935408CF014063E43B6FA86F6760973
:1050900035438C4D1EBF05F18D0174225E20B9F1A0
:1050A0001E0F01BF042C05F1940170225E2029F02F
:1050B0000304C82C08BF012B3DD17B487B49FEF778
:1050C000CDFF8149072240F2511034E02878122F99
:1050D0000CD1012813D00228AFD128790028ACD1F7
:1050E0007848742200F18D01B82024E0012814D101
:1050F0000C2F04D17849A22240F22B101BE0002291
:10510000744800210B2F08BF00F11A014FF0000076
:1051100004BF40F22F1032220DE000210D2F7FF44A
:105120008DAF03284FF000004FF0000203D1694912
:105130008C224FF4C77042EA0040FEF78FFF11B097
:10514000BDE8F08F95F8CC1216293FF659AD4A1CF0
:1051500005F2B5205146FBF7CBFA2D2085F8B402B5
:1051600095F8CC02013085F8CC0249E595F86F023C
:1051700080F0010085F86F021726C0B2FBF701FC32
:10518000034600201FFA89F20A21FCF790F871E625
:105190004FF6FC702746002400EA0900C8281DD1FC
:1051A00009EB49003E4905EBC000425C82F0010278
:1051B0004254D0B2FBF7E5FB0346284603214A469A
:1051C000FCF732F917263C4654E629F001003C462C
:1051D00014280CBF95F86D020020CEE71726FFE5D6
:1051E000A6F1200009281BD886F001012846FDF70A
:1051F0002DF80146F007039738461AD1FBF780FBDC
:1052000019E03846FBF7CFFBFBF7B2FB0146384607
:10521000FBF7A0FB00283FF4AFAC0DE680010800CF
:10522000DDE904A8069C2A2E1AD10320C5F8F071E6
:105230007AE4FBF781FB00283FF49EAC0DF1080AED
:1052400095F8D402DDE905849AE8C0040A2801D063
:10525000072805D1687105EB8600C0F8C47108E61F
:1052600005EB86003946022EC0F8487107D0012EA2
:1052700008D0029A0B4652B905F14C0004E005F142
:105280005C0001E005F15400029A0B460160002029
:105290000121FCF70CF895F8D40268716FE400BFA7
:1052A00010EEFFFF16DF0008070065003201BF00A7
:1052B000BCDA00083CD0000890EF000813DBFFFFC9
:1052C00066001B0034001D0032015B002D00210030
:1052D00015011E0028001800960023002DE9F04F4C
:1052E00087B0A3B38B46002931D481461FFA8BF0D7
:1052F000800904282BD89246002A28D41FFA8AF065
:1053000040090E2823D848469846FEF7BBFF0646BC
:10531000B9F8A4040025C0EBC0004400AC4212D090
:10532000D9F8A004415DB14218BF2F2909D147190E
:105330005A465346D7F80200D7F8061000F052FF3D
:1053400050B90E35EAE799F8710002280BD1002612
:10535000304607B0BDE8F08FB91C40460C22FBF781
:10536000C7F90126F4E799F805000C28EFD8DFE823
:1053700010F034004D0077008F00CC00F7001E01C4
:1053800048010D000D0092010602530200248027FF
:105390001F254FF06A090126B7F5AC7F00F069823E
:1053A0002B205946524692230097CDE90105112042
:1053B000CDE90304FCF762F80028D2D104F17800AB
:1053C00017215246C123CDE900790295FCF78DF8EB
:1053D000363701340028DFD0BAE7002507244FF420
:1053E000D9770126042D00F049824A2059465246B9
:1053F00023460097049501902920CDE90206FCF789
:105400003DF84E3401350028ECD0A1E700240325F7
:105410002C274FF05F0901260C2C00F06A82E1B2C4
:105420000FF6A830B1FBF5F1005D01FB07F29A32EF
:1054300000925A220192282202920722CDE90320EB
:10544000A1EB8100594652462044C0B200FB09F04E
:1054500000F11503FCF712F801340028DCD077E7DF
:105460000024AB2521274FF487790126032C00F077
:1054700061821020FCF79EF8CDE900590297CDE932
:105480000304FBF7FBFF283501340028EED05FE76B
:10549000D9F8F00100210027FBF740FA002840F07E
:1054A0008E8240F263204FF48B76C02117241F2593
:1054B00052461423CDE90016049040465946FBF7A6
:1054C000FBFE00287FF44DAF4FF41970E4215246E3
:1054D0001423CDE90254CDE900160490FCF773F8CB
:1054E00000287FF43EAF002009211F224FF48B7368
:1054F0004FF48474CDE90221CDE90043FBF708FFA6
:105500000646002818BF012622E705200321242291
:105510008C234524CDE90221CDE900430490FBF71B
:1055200010FFA023FDF744FA00287FF41AAF0024EF
:1055300072251D274FF034090126082C00F05D82EA
:10554000112059465246F723CDE900590297CDE97B
:105550000304FBF793FF213501340028EDD0F7E673
:105560000420032124228C234524CDE90221CDE906
:105570000043FBF7CDFE00287FF4F3AE002584271F
:1055800022244FF0B9090126052D00F03D82142098
:10559000594652466E23CDE900790294CDE90305C0
:1055A000FBF76CFF2F3701350028EDD0D0E6002443
:1055B000032523274FF014090126092C00F0D1817F
:1055C000E1B20FF6EC10B1FBF5F1005D01FB07F263
:1055D000B2320092342201921F2202920722CDE9B8
:1055E0000320A1EB8100594652462044C0EBC00085
:1055F00009EBC000C3B2FBF741FF01340028DCD047
:10560000A6E64FF00009972725242B2C00F0F08107
:105610002B20A7F128061F255946524692230190B8
:10562000112000960295CDE90309FBF727FF00281A
:105630007FF497AE6A2109F16E005246C1230096AD
:10564000CDE901151721FBF750FF00287FF489AE43
:10565000601E06261F216725524635230097CDE997
:105660000151CDE90360FBF7AEFF00287FF479AE6E
:105670001F2059465246C423CDE900750494CDE954
:105680000206FBF7FBFE02344F37012609F1010940
:105690000028BAD05CE664205626912117242025E4
:1056A0005246CD23CDE90016049040465946FBF7FB
:1056B00003FE00287FF455AE6520F1215246CD232C
:1056C000CDE90254CDE900160490FBF77CFF0028D9
:1056D0007FF447AE202406255F26B827FBF731FE6E
:1056E0003D23FBF726FF0494FDF762F900287FF4C1
:1056F00038AE212059465246C423FBF71AFF0490C6
:10570000FBF7BCFE00287FF42CAE222006242026C6
:105710005F274FF48C75594652463D23049040460E
:10572000CDE90057CDE90264FDF742F900287FF486
:1057300018AE4FF02309FBF704FEC423CDE9005750
:10574000CDE90264CDF81090FDF732F900287FF41E
:1057500008AE0920002489264FF4AE7759465246F8
:105760001523CDE902904046FBF70BFE00287FF49D
:10577000F8AD23210820CDE9007602918FE10020C9
:105780004FF013092B2567277A24594652463323B5
:1057900004904046CDE90047CDE90259FDF708F9EC
:1057A000012600287FF4D4ADFBF7CBFDA623CDE97D
:1057B0000047CDE902590496FDF7FAF800287FF476
:1057C000C7AD00240325AD274FF05E0901260C2C40
:1057D00000F05381E1B20FF2E470B1FBF5F1005D2E
:1057E00001EB810207EBC20200925A2201922422AD
:1057F00002920722CDE90320A1EB810059465246CF
:105800002044C0B200FB09F000F11503FBF736FE9F
:1058100001340028DBD09BE54FF4FA7017242025D3
:105820003E264FF4C977594652461023FBF706FF30
:1058300000287FF496AD40F2F51059465246F22307
:10584000CDE90076CDE902540490FBF717FE00285D
:105850007FF487AD0020042120228A234FF4C974ED
:10586000CDE90221CDE900430490FBF76AFD5B23FB
:105870001AE1FBF7BDFD4FF4B07702E10B200324E2
:105880001D2136224FF48173CDE90042CDE9021487
:10589000FBF7B3FD012600287FF45AAD0C20202130
:1058A0008A227023CDE90062CDE90214FBF7A5FD41
:1058B00000287FF44DAD99F80000002800F0038126
:1058C0000025012423270126032D00F0F3806A2000
:1058D000594652462346009701901D20029005200C
:1058E000CDE90305FBF7CAFD6A3401350028EBD08A
:1058F0002EE543200724262589264FF4A57759460F
:1059000052461523FBF79AFE00287FF42AAD422069
:1059100059465246A323CDE90076CDE902540490BE
:10592000FBF7ACFD00287FF41CADFBF761FD40F2F6
:105930007517A6E000240920232588264FF48F77C9
:10594000CDE902504046FBF735FEFBF71AFD002873
:105950007FF407AD0820CDE900760494CDE902502C
:1059600065E0302007242021A4224FF48E73CDE976
:105970000032CDE90214FBF7CBFC00287FF4F1AC38
:1059800000272B2532244FF02F090126062F52D055
:10599000790807F14100F523524601FB09F1B231C4
:1059A0008DE832000721CDE90310F807594608BFFA
:1059B000BE23FBF763FD01370028E7D0C8E40920C8
:1059C00023248825EA26FBF7F5FD0497CDE902405C
:1059D0004046CDE90065FCF7EBFF00287FF4C1AC41
:1059E00000200F21CDE90065CDE9024104901EE0C1
:1059F000FBF7FEFC4FF4B57743E000240920212596
:105A0000892640F281173CE04FF000090425212649
:105A1000882740F281144046FBF7CCFDFBF7FAFDE6
:105A2000FCF7C6FF00287FF49CACFBF7F3FDFBF707
:105A300088FCA22338E058200724202588264FF42C
:105A4000A177FBF7B7FDFBF7F9FD00287FF489ACE0
:105A50003C2059465246A223CDE90076CDE90254B6
:105A60000490FBF70BFD00287FF47BAC0024092099
:105A7000232588264FF4B37762E7FBF7B9FC40F2A1
:105A80005D17CDE90250FBF75CFC1523FBF779FCB1
:105A900000287FF466AC0820CDE900760295CDE9B8
:105AA0000304FBF74EFCA323FCF782FF00287FF4DE
:105AB00058AC4CE499F8000003283FF648ACDFE806
:105AC00000F0023E597299F8710078B140F26220FC
:105AD000172119224FF498738C24CDE90221CDE9C6
