:020000040800F2
:10000000E84A002001010008090100080B0100086E
:100010000D0100080F010008110100080000000098
:1000200000000000000000000000000013010008B4
:10003000150100080000000017010008D51600088F
:100040001B0100081B0100081B0100081B01000820
:100050001B0100081B0100081B0100081B01000810
:100060001B0100081B0100081B0100081B01000800
:100070001B0100081B0100081B0100081B010008F0
:100080001B0100081B0100081B0100081B010008E0
:100090001B0100081B0100081B0100081B010008D0
:1000A0001B0100081B0100081B0100081B010008C0
:1000B0001B0100081B0100081B0100081B010008B0
:1000C0001B0100081B0100081B0100081B010008A0
:1000D0001B010008811700081B0100081B01000814
:1000E0001B0100081B0100081B010008DFF80CD0F1
:1000F00000F05EFA004800475D540008E84A00201E
:100100000648804706480047FEE7FEE7FEE7FEE7B1
:10011000FEE7FEE7FEE7FEE7FEE7FEE7E116000882
:10012000ED00000830B505462A460B4612F8010BD3
:1001300013F8014B08B1A042F8D01CB1002802D03E
:100140006D1CF1E7284630BDCAB2401E10F8011FF1
:100150008A4202D00029F9D100207047421C10F8D1
:10016000011B0029FBD1801A704710B5002200E066
:10017000521C835C8C5CA34201D1002BF8D1D8B215
:10018000E1B2401A10BD30B504460020034600E03D
:100190005B1C934203D2E05CCD5C401BF8D030BDC9
:1001A000034611F8012B00F8012B002AF9D118465B
:1001B000704730B50B46014600202022012409E09B
:1001C00021FA02F59D4205D303FA02F5491B04FA10
:1001D00002F52844151EA2F10102F1DC30BD2DE923
:1001E000F05F0546002092469B46884606468146BB
:1001F00040241BE0284641464746224600F0F9F9D4
:1002000053465A46C01A914110D311461846224609
:1002100000F0E0F92D1A67EB01084F462246012055
:10022000002100F0D7F917EB00094E41201EA4F180
:100230000104DFDC484631462A464346BDE8F09FCC
:100240002DE9FE4F804681EA0300C00F0C46009066
:1002500021F0004123F00045B8EB0200A94105D28E
:100260004046214690461C460B46024623F000407D
:10027000104347D0270DC7F30A00C3F30A51029079
:10028000401A019040286BDAC3F3130040F4801B3E
:100290000098924620B10023D2EB030A63EB0B0BCC
:1002A00001985946C0F14002504600F093F90646C5
:1002B0000D4650465946019A00F0ABF910EB080084
:1002C0006141002487EA115284EAE7731A4340D05F
:1002D000009A62B3019A012A4FEA075215DC001B0B
:1002E00061EB02014FF0004202EA0752CDE9004201
:1002F000001C41F5801132462B4600F0ABF903B0EB
:10030000BDE8F08F40462146F9E7001B61EB020192
:10031000001C41F5801300185B412018A2F500175E
:1003200047EB030140EAD570B6196D4111E06D0845
:100330004FEA360645EAC0754FEA0752001B61EBEB
:100340000201001C41F5801149084FEA30000019F4
:10035000514132462B4603B0BDE8F04F00F06BB977
:100360000098012240000023D0EB020263EBE0730F
:10037000009821464FEAE074B8EB000061EB0401FD
:10038000E9E783F000435BE781F0004158E72DE99E
:10039000FE4F81EA030404F0004421F00041009480
:1003A0004FF0000B23F0004350EA01045ED052EA04
:1003B00003045BD0C3F30A54C1F30A552C44A4F2DE
:1003C000F3340194A0FB0254C1F3130141F48011F2
:1003D000C3F3130343F4801301FB024400FB034EF9
:1003E000840A970A44EA815447EA8357A4FB0768C2
:1003F00002958D0A05FB07854FEA932C04FB0C54EC
:100400002705029D4FEA065847EA1637B5EB08055F
:100410006EEB070C870E920E47EA811742EA8312B1
:10042000A7FB0201B6EB0B0164EB00042B0D43EAC2
:100430000C335E1844EB1C50DA465146E7FB0201D0
:10044000C5F313044FEA0B3343EA14534FEA043263
:10045000019C43EA0603A4F10C040294009CCDE93C
:1004600000B400F0F7F803B0BDE8F08F00200146BB
:10047000F9E72DE9F04D81EA030404F0004B21F087
:10048000004514464FF0000A23F0004150EA0502EF
:1004900020D054EA01021DD0C5F30A570246C5F325
:1004A0001303C1F31300C1F30A5640F4801543F45B
:1004B0008013A7EB0608101BD64608F2FD3873EB35
:1004C000050002D308F1010801E092185B41B8F180
:1004D000000F03DA00200146BDE8F08D00204FF444
:1004E0008011064684460EE0171B73EB050705D303
:1004F000121B63EB050306434CEA010C49084FEA63
:10050000300092185B4150EA0107EDD152EA030036
:1005100012D082EA040083EA0501084305D0101BCB
:10052000AB4106D20122002306E000224FF0004337
:1005300002E06FF0010253101AEB06004CEB085179
:1005400010EB0A0041EB0B01BDE8F04D00F073B871
:10055000C1F30A52C1F3130140F2FF3341F4801199
:100560009A4202DA00200146704740F233439A4231
:10057000A2F2334202DC524200F03BB800F02AB84B
:1005800030B5041E71F1000404DB4FF0004440421A
:1005900064EB0101141E73F1000405DB1C464FF0EF
:1005A0000043524263EB0403994208BF904230BDBE
:1005B000064C074D06E0E06840F0010394E80700B0
:1005C00098471034AC42F6D3FFF794FD40ED000895
:1005D00060ED0008202A04DB203A00FA02F1002036
:1005E00070479140C2F1200320FA03F31943904071
:1005F0007047202A04DB203A21FA02F000217047DC
:1006000021FA02F3D040C2F120029140084319467A
:100610007047202A06DBCB17203A41FA02F043EA62
:10062000E07306E041FA02F3D040C2F120029140AB
:1006300008431946704710B5141E73F1000408DA18
:10064000401C41F1000192185B411A4301D120F096
:10065000010010BD2DE9F04D92469B4611B1B1FA53
:1006600081F202E0B0FA80F220329046FFF7B2FF4A
:1006700004460F4640EA0A0041EA0B0153465A4637
:10068000084313D0114653EA010019D0C8F14002C3
:100690005046FFF7AEFF05460E46504659464246C5
:1006A000FFF798FF084305D0012004E020463946B3
:1006B000BDE8F08D0020054346EAE0762C43374341
:1006C0000A986305E40AA0EB08000022FD0A44EA48
:1006D00047540A3002D500200146E9E70105101908
:1006E0006941DDE9084500196941BDE8F04DA2E71F
:1006F00010B5431A934209D28318881803E010F802
:10070000011D03F8011D521EF9D210BD40EA01037C
:100710009B0703D009E008C9121F08C0042AFAD2B7
:1007200003E011F8013B00F8013B521EF9D210BD65
:10073000D2B201E000F8012B491EFBD27047002223
:10074000F6E710B513460A4604461946FFF7F0FFD0
:10075000204610BDF0B480EA0102D40F4200B2EB93
:10076000410F02D20246084611464A0042D0C30D4C
:10077000DDB2C1F3C752AD1A202D35DAC1F316012F
:1007800041F4000204B15242C5F1200602FA06F11A
:100790002A411044B3EBD05F23D0C4B1012DA0EBAC
:1007A000C35009DCF0BC4FF0004202EAC352DBB296
:1007B00000F5000000F040B9400000F1807000EB4F
:1007C000C350A0F1807040EAD170490009E04908A7
:1007D00041EAC071A0EBC35000F50000400800EBF7
:1007E000C350F0BC00F01FB96142012202EB41018D
:1007F000001BF6E7F0BC704781F00041AAE780F0EB
:100800000040A7E780EA010210B502F00043400073
:1008100022D04A001FD0010E01EB1261C0F3560036
:10082000C2F3560240F4000042F40002A0FB022092
:1008300000047F39140400D0401C50EA124001D457
:100840004000491EC2B20C0604EBD010401C400808
:10085000802A02D003E0002010BD20F00100002912
:1008600000DA0020184310BD30B480EA010202F023
:10087000004530F0004221F0004013D090B1C30D8C
:10088000D40DC2F31601C0F31600E41A41F40001BE
:1008900040F400027D34914201D3641C00E0490021
:1008A000002C02DA30BC002070474FF40000002317
:1008B000914201D3891A034340084FEA4101F7D11D
:1008C00051B1914202D14FF0004105E002D24FF008
:1008D000010101E06FF0010103EBC450284430BC7A
:1008E00000F0A1B8002801DBC0F10040002901DBC5
:1008F000C1F10041814201D80120704700207047BA
:10090000002801DBC0F10040002901DBC1F10041FA
:10091000814201D20120704700207047002801DB8E
:10092000C0F10040002901DBC1F10041814201D347
:100930000120704700207047002801DBC0F1004013
:10094000002901DBC1F10041814201D9012070473A
:1009500000207047002801DBC0F10040002901DBC6
:10096000C1F10041814201D1012070470020704750
:10097000C10F80EAE0700844CA079623002100F006
:100980005BB896230022114600F056B80EB540F22F
:10099000334102910021CDE900110A460B46FFF7D1
:1009A00059FE03B000BD00F0004220F00040C10D30
:1009B000C0F3160040F400007F2901DA00207047E0
:1009C000962903DCC1F19601C84001E096398840C0
:1009D000002AF4D04042704720F00040C10DC0F31F
:1009E000160040F400007F2901DA002070479629A4
:1009F00003DCC1F19601C8407047963988407047C2
:100A000000F0004230F000400AD0C10D01F56071E5
:100A1000C0F3160042EA0151C20840071143704773
:100A20000020014670470029A8BF7047401C4900BC
:100A300008BF20F00100704710B4B0FA80FC00FA43
:100A40000CF050EA010404BF10BC704749B1CCF16E
:100A5000200421FA04F411FA0CF118BF01212143FA
:100A60000843A3EB0C01CB1D4FEA00614FEA1020B5
:100A700042BF002010BC704700EBC3501044002957
:100A8000A4BF10BC7047401C490008BF20F0010003
:100A900010BC7047EFF3108072B601F00DF9FCE75F
:100AA000EB490130CA6ACB6A9B1A8342FBD3704779
:100AB0002DE9FC4F5E4A04234FF0000A4FF0010875
:100AC0004FF00009904208BF0323009300250C68F3
:100AD00034FA05F208BFBDE8FC8F08FA05FE14EAF7
:100AE0000E0F00F0A1804F68032F16D9112F26D0CA
:100AF000122F28D0524A974213D0524A974210D010
:100B0000514A97420DD0514A97420AD0504A9742D3
:100B100007D0504A974204D022E0DFE807F00218DD
:100B20001B1F8C6844B1012C14BFC0F814E0C0F83E
:100B300010E04FF0080913E04FF0040910E0CC6812
:100B400004F104090CE0CC6804F10C0908E0D1F8C8
:100B50000C9005E0CC6804F1080901E04FF00009B1
:100B600054460746082D4FF00F0228BF203C28BFEF
:100B700004373B6802FA04F609FA04F4B34323434A
:100B80003B60CB79DB064FD52C4A2A4C1368A4F581
:100B90007E7C43F00103136013682F4A03F00103C6
:100BA00090420193019B25F003035CF803B008D049
:100BB0002A4A904207D02A4A009E904208BF022645
:100BC00002E0002600E001260AF00C030F22AF0825
:100BD00002FA03F406FA03F3164E174A2BEA04044A
:100BE00023434CF827304F68FB02B36854BF23EA15
:100BF0000E0443EA0E04B460BB02136854BF23EA38
:100C00000E0443EA0E041460BB03736854BF23EA66
:100C10000E0443EA0E047460FB03336854BF23EAF6
:100C20000E0243EA0E0232600AF1040A01354EE771
:100C300000140140000401400C040140181002405F
:100C400000001110000012100000211000002210FE
:100C5000000031100000321000080140000C01407B
:100C60000010014010B50F494FF47A728968B1FB4A
:100C7000F2F14A1E0021B1EB126F11D10A4BF024A0
:100C80005A600A4A1470996007210F28196007D822
:100C90004FF0FF300F2100F00BF8BE48012101702A
:100CA00010BD00BF0000002010E000E023ED00E0D8
:100CB00010B5104A00F00F030F4C043B02442344CC
:100CC000002848BF03F10C0220684FF0FF34C0F346
:100CD0000220C31E80F0070038BF0023042828BF6D
:100CE000042004FA00F021EA00009840000110708E
:100CF00010BD00BF00E400E00CED00E0F8B5A64D2B
:100D000014460A4695F85110012919D16E68B6F5B6
:100D1000827F0BD1A96849B90421234685F8511077
:100D2000014601B0BDE8F04000F038B9DFF83CCE34
:100D3000DCF82C3030B12AB195F85070012F03D176
:100D40000220F8BD0120F8BD0427012185F851706B
:100D500000276F65EA8785F85010AA87A863AF86D9
:100D60002F63C5E91077EF86A9682A68B1F5004FAF
:100D700007D1116821F040011160116821F4804110
:100D800011601168490603D4116841F040011160F7
:100D9000E96829B32A68E98F31B39168C90705D199
:100DA000DCF82C10C91AA142F5D331E0D16820F843
:100DB000021BA863E98F0139E987ECE72A6891688B
:100DC000C90705D1DCF82C10C91AA14208D31FE0CD
:100DD000117B0170A86B0130A863E98F0139E987A5
:100DE000E98F0029EAD16E68B6F5827F18D1A8682C
:100DF000B0F5004F02D0B0F5806F11D12968B0F581
:100E0000806F0A6822F040020A6009D1012008E0E0
:100E1000002085F85000012085F851000320F8BD1E
:100E200080200021224600F003FC28B1686D40F0CC
:100E30002000686520206865012085F851000020A9
:100E400085F85000686D002818BF0120F8BD00BF6C
:100E500078000020F8B5E54DBC4C0B46E96A94F8E3
:100E60005160012E05D130B12BB194F85060012EA4
:100E700003D10220F8BD0120F8BD0326012784F824
:100E8000516000266665E38684F85070A38620636F
:100E9000A687A663C4E91066E687A7682668B7F543
:100EA000004F07D1376827F040073760376847F4AD
:100EB0008047376037687F0603D4376847F04007BC
:100EC0003760E768D4F804C0B7F5006F1ED1BCF1F5
:100ED000000F18BF012B06D130F8023BF3602063EE
:100EE000E38E013BE3862368E68E86B39E68B607F1
:100EF00004D4EE6A761A9642F6D343E030F8026BD9
:100F0000DE602063E68E013EE686EDE7BCF1000F71
:100F100018BF012B07D100783073206B013020639C
:100F2000E38E013BE3862368E68E86B19E68B607B2
:100F300004D4EE6A761A9642F6D323E0007818734A
:100F4000206B01302063E68E013EE686ECE710461A
:100F500000F054FB08B120206065A06838B900207B
:100F600000902068C168009180680090009801207E
:100F700084F85100002084F85000606D002818BFEC
:100F80000120F8BD002084F85000012084F85100B1
:100F90000320F8BD78000020A8170020F8B5DFF87E
:100FA0008CCD6A4E8E46DCF82C1096F85170012FCD
:100FB00007D120B1BEF1000F18BF002A0BD10125C7
:100FC0000EE07568B5F5827F09D1B46802253CB999
:100FD000042FEED004E096F85040012C02D10225F7
:100FE0002846F8BD012486F8504096F85140042C5C
:100FF0001CBF052486F8514000247465F287F286F0
:10100000C6F838E0B2873063C6E91044B286356866
:101010002C68640603D42C6844F040042C60F46807
:101020007768B4F5006F33D10FB1012A06D130F8DB
:10103000022BEA603063F28E013AF28632680125B3
:10104000F48E14B9F48F002C60D09468A4070BD5EB
:10105000F48E4CB1012D07D130F8024B0025D4603D
:101060003063F48E013CF4869468E4070AD0F48F70
:1010700044B1D46801252EF8024BC6F838E0F48F4D
:10108000013CF487DCF82C40641A9C42D8D335E04C
:101090000FB1012A07D100782873306B013030631B
:1010A000F08E0138F0860120F28E0AB9F28F6AB311
:1010B00032689468A4070DD5F48E5CB1012809D17B
:1010C000306B00781073306B01303063F08E013874
:1010D000F08600209468E4070BD0F48F4CB1B06B1D
:1010E000D2680270B06B0130B063F08F0138F087C6
:1010F0000120DCF82C20521A9A42D5D30020032577
:1011000086F85000012086F8510069E7184600F083
:1011100075FA28B1002086F85000202070654EE74F
:10112000B06838B9002000903068C16800918068CC
:1011300000900098012086F85100002086F85000A9
:10114000756D002D18BF01254AE700BFA8170020C4
:101150002DE9F0414A4E144696F84220202A1CBF41
:101160000220BDE8F081A8B3A1B34FF0000822220D
:10117000C6F8448086F84220424AC6F83080B185DD
:10118000D56AF18500F0C4F90CBF80460746F08DA2
:1011900018B3202000F041F908BB5FB1B068B0F58A
:1011A000805F0FD008B9306960B13068406800F0E6
:1011B0007F0009E03068002740686FF35F2028F85F
:1011C000020B03E03068406807F8010BF08D01382E
:1011D000F085DCE70120BDE8F081002000E003207D
:1011E000202186F84210BDE8F08100BF7800002081
:1011F0002DE9F041224E144696F84120202A1CBFCA
:101200000220BDE8F08130B34FF000082122C6F87B
:10121000448086F841201B4AB184D56AF18400F0ED
:1012200077F90CBF80460746F08CB8B1802000F0FB
:10123000F4F8F0B927B117F8010B3168486006E0FF
:1012400038F8021B306800276FF35F214160F08C93
:101250000138F084E8E70120BDE8F081402000F08B
:10126000DCF8202186F84110002818BF0320BDE8D3
:10127000F081202086F841000320BDE8F08100BF06
:1012800000180020780000202222C8234FF4C574E3
:10129000CDE90221CDE9004304904046594652462B
:1012A000702301F043BBCDE90000284601F08EB960
:1012B00020460AF03DBE41F20510772127220F2378
:1012C00000907047BDF98C03BDF98E13BDF99023D2
:1012D000BDF99233BDF99443BDF89653CDE900456D
:1012E00070470490404659465246082301F01EBB01
:1012F0000490404659465246142301F017BBCDE9ED
:101300000221CDE900430490404659465246072346
:1013100001F00CBB40465946524670470D900D985F
:10132000786940F004007861786900F004000D905D
:101330007047CDE90076049401F0F8BA406C086774
:10134000082081F86800062000F0B2BABDF8944386
:10135000BDF98C03BDF98E13BDF99023BDF992330D
:10136000009470470BFB00F000F1AF040B20214606
:101370000AF00EBC4FF4A072FFF7BAB94FF4A07296
:1013800028230AF021BB2046FFF73ABB40F2811127
:10139000892221237047012101FA00F0D5F840127B
:1013A0004840C5F840027047CDE900012046402181
:1013B00042460AF0BDBDCDE90001584618217047EC
:1013C0000024092023258926704723460092032202
:1013D000019200287047049040465946524601F059
:1013E000A5BA98F8700099F8701081427047009083
:1013F00042F62920019001200AF00CB94FF4D47173
:101400000E2248F66663CDE90006704720460AF0D2
:10141000D7BB0146204601F0C1B92946224600F05B
:1014200061B9CDE9004401F0D1B8D9F89000D8F8FD
:101430009010FFF78FBAD9F88C00D8F88C10FFF70E
:1014400089BAD9F88800D8F88810FFF783BA4046DF
:1014500001F06CBAD9F88400D8F88410FFF77ABA92
:10146000D9F88000D8F88010FFF774BAD9F87C005A
:10147000D8F87C10FFF76EBAD9F87800D8F8781051
:10148000FFF768BAD9F82C00D8F82C10FFF762BA29
:101490004FF4A1710D224EF69E73CDE90004704702
:1014A000D9F85C00D8F85C10FFF754BAD9F85400AA
:1014B000D8F85410FFF74EBAD9F84C00D8F84C10B1
:1014C000FFF748BA009014200AF0D2B8CDE9031013
:1014D0004046594601F02ABA009014200AF044BA56
:1014E0000090742003F08CBDC1F8220041F2E400AA
:1014F0004FF4927100907047842100F059BD20464E
:101500000AF016BD2046FFF77DB9062001F0AAB803
:10151000B168326981F4805151EA0207704741F2A3
:1015200005104121CD224FF4B6737047CDE9004735
:10153000CDE90265CDF81090704723460092022253
:101540000192002870470622062300906020404741
:10155000CDE90076CDE902457047B2F91600B2F93F
:101560001A10B2F91C2070471621092248F2E453E0
:10157000CDE900047047C0F8221041F20510704711
:101580000021284485F8CC12704700210022204712
:10159000691AB1FA81F14909CDE90001704759464C
:1015A0005246142370470B224EF69E7370474046F6
:1015B000594601F0BBB921464FF496721D2370477E
:1015C00021464FF495721923CDE900067047009427
:1015D00001908E200AF0F4BA002031463A46434684
:1015E00000904846704705B0BDE8F08F18212046AE
:1015F0000AF09EBCCDE9025401F098B970B50C46D2
:101600000546022001212A46234600F011F838B988
:10161000802000212A462346002600F009F828B140
:101620002B480326416D41F020014165304670BDD5
:10163000F8B5DE4CDFF898C0E56A5B1B9D189B4A45
:101640009268E66AC2F3CB326A430092DCF800305B
:101650009F6807403F1AB7FA87F77F098F4204BF98
:101660000020F8BDE76ABF1BAF4207D2009F009A77
:10167000013A0092002F08BF3D46E9E7586820F084
:10168000E0005860DCF80400B0F5827F0BD1DCF894
:101690000800B0F5004F02D0B0F5806F03D1186894
:1016A00020F040001860DCF82800B0F5005F07D19A
:1016B000186820F400501860186840F40050186052
:1016C00000208CF8500001208CF851000320F8BD58
:1016D000A8170020B548C16A0131C162704700BF38
:1016E0007047000078B53F4BB04D1C682668064037
:1016F000864204BF002078BDEE6A761A964284BF07
:10170000032078BDE6687607F0D54028EED0802823
:10171000ECD026683607E9D50020009020680090BC
:10172000606800900098186850E8030F196820F46A
:10173000907041E80302002AF5D1186850E8050FBF
:10174000196820F0010041E80502002AF5D1186B64
:10175000012809D1186850E8030F196820F010001B
:1017600041E80302002AF5D1202083F8420000203E
:10177000186383F8400008205864012078BD00BF3A
:1017800000F09ABA0D48BFF34F8F0D4A016801F47B
:10179000E06111430160BFF34F8F00BFFDE700BF61
:1017A0000648BFF34F8F064A016801F4E061114318
:1017B0000160BFF34F8F00BFFDE700BF0CED00E0FD
:1017C0000400FA05E0B58DF807000DF107000121CE
:1017D0006422FFF70DFD00B98CBD0248E249FFF716
:1017E000ADFD00BF001800202DE9F84306462D4846
:1017F0000C462D4F016841F080710160386840F05F
:10180000010038600320D7F804808DF80000300A0A
:101810008DF803608DF80200300C8DF80100002077
:10182000B0EB124F2ED1FB494FF4801015466422C5
:101830000860894668460421FFF70CFB20B9A9B26D
:101840002046C822FFF75AFA1021C9F8001079681B
:10185000A1EB0802C4498B688F6B3A448A634FF44A
:101860007A72B3FBF2F28B6BB3FBF2F2CA624A6B91
:101870002A444A6340B10A22CE6581F86820B0FA52
:1018800080F04009BDE8F883002EF8D1042DF6D38E
:101890000022042AF3D0A35C8D18013285F862304F
:1018A000F7E700BFFCED00E0001000E000000020C2
:1018B00082B0804620F004000FF2C00923A1DFF8B7
:1018C000F4B00128394808BF89466421C06B00EB99
:1018D000800001EB8006502101EB80073C2101EBE9
:1018E0008004282101EB800A5546B5F5F07F2AD205
:1018F000284600F007FD2E4A082051464FF2CA2321
:10190000D8472DA021464FF2CA2350F8282008209E
:10191000D847082039464A464AF6D753D8472D4A71
:10192000082031464AF6D753D847A648A9B24FF403
:10193000A072042300904FF4A0700190002000F0EA
:10194000FBF90435D1E7FFF7A5F800BFD09FD0A081
:10195000D09ED092D095D0A0D0ACD0A2D09520D09F
:101960009FD09ED094D09AD09BD0AED0A7D095D007
:101970009DD098D09520464C41534800D09ED091A0
:10198000D09DD09ED092D098D0A2D09520D0A0D07B
:1019900095D0A1D0A3D0A0D0A1D0AB20D0ADD09A6B
:1019A000D0A0D090D09DD090000000007800002002
:1019B0008EDF0008191E0008EBD6000830D700089B
:1019C00039E1000811E100088FDE0008CADD0008D7
:1019D000D3DE00085CE000082DE9F04F87B0DFF8A7
:1019E00088C183460628084628BF4FF0060B6429A5
:1019F00028BF6420DCF800E0F3450CD1DCF804409B
:101A0000A04202D107B0BDE8F08F632903D8041BC0
:101A100001D3052CF6D3554E00240027756BBB452A
:101A200006D025FA07F2013702F001021444F6E766
:101A3000012704EB840407FA0BF31D437563242587
:101A4000BEF1630718BF05EB8407382505EB840258
:101A5000BEF1630F08BF4FF4F07203926329B26BBB
:101A600094BF22EA03031343B363F6240125CCE9B0
:101A700000B02522ADF81A206422B0FBF2F242F049
:101A800030028DF817200A22B0FBF2F30A28B3FBCC
:101A9000F2F203FB04044FF0010002EB820244F077
:101AA0003004A3EB42028DF819400DF1170442F007
:101AB00030028DF8182038BF0220642938BF044452
:101AC000039887429ED23846049700F01BFC0820FA
:101AD000102127A24EF69E7300F09EF94FF0000AE7
:101AE0004FF00009B9F1070F2DD0706B05FA09F816
:101AF00010EA080F24D029A028214AF6D75350F81D
:101B000029200AEB8A0001EB80070820394600F003
:101B100083F929A2CB454EF69E7108BF2246B06BD1
:101B200010EA080025A018BF0246254808BF08464D
:101B300083B239464FF4887000F06EF90AF1010A59
:101B400009F10109CEE71F48049F4FF4A072042356
:101B5000C6F83CA000904FF4A070B9B201900020EC
:101B600000F0EAF80437ABE700000020780000201E
:101B7000D098D09DD098D0A6D098D090D09BD09817
:101B8000D097D090D0A6D098D0AF20D0A1D098D068
:101B9000A1D0A2D095D09CD0AB000000DBDF000824
:101BA000FED6000819D70008FCDE0008B1DE0008E8
:101BB0000AE0000810DD00082E2E2E004F4B00001A
:101BC000668EFFFFA42400201CB501468DF8070097
:101BD00020208DF80400080A8DF80600080C8DF806
:101BE00005000020B1F5941F13D36FF3143181B9B0
:101BF00000F080FDFFF789FC2E4C4FF4801004218B
:101C0000206001A809F049FC1020206000F072FD5E
:101C100001201CBD10080140B0F5941F05D3131816
:101C2000B3F5001F98BFFFF7DFBD0020704700002D
:101C30002DE9F84FB0F5941F05D30646104414461D
:101C4000B0F5001F02D90020BDE8F88F0D464FF413
:101C5000801AE8464FF0100B44B302208DF8036061
:101C60008DF80000300A8DF80200300C8DF801006C
:101C700000F040FDFFF749FC0E4804218146C0F802
:101C800000A0404609F009FCF0B2C0F58077284674
:101C9000A74228BF2746394609F0FFFBC9F800B024
:101CA000E41B3E443D4400F025FDD5E70120BDE89E
:101CB000F88F00BF1008014010B51B480068F8B14C
:101CC000016811F0280F1BD04068090705D017489C
:101CD000012141720021016310BDEFF3108181B138
:101CE0001249C0B212A3A0F150040A6BB4FA84F4F2
:101CF00064099B5C834208BF541C0C63042C0FD006
:101D000010BD0A49CA8C0B8D0132D2B29A4202BF71
:101D10000120487210BDCB8C064CE054CA8410BD23
:101D200000200863FFF72EFD001800207800002037
:101D300050434852501A00202DE9F043B1B0002A18
:101D400064D01D46002B61D00E46010A8DF8C100FB
:101D500010440DF1C0081446DDE938790422013839
:101D60008DF8C01041468DF8C300000A8DF8C200FE
:101D70002A2003F065F9300A414604228DF8C1603B
:101D80008DF8C000701901388DF8C300000A8DF875
:101D9000C2002B2003F054F91E4E4FF0004030607B
:101DA0004FF0005030602C2003F03EF94FF400500B
:101DB000B046306005FB04F06D46461E0020711CE5
:101DC0001BD037F8021B09BA090C29520230C0286F
:101DD00004D12846C02109F060FB00205EB1B6FBAB
:101DE000F4F101FB146100294FF0000108BFA9EBD9
:101DF000040107EB4107013EE1E718B181B26846F3
:101E000009F04BFB4FF40040C8F8000031B0BDE8CA
:101E1000F08300BF100C01402DE9FE4F1C468B469D
:101E200007461078D8B3C02808D3517802320292FE
:101E300001F03F0160F38A11084601E0013202928D
:101E4000184E0021352927D0174A32F81120904228
:101E500002D00C360131F5E74FF00009B9F10C0F53
:101E60001AD016F8098009EB0B054FF0000ABAF1F9
:101E7000080F0ED028FA0AF0C00707D007EB0A00B7
:101E8000294601220123009409F0F2FB0AF1010A1C
:101E9000EDE709F10109E1E7029A0837C1E7BDE87A
:101EA000FE8F00BFBECB000854CB00082DE9F843DD
:101EB0003B49884205D994480121C1650020BDE80D
:101EC000F883DFF8908804468709364ED8F860001A
:101ED00056F82020BA4203D1344901EB801059E072
:101EE0008C460025202D05D056F82500B8420FD08D
:101EF0000135F7E72C4A00250120202808D052F8A8
:101F0000253052F82010994238BF05460130F4E7D9
:101F1000D8F868000130C8F868000BD3F24A0020F6
:101F20000023202B03D042F823000133F9E70120DE
:101F3000C8F86800EC4941F8250056F82500B84279
:101F400023D0E84881680131816024F03F00ACEB88
:101F5000000101F10109B9F1400F28BF4FF040091C
:101F6000D8F8641031B111494A4601EB8511FFF7E9
:101F70003BFC40B901204946C8F85C000B4800EB27
:101F80008510FEF7DCFB46F825700848C8F860505D
:101F900000EB851004F03F01405CBDE8F88300BF12
:101FA000AC4F12002423002060010020880600208E
:101FB0002DE9FE4F894605460A2019461C469046E3
:101FC00009F0AAFC0C9F06460A20394609F0A4FC39
:101FD0003978DDF834B04FF0010A4346CDE9004AC4
:101FE00000295844314618BF01446FF001000A220D
:101FF00091FBF0F049464419FFF708FA387848B1E8
:1020000006EB0B0049460A224346CDE9007A2044FC
:1020100009F0D6FDBDE8FE8F2DE9FE4F0746C24808
:10202000DDE90C9A984615460E4648F66664007A35
:1020300060BB384631462A46434609F0C5FC28B302
:10204000384631462A46434609F0A2FD40F6A30031
:10205000BAF1000F4FF0030B31462A46434608BF42
:1020600041F20510CDE900B0384609F04DFB48F6C5
:102070006660BAF1000F31462A46434608BF43F274
:102080002920CDE900B0384609F014FD09202A4680
:102090004346BAF1000F04BF4EF69E74CFF6FF74AC
:1020A000A1B2CDE9009038460291314602F0A8FF76
:1020B000BDE8FE8F70B513489B4A00210024C37809
:1020C000117380F8371180F83411D3720F4A02EB84
:1020D00003120F4B182C0CD040CA00EB84050634B9
:1020E000C5F8C430A5F8C81003F5F073C5F8D4607E
:1020F000F0E70078012818BF70BDBDE8704000F01F
:102100004DBF00BFE00100207800002004D400088B
:10211000A41B0020B0B54FF6FF710C2241F2210341
:1021200072B10478013A81EA0421082434B10DB275
:10213000013C03EAD53585EA4101F7E70130EFE7D5
:1021400088B2B0BDB0B54FF6FF7241F2210371B154
:102150000478013982EA0422082434B115B2013C22
:1021600003EAD53585EA4202F7E70130EFE790B29E
:10217000B0BD000070B560B1094E05460024B4F54D
:10218000C07F08D0281900F06AFF30B13055013403
:10219000F5E7002401E04FF4C074204670BD00BF95
:1021A000A4380020022904D0012904D029B94C30D8
:1021B0000FE05C300DE054300BE0A1F12002092A61
:1021C00087BF00EB810000F5A47000EB820000F5F2
:1021D000117000687047000010B507A202290A4478
:1021E00012F8014C05D102F047FF002818BF01206A
:1021F00000E00020204410BD1F1C1F1E1F1E1F1FBB
:102200001E1F1E1F2DE9FF41CC4E344800244FF401
:10221000A0613466FEF793FA314834494FF0FF323B
:102220000023F465C6E91904E64884602E48202B93
:1022300005D040F8234041F823200133F7E7002080
:10224000002400F0ADFF68464FF01041102200F06E
:10225000AFFEF06D88BB26480099814228D19DF8D9
:102260000400012824D102982249884222D18846BC
:102270000398214988421DD1204C10254FF0FF378B
:10228000454540461DD0A80402D1284600F088FFED
:102290002846FFF70BFE4740082038B184EA570173
:1022A000FA0708BF790801380F46F6E70135E7E776
:1022B000022000E00320F0650024204604B0BDE8C1
:1022C000F081F06D0028F7D10D48874204D14046D7
:1022D00000F066FF0124F0E70420ECE7481000203E
:1022E000E9170008F40000206001002024230020EA
:1022F00050434831AD4F1200E698936E2083B8EDFD
:1023000019676C9180B5014600204FF4A072042338
:1023100009F0CCF889484FF0A071C0F81E104FF0BA
:10232000F071C0F8221080BD78000020FFF738FA65
:102330001422FEF75DBF00002DE9F04F87B07F4DFE
:102340001C4690F803E0B5F916B02E8BB5F91A705B
:10235000B5F91CC0B5F91E8006EB0B0390F90660B9
:102360003244067916449E42B8BF3346B5F924601C
:10237000B342A8BF334602935A45C8BF9346B5F946
:102380002260B345D8BFB34690F9056003900CEBCB
:10239000070006EB010ABA45C8BF57460AEB0E0113
:1023A0004745D8BF47468142B8BF0846B5F9201017
:1023B0008842A8BF084606970490874280F2BB80F7
:1023C0000298834580F2B7800398D84681780388C5
:1023D00001F07F0649B243EA064B594B00294FD41E
:1023E0000698049903EB0B070D1AA8EB0201A0EB6A
:1023F0000A0001900298804500F09D800398019AA0
:10240000C3460491069B0026CDF814B0C07801FBAA
:102410000028D04AFFF7A1F84FEA880AABEB00008A
:102420004FF0000B00FB0230401A464901EB400917
:102430005D451ED008EB0B00BBF1000F01D0C107BA
:1024400004D107EB600000F00AFE06460AF0040023
:1024500026FA00F010F00F0206D039F81B002146D2
:1024600004F0D6FE29F81B000BF1010B0AF1040A57
:10247000DEE70499DDF81480013108F10108B9E7BD
:10248000A8EB02004FF000090125002600FB0EF723
:10249000002F4DD02A48584400F0E1FD05EB101103
:1024A0000022B7EB101F00F00F060BF1010BA1EBA0
:1024B0000709C8BF7A1A1746C8BF4FF00009E7E7F7
:1024C000039D5746CDF81480E878504487422BDAB4
:1024D000B9F1000F0AD11A48584400F0C0FD01219B
:1024E00000F00F060BF1010B01EB1019C6B10698B5
:1024F000874215DB0498874212DA964A059BDFF87B
:102500004480FFF72AF8181A50433246401A2146F1
:102510003D1838F8150004F07BFE28F81500039DDF
:10252000A9F101090137CFE7DDF8148008F10108AE
:1025300002988045C4D107B0BDE8F08F7800002034
:1025400072A60290A42400207CB50446A0F8D21202
:10255000407901260D46667184F8D4022046FFF7C3
:1025600021FEFEF74DFACDE900010A4905EB4500D1
:1025700004F52D75084A01EBC0001821C37D2846DB
:1025800009F0D6FC2846FDF7E9FDA4F8CD6284F8F1
:10259000CC027CBD00E8000801D8000810B5094A4B
:1025A0005369102B03D1D0690130D06110BD064CA6
:1025B00024F8330004EBC30000240133448053614A
:1025C000416010BDF4000020D01900202DE9F04139
:1025D000D0F85844002504F1010EDDE906C41CB111
:1025E000D4F80080676802E04FF00008002790F8F8
:1025F000714480F85D5490F87054A0F85E2480F81F
:102600005C14C0F858E4C0F86034C0F864C4C0F882
:102610006884C0F86C74102C0AD16C1C04F00F058F
:10262000D0F8744480F870540134C0F874440F2416
:10263000661C2C4404F00F0480F8716404EB44041D
:1026400000EBC400A0F8DE220022C0E9B83CC0E9DB
:10265000BA8780F8DC12C0F8D8E280F8DD22BDE845
:10266000F08100001CB53C4C4FF4801121608DF8C6
:1026700007000DF10700012108F00FFF1020206076
:102680001CBD00BF1CB59F200190AB20FFF7EAFFE7
:102690000120FEF705FA304C4FF480106946042201
:1026A0006423206001A8FEF779FC10212160C8B9DD
:1026B0009DF802109DF801009DF80320090241EAEF
:1026C0000040811825488165816D29B1816D6FF0C9
:1026D0007F42914218BF1CBD0B2180F86810052075
:1026E000FFF7E6F81D480A2180F868100120FFF77F
:1026F000DFF800BF2DE9F84F1648174E174C4FF47E
:1027000080190DF1030A0DF1020B102540F6B938BE
:10271000C76A05208DF8030050460121C6F80090D5
:1027200008F0BBFE584601216422FEF7E7FA70B9B3
:102730009DF80200074984F860003560C96AC91B2A
:10274000414504D2C00708BFBDE8F88FE4E7FEF7B3
:10275000A1F900BF7800002010080140000000200F
:10276000F0B50D4C002918BF01214FF47A730025F4
:102770002246B02D04BF1046F0BD6619B7798F42CE
:1027800007D1675D3F1A48BF7F429F42BCBF3246B8
:102790003B460835EDE700BF7CCA0008B0B5A1F1A3
:1027A00020035F2B0CD3A1F582621F2A02D8A1F56A
:1027B0006C7305E0A1F58662202A2ED2A1F2AF3318
:1027C000828893422AD21A4C34F813408C4225D185
:1027D000934206D100218A4205D001312029FAD145
:1027E0001F23934201D10020B0BD4088114A1844F4
:1027F00000F07F01451C01EB810102EB410432F83E
:1028000011108D4207D00C49082201EBC001A01C19
:1028100000F0CEFB2580A01CB0BD8288044C0023B4
:102820009A42D7D034F813508D42D1D00133F7E714
:10283000FCC8000848100020722202902DE9F04FD9
:1028400085B003914FF0000BC1B202930192364D57
:102850004FF000094FF00008C3F800B0C2F800B014
:10286000042928BF5846C7B221A050F8276000208D
:102870000490B0452ED24FF00C0A4446B44209D21F
:102880003846214600F03CF8287818B10AF10F0AC2
:102890000134F3E7B9F1000F14D009EB0A00B0F5E9
:1028A000917F11D90398834505D10198049901605E
:1028B0000298C0F800800BF1010B4FF00009CDF831
:1028C000108001E04FF00009B44238BF0134D14418
:1028D000A046CEE70398834504D10198049901608E
:1028E000029806600BF1010005B0BDE8F08F00BF53
:1028F00022000000250000001F0000001E00000054
:10290000074A084B00EB800002EBC00203EB4010CB
:1029100050F82100525C00F11041034800F048BB20
:10292000D2CE000874CF000828170020F8B517464B
:102930000A4604460898BDF81C1041EA004506996D
:1029400098B23B4640EA01462946304602F05AFA20
:1029500038B1DDE9091065602660608101202172CF
:10296000F8BD0020F8BD00002DE9F84F002867D021
:102970008146DFF8200499F800200178114318D12E
:1029800099F802100024022914D18178022911D16A
:10299000417899F801208A420BD1417999F80520B4
:1029A0008A4206D1007A99F808100C1A18BF01243F
:1029B00000E00024484600F05FFBDFF8D8830646BD
:1029C000404600F059FB864200D0CCB398F80C008A
:1029D00099F80C10814233D198F8000030B3FEF71B
:1029E0006BFDE0B1FEF762FDC8B1FEF759FDB0B175
:1029F00098F8740099F87410814210D109F16400BC
:102A000008F164010C22FDF7BEFB40B9FEF7E9FCBA
:102A100005D198F8080099F80810814222D057484B
:102A2000574900F015FA98F80000D8B9FEF7D9FC1C
:102A30000AD198F80A0099F80A1081420ED111E0E3
:102A4000BDE8F84F00F0AABAD048D14900F000FA2A
:102A500098F8000030B9FEF7C4FCEAD0CE48CF4960
:102A600000F0F6F9D8F81C10D9F81C0008F0AEFCFC
:102A700018B1CB48CB4900F0EBF998F800000028DA
:102A800040F0328198F80E0099F80E10814207D17B
:102A900009F10F0008F10F010C22FDF774FB18B1CA
:102AA000C148C24900F0D4F9D9F82400D8F824105C
:102AB000FDF750FF30B1D9F82800D8F82810FDF7FD
:102AC00049FF18B9B848BA4900F0C2F9D9F830003E
:102AD000D8F83010FDF73EFF18B9B648B64900F0F7
:102AE000B7F9D9F83400D8F83410FDF733FF18B926
:102AF000B248B34900F0ACF9FEF7C4FC38B9B148AC
:102B0000B14900F0A5F9B148B14900F0A1F9FEF7CB
:102B1000D3FC30B1D9F85000D8F85010FDF71AFFA7
:102B200018B9AC48AC4900F093F9AD48AB4E08F188
:102B3000640509F1640700244FF0010A8346032C61
:102B400020D099F8742098F874100AFA04F04A40DA
:102B50000240120609D03046594600F079F906F5D0
:102B6000D816043504370134E9E70842F7D038684D
:102B70002968FDF7EFFE0028EDD0F0E70100230003
:102B80003E011E00FEF792FC30B1D9F85800D8F88B
:102B90005810FDF7DFFE18B992488F4900F058F938
:102BA000FEF77EFC30B1D9F86000D8F86010FDF770
:102BB000D1FE18B98C48884900F04AF999F8080004
:102BC00098F8081088420FD0884C4FF4D815884EDA
:102BD00000FB0540314600F03BF998F8080031460B
:102BE00000FB054000F034F998F835010F280FD0AC
:102BF000FEF742FC40B1FEF739FC28B1FEF730FC8D
:102C000010B1FEF73FFC18B97A487B4900F020F973
:102C100098F836010F280FD0FEF71CFC40B1FEF7E4
:102C200010FC28B1FEF707FC10B1FEF7FEFB18B947
:102C30007248734900F00CF9FEF71EFC18B9714890
:102C4000714900F005F9FEF711FC18B96F486E499B
:102C500000F0FEF8FEF704FC18B96D486A4900F070
:102C6000F7F8FEF7F7FB18B96A486B4900F0F0F87F
:102C7000FEF7E7FB18B96948674900F0E9F8FEF785
:102C8000DAFB18B96648644900F0E2F8FEF7CDFBBC
:102C900018B96448604900F0DBF8D9F83800D8F872
:102CA0003810FDF757FED8B1D9F83C00D8F83C10E1
:102CB000FDF750FEA0B1D9F84000D8F84010FDF75C
:102CC00049FE68B1D9F84400D8F84410FDF742FE37
:102CD00030B1D9F84800D8F84810FDF73BFE18B9D4
:102CE0005148524900F0B4F8D8F8C010D9F8C000E3
:102CF00008F06CFB18B14E484E4900F0A9F80020CE
:102D000000F11804782C2DD008EB000509EB000623
:102D1000D5F8C410D6F8C40088421BD1B5F8C80055
:102D2000B6F8C810814215D195F8D00096F8D010A9
:102D300081420FD1D5F8D410D6F8D40008F046FB64
:102D400040B9D5F8D810D6F8D80008F03FFB0028D5
:102D50002046D5D03848394900F07AF83848394902
:102D600000F076F8D8F83801D9F83811814207D147
:102D7000B8F83C01B9F83C11814208BFBDE8F88FB2
:102D800031483249BDE8F84F00F062B80A00AF00A0
:102D90002C015100E00100200E014100210037000C
:102DA000000101003A002100120031002301570008
:102DB0002F001C00740031002900100079005A0017
:102DC0001E001500A8003100280010003E009501EB
:102DD000320013007700B100BF0019008B00B10072
:102DE0004F0019007700CC007700E7000A00AD0023
:102DF0002C0120000E0024018A008400A900240177
:102E0000890084000E002E018C0018000E00540171
:102E10000E007A01A8002E018B001800A8004F01B7
:102E2000A8006F01A8008F013E006900F6001F0096
:102E300008005B0030011200070065003201BC0091
:102E40000700510132015B0007005C0032015101B3
:102E50002DE9F04F85B0044680B28209042A02D8D9
:102E6000620D0E2A01D9002513E0220C02EB11435A
:102E700089B2B3F5F07F084428BF4FF4F073991A74
:102E8000B0F5A07F28BF4FF4A070001B80B240EACD
:102E90000145B5F5803F7DD3A8B200287AD06849B6
:102EA000DFF8F4B04FF0000AC86C91F801800130EF
:102EB000C8645FFA88F05FFA8AF1814255D20BEB61
:102EC000C1095BF8317000952346D9F8046003A866
:102ED0003946324601F0CDFFA2B2A8B2BBB281188A
:102EE00002318B4222D8B1B20B4402339A421DD830
:102EF0004FEA154C3B0C0CEB14420232934215D8AE
:102F000003EB1642230C023293420FD84FEA164EBF
:102F100000FB0CF0BDF81030BDF812200EFB0100D4
:102F20005A4300EB8000B2EB900F02D90AF1010A7C
:102F3000BFE7009501A839463246234601F099FFC4
:102F40003F48A8F10108DDE901454FF0000A80F88B
:102F500001805FFA88F05BF830100BEBC00040682E
:102F6000C9F80010C9F80400A3E7172809D8344AA3
:102F70004BF8304008F101010BEBC0004560517087
:102F800008E00A482E49CBF804000020CBF80000E6
:102F900001204870FEF727BB140F002028480021AD
:102FA000417002490020FFF753BF00BF4001E0011C
:102FB0002DE9F84F93468246B1F1104F2ED3080EFB
:102FC00090282BD801F1E0461C49DFF87480DFF827
:102FD0007490BBF1000F08BFBDE8F88F06F03F0505
:102FE000C5F140075F4528BF5F468E421CD8881B4D
:102FF0000130874218D830460C46FEF757FFD8F804
:1030000060003A4609EB801041195046FDF770FB0D
:103010002146ABEB070B3E44BA44DAE750465A462A
:10302000BDE8F84FFDF764BB01205946C8F85C00C5
:103030005046FDF784FBBDE8F88F00BFAC4F12008F
:103040007800002088060020B0B5044600F007F89C
:103050000546601C00F003F845EA0020B0BDB0F161
:10306000104F06D3010E902903D800F1E040FEF77F
:103070001DBF00787047000088B181792F290FD3D8
:1030800041794A1E0B2A0DD80321DFE802F0090618
:103090001E20222426282A2C2E30022100E01A216C
:1030A000C8B270470178032929D001292ED0002900
:1030B0003CD18278052A4ED81921DFE802F00304BA
:1030C000434C5355ECE71621EAE70121E8E70821D4
:1030D000E6E70921E4E70721E2E70421E0E706212A
:1030E000DEE70521DCE70021DAE70A21D8E70078EE
:1030F00004282FBF1321C0002349C140D0E7B0F8F6
:103100003E012421012888BF2521C9E7C17805296E
:1031100003D21D22CA40D20711D1407811210228C2
:1031200008BF1021012808BF0F21B9E70079013835
:10313000C0B20B283ABF17A1095C2E21B0E713A03B
:10314000415CADE7007A1A21022808BF1E21012840
:1031500008BF1D21A4E7417801290DD002290DD116
:1031600023219DE71B219BE790F91B001921B0F15A
:10317000FF3FC8BF182193E7202191E7C07A2121A2
:10318000002808BF1C218BE7131215140E0E0D0B1F
:103190000C0000002B2C2D2A292827262C2D2D0051
:1031A000642148430249B0FBF1F10420FEF714BC4E
:1031B000AD4F12002DE9F04F91B091460E460546F5
:1031C000FFF75AFF83462F2005F52D770DF1200CD0
:1031D000A8719FCFACE89F00701E162800F2B3863E
:1031E00095F8CF8295F8CE4205F52D7ADFE810F0FC
:1031F000310045005E007200770089009800C3002E
:103200002401320148015701750187018F01170020
:103210001700A001BC01CB01F00100020D02B9F1C1
:10322000000F00F19086B9F11F0F00F28C866879CB
:103230000238C0B2082800F286861A2121FA00F06E
:10324000C00740F080861FFA89F0FEF7A4F800F06E
:1032500015BDB9F1000F00F17686B9F1030F00F248
:103260007286002085F8009000214A46002368718C
:10327000FEF719F8012600F001BDB9F1000F00F1C9
:103280006286B9F10B0F00F25E8685F80490FFF7B5
:1032900085FE002001214A460023CDE90010284682
:1032A0000021FFF793F9022600F0E8BCB9F1010F05
:1032B000C0F24986B9F10C0F00F2458604BF002028
:1032C000A5F88C045FFA89F1284603F065FF032610
:1032D00000F0D4BC00200426687100F0CFBCB9F126
:1032E000000F00F13086B9F1020F00F22C866979E7
:1032F000287A85F80890002900F01283052600F04E
:10330000BDBCB9F1000F00F11E86B9F1370F00F214
:103310001A8628464946FFF717F9062600F0AEBC84
:103320006E79002085F8CE02012E18BF062E40F0DF
:10333000EF81B9F1580F00F0B481B9F1430F08BF24
:10334000012E00F0AE81B9F13C0F00F0A482B9F17A
:10335000420F08BF012E00F09E82A9F13000062E18
:1033600040F0D3830A28C0F0D783A9F14100062892
:1033700080F04A83D0E36879811EC9B208299ABFD8
:10338000DFF8382D52F821104FF0FF310B2800F0F4
:10339000E581062800F01682012840F0358295F874
:1033A000B4020694CDE904A84FF42D7A4FF07E566E
:1033B0004FF0000803902D2808BF40F2B52AB5F859
:1033C000D20200270290002015F80A402E2C1CD0B3
:1033D000002C00F0BA82302CC0F0D282392C00F2DE
:1033E000CF8208F10108B8B1D7493046FDF70AFA93
:1033F0000646A4F13000FDF7BBFA3146FDF702FAAC
:103400003946FDF7A7F9074602E0002840F0B882E8
:1034100001200AF1010AD7E7A4F13000FDF7A8FA6C
:10342000394607460846C949FDF7ECF93946FDF724
:1034300091F907460020ECE76979012940F02A81DB
:10344000B5F8D2022A2804BFC148C5F8F00195F8A2
:10345000D40223E1B9F1000F00F17585B9F1040F31
:1034600000F27185484685F80390FDF781FA03461E
:10347000002003210022FDF716FF0A2600F0FEBB04
:10348000D5F88072DFF8300C00210A2900F0D880CE
:1034900050F82120BA4280F0D4800131F5E7B5F828
:1034A000C80018B1AB48AC49FFF7D2FC95F88402CC
:1034B00080F00100010685F8840200F0F880002108
:1034C00005F1C802002385F8371185F83411602B07
:1034D00000F0F180D1521833F9E7D5F83801B5F88A
:1034E0003E61002800F0F280B5F83C01072180B26F
:1034F0000630B0FBF1F1002908BF0121E7E0002010
:10350000042100220023FDF7CEFE0E26B6E36879E3
:10351000032840F01885D5F8F031264600242846C7
:1035200005210022FDF77DFF6C7134460F26A5E3CF
:10353000B9F1000F00F10785B9F1020F00F2038520
:1035400027466C78484685F80190FDF711FA034646
:10355000002002210A22FDF7A6FE5FFA89F0261A52
:103560003C4618BF122689E3002085F8CC02B9F149
:10357000000F484618BF0120B8EB000685F8CF02BF
:1035800018BF13267AE3B9F1000F00F1DC84B9F11A
:10359000040F00F2D8840120CDE90584DFF80C8BFC
:1035A0000026574685F8D092A5F8CD02062068710E
:1035B00005EBC90000F28624082E00F0C080A35D50
:1035C00038460321424608F0B3FC02370136F3E7E0
:1035D0002879062804D1002085F885020720287163
:1035E0000020082100220023FDF75DFE152645E39B
:1035F0002879072804BF062028710020092100220D
:103600000023FDF750FE162638E3A9F262200B28AE
:1036100000F20B814E4BDFE810F00C004E0154011C
:103620002A012A012A012A012A012A012A015E010E
:103630005C0128460321C5F8F03103F0ADFD55E1EA
:103640000A210026002200230A2938BF0122B9F1ED
:10365000000F48BF01231A401346002918BF4FF03E
:10366000FF33B9F1000FD8BF1346194450F82100B9
:10367000C5F88002FDF785F903462846032101229B
:10368000CDE90066FEF7A2FFD5F88002874218BF99
:103690000B26F3E20020062908BF052068710926E1
:1036A000ECE20020A5F8CC0285F8B402ACE195F874
:1036B000371185F83411C0B2FDF763F903460020D5
:1036C00003210222FDF7EFFD0C26D7E20221002E96
:1036D0003246084608BF01228A4238BF10460EB162
:1036E0008A4201D9A5F83E01B9F1FF3F07DDB9F1E2
:1036F000000F18BF914240F2AB80012104E0012885
:1037000040F2A5804FF6FF710844A5F83E019FE006
:103710000B2E40F07981B8F1000F404618BF03200E
:10372000B9F1420F00F05781B9F1430F40F05B81CE
:10373000FDF726FF43F23001A0F8B41264E1102037
:10374000142685F8CC0221E1CDCCCC3D00002041EF
:10375000000080BF070065003201BF0095F8B40289
:1037600095F8B51200EB800001EB4000A0F5F07079
:10377000472800F37F8295F8B71295F8B82201EB3D
:10378000810102EB4101A1F5F0716C2980F2728296
:10379000BAF80420C0EB001001EB8000A5F8B222BB
:1037A000DAF80020A0F53760C5F8AE22FDF7E0F8A2
:1037B000034626460024284606210022FDF731FE56
:1037C0006C71ABE095F8CC02102840F0538226468D
:1037D00005F2B52100220EA8082A00F0898011F810
:1037E00012306FF036043A2B38BF6FF02F042344A9
:1037F00005EB420494F8B4423A2C28BF093443EA5A
:10380000041383540132E7E7002900F190800A286D
:10381000CDE90584CDE9031A00F0F880072840F0CF
:10382000128124264FF02A08F3E0B9F5967F1ED1C5
:1038300029790020082940F0A38309214FF49672CA
:1038400000232971CDE9000028460A214CE001201F
:1038500080B2FDF796F80346002000210322FDF711
:1038600022FDB5F83E01361A18BF0D2606E268792A
:103870000C285FD1A9F164010229C0F09A80B9F542
:10388000FA7F00F0828140F2F511894540F0818095
:10389000264600247BE195F8CC12002085F8CD0265
:1038A000002900F0B180013985F8CC12C9B2294451
:1038B00081F8B402A8E00020C5F8F001FFF76EFB24
:1038C00014E0D6482A21C5F8F0012846FEF73CFE50
:1038D0000CE04FF07E5395F8840238B900200321A4
:1038E0000322CDE900002846FEF770FE1726C5E149
:1038F00095F8D012DDE90E2305EBC101C1F88A323B
:10390000C1F886220021002395F8D022CDE90010CD
:1039100028460721FEF75AFE052068713446ACE1BF
:103920002978002900F0B680BD48BE49BFE00020DC
:103930006871A2E129F0010164292AD10A2838D14D
:10394000A9F16400FDF727FDD0E703982D2808BFF3
:1039500087F00047B8F1010F12DB0298DFF860171B
:1039600000EB400001EBC0043846E168FCF7C8FFFB
:1039700030B921693846FCF7DFFF002800F05C8190
:10398000012085F8CE02DDF810A00826DDE90584C7
:1039900074E1A9F16E0189B203290AD8072808D178
:1039A00009EB050090F80E1281F0010180F80E126B
:1039B0009CE729F0030178297ED100F0FE00082859
:1039C00040F08B8009EB050090F8041281F00101B2
:1039D00080F804128AE7FDF7D3FD90F8B41280F85E
:1039E000B51230210EE0A9F1300109290CD895F863
:1039F000CC12002900F00B81FDF7C2FD90F8B51242
:103A000080F8B59280F8B412072637E120264FF0EF
:103A1000240805EB86004FF0000A00F5A474B045B9
:103A200011D0E76F20683946FCF794FF40B928466B
:103A3000012132463B462760CDE900AAFEF7C6FDCC
:103A400004340136EBE7039A022A0ADCD5F87C122B
:103A500005EB8200C0F8701200200F90D5F87C02B0
:103A600001E000200F90D5F840120E9005EB820087
:103A7000DDE904A800230024C0F82812D5F840028C
:103A80000EA9CDE9000128460221FEF79FFD6C71C9
:103A9000069CF2E0644E4FF4D817644C00FB0760BC
:103AA0002146FFF7D5F9287A214600FB076011B0BF
:103AB000BDE8F04FFFF7CCB9A9F10A0080B20228A7
:103AC0000BD895F86C02A9F10A01274685F86C120B
:103AD0000E1A18BF1726012486E0A9F11400022847
:103AE00077D3B9F1010F00F04582B9F11E0F40F014
:103AF000538295F86E0203210130B0FBF1F101EB26
:103B00004101401A85F86E023AE20A2804D3A9F16D
:103B10002D0001283FF678AF95F8CD0220B10020A6
:103B2000A5F8CC0285F8B402B9F12E0F12D0B9F184
:103B30002D0F16D19AF800002D2840F0078295F835
:103B4000CC2205F2B5215046FCF7D2FD95F8CC0207
:103B500001380CE250462E21FCF7F6FA00287FF4DB
:103B600053AF1721062E08BF102195F8CC028142D1
:103B70007FF64AAF411C85F8CC120AF8009000216C
:103B800095F8CC020AF800103EE726460124287872
:103B9000B5F98C140EAA07ABFEF750FE34B1B5F997
:103BA0008C140129A4BF0139A5F88C1440F2F51139
:103BB0003446894508D1B5F98C144A1C82423EBF6F
:103BC00088B20130A5F88C0419481A49FFF740F96A
:103BD0008CE695F86D02A9F11401274685F86D125F
:103BE0000E1A18BF17260024B9F1010F05D0B9F13C
:103BF0001E0F05D195F86E0207E095F86F0204E0FC
:103C0000002C00F0E68195F86C023C46B9E12844AE
:103C1000012185F8CC1280F8B592E2E640017E4899
:103C2000010023003E011D000A00AD002C01200010
:103C30000C00280028018D01E07D002800F0E581BE
:103C4000029E022E00F2D08105EBC600D0F8D811FA
:103C50003846FCF755FEDDE904A8069C50B9700013
:103C600005EB8000D0F8DC113846FCF73BFE00285D
:103C700040F0FA81012085F8CE0208262846FFF799
:103C8000FBF9834549D1F7B2132F13D80120E54939
:103C9000B84008420ED095F8CE0284420AD195F879
:103CA000CF02804506D108A85146FCF75EFA0028ED
:103CB00000F049816E79B01EC0B208289ABFDFF8C3
:103CC000FC1351F820304FF0FF33172F00F2B7806C
:103CD0000120D449B840084222D110F4403F41D0DD
:103CE0000020B3FA83F1B9F1030FB8BF01204909ED
:103CF00001404FF04F0009FB00F2084618BF02F1E7
:103D00006E000A461EBF91222D21C0F22101012B17
:103D100067D1B9F1030F69DD6EE0FFF73FF912E1FA
:103D2000002100220020012E08BF17220B2E08BF01
:103D30001522012E08BF60200B2E08BF6220012E25
:103D400004BF40F21111C0F222010B2E04BF40F259
:103D50001311C0F24101062E40F0F180DE49152218
:103D60006D20ECE0172F6AD129F0010C86F00A00D3
:103D700009EB4902D34C42F2811E8CF0640151EAF6
:103D800000074FF000004FF0000108BF04EB4210A5
:103D90004F22A9F16E0409FB02F8032C4FF0000436
:103DA000B3FA83F238BF01245209144018BFA8EBBC
:103DB0000E000022002F08BFCF22002C18BFC32204
:103DC000002F04BF5221C0F21C01002C1CBF662131
:103DD000C0F21B01012B38D129F00303782B3AD014
:103DE00041E0B9F1030F07DC022B05D13620B949B8
:103DF000912209FB00F07F300024B9F1080FB8BF11
:103E00000124DD1EB5FA85F56D092C4009EB491436
:103E10001FBF04F17200F7223421C0F21D01B9F175
:103E2000020F00F38C80042B40F0898009EB89009D
:103E3000AD21182201EBC0004FF014117FE0002EDD
:103E400048D000210020002279E029F00304782CDA
:103E500009D1022B07D136209B4941F6CE0209FB3E
:103E600000F0801AC322002E69D12B78022B22D1B8
:103E7000A9F10A040026032C38BF01262C79651EFF
:103E800084F00207B5FA85F56D0935408CF014060B
:103E90003E43B6FA86F6760935438C4D1EBF05F1D2
:103EA0008D0174225E20B9F11E0F01BF042C05F1B3
:103EB000940170225E2029F00304C82C08BF012B56
:103EC0003DD17B487B49FEF7C3FF8149072240F281
:103ED000511034E02878122F0CD1012813D0022879
:103EE000AFD128790028ACD17848742200F18D0137
:103EF000B82024E0012814D10C2F04D17849A22243
:103F000040F22B101BE00022744800210B2F08BF49
:103F100000F11A014FF0000004BF40F22F103222CE
:103F20000DE000210D2F7FF48DAF03284FF000002E
:103F30004FF0000203D169498C224FF4C77042EA66
:103F40000040FEF785FF11B0BDE8F08F95F8CC1268
:103F500016293FF659AD4A1C05F2B5205146FCF72B
:103F6000C7FB2D2085F8B40295F8CC02013085F806
:103F7000CC0249E595F86F0280F0010085F86F02E8
:103F80001726C0B2FCF7FDFC034600201FFA89F299
:103F90000A21FDF788F971E64FF6FC7027460024E8
:103FA00000EA0900C8281DD109EB49003E4905EB8C
:103FB000C000425C82F001024254D0B2FCF7E1FC46
:103FC0000346284603214A46FDF72BFA17263C46AE
:103FD00054E629F001003C4614280CBF95F86D0208
:103FE0000020CEE71726FFE5A6F1200009281BD800
:103FF00086F001012846FEF7D5F80146F007039741
:1040000038461AD1FCF77CFC19E03846FCF7CBFCAB
:10401000FCF7AEFC01463846FCF79CFC00283FF458
:10402000AFAC0DE680010800DDE904A8069C2A2E4D
:104030001AD10320C5F8F0717AE4FCF77DFC002862
:104040003FF49EAC0DF1080A95F8D402DDE9058431
:104050009AE8C0040A2801D0072805D1687105EB49
:104060008600C0F8C47108E605EB86003946022ECA
:10407000C0F8487107D0012E08D0029A0B4652B9F9
:1040800005F14C0004E005F15C0001E005F154008D
:10409000029A0B46016000200121FDF704F995F812
:1040A000D40268716FE400BF10EEFFFF9ED70008D6
:1040B000070065003201BF006CD30008D8C80008B3
:1040C00000E8000813DBFFFF66001B0034001D0042
:1040D00032015B002D00210015011E002800180090
:1040E000960023002DE9F04F87B0A3B38B4600293B
:1040F00031D481461FFA8BF0800904282BD89246D0
:10410000002A28D41FFA8AF040090E2823D84846EE
:104110009846FEF7B1FF0646B9F8A4040025C0EBA7
:10412000C0004400AC4212D0D9F8A004415DB142B5
:1041300018BF2F2909D147195A465346D7F802000C
:10414000D7F8061000F05EFE50B90E35EAE799F890
:10415000710002280BD10026304607B0BDE8F08F71
:10416000B91C40460C22FCF7C3FA0126F4E799F883
:1041700005000C28EFD8DFE810F034004D00770080
:104180008F00CC00F7001E0148010D000D009201C8
:1041900006025302002480271F254FF06A090126DA
:1041A000B7F5AC7F00F06D822B2059465246922322
:1041B0000097CDE901051120CDE90304FDF747F98A
:1041C0000028D2D104F1780017215246C123CDE94D
:1041D00000790295FDF77AF9363701340028DFD0EF
:1041E000BAE7002507244FF4D9770126042D00F003
:1041F0004D824A2059465246234600970495019025
:104200002920CDE90206FDF722F94E3401350028B8
:10421000ECD0A1E7002403252C274FF05F090126ED
:104220000C2C00F06E82E1B20FF6C030B1FBF5F15C
:10423000005D01FB07F29A3200925A220192282275
:1042400002920722CDE90320A1EB81005946524694
:104250002044C0B200FB09F000F11503FDF7F7F8A8
:1042600001340028DCD077E70024AB2521274FF468
:1042700087790126032C00F069821020FDF78FF961
:10428000CDE900590297CDE90304FDF7E0F82835A0
:1042900001340028EED05FE7D9F8F00100210027B3
:1042A000FCF73CFB002840F0968240F263204FF47C
:1042B0008B76C02117241F2552461423CDE9001602
:1042C000049040465946FDF795F900287FF44DAF1C
:1042D0004FF41970E42152461423CDE90254CDE97C
:1042E00000160490FDF763F900287FF43EAF00202C
:1042F00009211F224FF48B734FF48474CDE90221FE
:10430000CDE90043FCF7F4FF0646002818BF01265C
:1043100022E70520032124228C234524CDE9022114
:10432000CDE900430490FCF7F5FFA023FEF7FEFA69
:1043300000287FF41AAF002472251D274FF034099E
:104340000126082C00F06582112059465246F723B9
:10435000CDE900590297CDE90304FDF778F821353E
:1043600001340028EDD0F7E60420032124228C2319
:104370004524CDE90221CDE90043FCF7B9FF00282F
:104380007FF4F3AE0025842722244FF0B9090126DB
:10439000052D00F045821420594652466E23CDE982
:1043A00000790294CDE90305FDF751F82F37013567
:1043B0000028EDD0D0E60024032523274FF0140970
:1043C0000126092C00F0D981E1B20FF60420B1FBDF
:1043D000F5F1005D01FB07F2B23200923422019246
:1043E0001F2202920722CDE90320A1EB810059464A
:1043F00052462044C0EBC00009EBC000C3B2FDF739
:1044000026F801340028DCD0A6E64FF000099727F3
:1044100025242B2C00F0F8812B20A7F128061F253E
:104420005946524692230190112000960295CDE9FB
:104430000309FDF70CF800287FF497AE6A2109F113
:104440006E005246C1230096CDE901151721FDF7F4
:104450003DF800287FF489AE601E06261F216725DF
:10446000524635230097CDE90151CDE90360FDF7B0
:104470009EF800287FF479AE1F2059465246C42387
:10448000CDE900750494CDE90206FCF7E0FF0234A3
:104490004F37012609F101090028BAD05CE66420F3
:1044A00056269121172420255246CD23CDE900160A
:1044B000049040465946FDF79DF800287FF455AE1C
:1044C0006520F1215246CD23CDE90254CDE90016F5
:1044D0000490FDF76CF800287FF447AE20240625F1
:1044E0005F26B827FCF716FF3D23FDF731F804944B
:1044F000FEF71CFA00287FF438AE212059465246B8
:10450000C423FDF725F80490FCF7A1FF00287FF4F1
:104510002CAE2220062420265F274FF48C755946A6
:1045200052463D2304904046CDE90057CDE9026450
:10453000FEF7FCF900287FF418AE4FF02309FCF7D2
:10454000E9FEC423CDE90057CDE90264CDF810900F
:10455000FEF7ECF900287FF408AE09200024892634
:104560004FF4AE77594652461523CDE902904046A6
:10457000FCF7DFFE00287FF4F8AD23210820CDE909
:10458000007602919BE100204FF013092B2567274D
:104590007A2459465246332304904046CDE90047D9
:1045A000CDE90259FEF7C2F9012600287FF4D4AD07
:1045B000FCF7B0FEA623CDE90047CDE902590496E9
:1045C000FEF7B4F900287FF4C7AD00240325AD271A
:1045D0004FF05E0901260C2C00F05F81E1B20FF272
:1045E000FC70B1FBF5F1005D01EB810207EBC2024B
:1045F00000925A220192242202920722CDE903203E
:10460000A1EB8100594652462044C0B200FB09F09C
:1046100000F11503FCF71BFF01340028DBD09BE5FC
:104620004FF4FA70172420253E264FF4C9775946D7
:104630005246102304904046CDE90076FCF7DAFF9D
:1046400000287FF492AD40F2F51059465246F2230D
:10465000CDE90076CDE902540490FCF7F8FE00287D
:104660007FF483AD0020042120228A234FF4C974F3
:10467000CDE90221CDE900430490FCF74BFE5B231A
:1046800022E1FCF79DFE4FF4B0770AE10B200324F2
:104690001D2136224FF48173CDE90042CDE9021489
:1046A000FCF799FE012600287FF456AD0C2020214E
:1046B0008A227023CDE90062CDE90214FCF78BFE5B
:1046C00000287FF449AD99F80000002800F00B8124
:1046D0000025012423270126032D00F0FB806A20FA
:1046E000594652462346009701901D20029005200E
:1046F000CDE90305FCF7ABFE6A3401350028EBD0A9
:104700002AE543200724262589264FF4A577594614
:104710005246152304904046CDE90076FCF76AFF27
:1047200000287FF422AD422059465246A323CDE90A
:104730000076CDE902540490FCF789FE00287FF44E
:1047400014ADFCF73DFE40F27517AAE000240920E5
:10475000232588264FF48F77CDE902504046FCF799
:104760001EFFFCF7E6FD00287FF4FFAC0820CDE932
:1047700000760494CDE9025065E030200724202122
:10478000A4224FF48E73CDE90032CDE90214FCF778
:10479000AFFD00287FF4E9AC00272B2532244FF031
:1047A0002F090126062F52D0790807F14100F52381
:1047B000524601FB09F1B2318DE832000721CDE903
:1047C0000310F807594608BFBE23FCF740FE013727
:1047D0000028E7D0C0E4092023248825EA26FCF736
:1047E000DEFE0497CDE902404046CDE90065FEF7C4
:1047F0009DF800287FF4B9AC00200F21CDE90065B9
:10480000CDE9024104901EE0FCF7DAFD4FF4B577E4
:1048100047E0002409202125892640F2811740E045
:104820004FF0000904252126882740F281144046D4
:10483000FCF7B5FEFCF77AFEFEF778F800287FF467
:1048400094ACFCF773FEFCF765FDA2233CE0582016
:104850000724202588264FF4A177FCF7A0FE0490BA
:104860004046CDE90076FCF7C5FE00287FF47DAC1C
:104870003C2059465246A223CDE90076CDE90254A8
:104880000490FCF7E4FD00287FF46FAC00240920BD
:10489000232588264FF4B3775EE7FCF791FD40F2BD
:1048A0005D17CDE90250FCF735FD1523FCF741FDFE
:1048B00000287FF45AAC0820CDE900760295CDE9B6
:1048C0000304FCF727FDA323FEF730F800287FF44C
:1048D0004CAC40E499F8000003283FF63CACDFE81C
:1048E00000F0023E597299F8710078B140F26220EE
:1048F000172119224FF498738C24CDE90221CDE9B8
:104900000043FCF7EEFC00287FF42FAC04200321C9
:1049100069224FF498732324CDE90221CDE90043A5
:10492000FCF7DFFC00287FF420AC0024AF251A2719
:104930004FF050090126032C00F08E8006205946C6
:1049400052468B23CDE900590297CDE90304FCF7C9
:104950007EFD1B3501340028EDD0FFF7FDBB0024A0
:1049600007274FF0650943250126032C00F0A1809D
:104970001F20594652463B46CDE9005902900A2075
:10498000CDE90304FCF763FD663701340028ECD061
:10499000FFF7E2BB42240FF264455C270126B4F521
:1049A000B47F00F0FF80262115F8010B5246082342
:1049B000CDE9004702910221FCF788FD2A34002846
:1049C000EDD0FFF7C9BB02200321202240F23113B2
:1049D0004324FCF794FC00287FF4C7AB00200E2191
:1049E00023254C224FF4C5760723CDE90062CDE99B
:1049F0000251FCF7F0FC00287FF4B7AB4FF0FF301A
:104A00000D242D2759465246572304904046CDE9A0
:104A10000067FCF7EFFD012600287FF49DAB4FF403
:104A2000C575FCF777FCB9234FF02309CDE90346A0
:104A30008DE8A002FDF77AFF00287FF48DAB40F2ED
:104A4000622017214E22EA23CDE90052CDE90291DE
:104A50000490FCF75FFC37E70720032470214FF434
:104A6000987295230827CDE90032CDE90214FCF7AE
:104A700038FC00287FF479AB40F2091540465946CE
:104A8000524608234FF0A3099426CDE903478DE849
:104A90006002FDF74BFF00287FF467AB092003217C
:104AA0008DE860025246A423CDE9031040465946E2
:104AB0000AE74FF0FF302A2140F22B170B24232561
:104AC00052460723CDE90071049040465946FCF751
:104AD00091FD012600287FF43FAB2B20594652461A
:104AE0007523CDE902540496CDE90070FCF7AFFCC4
:104AF00000287FF431AB00200C212324522240F205
:104B00002B17E623CDE90072CDE90241FCF763FCE7
:104B100000287FF42AAB4FF41B7017251E26594638
:104B20005246A22304904046FCF712FDFDF7FEFE1C
:104B300000287FF41AAB40F26D20232140F22B12A3
:104B4000C323CDE90026CDE90215FCF744FC00287B
:104B50007FF40BAB0A200321BF2240F231136524FE
:104B6000FCF7CDFB00287FF400AB002407274FF0B3
:104B7000490940F25315012640F23B1087423FF4A9
:104B8000EAAA582104F1C80052463B46CDE9005933
:104B900002911721FCF79AFC4D3701340028EBD025
:104BA000FFF7DABA99F80400022808D10920022197
:104BB000FCF76AFB00287FF4D8AA99F804000928BA
:104BC00014D102202221C8224FF4C573CDE900324E
:104BD000CDE9021004904046594652467023FDF735
:104BE000A5FE00287FF4C1AA99F80400032808D183
:104BF0000A200221FCF748FB00287FF4B6AA99F8A6
:104C000004000A2808D10B200221FCF73DFB0028F4
:104C10007FF4ABAA99F804000B2808D103200221E5
:104C2000FCF732FB00287FF4A0AA99F804000828BA
:104C300000F28080DFE800F0051E4D7E377E466B77
:104C4000A20000257324B8270126032D72D040202E
:104C5000594652462346009701901F200290122089
:104C6000CDE90305FCF7F3FB413401350028ECD016
:104C7000FFF772BA002473275D250126B7F59B7FE5
:104C800058D0412104F10A0052463B46009501915B
:104C90001F2102911721FCF719FC4137013400282C
:104CA000ECD0FFF759BA1E2017211F22C8235D241C
:104CB000CDE90221CDE900430490404659465246D1
:104CC000702332E000201521FCF7DEFA00287FF483
:104CD0004CAA142017271F2561265D2459465246E9
:104CE000732304904046CDE90046CDE90257FDF715
:104CF0001DFE00287FF439AA1520CDE90046CDE934
:104D0000025759465246D523049040460DE01621DD
:104D10001F22C82340F213140020CDE90043CDE93F
:104D200002210490FCF7F6FA7123FDF7FFFD00283D
:104D30007FF41BAA032605AD0624382E3FF40BAAE8
:104D40004846314607F086F8B0B128464946324613
:104D500007F034F8BDF81600BDF81430BDF818108F
:104D6000BDF81A208DE85700404659465246FDF7D7
:104D7000DDFD00287FF4F9A90136DEE74FF49670D7
:104D800017211F24C82540F213127123CDE90025F5
:104D9000CDE90241FCF71FFB00287FF4E6A90020C3
:104DA000152140F21B127123CDE90025CDE9024106
:104DB000FCF711FB00287FF4D8A902201F21C8228C
:104DC0004FF49F73CDE90032CDE90210A9E700BF8F
:104DD000373839343536313233000000313233342C
:104DE000353637383942304300000000373839341F
:104DF00035363132332D302E000000000001020321
:104E000004050600B0B5044680B2904202DCB3EB64
:104E1000144F01DA0020B0BD8DB205440020954248
:104E200005DD090C220C11449942C8BF0120B0BD18
:104E3000B0B5049C012CBCBF0120B0BD121B824246
:104E4000A8BF0246651EA042B8BF2A46801A1A1B98
:104E50008A42A8BF0A46A142B8BF2A46891A04FB63
:104E600004F2494300FB00110020914298BF012049
:104E7000B0BDF0B50C0C4FEA134C8FB29DB2B4EB41
:104E8000134F664638BF0E0C4680AF4238BF3D46D2
:104E9000059F1144058089B23B449BB2994288BF6B
:104EA0000B46591B818004EB12410CEB174289B26F
:104EB00092B2914288BF0A46911BC180F0BD0000AA
:104EC0002DE9F047DFF834910122C0B2052889F8B6
:104ED000102029D10846FBF77FFDF0B16422B0FB1A
:104EE000F2F1B1FBF2F303FB1214A4B10C2C12D8B3
:104EF0006FF0630201FB0208B8F1000F0BD042F221
:104F00001071B0FBF1F6214606F5FA6A5046FDF73E
:104F100063F980450AD9002001E04FF0FF300121FC
:104F200089F8111034498861BDE8F08700276FF0D7
:104F30001D05AE4208D005F5FA6000F09DF8384432
:104F4000013500F26D17F4E70126A64206D250465D
:104F50003146FDF741F907440136F6E707EB080053
:104F600040F2A32148434FF0FF3101EBC010D6E7D8
:104F700064225043B0FBF1F10520FCF72DBD7228EF
:104F800005D001469638052801D3C72901D9032049
:104F90007047A1F1C700A1F16402B0FA80F0B2FA43
:104FA00082F2400952091043732908BF022070475A
:104FB000B0B50C46E1490A6A82421AD98A6A0B6C7A
:104FC000214602EB0010102200F58050984768B18E
:104FD000E0894AF25A5188420BD1A5892046FDF753
:104FE00099F8281AB0FA80F04009B0BD03480121B1
:104FF00001750020B0BD00BFF40000207800002043
:10500000B0B586B003240A9D03940C9C009502253C
:1050100002940B9C01941C4494FBF5F4023C049410
:1050200006F0E8F906B0B0BDE0B58DF80700002045
:1050300002218DF806000DF1060006F02EFA8CBD57
:1050400070B50C4E0D464FF00041144631604FF0E4
:1050500000513160FFF7E8FF4FF4005030602CB191
:1050600015F8010BFFF7E0FF013CF8E74FF40040B3
:10507000306070BD100C014081071CBF00207047DC
:105080006421B0FBF1F202FB11014FF4C872B0FBD6
:10509000F2F3002918BF012103FB1200B0FA80F0DF
:1050A00040090843704700002DE9F04F8BB0A24F34
:1050B000A24D4FF000080DF11C0BB7F83E012C6A11
:1050C000C0EBC000C61F00200690013C601C00F031
:1050D0000681B8F1070F80F0028120465946FFF79C
:1050E00067FF0028F1D0BDF820904846FFF747FF42
:1050F0008246D7F8380220FA0AF0C007E5D0069BAE
:10510000B342C0F0E980079B914A08EB880102EBAB
:105110008100CDE90460B3B38B4940F2B276B3FBB2
:10512000F1F78A4907FB01393046FFF7A5FF00F286
:105130006D10874202D33F1A0136F5E7012530464C
:105140002946FDF749F8874202D33F1A0135F6E7B1
:105150003C224FF461607B1CCDE90056B9FBF2F1B3
:10516000B9FBF0F0B1FBF2F2C2EB0212A1EB82014B
:1051700078A2CDE902010598142106F0D9FEBDF808
:1051800020906D4F03E07AA11122FBF7B1FA7D491F
:10519000C8EBC80001EBC006A9F16400142813D9BC
:1051A000A9F1C7000B2820D9A9F18C000E2826D818
:1051B000DFE800F0082A2A2A2A2A2A2A2A2A5E60F8
:1051C00062646600924B68E06FA572A3DFE800F0AE
:1051D000650B1C1C1C1C1C1C1C1C2C232527292B90
:1051E0001C1C1C1C3600924B57E0DFE800F0060D3B
:1051F0004B4D4F0D0D51530D0D55844B4DE0B9F1F5
:10520000820F01D1834B48E08D4BA9F16E00052838
:105210001D4609D941E0854D06E0834D04E0814DEE
:1052200002E07F4D00E07D4D0998FBF7E9FB864ADF
:10523000CDE90001304638212B4631E0DDF82490DD
:105240004FF082414846FBF785FB00287A4D7948AC
:105250004FF0834118BF05464846FBF77BFB00280B
:10526000764818BF054629463046FAF799FF19E0F7
:10527000654B12E0634B10E0614B0EE05F4B0CE0BE
:105280005D4B0AE05B4B08E055A306E050A304E049
:105290004CA302E046A300E05F4B3046382169A2F0
:1052A00006F046FEDDE90523684908EB4800BAF13F
:1052B000010F224D08F1010841F8202001EB800088
:1052C0006449634A08BF1146BAF1020F624A08BF37
:1052D0001146C0E90116049E01330693F5E6D7F89E
:1052E000381200200022032A09D021FA02F3DB073A
:1052F00003D005EB8203DB6C18440132F3E7A7F817
:105300003C01811D0720B1FBF0F0072938BF0120C7
:10531000B7F83E11884204D2A7F83E01FFF7C4FE59
:1053200006E03878032803D105480649FDF790FDCB
:105330000BB0BDE8F08F00BFE0010020F4000020BA
:1053400007006500320148018051010080AEFEFF78
:10535000880E0020253032752E253032752E2530EE
:10536000347520253032753A253032750000000042
:105370002D2D2E2D2D2E2D2D2D2D202D2D3A2D2D5B
:105380000000000048180020D0A1D182D0BED0BFBC
:1053900000000000D0A1D0B2D18FD0B7D18C20D0E6
:1053A000BFD0BED182D0B5D180D18FD0BDD0B0001A
:1053B000D094D0B0D182D187D0B8D0BA20524F4D3E
:1053C00000000000D092D180D0B5D0BCD18F0000B9
:1053D000D093D180D0B0D184D0B8D0BA0000000032
:1053E000D09DD0B0D181D182D180D0BED0B9D0BA39
:1053F000D0B0000066E3000862E2000864DC000848
:1054000075E30008E7E200083CDC00081ADC00084D
:1054100094E30008FDE4000878E400087EE2000858
:1054200096E4000844E5000812E400081DE40008C2
:10543000B8E300083BE4000875E50008C7DA000897
:1054400067E400082573000083DE0008501B00207D
:1054500037D9000845D9000854DA0008E2B0C54C35
:105460004FF6FF02206840F010002060C24801683B
:105470001140C24A114301600F20FBF7F3FBC04FFC
:105480000222786940F001007861786900F001003B
:1054900012901298B86940F08050B861B86900F075
:1054A000805012901298B748016862F31A61016047
:1054B000386800F00C00042818D0386800F00C00A0
:1054C000082802D13868C00310D457F8040C40F4FF
:1054D000803047F8040CAC48C16A57F8042C92039A
:1054E00006D4C26A521A642AF7D960E057F8040C4D
:1054F000386800F00C00082836D1386800F47410C1
:10550000B0F5E81F53D1206810F0060F09D12068CC
:10551000022161F302002060206800F007000228E9
:1055200045D1386840F4E0603860386840F4605035
:105530003860386820F0F000386057F8040C8001BB
:1055400035D538680221904D61F3010041F2883170
:105550003860E86A3A6802F00C02082A29D0EA6A40
:10556000121A8A42F6D922E088490020086086484B
:10557000C26A57F8043C9B0104D5C36A9B1A022BEC
:10558000F7D914E03A6822F400323A603A6822F41B
:10559000741202F5E8123A6001220A60C16A57F8F3
:1055A000042C9201AFD4C26A521A022AF7D9FBF72F
:1055B00071FA206800F00700032809D3206802214F
:1055C00061F302002060206800F007000228EED19D
:1055D0003868042161F30A203860386820F460508C
:1055E00038606B48396801F00C02082A10D1C1F309
:1055F000834268A3C9039A5C02D46A48504307E017
:105600003968504368A2C1F34041515CB0FBF1F0EE
:10561000396866A21024C1F30311515CC840674980
:105620008860287800284FF0100018BF0F20FBF783
:1056300019FB78696249634E4FF4704B4FF0010AD1
:105640000DF148084FF00309002540F01000786183
:10565000786900F0100012901298786940F02000EC
:105660007861786900F0200012901298786940F013
:1056700004007861786900F004001290129878694B
:1056800040F008007861786900F0080012901298E4
:105690004FF40050086034614B4CC6F810B4CDE9AB
:1056A000120A06F500604146CDF854901495A047C3
:1056B00010204146CDF85490CDE913A54FF00309D1
:1056C00012903046A0474FF4806006F58066414650
:1056D000CDE9135A12903046A04730464146CDE9F5
:1056E0001459CDE912BAA0473848394C4FF400712B
:1056F0000A234FF48272A0F50060C4E90355C4E99F
:105700000551E561C4E90855C4E90A5384E8250058
:1057100094F85130002B5FD184F850501495294EE5
:105720000DF148087869414640F480507861786905
:1057300000F48050FBF7F2FD0220CDF85490139056
:10574000A02012900D983046FBF7B2F94020414658
:10575000CDE9135512903046FBF7AAF9A06AD4E9B7
:10576000036CD4E905B1D4E9078E089094E80502EA
:105770003FE000BF002002400CED00E00003FA050E
:105780000410024004000140780000206000424202
:1057900000127A0002030405060708090A0B0C0D23
:1057A0000E0F101000093D00010200000000000073
:1057B00000000000010203040607080900000020A1
:1057C0001010014000080140B10A000800380140F3
:1057D000A81700200018002000234FF0000E4FF003
:1057E00000084FF0000B4FF0000C00264FF00009AE
:1057F0000893022302F4827284F85130D0F800A09A
:105800002AF04003036009F404431A4406F40063D9
:105810001A440CF002031A440BF001031A4401F479
:1058200000731A4408F038035FF858801A440EF0E9
:1058300080031A43089B03F400531A4302600422B6
:1058400002EA1141EF4A4160C169924621F40061C8
:10585000C161012065654FF4E13184F851000C20ED
:10586000C8E90021C8E90255C8E90655C8E904504D
:1058700098F8410070BB002488F84040149478697F
:1058800040F480407861786900F48040FBF746FD81
:1058900003201590022013904FF4007012900D9881
:1058A00012ADD94829468146FBF702F94FF48060D2
:1058B0002946CDE9134412904846FBF7F9F8D8F889
:1058C0000000D8E90212D8F818505FF844B15FF828
:1058D00014C108E0CC4B5FF850B15FF820C1002143
:1058E000002250469946242341F20C6688F8413044
:1058F000C36823F40053C360036923F440531A437D
:105900000261D8E90423C4681143B443082219434F
:105910002143C160416921F440712943BB4D41617C
:10592000504508BF0B22DCF808103B684FF0010A15
:10593000002623FA02F2B6A302F007029A5C1923AA
:1059400021FA02F25A43D8F804309B00B2FBF3F27A
:105950006423B2FBF3F404FB0522322505EB0212AB
:10596000B2FBF3F202F0F00302F00F0203EB0413B8
:105970001A448260026922F490420261426922F074
:105980002A024261C26842F40052C2602020C8F874
:10599000446088F8410088F84200C8F834608CF808
:1059A0002060CCF81C109C49DFF87082DBF82C00DA
:1059B000CCF818004FF0005008605FF8000280F843
:1059C00010A055208DF848004FF48040C9F810040D
:1059D0004FF40040C9F810044FF08050C9F810048B
:1059E00048208DF834001420C0474FF48050C9F887
:1059F00010047820C0478A4C0120FBF7C6FD7820B0
:105A0000C0471120FBF7C1FD7820C04712A93A20FA
:105A10000122A0478349C0200222A0478249C12019
:105A20000222A0478149C2200122A0478049C52007
:105A30000422A0477F49E0200F22A0477E49E120B1
:105A40000F22A0472020FBF7A0FD0DAD362001223C
:105A50002946A047DFF8E49100200021C84729200B
:105A6000FBF793FD9620C0475FF8987200206421F1
:105A7000C8475FF8B8020221017401200021C8471D
:105A80005FF8C802DBF82C400FF2B41880F868A069
:105A900012965FF8D8A23868016812914068129097
:105AA0001298DBF82C00001B00097C2830D828460F
:105AB00001211422FBF74CFB03281AD0D8B9DAF8DD
:105AC0006C000130CAF86C00032E9DF834108AF87F
:105AD000741001D1522945D0A1F1500018F80620C8
