:020000040800F2
:10000000F84D002001010008090100080B0100085B
:100010000D0100080F010008110100080000000098
:1000200000000000000000000000000013010008B4
:10003000150100080000000017010008151700084E
:100040001B0100081B0100081B0100081B01000820
:100050001B0100081B0100081B0100081B01000810
:100060001B0100081B0100081B0100081B01000800
:100070001B0100081B0100081B0100081B010008F0
:100080001B0100081B0100081B0100081B010008E0
:100090001B0100081B0100081B0100081B010008D0
:1000A0001B0100081B0100081B0100081B010008C0
:1000B0001B0100081B0100081B0100081B010008B0
:1000C0001B0100081B0100081B0100081B010008A0
:1000D0001B010008C11700081B0100081B010008D4
:1000E0001B0100081B0100081B010008DFF80CD0F1
:1000F00000F05EFA00480047B9820008F84D002081
:100100000648804706480047FEE7FEE7FEE7FEE7B1
:10011000FEE7FEE7FEE7FEE7FEE7FEE72117000841
:10012000ED00000830B505462A460B4612F8010BD3
:1001300013F8014B08B1A042F8D01CB1002802D03E
:100140006D1CF1E7284630BDCAB2401E10F8011FF1
:100150008A4202D00029F9D100207047421C10F8D1
:10016000011B0029FBD1801A704710B5002200E066
:10017000521C835C8C5CA34201D1002BF8D1D8B215
:10018000E1B2401A10BD30B504460020034600E03D
:100190005B1C934203D2E05CCD5C401BF8D030BDC9
:1001A000034611F8012B00F8012B002AF9D118465B
:1001B000704730B50B46014600202022012409E09B
:1001C00021FA02F59D4205D303FA02F5491B04FA10
:1001D00002F52844151EA2F10102F1DC30BD2DE923
:1001E000F05F0546002092469B46884606468146BB
:1001F00040241BE0284641464746224600F0F9F9D4
:1002000053465A46C01A914110D311461846224609
:1002100000F0E0F92D1A67EB01084F462246012055
:10022000002100F0D7F917EB00094E41201EA4F180
:100230000104DFDC484631462A464346BDE8F09FCC
:100240002DE9FE4F804681EA0300C00F0C46009066
:1002500021F0004123F00045B8EB0200A94105D28E
:100260004046214690461C460B46024623F000407D
:10027000104347D0270DC7F30A00C3F30A51029079
:10028000401A019040286BDAC3F3130040F4801B3E
:100290000098924620B10023D2EB030A63EB0B0BCC
:1002A00001985946C0F14002504600F093F90646C5
:1002B0000D4650465946019A00F0ABF910EB080084
:1002C0006141002487EA115284EAE7731A4340D05F
:1002D000009A62B3019A012A4FEA075215DC001B0B
:1002E00061EB02014FF0004202EA0752CDE9004201
:1002F000001C41F5801132462B4600F0ABF903B0EB
:10030000BDE8F08F40462146F9E7001B61EB020192
:10031000001C41F5801300185B412018A2F500175E
:1003200047EB030140EAD570B6196D4111E06D0845
:100330004FEA360645EAC0754FEA0752001B61EBEB
:100340000201001C41F5801149084FEA30000019F4
:10035000514132462B4603B0BDE8F04F00F06BB977
:100360000098012240000023D0EB020263EBE0730F
:10037000009821464FEAE074B8EB000061EB0401FD
:10038000E9E783F000435BE781F0004158E72DE99E
:10039000FE4F81EA030404F0004421F00041009480
:1003A0004FF0000B23F0004350EA01045ED052EA04
:1003B00003045BD0C3F30A54C1F30A552C44A4F2DE
:1003C000F3340194A0FB0254C1F3130141F48011F2
:1003D000C3F3130343F4801301FB024400FB034EF9
:1003E000840A970A44EA815447EA8357A4FB0768C2
:1003F00002958D0A05FB07854FEA932C04FB0C54EC
:100400002705029D4FEA065847EA1637B5EB08055F
:100410006EEB070C870E920E47EA811742EA8312B1
:10042000A7FB0201B6EB0B0164EB00042B0D43EAC2
:100430000C335E1844EB1C50DA465146E7FB0201D0
:10044000C5F313044FEA0B3343EA14534FEA043263
:10045000019C43EA0603A4F10C040294009CCDE93C
:1004600000B400F0F7F803B0BDE8F08F00200146BB
:10047000F9E72DE9F04D81EA030404F0004B21F087
:10048000004514464FF0000A23F0004150EA0502EF
:1004900020D054EA01021DD0C5F30A570246C5F325
:1004A0001303C1F31300C1F30A5640F4801543F45B
:1004B0008013A7EB0608101BD64608F2FD3873EB35
:1004C000050002D308F1010801E092185B41B8F180
:1004D000000F03DA00200146BDE8F08D00204FF444
:1004E0008011064684460EE0171B73EB050705D303
:1004F000121B63EB050306434CEA010C49084FEA63
:10050000300092185B4150EA0107EDD152EA030036
:1005100012D082EA040083EA0501084305D0101BCB
:10052000AB4106D20122002306E000224FF0004337
:1005300002E06FF0010253101AEB06004CEB085179
:1005400010EB0A0041EB0B01BDE8F04D00F073B871
:10055000C1F30A52C1F3130140F2FF3341F4801199
:100560009A4202DA00200146704740F233439A4231
:10057000A2F2334202DC524200F03BB800F02AB84B
:1005800030B5041E71F1000404DB4FF0004440421A
:1005900064EB0101141E73F1000405DB1C464FF0EF
:1005A0000043524263EB0403994208BF904230BDBE
:1005B000064C074D06E0E06840F0010394E80700B0
:1005C00098471034AC42F6D3FFF794FD6CEE000868
:1005D0008CEE0008202A04DB203A00FA02F1002009
:1005E00070479140C2F1200320FA03F31943904071
:1005F0007047202A04DB203A21FA02F000217047DC
:1006000021FA02F3D040C2F120029140084319467A
:100610007047202A06DBCB17203A41FA02F043EA62
:10062000E07306E041FA02F3D040C2F120029140AB
:1006300008431946704710B5141E73F1000408DA18
:10064000401C41F1000192185B411A4301D120F096
:10065000010010BD2DE9F04D92469B4611B1B1FA53
:1006600081F202E0B0FA80F220329046FFF7B2FF4A
:1006700004460F4640EA0A0041EA0B0153465A4637
:10068000084313D0114653EA010019D0C8F14002C3
:100690005046FFF7AEFF05460E46504659464246C5
:1006A000FFF798FF084305D0012004E020463946B3
:1006B000BDE8F08D0020054346EAE0762C43374341
:1006C0000A986305E40AA0EB08000022FD0A44EA48
:1006D00047540A3002D500200146E9E70105101908
:1006E0006941DDE9084500196941BDE8F04DA2E71F
:1006F00010B5431A934209D28318881803E010F802
:10070000011D03F8011D521EF9D210BD40EA01037C
:100710009B0703D009E008C9121F08C0042AFAD2B7
:1007200003E011F8013B00F8013B521EF9D210BD65
:10073000D2B201E000F8012B491EFBD27047002223
:10074000F6E710B513460A4604461946FFF7F0FFD0
:10075000204610BDF0B480EA0102D40F4200B2EB93
:10076000410F02D20246084611464A0042D0C30D4C
:10077000DDB2C1F3C752AD1A202D35DAC1F316012F
:1007800041F4000204B15242C5F1200602FA06F11A
:100790002A411044B3EBD05F23D0C4B1012DA0EBAC
:1007A000C35009DCF0BC4FF0004202EAC352DBB296
:1007B00000F5000000F040B9400000F1807000EB4F
:1007C000C350A0F1807040EAD170490009E04908A7
:1007D00041EAC071A0EBC35000F50000400800EBF7
:1007E000C350F0BC00F01FB96142012202EB41018D
:1007F000001BF6E7F0BC704781F00041AAE780F0EB
:100800000040A7E780EA010210B502F00043400073
:1008100022D04A001FD0010E01EB1261C0F3560036
:10082000C2F3560240F4000042F40002A0FB022092
:1008300000047F39140400D0401C50EA124001D457
:100840004000491EC2B20C0604EBD010401C400808
:10085000802A02D003E0002010BD20F00100002912
:1008600000DA0020184310BD30B480EA010202F023
:10087000004530F0004221F0004013D090B1C30D8C
:10088000D40DC2F31601C0F31600E41A41F40001BE
:1008900040F400027D34914201D3641C00E0490021
:1008A000002C02DA30BC002070474FF40000002317
:1008B000914201D3891A034340084FEA4101F7D11D
:1008C00051B1914202D14FF0004105E002D24FF008
:1008D000010101E06FF0010103EBC450284430BC7A
:1008E00000F0A1B8002801DBC0F10040002901DBC5
:1008F000C1F10041814201D80120704700207047BA
:10090000002801DBC0F10040002901DBC1F10041FA
:10091000814201D20120704700207047002801DB8E
:10092000C0F10040002901DBC1F10041814201D347
:100930000120704700207047002801DBC0F1004013
:10094000002901DBC1F10041814201D9012070473A
:1009500000207047002801DBC0F10040002901DBC6
:10096000C1F10041814201D1012070470020704750
:10097000C10F80EAE0700844CA079623002100F006
:100980005BB896230022114600F056B80EB540F22F
:10099000334102910021CDE900110A460B46FFF7D1
:1009A00059FE03B000BD00F0004220F00040C10D30
:1009B000C0F3160040F400007F2901DA00207047E0
:1009C000962903DCC1F19601C84001E096398840C0
:1009D000002AF4D04042704720F00040C10DC0F31F
:1009E000160040F400007F2901DA002070479629A4
:1009F00003DCC1F19601C8407047963988407047C2
:100A000000F0004230F000400AD0C10D01F56071E5
:100A1000C0F3160042EA0151C20840071143704773
:100A20000020014670470029A8BF7047401C4900BC
:100A300008BF20F00100704710B4B0FA80FC00FA43
:100A40000CF050EA010404BF10BC704749B1CCF16E
:100A5000200421FA04F411FA0CF118BF01212143FA
:100A60000843A3EB0C01CB1D4FEA00614FEA1020B5
:100A700042BF002010BC704700EBC3501044002957
:100A8000A4BF10BC7047401C490008BF20F0010003
:100A900010BC7047EFF3108072B601F043F9FCE729
:100AA000ED490130CA6ACB6A9B1A8342FBD3704777
:100AB0002DE9FC4F5E4A04234FF0000A4FF0010875
:100AC0004FF00009904208BF0323009300250C68F3
:100AD00034FA05F208BFBDE8FC8F08FA05FE14EAF7
:100AE0000E0F00F0A1804F68032F16D9112F26D0CA
:100AF000122F28D0524A974213D0524A974210D010
:100B0000514A97420DD0514A97420AD0504A9742D3
:100B100007D0504A974204D022E0DFE807F00218DD
:100B20001B1F8C6844B1012C14BFC0F814E0C0F83E
:100B300010E04FF0080913E04FF0040910E0CC6812
:100B400004F104090CE0CC6804F10C0908E0D1F8C8
:100B50000C9005E0CC6804F1080901E04FF00009B1
:100B600054460746082D4FF00F0228BF203C28BFEF
:100B700004373B6802FA04F609FA04F4B34323434A
:100B80003B60CB79DB064FD52C4A2A4C1368A4F581
:100B90007E7C43F00103136013682F4A03F00103C6
:100BA00090420193019B25F003035CF803B008D049
:100BB0002A4A904207D02A4A009E904208BF022645
:100BC00002E0002600E001260AF00C030F22AF0825
:100BD00002FA03F406FA03F3164E174A2BEA04044A
:100BE00023434CF827304F68FB02B36854BF23EA15
:100BF0000E0443EA0E04B460BB02136854BF23EA38
:100C00000E0443EA0E041460BB03736854BF23EA66
:100C10000E0443EA0E047460FB03336854BF23EAF6
:100C20000E0243EA0E0232600AF1040A01354EE771
:100C300000140140000401400C040140181002405F
:100C400000001110000012100000211000002210FE
:100C5000000031100000321000080140000C01407B
:100C600000100140CD48C06A704700BF10B50F4961
:100C70004FF47A728968B1FBF2F14A1E0021B1EBA0
:100C8000126F11D10A4BF0245A600A4A147099600D
:100C900007210F28196007D84FF0FF300F2100F00F
:100CA0000BF8BE480121017010BD00BF00000020FC
:100CB00010E000E023ED00E010B5104A00F00F0353
:100CC0000F4C043B02442344002848BF03F10C02AC
:100CD00020684FF0FF34C0F30220C31E80F00700ED
:100CE00038BF0023042828BF042004FA00F021EABA
:100CF000000098400001107010BD00BF00E400E04B
:100D00000CED00E0F8B5A64D14460A4695F85110D2
:100D1000012919D16E68B6F5827F0BD1A96849B94E
:100D20000421234685F85110014601B0BDE8F0408A
:100D300000F038B9DFF894CEDCF82C3030B12AB1AD
:100D400095F85070012F03D10220F8BD0120F8BDA5
:100D50000427012185F8517000276F65EA8785F81F
:100D60005010AA87A863AF862F63C5E91077EF8676
:100D7000A9682A68B1F5004F07D1116821F0400138
:100D80001160116821F4804111601168490603D493
:100D9000116841F040011160E96829B32A68E98FC0
:100DA00031B39168C90705D1DCF82C10C91AA142EA
:100DB000F5D331E0D16820F8021BA863E98F01392F
:100DC000E987ECE72A689168C90705D1DCF82C109F
:100DD000C91AA14208D31FE0117B0170A86B013032
:100DE000A863E98F0139E987E98F0029EAD16E68A4
:100DF000B6F5827F18D1A868B0F5004F02D0B0F5E3
:100E0000806F11D12968B0F5806F0A6822F0400226
:100E10000A6009D1012008E0002085F85000012077
:100E200085F851000320F8BD80200021224600F003
:100E30001FFC28B1686D40F02000686520206865BF
:100E4000012085F85100002085F85000686D0028C9
:100E500018BF0120F8BD00BF78000020F8B5E54DAF
:100E6000BC4C0B46E96A94F85160012E05D130B1B3
:100E70002BB194F85060012E03D10220F8BD01205F
:100E8000F8BD0326012784F8516000266665E386D5
:100E900084F85070A3862063A687A663C4E9106611
:100EA000E687A7682668B7F5004F07D1376827F0AF
:100EB00040073760376847F48047376037687F06F8
:100EC00003D4376847F040073760E768D4F804C0B8
:100ED000B7F5006F1ED1BCF1000F18BF012B06D172
:100EE00030F8023BF3602063E38E013BE386236826
:100EF000E68E86B39E68B60704D4EE6A761A9642EA
:100F0000F6D343E030F8026BDE602063E68E013EEC
:100F1000E686EDE7BCF1000F18BF012B07D1007882
:100F20003073206B01302063E38E013BE38623683E
:100F3000E68E86B19E68B60704D4EE6A761A9642AB
:100F4000F6D323E000781873206B01302063E68E1F
:100F5000013EE686ECE7104600F070FB08B1202069
:100F60006065A06838B9002000902068C1680091D1
:100F7000806800900098012084F85100002084F8D7
:100F80005000606D002818BF0120F8BD002084F8D3
:100F90005000012084F851000320F8BD78000020A3
:100FA000841A0020F8B5DFF88CCF6A4E8E46DCF844
:100FB0002C1096F85170012F07D120B1BEF1000F0F
:100FC00018BF002A0BD101250EE07568B5F5827FA8
:100FD00009D1B46802253CB9042FEED004E096F89C
:100FE0005040012C02D102252846F8BD012486F884
:100FF000504096F85140042C1CBF052486F85140FF
:1010000000247465F287F286C6F838E0B287306350
:10101000C6E91044B28635682C68640603D42C688F
:1010200044F040042C60F4687768B4F5006F33D165
:101030000FB1012A06D130F8022BEA603063F28E3C
:10104000013AF28632680125F48E14B9F48F002C2F
:1010500060D09468A4070BD5F48E4CB1012D07D154
:1010600030F8024B0025D4603063F48E013CF486E6
:101070009468E4070AD0F48F44B1D46801252EF8AF
:10108000024BC6F838E0F48F013CF487DCF82C40C2
:10109000641A9C42D8D335E00FB1012A07D10078F9
:1010A0002873306B01303063F08E0138F0860120F8
:1010B000F28E0AB9F28F6AB332689468A4070DD52C
:1010C000F48E5CB1012809D1306B00781073306B5D
:1010D00001303063F08E0138F08600209468E40718
:1010E0000BD0F48F4CB1B06BD2680270B06B013092
:1010F000B063F08F0138F0870120DCF82C20521A01
:101100009A42D5D30020032586F85000012086F8A6
:10111000510069E7184600F091FA28B1002086F8DE
:101120005000202070654EE7B06838B9002000906C
:101130003068C1680091806800900098012086F8AE
:101140005100002086F85000756D002D18BF012554
:101150004AE700BF841A00202DE9F0414A4E1446A8
:1011600096F85220202A1CBF0220BDE8F081A8B3C7
:10117000A1B34FF000082222C6F8548086F852200E
:10118000424AC6F84080B187D56AF18700F0D7F9A6
:101190000CBF80460746F08F18B3202000F061F99D
:1011A00008BB5FB1B069B0F5805F0FD008B9306A95
:1011B00060B13069406800F07F0009E030690027C5
:1011C00040686FF35F2028F8020B03E03069406845
:1011D00007F8010BF08F0138F087DCE70120BDE84C
:1011E000F081002000E00320202186F85210BDE8A5
:1011F000F08100BF780000202DE9F041224E144616
:1012000096F85120202A1CBF0220BDE8F08138B397
:1012100031B34FF000082122C6F8548086F85120DF
:101220001A4AB186D56AF18600F089F90CBF80466A
:101230000746F08EB8B1802000F013F9F0B927B15D
:1012400017F8010B3169486006E038F8021B306975
:1012500000276FF35F214160F08E0138F086E8E7E8
:101260000120BDE8F081402000F0FBF8202186F845
:101270005110002818BF0320BDE8F081202086F817
:1012800051000320BDE8F0816401002078000020B7
:101290002222C8234FF4C574CDE90221CDE90043D1
:1012A0000490404659465246702304F07FBACDE977
:1012B0000000284604F0CAB8BDF98403BDF98613BE
:1012C000BDF98823BDF98A33BDF98C43BDF88E532F
:1012D000CDE90045704741F20510772127220F2301
:1012E0000090704746904698786940F00400786115
:1012F000786900F0040046900320059002200390D6
:10130000704720460AF086BE049040465946524631
:10131000082304F04BBA0490404659465246142321
:1013200004F044BACDE90221CDE9004304904046DF
:1013300059465246072304F039BA404659465246A8
:101340007047CDE90076049404F030BA406DC86669
:10135000082081F86400062000F0CABABDF88C436A
:10136000BDF98403BDF98613BDF98823BDF98A331D
:10137000009470470BFB00F000F1AF040B202146F6
:101380000AF0E2BB4946CDF81480CDE903A50290EE
:10139000204658474FF4A07228230AF0F1BA4FF4C0
:1013A000A072FFF7A5B9CDE90001204640214246D1
:1013B0000AF030BE012101FA00F0D5F84012484091
:1013C000C5F840027047002409202325892670476C
:1013D000234600920322019200287047009042F6B3
:1013E0002920019001200AF0EDB82046FFF708BB44
:1013F000049040465946524604F0D8B940F2811153
:1014000089222123704798F8700099F87010814262
:101410007047D9F85C00D8F85C10FFF79BBAD9F890
:101420005400D8F85410FFF795BAD9F84C00D8F802
:101430004C10FFF78FBACDE90001584618210AF089
:10144000E9BDCDE9004404F001B84FF4A1710D22CB
:101450004EF69E73CDE9000470470146204604F025
:10146000DDB82946224600F05DB9404604F09EB939
:101470000090742006F0F2BC009014200AF0D2B85C
:10148000009014200AF04CBA019020460AF074BB78
:101490004FF4D4710E2248F66663CDE9000670471A
:1014A000C1F8220041F2E4004FF4927100907047BD
:1014B000D9F89000D8F89010FFF74CBAD9F88C0002
:1014C000D8F88C10FFF746BAD9F88800D8F88810F9
:1014D000FFF740BAD9F88400D8F88410FFF73ABA79
:1014E000CDE903104046594604F060B9D9F88000B0
:1014F000D8F88010FFF72EBAD9F87C00D8F87C1005
:10150000FFF728BAD9F87800D8F87810FFF722BA90
:10151000D9F82C00D8F82C10FFF71CBA0C224EF684
:101520009E73704707B0BDE8F08F05B0BDE8F08F3F
:10153000691AB1FA81F14909CDE900017047B16931
:10154000326A81F4805151EA02077047062003F0A5
:10155000C9BF234600920222019200287047CDE9BC
:101560000047CDE90265CDF810907047CDE90076CF
:10157000CDE902457047B0FA80F04009704700217C
:10158000002250470021284485F8CC127047B2F958
:101590001600B2F91A10B2F91C2070470B224EF651
:1015A0009E737047009401908E200AF0E5BA41F2D4
:1015B00005104121CD224FF4B6737047C0F82210B8
:1015C00041F2051070474046594604F0EFB82146F5
:1015D0004FF495721923CDE90006704721464FF468
:1015E00096721D2370471621092248F2E453CDE973
:1015F000000470472046FFF783B920460AF00ABD71
:101600002046FFF7FFB8842100F020BD00203146BE
:101610003A4643460090484670475946524614237E
:10162000704706220623009060204047182120467C
:101630000AF0F0BCCDE9025404F0B8B870B50C461D
:101640000546022001212A46234600F011F838B948
:10165000802000212A462346002600F009F828B100
:101660002B480326416D41F020014165304670BD95
:10167000F8B5E24CDFF898C0E56A5B1B9D189B4A01
:101680009268E66AC2F3CB326A430092DCF800301B
:101690009F6807403F1AB7FA87F77F098F4204BF58
:1016A0000020F8BDE76ABF1BAF4207D2009F009A37
:1016B000013A0092002F08BF3D46E9E7586820F044
:1016C000E0005860DCF80400B0F5827F0BD1DCF854
:1016D0000800B0F5004F02D0B0F5806F03D1186854
:1016E00020F040001860DCF82800B0F5005F07D15A
:1016F000186820F400501860186840F40050186012
:1017000000208CF8500001208CF851000320F8BD17
:10171000841A0020B948C16A0131C162704700BF14
:101720007047000078B53F4BB44D1C6926680640F1
:10173000864204BF002078BDEE6A761A964284BFC6
:10174000032078BDE6687607F0D54028EED08028E3
:10175000ECD026683607E9D500200090206800907C
:10176000606800900098186950E8030F196920F428
:10177000907041E80302002AF5D1186950E8050F7E
:10178000196920F0010041E80502002AF5D1186C22
:10179000012809D1186950E8030F196920F01000D9
:1017A00041E80302002AF5D1202083F852000020EE
:1017B000186483F8500008205865012078BD00BFE8
:1017C00000F0B0BA0D48BFF34F8F0D4A016801F425
:1017D000E06111430160BFF34F8F00BFFDE700BF21
:1017E0000648BFF34F8F064A016801F4E0611143D8
:1017F0000160BFF34F8F00BFFDE700BF0CED00E0BD
:101800000400FA05E0B58DF807000DF1070001218D
:101810006422FFF7F1FC00B98CBD0248EA49FFF7EA
:1018200095FD00BF640100202DE9F84306462C48D1
:101830000C462C4F016841F080710160386840F01F
:10184000010038600320D7F804808DF80000300ACA
:101850008DF803608DF80200300C8DF80100002037
:10186000B0EB124F2DD120494FF480101546642261
:101870000860894668460421FFF7F0FA20B9A9B24A
:101880002046C822FFF73EFA1021C9F800107968F7
:10189000A1EB0802CC498B684F6B3A444A634FF482
:1018A0007A72B3FBF2F24B6BB3FBF2F28A620A6B11
:1018B0002A440A6338B10A228E6581F86420FFF752
:1018C0005AFEBDE8F883002EF9D1042DF7D300228B
:1018D000042AF4D0A35C8D18013285F85E30F7E756
:1018E000FCED00E0001000E01008014000000020C6
:1018F00084B0062888BF002003900FF2D00927A1EA
:101900003F4EDFF804B120F0040001283B4808BF37
:1019100089466421C06B00EB800001EB800A5021F6
:1019200001EB80073C2101EB8004282101EB8008BA
:101930004546B5F5F07F2ED230484FF4207105644E
:101940003046FEF7FCFE2F4A082041464FF2CA23DC
:10195000D84703982DA14FF2CA2351F82020082020
:101960002146D847082039464A464AF6D753D84731
:101970002D4A082051464AF6D753D8474FF4A07055
:10198000A9B24FF4A072012300960190002000F04C
:1019900015FA0135CDE7FFF77DF800BFD09FD0A045
:1019A000D09ED092D095D0A0D0ACD0A2D09520D04F
:1019B0009FD09ED094D09AD09BD0AED0A7D095D0B7
:1019C0009DD098D09520464C41534800D09ED09150
:1019D000D09DD09ED092D098D0A2D09520D0A0D02B
:1019E00095D0A1D0A3D0A0D0A1D0AB20D0ADD09A1B
:1019F000D0A0D090D09DD0900000000078000020B2
:101A0000E4060020ACE000089D1E0008FBD700089B
:101A100040D8000857E200082FE20008ADDF0008B8
:101A2000E8DE0008F1DF00087AE100082DE9F04F58
:101A300087B0DFF894C104460628084628BF06246C
:101A4000642928BF6420DCF800E074450BD1DCF881
:101A50000420904201D1FFF765BD632903D8821AA3
:101A600001D3052AF7D3594E00250022776B944203
:101A700006D027FA02F3013203F001031D44F6E712
:101A8000012205EB85050DF11708A2401743776386
:101A90002427BEF1630918BF07EB8509382707EB38
:101AA0008503BEF1630F4A4F08BF4FF4F0730393F1
:101AB0006329B36B94BF23EA02021A43B263F6258B
:101AC000CCE900402522ADF81A206422B0FBF2F2E6
:101AD00042F030028DF817200A22B0FBF2F303FB2C
:101AE0000505B3FBF2F202EB820245F03005A3EBF1
:101AF00042028DF81950012542F030020A284FF0B9
:101B000001008DF8182038BF0220642938BF8044B6
:101B1000039881459FD238464FF42071CDF810903C
:101B2000C6F84090FEF70BFE0820102129A24EF6C1
:101B30009E7300F0B3F94FF0000B4FF00009B9F1BC
:101B4000070F2DD0706B05FA09FA10EA0A0F24D09E
:101B50002BA028214AF6D75350F829200BEB8B00F5
:101B600001EB80070820394600F098F92BA24C457C
:101B70004EF69E7108BF4246B06B10EA0A0028A0DC
:101B800018BF0246274808BF084683B239464FF4BB
:101B9000887000F083F90BF1010B09F10109CEE720
:101BA000DDF810900A4F4FF4A0704FF4A07201239B
:101BB000C6F83CB0019000201FFA89F1009700F0B0
:101BC000FDF809F10109A3E70000002078000020DA
:101BD000E4060020D098D09DD098D0A6D098D09080
:101BE000D09BD098D097D090D0A6D098D0AF20D00E
:101BF000A1D098D0A1D0A2D095D09CD0AB000000AD
:101C0000F9E000080ED8000829D800081AE00008FA
:101C1000CFDF0008B6E200082EDE00082E2E2E00D0
:101C20004F4B0000668EFFFF1CB501468DF8070084
:101C30002020104A8DF80400080A8DF80600080CD0
:101C40008DF805000020114213D1344A914210D37F
:101C500003F090FCFFF77AFC314C4FF48010042124
:101C6000206001A809F031FC1020206003F082FC04
:101C700001201CBDFF0FE0FF284B984208D3B0F5B0
:101C8000001F05D8C0F50013934228BFFFF7CCBD55
:101C9000002070472DE9F84F06462048864207D3BA
:101CA000B6F5001F04D8C6F500101446904202D2C3
:101CB0000020BDE8F88F0D464FF4801AE8464FF03B
:101CC000100B44B302208DF803608DF80000300A39
:101CD0008DF80200300C8DF8010003F04BFCFFF78B
:101CE00035FC0F4804218146C0F800A0404609F0A9
:101CF000ECFBF0B2C0F580772846A74228BF274604
:101D0000394609F0E2FBC9F800B0E41B3E443D440B
:101D100003F030FCD5E70120BDE8F88F0050120039
:101D2000100801401FB51E48006948B3016811F052
:101D3000280F25D0406809070FD01A4800210163F9
:101D40001948009018A0D0E90112C068CDE901122D
:101D50000390684600F0A6FA1FBDEFF3108181B131
:101D60001049C0B214A3A0F150040A6BB4FA84F471
:101D700064099B5C834208BF541C0C63042C0BD089
:101D80001FBD002101228DF80D0001918DF800206A
:101D900002918DF80C10DCE700200863FFF712FDBC
:101DA0006401002078000020020000000000000014
:101DB0000000000000000000504348522DE9F043AD
:101DC000B1B0002A64D01D46002B61D00E46010A36
:101DD0008DF8C10010440DF1C0081446DDE93879D2
:101DE000042201388DF8C01041468DF8C300000A66
:101DF0008DF8C2002A2006F051F8300A414604222C
:101E00008DF8C1608DF8C000701901388DF8C300DD
:101E1000000A8DF8C2002B2006F040F81E4E4FF04D
:101E2000004030604FF0005030602C2006F02AF85F
:101E30004FF40050B046306005FB04F06D46461E7E
:101E40000020711C1BD037F8021B09BA090C29525B
:101E50000230C02804D12846C02109F036FB0020FA
:101E60005EB1B6FBF4F101FB146100294FF00001F3
:101E700008BFA9EB040107EB4107013EE1E718B1F8
:101E800081B2684609F021FB4FF40040C8F8000019
:101E900031B0BDE8F08300BF100C01402DE9F04FD8
:101EA000234CDFF894C0DFF894E004EB4009BE4C0B
:101EB000D4F840B01778CFB3C02F07D3547802328C
:101EC00004F03F0467F38A14274600E0013200243F
:101ED000E046352C26D03EF81460B74203D008F116
:101EE0000C080134F5E74FF0000ABAF10C0F19D0D5
:101EF00018F80A400AEB01060027082F0FD024FA31
:101F000007F5ED0709D0B34507DBC519AD09042D69
:101F100003D8B345D8BF29F817300137EDE70AF1E8
:101F2000010AE2E709F110090830C3E7BDE8F08FC4
:101F3000E406002078000020CECC000864CC000825
:101F40002DE9F8433C49884205D99748012181662B
:101F50000020BDE8F883DFF8108604468709374E75
:101F6000D8F86C0056F82020BA4203D1364901EB6C
:101F700080105BE08C460025202D05D056F825000A
:101F8000B8420FD00135F7E72D4A0025012020285F
:101F900008D052F8253052F82010994238BF054633
:101FA0000130F4E7D8F874000130C8F874000BD39E
:101FB000234A00200023202B03D042F823000133C2
:101FC000F9E70120C8F874001D4941F8250056F8CA
:101FD0002500B84225D01B4841690131416124F0F8
:101FE0003F00ACEB000101F10109B9F1400F28BF3E
:101FF0004FF04009D8F870C0BCF1000F06D012496C
:102000004A46002301EB8511E04740B901204946CB
:10201000C8F868000C4800EB8510FEF790FB46F806
:1020200025700948C8F86C5000EB851004F03F019A
:10203000405CBDE8F88300BFAC4F1200B82500201B
:10204000BC010020F4000020640900202DE9FE4FAF
:10205000894605460A2019461C46904609F038FC78
:102060000C9F06460A20394609F032FC3978DDF823
:1020700034B04FF0010A4346CDE9004A00295844E4
:10208000314618BF01446FF001000A2291FBF0F0C5
:1020900049464419204609F06FFD387848B106EBEF
:1020A0000B0049460A224346CDE9007A204409F054
:1020B00063FDBDE8FE8F00002DE9FE4F07463A485C
:1020C000DDE90C9A984615460E4648F66664007A95
:1020D00060BB384631462A46434609F051FC28B3D6
:1020E000384631462A46434609F02EFD40F6A30005
:1020F000BAF1000F4FF0030B31462A46434608BFA2
:1021000041F20510CDE900B0384609F0D9FA48F699
:102110006660BAF1000F31462A46434608BF43F2D3
:102120002920CDE900B0384609F0A0FC09202A4654
:102130004346BAF1000F04BF4EF69E74CFF6FF740B
:10214000A1B2CDE9009038460291314605F086FEF5
:10215000BDE8FE8F70B51348134A00210024C378F0
:10216000117380F8371180F83411D3720F4A02EBE3
:1021700003120F4B182C0CD040CA00EB8405063418
:10218000C5F8C430A5F8C81003F5F073C5F8D460DD
:10219000F0E70078012818BF70BDBDE8704003F07B
:1021A0003DBE00BF3C0200207800002014D500088E
:1021B000381E0020B0B54FF6FF710C2241F221030A
:1021C00072B10478013A81EA0421082434B10DB2D5
:1021D000013C03EAD53585EA4101F7E70130EFE735
:1021E00088B2B0BDB0B54FF6FF7241F2210371B1B4
:1021F0000478013982EA0422082434B115B2013C82
:1022000003EAD53585EA4202F7E70130EFE790B2FD
:10221000B0BD000070B560B1094E05460024B4F5AC
:10222000C07F08D0281903F05AFE30B13055013470
:10223000F5E7002401E04FF4C074204670BD00BFF4
:10224000B83B0020022904D0012904D029B94C3020
:102250000FE05C300DE054300BE0A1F12002092AC0
:1022600087BF00EB810000F5A47000EB820000F551
:10227000117000687047000010B507A202290A44D7
:1022800012F8014C05D105F025FE002818BF0120E9
:1022900000E00020204410BD1F1C1F1E1F1E1F1F1A
:1022A0001E1F1E1F2DE9F04F87B0824600780228BE
:1022B0000FD0012811D1AC489AF80D10C28C038DB3
:1022C0000132D2B29A4205D0C38CA84CE154C284E8
:1022D000CEE0A54801214172CAE0DFF894B29AF835
:1022E0000C00DAF804909BF808809BF87824C8B1B9
:1022F000BAF90810BAF90A00002A87B28EB249D09A
:10230000BBF97A248B1A0C2B0ADC511A0C2907DC36
:10231000BBF97C14421A0C2A02DC081A0D2852DB85
:1023200001204EE0002A60D09BF8790400268BF84B
:102330007864002857D1DBF88004A9EB000014284A
:1023400051D39BF89E74584603F0D6FD87424AD17C
:10235000BBF97A14BBF97C2401AB584604F0F8FDB4
:10236000002840D09BF89A049DF80C1081423AD185
:10237000BBF89C04BDF80E20824234D19BF80500C6
:10238000002877D0002012B28BF89004584603F052
:1023900047FE2AE00120CBF88094ABF87C74ABF8C0
:1023A0007A648BF87804584603F0A6FD8BF89E04F7
:1023B00031B23AB20BF29243584604F0C9FDFFF72E
:1023C000DAF88BF8790430B2002808D4B009042870
:1023D00005D838B2002802D4B7F5F07F05D3012024
:1023E0008BF8790401E08BF890640DF104099BF8F7
:1023F0007124E2B19BF87034013A03EB43000BEB1C
:10240000C007D7E9B64007F53877E2CF8BF87124DB
:102410005A1C02F00F02CDE901408BF8702403AA88
:10242000E2C205F083FC484606F0E2FDDFE79BF8D8
:102430000850A8451CD0DAF804004B4900F5FA60B2
:10244000886701AC18212046FEF779F92846FEF787
:1024500098FA014603904FF4C870ADF80A000A20BC
:102460008DF808000A2005F061FC204606F0C0FD4A
:10247000FFF758B8BBF97C04BBF97A349BF80060CD
:10248000A0F165071FFA83FCBE2F21D8DF1FB7F527
:10249000987F1DD8012E1BD10A2200219BF8906441
:1024A000B24231D1DBF88464A9EB0606B6085E2E91
:1024B0002AD8BBF98864BBF98A749B1BC71B5B4392
:1024C00007FB07331B09302B1ED8002003215BE7D5
:1024D000002E7FF457AF0FFA8CF6082EFFF652AF9E
:1024E0004FEADC06262E3FF64DAFA0F18C06172EE4
:1024F00004D89BF87160002E7FF444AFA0F123064E
:10250000692E19D20422C8E78BF890240022ABF878
:102510008A04ABF888C4CBF88494AE28C8BF0122E3
:10252000114001297FF461AFAF381B2180B2B0FBAD
:10253000F1F20F4805212AE7A0F19506702E02D28C
:1025400007220121AAE7A0F20916A22E3FF61AAF30
:10255000BCF19C0F01D208229FE7BCF1A40FFFF44D
:1025600011AF092299E700BF78000020E41C002089
:102570003C0200202DE9F04FADF5657DDFF82C8D94
:102580000746D8F8040040B1D8F80800381AB0F56A
:10259000FA7F84BF0020C8F80400DFF8140DDFF8CC
:1025A000146DC078F17A814218BFFFF7D3FD707ABD
:1025B00028B1F08C30850020C8E900007072DFF887
:1025C000F89CDFF8F8AC4FF4807500230DF55F7BC5
:1025D000308DF18C884218BF002D00F06385C8F85B
:1025E0000870013D308D318D0131C9B2318519F846
:1025F0000040D8F8040050B101282BD15A2C29D022
:10260000A4F1A500FEF7B7FFC8F80400E0E7D8F88A
:1026100000000FF63861A4F15002B2FA82F2095CB0
:1026200052098C4208BF421CC8F80020042A06D177
:10263000D8F81C00C8F80030406A80470023A52C59
:10264000C6D1D8F80400A5210AF800100130C8E965
:102650000030BDE7411C0AF800400429C8F8041006
:1026600017D19AF802009AF803100C220B2808BF21
:1026700008228A4200F206826C2998BF0B2800F2D9
:102680000182012101FA00F040F6EC7108429FD16D
:10269000F8E106299CD39AF80340611D884297D13E
:1026A000211D5046FFF79EFD0AEB040189888842F0
:1026B00040F0E781DFF89C3D1868D3E902123590BD
:1026C000DAF80400CDE93712012134913690187CF4
:1026D0008DF8E4009AF802000238092800F2AB8174
:1026E000DFE810F00A004500A9018900B500C70025
:1026F0001001220133016701DFF8481D85A8FEF7AC
:102700004EFE682C40F06D819AF80820052A00F2F0
:1027100068819AF80930022B00F263819AF80A1056
:1027200001203490022900F286819AF90B00CDE94C
:10273000303232910028339000F17D81102000F179
:10274000040BBBF1700F00F0F5815AF80040DE4930
:10275000FEF750FF01210028349140F06C81DB49E5
:102760002046FEF7BFF800285846E8D163E10C2C5C
:10277000C0F037819AF80900032800F232819AF8F4
:102780000E20F02A00F22D81012134910C2101EB61
:102790004201A14240F04F81BAF90CE0BAF90AB007
:1027A000DE4540F348819AF80810042900F21981A7
:1027B0009AF80FC0BCF1020F00F21381DFF8843CDD
:1027C000DC78A14240F0B48193F88412002900F033
:1027D000AF81DFF8843CC0EB00110AF1100603EB77
:1027E00041141146002900F05D8236F8023B0139A0
:1027F00024F8023BF6E7DFF84C1C85A8FEF7CFFD76
:102800000120112C40F016819AF808103F2900F29F
:1028100011810DF55F7B34910AF109010C225846B4
:102820003391FDF765FF0020061D102E00F0EB80B0
:102830005BF800400021FEF7DDFE30B9A4492046D8
:10284000FEF77AF800283046EED00120F0E00C2C9C
:1028500040F0C780DAF808009E498842C0F0D18075
:10286000C8F81800D8F81C00C0698047C8F82000D4
:10287000C7E00E2CC0F0B5809AF80800042800F2DA
:10288000B0809AF809B0BBF1030F00F2AA809AF861
:102890000C10022900F2A5809AF80D30F02B00F2FE
:1028A000A0809AF80B202F2A00F29B809AF80AC089
:1028B00002EB0C06F02E00F2BB8233960126349612
:1028C0000E2606EB4206A6422BD1BAF80E40BAF904
:1028D00010E0DFF8746B329424B2A64540F3AB806D
:1028E000DFF8604BE478A04240F02281BCF1000F99
:1028F0003193CDE92F1E00F075823446767B94F833
:102900000EE076E21A2C08D19AF80800642804D860
:102910009AF80910022940F2B8804FF0010BCDF867
:10292000D0B0DFF8246B86E0DFF8181B85A8FEF72F
:1029300036FD102C55D100200C2854D00AEB000194
:102940000130097A0329F7D94BE0DFF8F80A90F84B
:102950008402002855D0232C43D19AF80840042C37
:102960003FD89AF80920E2B3F02A3AD89AF80AC078
:10297000BCF1000F35D0BCF1040F32D8DFF8C40A27
:10298000C078844240F0D4800020042800F0B48154
:102990000AEB0001C97A022923D80AEB800101233E
:1029A0000130B1F90FE0B1F9111034937145ECDC4D
:1029B00041E0082C15D1DFF88C2ADAF80800D2F8AB
:1029C000301181421DD0C2F83001107800213491BD
:1029D000012830D1507970BB3F48404903F078F965
:1029E0000FE0012026E0DFF85C4A0AF108010C2222
:1029F00004F10F00FDF77CFE0120A07385A802F012
:102A0000F3FE002016E0DFF83C4A33990C2204F173
:102A10006400FDF76DFE349901F0070084F874003E
:102A2000C1F3C20084F8700085A802F0DDFE00202A
:102A3000DFF8146A3490DFF80C2A3498D1788DF8D6
:102A4000DC0010788DF8DD10D2F880120138B0FA71
:102A500080F0CDF8DF1092F88412400941EA40007E
:102A60000F218DF8DE0035AC2046FFF7BBFBADF83B
:102A7000E300D8F81C001121026A204690470DF5AA
:102A80005F7B0023C8F80430A2E5CDE933010AF1E9
:102A90000A0185A814223291FDF72AFE0020061DA6
:102AA000182E1DD085A90C5800212046FDF71AFFCD
:102AB0004FF0010B00287FF432AF0549FEF79AFD75
:102AC00000283046EBD12AE70050C3C70050C34767
:102AD00000401C4600E10B5E07001C0132010F00A4
:102AE000DFF86009007907281FD1349A012A04D041
:102AF000DFF8500990F88502B8B1DFF8480933993A
:102B0000022A80F885120CD16429084609D1DFF821
:102B100034493299142204F5FA70FDF7E9FD0820D2
:102B20002071D348D34903F0D3F84FF0000BF6E6F9
:102B300002207FE7DFF80C293098329B002150708B
:102B400031989070B06F30B1381AB0F1FF3F02DCAD
:102B5000107A834201D1B16713723399DFF8FC48D0
:102B6000C1F34000907201F001005072C8B2C0F38E
:102B70008001D1721E2101EA90008130D0760020C0
:102B8000172809D00AEB800234F81010DFF8B438A7
:102B9000013012695A50F3E7DFF8A808002100F568
:102BA000A47039B1012909D003290ED0DFF8942887
:102BB0005C3206E0DFF88C284C3202E0DFF8842833
:102BC00054321268013104C0EBE7DFF878089DF851
:102BD0001D120022407A99B1D0B9DFF8683819780F
:102BE00083F8842293F837215879012983F8342116
:102BF00008BF00280CD1A048A04903F069F807E0FD
:102C000030B1FFF7A7FADFF83C08012180F8841201
:102C100085A802F0E9FDDFF82C089DF82F12C07E90
:102C2000814206D1DFF81C089DF816128078814297
:102C300003D09348934903F04BF8B07A18B9652054
:102C4000002102F0EBFBDFF8FC078178042908BFC4
:102C500003219DF81602042808BF032081420BD0EF
:102C600001F16E00722807D02839052904D3DFF856
:102C7000D417C96A02F0D2FBDFF8C8079DF82F12FB
:102C8000C07E414011F0180F07D000F01800FDF78A
:102C900078FE0146782002F0C1FB0120C8F80C70D4
:102CA000B072AEE6DFF89C3700EB4001BCF1010FDB
:102CB00003EBC10103EB4000A1F8CCE0A1F8CAB0DE
:102CC000A1F8C8204FF00A0108BF6421BCF1020F2F
:102CD00008BF4FF47A71A0F8241118780021012858
:102CE00034917FF41EAE5879DFF85C6700287FF4DA
:102CF000A2AE6548654971E66FF001002E94511E41
:102D0000002300243092CDF8C4C000EB420BDFF862
:102D100034072D9100F1CC0690F837012F90DFF8A1
:102D20003807A44543D00AEB8401B1F8112034924E
:102D3000B1F80F2036F8041CF0290BD04FF4F071D5
:102D4000CDE932061646FDF7FAFC3246DDE931C020
:102D5000339E012336F8021C914204D13188DDF8FC
:102D6000D0E0714500D001230AEB4401B1F81F10F7
:102D700020F80B10349900F5F07026F8181BF0219C
:102D800026F81C1C0AEB040126F81A2C0A22C97A20
:102D9000012908BF64220229DFF8A81608BF4FF4F2
:102DA0007A7201EB44010134A1F82421B9E7002231
:102DB000DFF89016184600233492309A81F83431A7
:102DC00081F83721097801297FF4ABADDFF874165B
:102DD000DFF87466497900297FF42DAE50B3264898
:102DE0002B49A4E0002486F80EB07073DE463473DD
:102DF00006460124864234947FF493ADDFF848669A
:102E0000DE457FF418AE347B3399A14200F09D80FB
:102E1000A4450DD1DFF848E60AF11304E2B334F813
:102E2000016C013A02342EF81C600CF1010CF5E73C
:102E300001208BE0DFF80C06FF241D2240780128DA
:102E400008BF40F217142E9801284FF0FF0018BF5A
:102E500004462D9804FB00F1EF20EF29B1FBF0F0C0
:102E600038BF1E223099F02947D10A4901314DE07F
:102E70006E004100CD006C01070065003201E900E1
:102E8000080003002C018900090050002E015B019D
:102E90003201BC000100B200DFF8AC253399117398
:102EA000CAB2F02A51D1DFF89C35FF215A7893F845
:102EB0003431D2B2012A08BF40F2171101284FF075
:102EC000FF0018BF01462C91002B41D1DFF874257B
:102ED0000BEB4B0002EBC000B0F8C820F02A37D152
:102EE000B0F8CA2032998A4232D13099B0F8CC0079
:102EF0008AB2801A18BF01202BE03099EF2361437A
:102F0000B1FBF3F1091A0231C0F2B2011044C0F270
:102F10006A0002F0DDFE2F9858B12F98EF2101389A
:102F20006043B0FBF1F0DA491E30C0F26A0002F0F3
:102F3000CFFED8F81000381AB0F57A7F05D3D548FF
:102F4000D549C8F8107002F0C3FE00203490E8E4C0
:102F50000120DFF804252D90CBEB0B10DFF800C526
:102F6000F0234FF0000E02EB40100022F02A0DD0AB
:102F70003CF8121030F81240F02B1E4608BF1646DF
:102F80008C421CBF334696460132EFE72D99DFF89D
:102F9000B424002918BF0023339318BF4FF0EF0E5D
:102FA00092F83721CDF8B8E052B12E99013A8A4211
:102FB00088BF11462E9133998A4238BF114633910A
:102FC000319959B131994A1E2E998A4288BF1146CA
:102FD0002E9133998A4238BF11463391DFF8644409
:102FE00031990022002334924FF4F07284F83711A3
:102FF000DFF86C1484F83431FDF77AFB0BEB4B00EF
:1030000030992F9A04EBC000A0F8CC103299A0F8A8
:10301000CA10F021A0F8C8100A21012A04EB4B00C5
:1030200008BF6421022A08BF4FF47A71A0F8241166
:10303000207801287FF475ACDFF80804DFF8086415
:10304000407900287FF4F7AC2D9810B1934894494B
:103050001CE03398EF281BD82E982C9BEF220130D0
:1030600003F11F015843B0FBF2F02030884238BF13
:1030700001463398002818BF01385843B0FBF2F0DE
:103080001E30091AC0F26A00C0F2B20102F020FE3E
:10309000D8F81000381AB0F5FA7FFFF456AF81481F
:1030A00081494EE7B07ADFF89CA3012823D1D8F8F4
:1030B0000C0042F21171381A88421CD385AC51467B
:1030C0004FF4A0722046FDF713FB00256420002179
:1030D000B57202F0A3F99AF81B007949AAF80950D1
:1030E00000F0A60040308AF81B00DE4802F0F0FD38
:1030F000204602F079FBD8F82000D8F818504FF499
:103100007A71381AB0FBF1F0002D18BF0544707CBD
:1031100001281ED100207074D8F82C0090B1D8F886
:103120003810B1B9317DA1B900210122C8E91101DE
:10313000CD48C8F83820C8E91311C0E90011C0E92A
:10314000021106E001208AF8CE028AF8050002F09A
:1031500065FED8F82800002857D03346C34EC44A2D
:103160008595708834887168ADF81A02187DCDE9AC
:103170008712ADF81842B8BBD8F83470380A6A28FC
:1031800032D80DF505794846FFF714F8ADF820025E
:10319000D8F83C00791CD8F858300E22C8F8341002
:1031A000494600EB071000F5805738469847C0B1F4
:1031B00085A8D8F85830022200F10E0107F10E0060
:1031C000984770B1D8F8543035A93846102298473E
:1031D00038B185A835A91022FCF7D5FF002801F0E9
:1031E0005087994901200875D8F8280006F1080190
:1031F000441E3046E200C8F82840FDF779FA924EA6
:103200000021102C38BF012100E00121D8F8300046
:1032100048B141B1FDF7B5FB0146C72002F0FEF809
:103220000020C8F83000D8F83800002800F0D68018
:10323000317D002940F0D48001281FD1D8F83C000E
:10324000D8F85010D8F85C204FF49413B0F5941FC0
:1032500008BF4FF4CA1358189047002800F0AF80F9
:10326000D8F8500000F58050B0F5D82FC8F85000BD
:1032700040F0A7800220C8F83800AFE0D8F84C0032
:10328000DFF8E491002785AE0DF1D40B60E000BFBC
:103290000100B20007006901320143000700650028
:1032A0003201BC000700510132015B00F400002034
:1032B0003C02002078000020E41C0020B012002016
:1032C0002C018900314604F0A3FDD8B3D8F844009E
:1032D000411C37D0859909B1814233D9D8F83C00D7
:1032E000D8F84810D8F85830B0F5941F614808BF96
:1032F00000F5D82000EB01143146102220469847F3
:10330000002801F0CB86D8F85430204659461022C8
:103310009847002801F0C286304659461022FCF733
:1033200032FF002841F0BA86D8F848000130C8F8CA
:103330004800BDF8180204F051FD59F82010013181
:1033400049F82010D8F84C0001370130C8F84C007B
:10335000D8F834100F2F98BF8842B3D33A4E884222
:103360000DF55F7B2DD1D8E90F014FF49414B0F522
:10337000941F4FF4941008BF4FF4CA10013108F0A5
:10338000F5FDE0B10020D8F8482008F1600CC8F83D
:103390003800D8E90F01C8F83420B9E8CC00C8F8E3
:1033A0006C70B0F5941FACE84C0008BF4FF4CA1421
:1033B000254E481CC8F83C40C8F8400004E00120F5
:1033C0003075D8F8380048B901203074D8F8340086
:1033D000FDF7D7FA01468C2002F020F8307D08B1C5
:1033E00003240EE0D8F8380008B1022409E0D8F828
:1033F00034002149002400EB80004000884288BF4F
:1034000001249AF87100844203D08AF8714002F0D6
:1034100005FDD8F8380088B3012808D1D8F8500045
:10342000322148434FF4D821B0FBF1F027E0D8F81F
:10343000340018B3D8F84C1032225143B1FBF0F0ED
:1034400032301CE03C0200207800002050434852FB
:103450000000000050C90008381E0020B4CF00084A
:10346000241800200800030064010020641C0020D0
:1034700000005AA500901200FFC2030064209AF8D1
:103480007220C1B28A4207D0022C8AF8720003D19E
:10349000D448D54902F01CFCD8F8180028B3D34A08
:1034A0003C21B5FBF1F0136898421ED0B0FBF1F15E
:1034B00010601822C1EB0111A0EB8100D8F8241094
:1034C00000904FF46160B5FBF0F0B0FBF2F202EB5C
:1034D0004202A0EBC20301F2AE20C5A2062108F011
:1034E00099FDC648C64902F0F3FB307C012803D1A0
:1034F0000020307404F006FDDAF84001002801F0E5
:10350000BC857078002801F0B88501200AF50B729F
:1035100000243072307107CA34668AF80D208AF8A8
:1035200036118AF83501DAF88002CAF82C019AF9C6
:103530001B0000284FF0000048BF01209AF800103F
:103540009AF805204B1EB3FA83F35B091840F06527
:1035500041EA0200C0B2FEF70EF87066504605F070
:10356000D7FD706E347208B3A64C0A2040F22111C8
:1035700091228B23A047A42040F2211192228B2379
:10358000A0478B2040F20D1111221523A0479E4D1C
:103590000024082C0AD005EBC40335F83400598800
:1035A0009A88DB8808F078FB0134F2E735A85146A9
:1035B000FDF7F5FEDAF8400100280F9001F058857C
:1035C000B06D0E90DAF844010D9035A802F094FC2D
:1035D00000245FF8901105464FF4A072746585A829
:1035E000FDF786F89DF8D900032805D18DF819421A
:1035F00085A802F081FC0546844B2A462E2D88BF03
:103600001A2200210C95229203EBC2000023023003
:103610000990A5F10B000590A2F10B002C907C48BD
:10362000043020907078814281F02085DFF8E4C179
:103630000A460CEBC1004488C5882F190697878875
:103640004FF42060B0FBF7F11020102928BF01468D
:10365000B7F5206F88BF01213CF832001291049227
:1036600013972A4639181F900891B1F5A07F88BF9B
:10367000C0F5A0770120012FD8BF074638B21197B7
:10368000079421941090100401F0EC8412981E927B
:1036900092B2824228BF0246219901F00F0089B2FE
:1036A000C0F11000824228BF02461D921C9188186A
:1036B000B0F5F07F104688BFC1F5F07001284FF0DB
:1036C0000101D8BF0846119A00FB02F1B1F5206F45
:1036D00084BF4FF42060B0FBF2F0219C4FF6F071F4
:1036E000B283109A30832140F4822B911F99718309
:1036F0004FF0F071C6F822104FF0A071C6F81E10FE
:1037000001B251430022914204D0434C24F81230BC
:103710000132F8E79DF9EF10B1F1FF3F17DC9DF89A
:10372000D410012913D19DF8D91081B91F991E29F0
:103730000DD30899B1F58F7F09D807996A2906D367
:103740000699B1F58E7F02D8012000F01CBC3179BA
:10375000012940F0CB800C99352900F2C780F16D2A
:103760000C9A80B20029114618BF2431059B072B03
:1037700028BF1146C1EB01118A00219909B2084402
:10378000CC080138C008CDE93002844200F2F4834D
:103790002249A018042201EB8001584602F048FBA0
:1037A000E0004FF0000932943390DF9800F11045AB
:1037B0004FEA5920042800F29480284602F08FFB3B
:1037C00000F07F07C9F52061B94240F28F8040B216
:1037D00005F1010BB0F1FF3F349021DD4FF0000AFD
:1037E00024E000BF1400B400180178007400002029
:1037F000253032753A253032750000000201030091
:1038000036001D0099BC0008A8D4000804D30008A5
:1038100038260020F0110020B82700205CD9049041
:10382000584602F051FB824605F1030B07F10108EF
:103830004FF4A07EB8F1000F4FD0B9FBFEF404EBBB
:103840008400404209EB8011C1F5A075454528BFB1
:103850004546B6F91A30B6F91CC0B6F916006F180D
:103860000CEB03029742B8BF3A46339F9942274474
:103870001C46C8BF0C4687421EDB5FF83464368B9B
:103880000644B7425FF8406416DAA24214DDE31A38
:10389000381A00FB0C305FF8803003EB4000349B9B
:1038A000B3F1FF3F12DD611A121B0BEB4101520015
:1038B00002F0BEFA4FF4A07E3498A8EB0508A944A4
:1038C000B0F1FF3FC8BF0BEB450BB3E7A11A0029CE
:1038D000F2D020F802AB0131F9E75D460DF55F7BD0
:1038E00066E7329CDDE9300201344EE70998002298
:1038F000008823902B9810302A902398824200F061
:103900003B8322985FF8FC10249231F83000DF49A5
:10391000400000EB4200084402F0D6FA0446DC48BE
:1039200000EB840002F0D0FA2B99884240F21F830A
:10393000D84800EB840002F0C7FA2A99814240F28D
:103940001683D54800EB440002F0BEFA0546D34882
:1039500000EB440002F0B8FA2D902D99A8B28842ED
:1039600080F00583CE49319501EB4000B03002F084
:10397000ABFA00EB4005CB48CB4E2844B047044699
:10398000CA482844B04744EA0024C9482844B047FC
:10399000C84944EA00400844D590D5AC204607F019
:1039A000D3FCC549162200FB0215204607F0CCFCCB
:1039B000044658462946162202F03AFAD59D0027B9
:1039C0000B2F22D024FA07F0C0071CD028466E1C0B
:1039D00002F085FAFF280AD0B74901EB400000F554
:1039E000E75002F071FA2BF8170035460BE030462D
:1039F00002F075FA0646A81C02F071FA46EA0020A9
:103A000003352BF817000137DAE7BDF87C03011FF7
:103A1000022920D8BDF88423BDF88833BDF8864339
:103A20001A44ADF88823BDF98A2393B2002A2344AF
:103A3000ADF88A33C8BF2346BDF880432344ADF8B0
:103A4000803313B282EAE332A2EBE332BDF8823371
:103A50001A44ADF882232C9A062A76D85FF81826E5
:103A6000D26D002A71D0BDF88643022927D8BDF84F
:103A700084131E2923D349089A2920D8BDF8881316
:103A80001E291CD349089A2919D86A2C17D3A108D2
:103A9000462914D8BDF88A136A2910D38908462903
:103AA0000DD806284FF0100008BF1220DFA9085AD1
:103AB00043F2292140F02000884246D002E20D283E
:103AC00043D1BDF88C037D49084402F008FAA4F103
:103AD0006D01BC290DD8BDF88403092800F0F281DE
:103AE000B0F5907F00F0EE8140F2291084422CD195
:103AF000E8E140F2AB118C420ED040F279118C42D9
:103B000000F0E081B4F5C57F06D040F295118C42FB
:103B100018BFB4F5D07F0BD1A0F130010A29C0F055
:103B2000D1812B2800F0CE812D2800F0CB810CE034
:103B3000362C0AD1BDF884033E2818BF9C2800F01B
:103B4000C181B0F5837F00F0BD81BDF880032A9963
:103B500081424FF0000188BF0121BDF8822310444B
:103B60002B9A90424FF0000088BF012000EA010428
:103B7000BDF87C53012C12D1BDF87E0348490822C0
:103B800001EBC001D5A802F053F9BDF95403BDF90A
:103B90005613BDF95823BDF95A3307F0D5FFA81EB7
:103BA0000B2800F2EB81DFE800F0068B5860309FB5
:103BB000A768AF45C00E002C00F08481FDF7CEFB56
:103BC00007F030FD7EE1002C00F07C815FF8880773
:103BD000BDF98613209B026EBDF98403002A00F014
:103BE000618133F9044C84420CDCB3F90040844217
:103BF00008DD33F9024C8C4204DCB3F902408C42FC
:103C000000F36081013A0833E8E7002C00F05A81A4
:103C1000BDF98C53BDF88E63BDF98403BDF98643AD
:103C2000BDF98823BDF98A33012D00F35081214667
:103C3000009617E0002C00F04581BDF98A43BDF8DD
:103C40008C83BDF98493BDF98663BDF98873012C1B
:103C500000F37C81FDF7DAFC64E0002C00F0328197
:103C6000FDF77CFB07F074FD2CE1002C00F02A81AD
:103C7000FDF774FB07F0CAFD24E1002C00F022815F
:103C8000FDF71AFB07F0F2FE1CE100BF2AD80190F5
:103C9000FCFE0190FAFE019024D1019026D1019002
:103CA000F47001909CE10090DF5E00089DE10090BF
:103CB0009EE100901000009016520190020D0290BB
:103CC000002C00F0FF80BDF98403BDF98613BDF917
:103CD0008823BDF98A33BDF88C43BDF88E53CDE9F6
:103CE000004507F06FFCEDE0002C00F0EB80FDF7E5
:103CF00035FB07F015FEE5E0002C00F0E380FDF752
:103D0000DBFA07F0DDFCDDE0002C00F0DB80BDF924
:103D10008C43BDF88A33BDF98403BDF98613BDF920
:103D20008823009407F0DAFBCCE0002C00F0CA8076
:103D3000BDF98403BDF98CC3BDF986E3BDF98A439F
:103D4000BDF98E33BDF98873ACEB0006A4EB0E0110
:103D5000A3EB0E05299634914E43C11B05FB016868
:103D60002891B8F1000F00F0AD80BDF89013BA466D
:103D70005FF82C795646329171467445C8BF21468A
:103D80009942D8BF1946B7F92450A942A8BF691E65
:103D9000B7F92020B7F916903D8BB7F91EB03092D5
:103DA000B7F922204D44A9423392A8BF691E27913A
:103DB0005045B8BF06466645A8BF66465E45D8BFB3
:103DC0005E46349FF346351A7D437445B8BFA3461B
:103DD0009B45A8BF9B4633998B45D8BF8B46CB45A7
:103DE000D8BFCB462899ABEB0E07AEEB030926965E
:103DF0001A1BABEB0404ABEB030307FB0151A6EB6F
:103E00000A0533925543AAEB0C0204FB0255259296
:103E1000A6EB0C02299C5045C8BF8246E24502FB36
:103E200009F2D8BFE246309803FB04278245A8BFB9
:103E3000A0F1010A56462798834543DC269C8A4612
:103E40003091CDE92E75B44220DCB8F1010F07DBCB
:103E5000BAF1000F04D4002D02D4B7F1FF3F09DC02
:103E6000B8F1FF3FD8BFBAF1000F08DC002D06DC27
:103E7000002F04DC329A2046594607F0FFF93498A7
:103E80004F440134824433980544DCE72898309944
:103E90002F9D2E9F0BF1010B014425980544299875
:103EA0000744C8E7BDF88C43EB4FBDF88A33BDF932
:103EB0008823BDF98E53BDF990633C448DE87000B2
:103EC00007F087FE319D0DF55F7B013545E5E71A6B
:103ED0004FF00601B8BF1F1BB0EB0208B8BFA2EB42
:103EE0000008062DA8BF0D46A3EB5509A0EB550B06
:103EF0000021A1EB550CA5EB55018C45C8BF6146CF
:103F00003394A4EB550430933490329201EB550175
:103F1000A2EB5505C1F1000ABAF1000FD2D0B845A5
:103F20000096BFBF584633992A46309BA1BF3498AC
:103F30002146329A4B4607F00BFC0AF1010A013484
:103F400009F101090BF1010B0135E5E7062C4FF0F2
:103F50000600A8BF04460025A542B3DA012FB1DB55
:103F6000FDF754FB07F0BAFA013F0135F4E7249A54
:103F70005FF82C6B0132C0E4002004E05FF8386B7E
:103F800000200DF55F7B1B9000200021FDF702FA59
:103F9000E8B38C98D8B39DF92F42002C05D4AFA17B
:103FA000FCF7E3F8002800F05481AE480424032114
:103FB00036221D230094C6F81E00AB48C6F8220026
:103FC00040F6A30001904FF4817007F079FB43F2B3
:103FD0002A20032136221D23009401904FF4817082
:103FE00007F044FD8C99102007F072FC8C99C0F109
:103FF000360010224DF61C7300910121019102211F
:1040000090FBF1F0182100F5817007F0B5FD9DF8E7
:104010002F029DF8202241B21AB9B1F1FF3F00F3FF
:10402000FF87904AB1F1FF3FC6F81E208E4AC6F8BE
:10403000222072DD9DF81902002840F0F1879DF8DA
:104040001402002840F07A8100205021FDF7A2F9E7
:10405000002800F086819DF92F02002804D49DF8E5
:104060001602012840F07D81929C0021FDF7C2FAE2
:10407000002840F07681FDF7B8F9CDE900019DF800
:1040800022429DF82652D5AF784A1821384607F0CB
:10409000C1FF75485C211A221123C6F8220071481D
:1040A000C6F81E0040F6A300022601907B20009671
:1040B00007F006FB6E48002C18BF05F003045C21D6
:1040C0001A22112330F814407B20CDE9006407F058
:1040D000CDFC0A20394607F0FBFB054607306FF0A0
:1040E0000101009701270A22234690FBF1F0682185
:1040F000019700F18806304607F03EFD5DA068217B
:104100000A222346CDE90007A8195FF8C46C0330E2
:1041100007F032FD9DF8140210E19DF816120529F2
:104120000AD14EF69E7000264FF001084FF0340978
:1041300051A500F54B740DE04FF2225210F0180F0C
:1041400002F1C00400F0B08000264FF001084FF0EB
:1041500034094DA5072001216122212307F010FC1D
:10416000002800F0DF8034965FF8246D4A484B4FFA
:10417000012140F23F122223C6F81E0043F6CC2054
:10418000C6F82270FDF72AF9DFF814A1A4B20B20BB
:104190000F21092212230094D0470920122109225D
:1041A00015230094D047092015210C2218230094D0
:1041B000D0470C201821102218230094D04710203B
:1041C0001821132215230094D04713201521132200
:1041D00012230094D0471320122111220F230094A0
:1041E000D0470E200A210E2212230094D0472D48DA
:1041F000012140F23F122223C6F82270C6F81E00A9
:1042000043F6CC20FDF7EAF8012018210D222346C1
:104210000095CDE90109172007F0DBFCB8F1000F8C
:1042200078D19DF81502002852D00128DFF8B40E8D
:10423000DFF8AC1E48F2E45308BF08460090162190
:1042400009220120019011200290349807F0C1FC4E
:1042500060E0E0B2DDE600BF020D029031343A3397
:104260003200000001003F010100DF011BD90008FE
:1042700084CF0008D1810000D090D092D090D0A0FF
:10428000D098D0AF00000000D0A0D090D097D0A0A0
:10429000D0AFD094000000000700160001002200FB
:1042A00051B7000816006800C81E0228C0F0078237
:1042B000012900F0D785022940F0DC85DFF8185E7F
:1042C00043264FF000084FF02A0948F2E45441E732
:1042D0000FF61460349EDFF8145E012416210922C3
:1042E00048F2E45300900920019402903046A84718
:1042F0000FF6FC50FDF777F90420029006F10B0051
:10430000A8470FF6F050FDF76EF90820029006F16D
:104310000F00A847DFF8940DEE49C0F81E10EE49D3
:10432000C0F822109DF81902DFF8806D002840F0D7
:1043300077869DF81402002800F09E8188B103283A
:1043400000F08D81012840F06B869DF8170202284D
:1043500040F29D810320FF27159001202590002029
:10436000ABE100202821FDF715F8002800F09E8021
:104370009DF82102C10743D0706E30B941F205109B
:1043800033212B221823FDF777F88E98FCF738FBA2
:10439000CDE90001D5ACDFF8142EFDF747F9DFF8C1
:1043A000FC2D9DF82202DFF8805D9DF82312FDF7B9
:1043B000D0F818BF01F0030035F810202820402164
:1043C000FDF744FE8F98FCF71BFBDFF8582DCDE975
:1043D00000012046182107F01DFEDFF8BC2D9DF8D6
:1043E00022029DF82412FCF7F3FF18BF01F003002E
:1043F00035F8102028204921FDF728FE9DF82102DC
:10440000410729D5706E40B941F2051033212522AC
:104410000C230090762007F005F99198FCF7F0FA4C
:10442000CDE90001D5ACDFF8882DFDF7FFF8DFF806
:10443000642D9DF822029DF82612FCF7C9FF18BFD3
:1044400001F00300DFF8E01C31F8102088203D2146
:10445000FDF7FCFD9DF82102800727D5706E40B95D
:1044600041F20510332124220C230090AA2007F0EA
:10447000D9F89098FCF7C4FACDE90001D5ACDFF883
:104480002C2DFDF7D3F8DFF8142D9DF822029DF8AE
:104490002712FCF79DFF18BF01F00300DFF8881C0E
:1044A00031F81020BC203D21FDF7D0FD0020602117
:1044B0004FF4A072302307F063FA002800F0B085B3
:1044C0009DF82102010724D5706E20B9FCF703FF87
:1044D000422007F0A7F89398FCF792FACDE9000183
:1044E000D5ACDFF8C82CFDF7A1F8DFF8C82C9DF893
:1044F00022029DF82A12FDF72CF818BF01F00300E4
:10450000DFF8241C31F810205520FDF77CF89DF8C9
:104510002102C10624D5706E20B9FCF7DCFE75209F
:1045200007F080F89498FCF76BFACDE90001D5AC60
:10453000DFF8782CFDF77AF8DFF8782C9DF8220266
:104540009DF82B12FDF705F818BF01F00300DFF806
:10455000D81B31F810208820FDF755F89DF821026E
:10456000810624D5706E20B9FCF7B5FEA92007F0AE
:1045700059F89598FCF744FACDE90001D5ACDFF87D
:104580002C2CFDF753F8DFF82C2C9DF822029DF817
:104590002C12FCF7DEFF18BF01F00300DFF8881BC8
:1045A00031F81020BC20FDF72EF89DF821024106BD
:1045B00024D5706E20B9FCF78EFED92007F032F8B2
:1045C0009698FCF71DFACDE90001D5ACDFF8DC2B9D
:1045D000FDF72CF8DFF8DC2B9DF822029DF82D1258
:1045E000FCF7B7FF18BF01F00300DFF83C1B31F800
:1045F0001020EC20FDF707F89DF8210240B2B0F141
:10460000FF3F00F30D85706E48B941F205106B2134
:1046100027220F2300904FF4867007F003F8979835
:10462000FCF7EEF9CDE90001D5ACDFF8802BFCF703
:10463000FDFFDFF8802B9DF822029DF82E12FCF77B
:1046400088FF18BF01F00300DFF8DC1A31F81020F2
:1046500040F21F107821FDF7F9FC00F0E1BCD3987F
:10466000002800F0DD849DF88702002800F0ED832B
:104670000025002200F009BC9DF8220270B39DF8CD
:1046800023129DF82402814288BF084627E00128B2
:104690006ED19DF81502FF27C1B20420012908BF81
:1046A00040F21717002918BF03201590A1F101004F
:1046B00018BF01212591FCF75EFF31905FE04C2689
:1046C0004FF000084FF0320948F2E4540FF6F815A5
:1046D00040E500BF01003F010100DF010020DFF8DD
:1046E000181A00F00300002531F81040042D0DD0F9
:1046F000DFF8040A4E211F221F23019430F8150011
:104700000090192007F05EF90135EFE74FF000083F
:10471000B8F1050F3FF48EAC9DF8220228B185A8B0
:104720004044407C00F0030000E000200FF6CC1174
:10473000002651F828400FF6D81151F82850DFF81C
:10474000B81931F81070042E0DD0DFF8AC094121F2
:1047500022463723019730F816000090284607F0CC
:1047600031F90136EFE7DFF8446908F10108CFE7D6
:104770000420FF27159000203190002025901E2056
:104780007A1C6A21B223F083BC48C6F8220007F1E4
:104790001F001490308441F2051000901E2006F096
:1047A00041FF07F11E04002505266EB143F22920C2
:1047B000224600906A2000EB95011E200B4606F071
:1047C000C7FF013EB135F0E7DFF8E06800240625B9
:1047D0007DB143F229206A2140F21B13009005208D
:1047E000B4FBF0F01E30024606F0B2FF3C44013D3F
:1047F000EEE7A34800240525C6F81E00A148C6F828
:104800002200681C32D0DDE9D001002808BFC82092
:1048100000FB0513B3F57A7F0BD31846FCF7B6F807
:10482000994B0022FBF725FEDFF85C29FCF703FE1D
:104830000AE0002B0FF64412DFF83C0908BF0246DD
:104840005846182107F0E6FB002040F22911072204
:1048500049F63553CDF800B001900520B4FBF0F0D7
:10486000173007F089F93C44013DCAE72E9700272D
:10487000022F00F087809DF817020325012888BFCA
:1048800002252598002818BF0225002F08BF3D46A5
:1048900085A800EB4500B0F82401002808BF0A20D5
:1048A000FCF76FF834903846002F18BF012031997B
:1048B000014201D00137DBE7DFF8F01773484FF40E
:1048C0009076002F4FF000094FF0020AC1F8220045
:1048D0004FF49F7008BF0926CE8308BF1E200884AE
:1048E00085A905EB450001EBC00000F1CA0100F10C
:1048F000C808339100F1CC013291B9F1050FD9D03C
:10490000B8F8000008B33398B0F900103298B0F945
:104910000000A0EB010BFCF72BF804460BFB09F0A1
:104920000DF55F7BFCF72DF85949FBF76BFF01464E
:104930002046FBF70FFF3499FBF796FFFCF760F872
:10494000DFF84828FCF777FD01E05248DF9049F690
:1049500035533FB19DF81702DFF8341801EBC00062
:1049600030F815306D200722CDF800B000EB9A0129
:1049700000200190304607F0FFF80AF1B10A09F172
:104980000109BAE7DDF8B8A000251598DFF81C6723
:10499000854200F03C8205EB450085A901EBC0098A
:1049A000484610F8D04F2D9001EB4500B0F8240197
:1049B000002808BF0A20FBF7E4FF2B9044B19DF8C4
:1049C0001702DFF8CC1701EBC00030F8150001E04A
:1049D00045F66D404D211A9067206943684301F107
:1049E0002C072599002918BF00F13C0703D000F1DE
:1049F0000D0863240FE025B1012D05D14FF05B08B0
:104A000008E04FF00D0805E04FF0F508022D08BF53
:104A10004FF0A8084924A8F1040040F26911224689
:104A20004423279006F0ACFF2F909DF817022395A2
:104A3000199701280CD078BB032DDFF85827DFF831
:104A40005C0708BF0246E81E18BF012047002BE0A4
:104A5000DFF8E026022D0BD8DFF83C17DFF834072B
:104A60000A4608BF02469DF81502022818BF0A46EA
:104A700010780127002808BF022715E06A001C01F2
:104A800001003F0123002F0100408F4065002001FD
:104A9000000080BEE2809400022DDFF89826DFF847
:104AA000F40638BF024602272D982497CDE917282F
:104AB000A0F10C011E20F083E8483091C6F82200D6
:104AC000149830840868002800F0B4804946169491
:104AD00031F8C88FB8F1000F0B9100F0AD80B0F93C
:104AE0000000FBF745FF2B99FBF7BEFE09F1CA0159
:104AF00031903490CDF82890002600270024299189
:104B000009F1CC014FF000092891002132910146B2
:104B10000020339000202A9000202690444580F009
:104B200084803098006830F914A02F9840B31FFAA1
:104B30008AF0BB4600B2FBF71BFF2B99FBF794FEF4
:104B4000349F06463946FBF7F7FE002818BF374664
:104B5000319D304634972946FBF7D2FE002818BF16
:104B60003546339831463195FBF7F4FD33903046A6
:104B70003146FBF747FE3299FBF7ECFD5F4632907A
:104B80009DF8480308B184424AD22D980078002845
:104B900046D0B8F1020F43D329982899B0F9000004
:104BA000B1F9001081423BDD081AA1EB0A01B122E4
:104BB000514391FBF0F020EAE070B12828BF104685
:104BC00000F16A0A2A99A8F10100B9FBF0F000F19E
:104BD0001E0B01B39DF84B138C421CD0269DB5EBE8
:104BE0000A01B8BFAAEB050101F101035146B8BFA4
:104BF0002946C01B00F11F02384606F0C1FE50B125
:104C00001A9829465A4653460090384606F0A0FDA9
:104C10000B98B0F8008001205F46CDF898A02A904C
:104C2000DDF8B8A00134D14478E7249FDDF828905E
:104C3000169C0CE0002002E00020249F169C002619
:104C4000329000203190002034900020339027983B
:104C500040F269112246442306F092FE002800F03B
:104C6000D3809DF84B13B9F8C800C84679B168B134
:104C70003098006800EB410030F9020CFBF778FE39
:104C80002B99FBF7F1FD0646012000E00020DFF83C
:104C90001C247349279BDFF808B50DF55F794FF0A9
:104CA000010AC2F8221023EAE371D183E1184FF41C
:104CB000A073B1F5A07FA8BF19461184002800F0A9
:104CC00095803046FBF79CFECDE90001484618214F
:104CD0005A463B4607F09EF90E20494606F0F8FD7D
:104CE000179C06460920214606F0F2FD2178304443
:104CF000CDE9009A0029314618BF011D6FF001006F
:104D00001A9B0E2291FBF0F01999471840F2791185
:104D1000384606F031FF207850B1F01940F2791191
:104D200009224BF61863CDE9004A043006F024FF4F
:104D300008F1C8000088FBF724FE804632984146FF
:104D4000FBF792FD002104460027FBF7CBFDD8B905
:104D500020464FF07E51FBF7EFFD002827464FF02D
:104D60007E5008BF0746142676B120463946FBF729
:104D70007BFD01463846FBF7EDFC4FF07C51FBF71D
:104D800041FD0746013EEFE731984146DB97DE9053
:104D90003498DD903398FBF767FDDDF8B8A0189FD5
:104DA000249E4FF4C57400250DF55B78DC90102D22
:104DB0002AD058F80500FBF723FECDE9000148464C
:104DC00018215A46334607F025F9002021460922CA
:104DD0004CF25963CDF800900190DFF8C8034059B8
:104DE000384406F0C9FE04350B34E0E70FF2B83062
:104DF0001A9B40F279110E22CDE9000A1998053864
:104E000006F0BAFEDDF8B8A0239D0135BDE59DF89A
:104E10004B03B0B11E21013840F21B13F183D54979
:104E200000FB0AF0C6F82210149931844EF69E71E8
:104E30000091EF2190FBF1F06A211E30024606F04E
:104E400087FC9C480DF55F7BE5E0BDF8521300221E
:104E5000D1B1C1EBC101CD1F17E000BF6A001C0139
:104E60006901AD0100264FF001084FF02C0993A510
:104E7000FFF770B9994D00264FF001084FF0230954
:104E800048F6D344FFF766B90025BDF850134E1B12
:104E900098BF164638B1BDF85203C0EBC0000738C2
:104EA0000E1A98BF16468148A0494FF49772FE2308
:104EB000C0F81E109E49FCF781FB85210090092057
:104EC00006F0B0FBA724B4F5CE7F0BD043F2092047
:104ED00021464FF49B7223460090092006F038FCCF
:104EE0002334F0E7B0B207214FF0000A072828BFAB
:104EF000084623214843329005EB4500860032984E
:104F000000218C4F504500F08480D39DCDF8831351
:104F1000CDE9DF11AC59B4B12046FBF71FF90246C9
:104F20000A284FF00A00214628BF02465846FBF7E0
:104F3000DFFBAC592046FBF711F900217D4F0B2810
:104F400088BF04F10B07AC190AF1950B6568CDE930
:104F500033467DB17A492846FBF707F980B17E498F
:104F60002846FBF702F988B1744CDFF8CC8143F690
:104F70005D5512E0714CDFF8C08143F65D550DE0E0
:104F8000DFF8C0814FF222556FA406E04EF69E7006
:104F900073A40FF2C81800F54B750021DFA8DFF8E5
:104FA000D091FCF7BBFACDE9000159460E204FF035
:104FB000000BC8470AF1A2010E200C224AF6D75373
:104FC000CDE9007BC8470120ADB20AF19C010C225B
:104FD000CDF80080019051202B46C847CDE9004B09
:104FE0000AF19B045B200C222B462146C8473398CC
:104FF000806838B1CDE9000B9A202146FCF78EFA83
:1050000006F0BAFD349E0AF1230A0DF55F7B0C36DB
:1050100075E7264E2748C6F81E002748C6F8220026
:105020001B9810B9204804F073F82148139D1D9F68
:105030001C990F9C00900D982A463B4601950290C2
:105040001F98A047D6E915011E9A002307FB05000B
:10505000D21B70652198384421900E9888423EF406
:1050600012AB05E004990131FEF7DCBA0020707044
:105070000020C6E91700706630710DF5657DBDE84A
:10508000F08F204602F0AAFE08EB8000016E01318D
:105090000166064901200874FEF7A6B8034E0120F8
:1050A0000DF55F7BFEF78CB93C02002078000020F4
:1050B000B827002001003F010100DF01D097D09008
:1050C000D0A0D0AFD0940000D0A0D090D091D09EEE
:1050D000D0A2D0900000000038E00008AEE1000847
:1050E00099D600089ED6000828550000D3BB0008BA
:1050F0002F000000462900007CCF0008230000009C
:10510000260000002500000026000000210000000D
:105110004400000075000000A9000000D900000054
:105120000E0100001BD9000884CF000809003701D8
:1051300085008301D6E60008C6D90008FDD6000820
:105140004CDA000850D60008D09FD180D0B5D0B43A
:10515000D183D0BFD1802E0069DB0008C397000047
:10516000D090D0B2D0B0D180D0B8D18F00000000A4
:1051700079BB00086A001C0126DC00082D256C752F
:1051800020D0BCD1810000001DDC000869D90008D6
:105190008CCF000865DF00086DDC000840E00008E7
:1051A00011D900084CCF0008E280940016D90008FD
:1051B00020D90008ECD700082DE9F04F87B07F4DCB
:1051C0001C4690F803E0B5F916B02E8BB5F91A70AD
:1051D000B5F91CC0B5F91E8006EB0B0390F906600B
:1051E0003244067916449E42B8BF3346B5F924606E
:1051F000B342A8BF334602935A45C8BF9346B5F998
:105200002260B345D8BFB34690F9056003900CEB1C
:10521000070006EB010ABA45C8BF57460AEB0E0164
:105220004745D8BF47468142B8BF0846B5F9201068
:105230008842A8BF084606970490874280F2BB8048
:105240000298834580F2B7800398D8468178038816
:1052500001F07F0649B243EA064B594B00294FD46F
:105260000698049903EB0B070D1AA8EB0201A0EBBB
:105270000A0001900298804500F09D800398019AF1
:10528000C3460491069B0026CDF814B0C07801FBFC
:105290000028D04AFCF77BF94FEA880AABEB000004
:1052A0004FF0000B00FB0230401A464901EB400969
:1052B0005D451ED008EB0B00BBF1000F01D0C1070C
:1052C00004D107EB600000F00AFE06460AF0040075
:1052D00026FA00F010F00F0206D039F81B00214624
:1052E00003F00CFF29F81B000BF1010B0AF1040A73
:1052F000DEE70499DDF81480013108F10108B9E70F
:10530000A8EB02004FF000090125002600FB0EF774
:10531000002F4DD02A48584400F0E1FD05EB101154
:105320000022B7EB101F00F00F060BF1010BA1EBF1
:105330000709C8BF7A1A1746C8BF4FF00009E7E748
:10534000039D5746CDF81480E878504487422BDA05
:10535000B9F1000F0AD11A48584400F0C0FD0121EC
:1053600000F00F060BF1010B01EB1019C6B1069806
:10537000874215DB0498874212DA964A059BDFF8CC
:105380004480FCF704F9181A50433246401A21466B
:105390003D1838F8150003F0B1FE28F81500039DFC
:1053A000A9F101090137CFE7DDF8148008F1010800
:1053B00002988045C4D1FCF7B5B800BF7800002042
:1053C00072A60290B82700207CB50446A0F8D2123D
:1053D000407901260D46667184F8D4022046FCF718
:1053E00031FFFBF70DFBCDE900010A4905EB450054
:1053F00004F52D75084A01EBC0001821C37D28462D
:1054000006F008FE2846FAF7A9FEA4F8CD6284F853
:10541000CC027CBD2CE9000811D9000810B5094A5E
:10542000936A102B03D1106B0130106310BD064C32
:1054300024F8330004EBC30000240133448093625A
:10544000416010BDF4000020641C00202DE9F041F3
:10545000D0F85844002504F1010EDDE906C41CB162
:10546000D4F80080676802E04FF00008002790F849
:10547000714480F85D5490F87054A0F85E2480F870
:105480005C14C0F858E4C0F86034C0F864C4C0F8D4
:105490006884C0F86C74102C0AD16C1C04F00F05E1
:1054A000D0F8744480F870540134C0F874440F2468
:1054B000661C2C4404F00F0480F8716404EB44046F
:1054C00000EBC400A0F8DE220022C0E9B83CC0E92D
:1054D000BA8780F8DC12C0F8D8E280F8DD22BDE897
:1054E000F08100001CB53C4C4FF4801121608DF818
:1054F00007000DF10700012105F0E7FF10202060F3
:105500001CBD00BF1CB59F200190AB20FFF7EAFF38
:105510000120FBF7C5FA304C4FF480106946042295
:105520006423206001A8FBF73DFD10212160C8B96C
:105530009DF802109DF801009DF80320090241EA40
:105540000040811825484165416D29B1416D6FF0DA
:105550007F42914218BF1CBD0B2180F864100520CA
:10556000FCF7C6F91D480A2180F864100120FCF7F9
:10557000BFF900BF2DE9F84F1648174E174C4FF4EE
:1055800080190DF1030A0DF1020B102540F6B93810
:10559000C76A05208DF8030050460121C6F8009027
:1055A00005F093FF584601216422FBF7ABFB70B96D
:1055B0009DF80200074984F85C003560C96AC91B80
:1055C000414504D2C00708BFBDE8F88FE4E7FBF708
:1055D00061FA00BF780000201008014000000020A0
:1055E000F0B50D4C002918BF01214FF47A73002546
:1055F0002246B02D04BF1046F0BD6619B7798F4220
:1056000007D1675D3F1A48BF7F429F42BCBF324609
:105610003B460835EDE700BF60CB0008B0B5A1F10F
:1056200020035F2B0CD3A1F582621F2A02D8A1F5BB
:105630006C7305E0A1F58662202A2ED2A1F2AF3369
:10564000828893422AD21A4C34F813408C4225D1D6
:10565000934206D100218A4205D001312029FAD196
:105660001F23934201D10020B0BD4088114A184445
:1056700000F07F01451C01EB810102EB410432F88F
:1056800011108D4207D00C49082201EBC001A01C6B
:1056900000F0CEFB2580A01CB0BD8288044C002306
:1056A0009A42D7D034F813508D42D1D00133F7E766
:1056B000E0C9000824130020722202902DE9F04F67
:1056C00085B003914FF0000BC1B202930192364DA9
:1056D0004FF000094FF00008C3F800B0C2F800B066
:1056E000042928BF5846C7B221A050F827600020DF
:1056F0000490B0452ED24FF00C0A4446B44209D271
:105700003846214600F03CF8287818B10AF10F0A13
:105710000134F3E7B9F1000F14D009EB0A00B0F53A
:10572000917F11D90398834505D1019804990160AF
:105730000298C0F800800BF1010B4FF00009CDF882
:10574000108001E04FF00009B44238BF0134D14469
:10575000A046CEE70398834504D1019804990160DF
:10576000029806600BF1010005B0BDE8F08F00BFA4
:1057700022000000250000001F0000001E000000A5
:10578000074A084B00EB800002EBC00203EB40101D
:1057900050F82100525C00F11041034800F048BB72
:1057A000E2CF000884D00008041A0020F8B517469C
:1057B0000A4604460898BDF81C1041EA00450699BF
:1057C00098B23B4640EA01462946304602F050FA7C
:1057D00038B1DDE909106560266060810120217221
:1057E000F8BD0020F8BD00002DE9F84F002867D073
:1057F0008146DFF8200499F800200178114318D180
:1058000099F802100024022914D18178022911D1BB
:10581000417899F801208A420BD1417999F8052005
:105820008A4206D1007A99F808100C1A18BF012490
:1058300000E00024484600F05FFBDFF8D88306460E
:10584000404600F059FB864200D0CCB398F80C00DB
:1058500099F80C10814233D198F8000030B3FBF76F
:10586000E4FDE0B1FBF7DBFDC8B1FBF7D2FDB0B161
:1058700098F8740099F87410814210D109F164000D
:1058800008F164010C22FAF77EFC40B9FBF7BBFD7E
:1058900005D198F8080099F80810814222D057489D
:1058A000574900F015FA98F80000D8B9FBF7ABFD9E
:1058B0000AD198F80A0099F80A1081420ED111E035
:1058C000BDE8F84F00F0AABAD048D14900F000FA7C
:1058D00098F8000030B9FBF796FDEAD0CE48CF49E2
:1058E00000F0F6F9D8F81C10D9F81C0005F088FD76
:1058F00018B1CB48CB4900F0EBF998F8000000282C
:1059000040F0328198F80E0099F80E10814207D1CC
:1059100009F10F0008F10F010C22FAF734FC18B15D
:10592000C148C24900F0D4F9D9F82400D8F82410AD
:10593000FBF710F830B1D9F82800D8F82810FBF799
:1059400009F818B9B848BA4900F0C2F9D9F83000D6
:10595000D8F83010FAF7FEFF18B9B648B64900F08B
:10596000B7F9D9F83400D8F83410FAF7F3FF18B9BA
:10597000B248B34900F0ACF9FBF7CAFD38B9B148F9
:10598000B14900F0A5F9B148B14900F0A1F9FBF720
:105990004CFD30B1D9F85000D8F85010FAF7DAFFC2
:1059A00018B9AC48AC4900F093F9AD48AB4E08F1DA
:1059B000640509F1640700244FF0010A8346032CB3
:1059C00020D099F8742098F874100AFA04F04A402C
:1059D0000240120609D03046594600F079F906F522
:1059E000D816043504370134E9E70842F7D038689F
:1059F0002968FAF7AFFF0028EDD0F0E70100230097
:105A00003E011E00FBF70BFD30B1D9F85800D8F865
:105A10005810FAF79FFF18B992488F4900F058F9CB
:105A2000FBF7F7FC30B1D9F86000D8F86010FAF74E
:105A300091FF18B98C48884900F04AF999F8080094
:105A400098F8081088420FD0884C4FF4D815884E2B
:105A500000FB0540314600F03BF998F8080031465C
:105A600000FB054000F034F998F835010F280FD0FD
:105A7000FBF748FD40B1FBF73FFD28B1FBF736FDD2
:105A800010B1FBF745FD18B97A487B4900F020F9C1
:105A900098F836010F280FD0FBF71CFD40B1FBF73B
:105AA00013FD28B1FBF70AFD10B1FBF701FD18B992
:105AB0007248734900F00CF9FBF724FD18B97148DE
:105AC000714900F005F9FBF717FD18B96F486E49E9
:105AD00000F0FEF8FBF70AFD18B96D486A4900F0BE
