:020000040800F2
:10000000C82C002001010008090100080B010008AC
:100010000D0100080F010008110100080000000098
:1000200000000000000000000000000013010008B4
:100030001501000800000000170100081D0B000852
:100040001B0100081B0100081B0100081B01000820
:100050001B0100081B0100081B0100081B01000810
:100060001B0100081B0100081B0100081B01000800
:100070001B0100081B0100081B0100081B010008F0
:100080001B0100081B0100081B0100081B010008E0
:100090001B0100081B0100081B0100081B010008D0
:1000A0001B0100081B0100081B0100081B010008C0
:1000B0001B0100081B0100081B0100081B010008B0
:1000C0001B0100081B0100081B0100081B010008A0
:1000D0001B010008CD0B00081B0100081B010008D4
:1000E0001B0100081B0100081B010008DFF80CD0F1
:1000F00000F08AF80048004745170008C82C002087
:100100000648804706480047FEE7FEE7FEE7FEE7B1
:10011000FEE7FEE7FEE7FEE7FEE7FEE7290B000845
:10012000ED00000810B5044604E00B7800F8013B30
:1001300003B1491C521EF8D2204610BDCAB2401E5F
:1001400010F8011F8A4202D00029F9D1002070471F
:10015000421C10F8011B0029FBD1801A704730B5F2
:1001600004460020034600E05B1C934203D2E05C9F
:10017000CD5C401BF8D030BD30B50B4601460020A9
:100180002022012409E021FA02F59D4205D303FA59
:1001900002F5491B04FA02F52844151EA2F10102DA
:1001A000F1DC30BD2DE9F05F0546002092469B460C
:1001B00088460646814640241BE02846414647467D
:1001C000224600F042F853465A46C01A914110D3D5
:1001D00011461846224600F029F82D1A67EB01084F
:1001E0004F4622460120002100F020F817EB0009BD
:1001F0004E41201EA4F10104DFDC484631462A4668
:100200004346BDE8F09F0000064C074D06E0E0685D
:1002100040F0010394E8070098471034AC42F6D34D
:10022000FFF768FF1861000838610008202A04DB26
:10023000203A00FA02F1002070479140C2F12003F9
:1002400020FA03F3194390407047202A04DB203A38
:1002500021FA02F00021704721FA02F3D040C2F1E6
:100260002002914008431946704710B5431A934243
:1002700009D28318881803E010F8011D03F8011D46
:10028000521EF9D210BD40EA01039B0703D009E0DA
:1002900008C9121F08C0042AFAD203E011F8013B72
:1002A00000F8013B521EF9D210BDD2B201E000F8B5
:1002B000012B491EFBD270470022F6E710B513460A
:1002C0000A4604461946FFF7F0FF204610BDEFF33B
:1002D000108072B600F026FFFCE70000ED49013007
:1002E0004A6A4B6A9B1A8342FBD370472DE9FC4F45
:1002F0005E4A04234FF0000A4FF001084FF0000956
:10030000904208BF0323009300250C6834FA05F2DD
:1003100008BFBDE8FC8F08FA05FE14EA0E0F00F0D6
:10032000A1804F68032F16D9112F26D0122F28D065
:10033000524A974213D0524A974210D0514A97429C
:100340000DD0514A97420AD0504A974207D0504A9E
:10035000974204D022E0DFE807F002181B1F8C68E8
:1003600044B1012C14BFC0F814E0C0F810E04FF005
:10037000080913E04FF0040910E0CC6804F1040907
:100380000CE0CC6804F10C0908E0D1F80C9005E011
:10039000CC6804F1080901E04FF000095446074613
:1003A000082D4FF00F0228BF203C28BF04373B68C0
:1003B00002FA04F609FA04F4B34323433B60CB7911
:1003C000DB064FD52C4A2A4C1368A4F57E7C43F0FB
:1003D0000103136013682F4A03F001039042019355
:1003E000019B25F003035CF803B008D02A4A904231
:1003F00007D02A4A009E904208BF022602E000264B
:1004000000E001260AF00C030F22AF0802FA03F401
:1004100006FA03F3164E174A2BEA040423434CF85A
:1004200027304F68FB02B36854BF23EA0E0443EA47
:100430000E04B460BB02136854BF23EA0E0443EAFF
:100440000E041460BB03736854BF23EA0E0443EA2E
:100450000E047460FB03336854BF23EA0E0243EAC0
:100460000E0232600AF1040A01354EE70014014021
:10047000000401400C04014018100240000011105B
:1004800000001210000021100000221000003110A6
:100490000000321000080140000C01400010014033
:1004A000CD48406A704700BF10B50F494FF47A72CB
:1004B000C968B1FBF2F14A1E0021B1EB126F11D1F4
:1004C0000A4BF0245A600A4A1470996007210F28D9
:1004D000196007D84FF0FF300F2100F00BF8BE482D
:1004E0000121017010BD00BF0000002010E000E0FD
:1004F00023ED00E010B5104A00F00F030F4C043B51
:1005000002442344002848BF03F10C0220684FF046
:10051000FF34C0F30220C31E80F0070038BF002361
:10052000042828BF042004FA00F021EA00009840C3
:100530000001107010BD00BF00E400E00CED00E011
:10054000F8B5A64D14460A4695F85110012919D15F
:100550006E68B6F5827F0BD1A96849B9042123469C
:1005600085F85110014601B0BDE8F04000F038B9FF
:10057000DFF89CCFDCF8243030B12AB195F8507008
:10058000012F03D10220F8BD0120F8BD042701216D
:1005900085F8517000276F65EA8785F85010AA87A3
:1005A000A863AF862F63C5E91077EF86A9682A682C
:1005B000B1F5004F07D1116821F0400111601168B9
:1005C00021F4804111601168490603D4116841F09B
:1005D00040011160E96829B32A68E98F31B3916855
:1005E000C90705D1DCF82410C91AA142F5D331E0BE
:1005F000D16820F8021BA863E98F0139E987ECE78D
:100600002A689168C90705D1DCF82410C91AA142EB
:1006100008D31FE0117B0170A86B0130A863E98F3C
:100620000139E987E98F0029EAD16E68B6F5827F42
:1006300018D1A868B0F5004F02D0B0F5806F11D185
:100640002968B0F5806F0A6822F040020A6009D17B
:10065000012008E0002085F85000012085F85100B5
:100660000320F8BD80200021224600F005FA28B1C1
:10067000686D40F02000686520206865012085F8DD
:100680005100002085F85000686D002818BF012037
:10069000F8BD00BFB0000020F8B5BD4DF54C0B46CD
:1006A000696A94F85160012E05D130B12BB194F8EC
:1006B0005060012E03D10220F8BD0120F8BD0326B1
:1006C000012784F8516000266665E38684F850703F
:1006D000A3862063A687A663C4E91066E687A76899
:1006E0002668B7F5004F07D1376827F04007376015
:1006F000376847F48047376037687F0603D4376828
:1007000047F040073760E768D4F804C0B7F5006FDA
:100710001ED1BCF1000F18BF012B06D130F8023BEF
:10072000F3602063E38E013BE3862368E68E86B3A5
:100730009E68B60704D46E6A761A9642F6D343E0F2
:1007400030F8026BDE602063E68E013EE686EDE760
:10075000BCF1000F18BF012B07D100783073206B5C
:1007600001302063E38E013BE3862368E68E86B189
:100770009E68B60704D46E6A761A9642F6D323E0D2
:1007800000781873206B01302063E68E013EE68608
:10079000ECE7104600F054F908B120206065A0682D
:1007A00038B9002000902068C168009180680090EE
:1007B0000098012084F85100002084F85000606DFA
:1007C000002818BF0120F8BD002084F85000012047
:1007D00084F851000320F8BDB00000207805002007
:1007E000F8B5DFF804CFCC4E8E46DCF8241096F82E
:1007F0005170012F07D120B1BEF1000F18BF002AA0
:100800000BD101250EE07568B5F5827F09D1B4687A
:1008100002253CB9042FEED004E096F85040012C9C
:1008200002D102252846F8BD012486F8504096F8EA
:100830005140042C1CBF052486F8514000247465E7
:10084000F287F286C6F838E0B2873063C6E9104412
:10085000B28635682C68640603D42C6844F04004E2
:100860002C60F4687768B4F5006F33D10FB1012ABA
:1008700006D130F8022BEA603063F28E013AF2863C
:1008800032680125F48E14B9F48F002C60D094687E
:10089000A4070BD5F48E4CB1012D07D130F8024BD3
:1008A0000025D4603063F48E013CF4869468E4073C
:1008B0000AD0F48F44B1D46801252EF8024BC6F853
:1008C00038E0F48F013CF487DCF82440641A9C4241
:1008D000D8D335E00FB1012A07D100782873306BE7
:1008E00001303063F08E0138F0860120F28E0AB9B3
:1008F000F28F6AB332689468A4070DD5F48E5CB1A8
:10090000012809D1306B00781073306B01303063EF
:10091000F08E0138F08600209468E4070BD0F48F45
:100920004CB1B06BD2680270B06B0130B063F08F25
:100930000138F0870120DCF82420521A9A42D5D3DE
:100940000020032586F85000012086F8510069E751
:10095000184600F075F828B1002086F850002020D5
:1009600070654EE7B06838B9002000903068C16803
:100970000091806800900098012086F851000020C6
:1009800086F85000756D002D18BF01254AE700BF9D
:10099000B000002005900598606940F00400606197
:1009A000606900F004000590032009900220079080
:1009B00070470090082000F0AFBD42F2107300EBCA
:1009C000C100406AA042704749F69953009603F06F
:1009D00085BA98F808000F99814270471C214FF49E
:1009E000F0721A23704700210022584749F69953A4
:1009F00000952047294601220123009007EB0800BB
:100A000000F08ABD012200EBC10090F82800704779
:100A100000201C214FF4F072EC237047CDF800A0A9
:100A200040470090002000F077BD49F699530097A9
:100A300030473023019400904FF48C702847000019
:100A400070B50C460546022001212A46234600F0D7
:100A500013F838B9802000212A462346002600F0EA
:100A60000BF828B12C480326416D41F02001416567
:100A7000304670BD78050020F8B5CE4CDFF898C040
:100A8000656A5B1B9D18A74AD268666AC2F3CB32BF
:100A90006A430092DCF800309F6807403F1AB7FABB
:100AA00087F77F098F4204BF0020F8BD676ABF1B2C
:100AB000AF4207D2009F009A013A0092002F08BF70
:100AC0003D46E9E7586820F0E0005860DCF8040093
:100AD000B0F5827F0BD1DCF80800B0F5004F02D0F2
:100AE000B0F5806F03D1186820F040001860DCF882
:100AF0002800B0F5005F07D1186820F40050186096
:100B0000186840F40050186000208CF85000012054
:100B10008CF851000320F8BD78050020A548416AF3
:100B200001314162704700BF70470000B8B5264AE6
:100B3000A04C136B1D680540854204BF0020B8BD62
:100B4000656A6D1A142D84BF0320B8BDDD686D077A
:100B5000F0D54028EED08028ECD01D682D07E9D5CF
:100B60000020009018680090586800900098106B62
:100B700050E8030F116B20F4907041E80303002B41
:100B8000F5D1106B50E8050F116B20F0010041E822
:100B90000503002BF5D1106E012809D1106B50E828
:100BA000030F116B20F0100041E80303002BF5D177
:100BB000202082F872000020106682F87000082061
:100BC00050670120B8BD00BF8001002000F0AABA24
:100BD0000D48BFF34F8F0D4A016801F4E0611143E6
:100BE0000160BFF34F8F00BFFDE700BF0648BFF3B2
:100BF0004F8F064A016801F4E06111430160BFF3C1
:100C00004F8F00BFFDE700BF0CED00E00400FA05C8
:100C1000890703D544F62061884201D2002070473D
:100C20000D49884284BF5C207047000244F6206171
:100C3000B0FBF1F06FF0FF01B0F5007F03D301F5D9
:100C400080714008F8E708445C21484340F2A571F0
:100C5000B0FBF1F0704700BFFF083D002DE9F843FD
:100C600006462D480C462D4F016841F08071016009
:100C7000386840F0010038600320D7F804808DF810
:100C80000000300A8DF803608DF80200300C8DF8FA
:100C900001000020B0EB124F2FD1F9494FF4801022
:100CA000154664220860894668460421FFF7F4FC73
:100CB00020B9A9B22046C822FFF742FC1021C9F88A
:100CC00000107968A1EB080215498B6A1A444FF4A9
:100CD0007A738A62BF4AD268B2FBF3F28B6AB3FBC3
:100CE000F2F2CA614A6A2A444A6240B10A22CE64D8
:100CF00081F85820B0FA80F04009BDE8F883002E52
:100D0000F8D1042DF6D30022042AF3D0A35C8D1869
:100D1000013285F85230F7E7FCED00E0001000E00A
:100D2000440000200000002082B022486421224CB0
:100D3000DFF88CA04FF4A07B406B00EB800001EB50
:100D40008008502101EB80053C2101EB8006282121
:100D500001EB80094F46B7F5F07F29D215484FF4D3
:100D6000207187632046FFF7A7FA144A08204946F6
:100D70004FF2CA23D0470820314612A24FF2CA23AD
:100D8000D0470820294614A24AF6D753D047082056
:100D900041461DA24AF6D753D047B9B200204FF4BE
:100DA000A0720123CDE9004B00F008FA0137D2E729
:100DB000FFF78DFAB0000020F8010020085F00085E
:100DC0009D120008D09ED0A8D098D091D09AD090F3
:100DD00020464C4153480000D09ED091D09DD09EDB
:100DE000D092D098D0A2D09520D0A0D095D0A1D02C
:100DF000A3D0A0D0A1D0AB20D0ADD09AD0A0D0901D
:100E0000D09DD09000000000D097D090D093D0A07B
:100E1000D0A3D097D0A7D098D09A20554152542033
:100E2000D094D09ED0A1D0A2D0A3D09FD095D09D59
:100E3000000000002DE9F04F87B0DFF898C10446AC
:100E40000628084628BF0624642928BF6420DCF849
:100E500004E074450CD1DCF80820904202D107B0C0
:100E6000BDE8F08F632903D8821A01D3052AF6D38F
:100E7000594E00250022F76A944206D027FA02F361
:100E8000013203F001031D44F6E7012205EB85055D
:100E90000DF11708A2401743F7622427BEF163093A
:100EA00018BF07EB8509382707EB8503BEF1630FF1
:100EB0004A4F08BF4FF4F07303936329336B94BF19
:100EC00023EA02021A433263F625CCE901402522C7
:100ED000ADF81A206422B0FBF2F242F030028DF835
:100EE00017200A22B0FBF2F303FB0505B3FBF2F275
:100EF00002EB820245F03005A3EB42028DF8195057
:100F0000012542F030020A284FF001008DF8182028
:100F100038BF0220642938BF8044039881459ED29F
:100F200038464FF42071CDF81090C6F83890FFF78E
:100F3000C3F9082010212AA24EF69E7300F0AEF9E4
:100F40004FF0000B4FF00009B9F1070F2DD0F06AF8
:100F500005FA09FA10EA0A0F24D02CA028214AF633
:100F6000D75350F829200BEB8B0001EB80070820AA
:100F7000394600F093F92CA24C454EF69E7108BFFD
:100F80004246306B10EA0A0028A018BF02462848E3
:100F900008BF084683B239464FF4887000F07EF9E6
:100FA0000BF1010B09F10109CEE7DDF810900B4FB1
:100FB0004FF4A0704FF4A0720123C6F834B0019032
:100FC00000201FFA89F1009700F0F8F809F10109F3
:100FD000A3E700BF00000020B0000020F8010020BF
:100FE000D098D09DD098D0A6D098D090D09BD098B3
:100FF000D097D090D0A6D098D0AF20D0A1D098D004
:10100000A1D0A2D095D09CD0AB000000305F0008EA
:10101000DC5C0008F75C0008EA5E0008C85E0008B7
:10102000715F0008AC5E00082E2E2E004F4B0000B2
:10103000668EFFFF1CB520218DF807008DF8041087
:10104000010A8DF80610010C8DF805100B490842B5
:101050001CBF00201CBD00F0A3FA00F091FA304C38
:101060004FF480100421206001A802F0E6FF102058
:10107000206000F095FA01201CBD00BFFF0FE0FFCB
:1010800010080140B0F5001F05D8C0F500139342C9
:1010900028BFFFF7E3BD0020704700002DE9F84F9F
:1010A000B0F5001F05D80646C0F500101446904262
:1010B00002D20020BDE8F88F0D464FF4801AE846B2
:1010C0004FF0100B44B302208DF803608DF8000040
:1010D000300A8DF80200300C8DF8010000F060FA43
:1010E00000F04EFA0E4804218146C0F800A04046A8
:1010F00002F0A3FFF0B2C0F580772846A74228BFD0
:101100002746394602F099FFC9F800B0E41B3E4477
:101110003D4400F045FAD5E70120BDE8F88F00BF57
:10112000100801401FB51E48006B48B3016811F05C
:10113000280F25D0406809070FD01A480021816286
:101140001948009018A0D0E90112C068CDE9011239
:101150000390684600F054F91FBDEFF3108181B190
:101160001049C0B214A3A0F150048A6AB4FA84F4FE
:1011700064099B5C834208BF541C8C62042C0BD016
:101180001FBD002101228DF80D0001918DF8002076
:1011900002918DF80C10DCE700208862FFF718FD43
:1011A00080010020B00000200200000000000000CC
:1011B0000000000000000000504348522DE9F043B9
:1011C000B1B0002A64D01D46002B61D00E46010A42
:1011D0008DF8C10010440DF1C0081446DDE93879DE
:1011E000042201388DF8C01041468DF8C300000A72
:1011F0008DF8C2002A2000F089FA300A4146042204
:101200008DF8C1608DF8C000701901388DF8C300E9
:10121000000A8DF8C2002B2000F078FA1E4E4FF025
:10122000004030604FF0005030602C2000F062FA37
:101230004FF40050B046306005FB04F06D46461E8A
:101240000020711C1BD037F8021B09BA090C295267
:101250000230C02804D12846C02102F0EEFE002052
:101260005EB1B6FBF4F101FB146100294FF00001FF
:1012700008BFA9EB040107EB4107013EE1E718B104
:1012800081B2684602F0D9FE4FF40040C8F8000071
:1012900031B0BDE8F08300BF100C01402DE9F04FE4
:1012A000234CDFF890C0DFF890E004EB4009DC4C01
:1012B000D4F838B01778CFB3C02F07D354780232A0
:1012C00004F03F0467F38A14274600E0013200244B
:1012D000E046352C26D03EF81460B74203D008F122
:1012E0000C080134F5E74FF0000ABAF10C0F19D0E1
:1012F00018F80A400AEB01060027082F0FD024FA3D
:1013000007F5ED0709D0B34507DBC519AD09042D75
:1013100003D8B345D8BF29F817300137EDE70AF1F4
:10132000010AE2E709F110090830C3E7BDE8F08FD0
:10133000F801002052450008E84400082DE9FC4768
:1013400004460B98DFF8648D1F4615460E46009044
:101350002046C04749F6995A204631462A4601237D
:101360004FF00109FFF75AFBF0192A460123CDF887
:1013700000A0411E2046C0472046314601223B4680
:10138000FFF74CFB6019314601223B46CDF800A027
:101390000138C047DDF82880404602F00BFE00EB24
:1013A000C000A7F1100102224EF67F73CDF8009025
:1013B000404291FBF2F1284490FBF2F03144424666
:1013C000204402F08BFDBDE8FC8700BF70B54FF6EE
:1013D000FF7241F2210381B10478013982EA0422CB
:1013E000082444B115B25600002D48BF83EA4206D6
:1013F000B2B2013CF5E70130EDE790B270BD0000FC
:1014000070B502460078022812D0012814D1B648DF
:10141000C18A838A0131CB1A9BB2B3F5007F08D809
:10142000527BC38A3B4C6FF35F23E254C1825DE081
:10143000AD480121C17370BD002857D1AA4CE06CA2
:10144000002853D0B2F90A005568B2F9081083B2E7
:1014500025651DB2002D49D45D090E2D46D88DB2EB
:101460002EB2B6F5A07F41DAAD09042D3ED840F288
:101470003F15127B691AE57AE2B1BDBB0122618397
:101480002383E27222790AB9227B82B30022B3F568
:10149000BB7FA27228BFB1F5867F27D39A08762A30
:1014A00024D88A084E2A21D802F062FA4FF69C709E
:1014B000608370BDD5B1A27A0025E5721AB102F041
:1014C000BFF9A57270BD228B831A0F2B0EDC121A86
:1014D0000F2A0BDCB4F91A208B1A0F2B06DC521AD8
:1014E0000F2A03DCBDE8704002F042BA70BD082B41
:1014F00001D2002009E0CE29C8D39A08562AC5D8BF
:101500000020B1F5807F38BF0120A07270BD00BF00
:10151000B0000020481A0020F0B5734C0B44B4F919
:101520001C50B4F91E60B4F92070648C04EB060CF6
:10153000124C6345B8BF9C4613188542C8BF284665
:101540008E42C8BF31468A1B059E02FB0702521B12
:1015500004EB42027C19A342B8BF1C467D006145E2
:10156000A8BFF0BD17460346A34203DA27F8026B73
:101570000133F9E72A440131F1E700BF480B0020AD
:101580001CB51F4C4FF480100121206006208DF8FF
:1015900007000DF1070002F050FD102020601CBD77
:1015A0002DE9F84F5048164E164C4FF480190DF1A6
:1015B000030A0DF1020B102540F6B938476A0520E1
:1015C0008DF8030050460121C6F8009002F035FD69
:1015D000584601216422FEF7B3FF70B99DF802005E
:1015E000414984F850003560496AC91B414504D21D
:1015F000C00708BFBDE8F88FE4E7FEF768FE00BF4C
:101600001008014044000020374800214FF4F072D8
:101610004FF4A07301660020002100F003B800BF62
:10162000B00000202DE9F04F0024002521EAE17BE5
:10163000002948BF0D4605EB030909EB0B03B3F581
:10164000A07FC8BFCBF5A079002848BF044604EBB3
:10165000020A20EAE0700AEB0002B2F5F07FC8BF90
:10166000C0F5F07ABAF1010FA8BFB9F1010F01DAA4
:10167000BDE8F08FDFF84CCD1C4E09EB0B0E0AEBEA
:1016800000080027DCF86050BD4215D036F937401D
:10169000A0420FDB06EBC703B3F90220934509DB39
:1016A000B3F904102144884504DCB3F90610114451
:1016B0008E45DDDD0137E7E7202D05D10C480021FF
:1016C000C6E9001001200AE026F8350006EBC50047
:1016D000A0F80690A0F804A0A0F802B0681CCCF80E
:1016E0006000BDE8F08F00BFB0000020780400204B
:1016F000E0014001E0B58DF80700002002218DF8DF
:1017000006000DF1060002F098FC8CBD70B50C4E81
:101710000D464FF00041144631604FF000513160EA
:10172000FFF7E8FF4FF4005030602CB115F8010BC3
:10173000FFF7E0FF013CF8E74FF40040306070BD78
:10174000100C01408AB0BC4D4FF6FF02286840F0F3
:1017500010002860B94801681140B94A114301607E
:101760000F20FEF7A1FEB74C0222606940F0010095
:101770006061606900F0010006900698A06940F081
:101780008050A061A06900F0805006900698AE4895
:10179000016862F31A610160206800F00C000428FF
:1017A00019D0206800F00C00082802D12068C0037E
:1017B00011D454F8040C40F4803044F8040CDFF8E1
:1017C000DC06416A54F8042C920306D4426A521A89
:1017D000642AF7D98BE054F8040C206800F00C0060
:1017E00008285FD1206800F47410B0F5E81F7ED19E
:1017F000286810F0060F09D12868022161F3020061
:101800002860286800F00700022870D1206840F4A2
:10181000E0602060206840F460502060206820F084
:10182000F000206054F8040C800160D5206802218B
:10183000DFF8687661F3010041F288312060786A50
:10184000226802F00C02082A04D07A6A121A8A422C
:10185000F6D94CE0286800F00700032809D328686F
:10186000022161F302002860286800F007000228C6
:101870003DD12068042161F30A202060206820F413
:10188000605020607148216801F00C02082A39D1AB
:10189000C1F383420FF20863C9039A5C29D46C48F0
:1018A00050432FE06B4900200860DFF8F005426AE2
:1018B00054F8043C9B0104D5436A9B1A022BF7D9C8
:1018C00015E0226822F400322260226822F47412A9
:1018D00002F5E812226001220A60416A54F8042CE1
:1018E00092013FF585AF426A521A022AF6D9FEF7F5
:1018F000EEFC216850430FF2B852C1F34041515CF5
:10190000B0FBF1F021680FF2AC524FF01008C1F3B8
:101910000311515CC840DFF8AC15C8603878002866
:101920004FF0100018BF0F20FEF7BEFD60694A4D52
:101930004A4E4FF470414FF0010A0DF11809DFF8DB
:101940008CB540F010006061606900F010000690F6
:101950000698606940F020006061606900F0200036
:1019600006900698606940F004006061606900F0CC
:10197000040006900698606940F0080060616069A4
:1019800000F00800069006984FF400502860C6F852
:101990001080C6F8101403214FF00008CDE9060AA4
:1019A00006F5006009914946CDF82080D84703200C
:1019B0004946CDE907A80990102006903046D8473F
:1019C0004FF4806006F580664946CDE9078A0690A7
:1019D0003046D84703204946CDE907A809904FF47F
:1019E000704006903046D8471D48DFF8E4644FF455
:1019F00000710A234FF48272A0F50060C6E90388E3
:101A0000C6E90581C6F81C80C6E90888C6E90A83CC
:101A100086E8050196F8513023B300234FF0000B00
:101A20004FF000094FF0000A4FF0000C0493002320
:101A300003930023029354E0002002400CED00E0E9
:101A40000003FA05041002400400014000127A006D
:101A500000093D00600042421010014000080140B2
:101A60000038014086F85080CDF820800DF118092B
:101A70006069494640F480506061606900F48050BC
:101A8000FEF788FFA02006900598CD488246FEF715
:101A90002DFC40204946CDE9078806905046FEF7C8
:101AA00025FCB26AD6E9000106F1180ED6E902CA91
:101AB000D6E9043B02F4005201919EE802420BF089
:101AC000010B0AF4006A0CF4044C04920EF080023C
:101AD000039209F0380203F002090292019A02F41B
:101AE0008272022342EA0C0286F8513042EA0A026C
:101AF000D0F800E042EA090242EA0B022EF040036D
:101B0000DFF8D4E3036001F400731A43029B1A4325
:101B1000039B1A43049B1A430260042202EA114108
:101B2000EC4A4160C169924621F40061C161012023
:101B3000C6F854804FF4E13186F851000C20CEE90C
:101B40000C21CEE90E88CEE91288CEE910809EF8ED
:101B5000710040B1DC49DFF86CB34FF0000C00229B
:101B6000504689462AE000260DF118088EF870606C
:101B700008964146606940F480406061606900F405
:101B80008040FEF707FF4FF4007006900598CE489E
:101B90008146FEF7ABFB4FF480604146CDE9076616
:101BA00006904846FEF7A2FBDFF82CE3DFF814B3FB
:101BB000DEF83000DEE90EC2DEF84880242341F270
:101BC0000C618EF87130C36823F40053C36003695D
:101BD00023F440531A430261DEE91023C66842EA47
:101BE0000C0226EA0101BF4E1A4311430822C160CC
:101BF000416921F4407141EA0801DFF8F082416156
:101C0000504508BF0B22DBF80C1023684FF0010A87
:101C100023FA02F2B1A302F007029A5C192321FA17
:101C200002F25A43DEF834309B00B2FBF3F2642335
:101C3000B2FBF3F404FB0622322606EB0212AA4E94
:101C4000B2FBF3F202F0F00302F00F0203EB041315
:101C500000241A448260026922F4904202614269BF
:101C600022F02A024261C26842F40052C26020207F
:101C7000CEF874408EF871008EF87200CEF8644091
:101C80003474F160786AB0604FF0005028605520DD
:101C900086F800A08DF818004FF48040C9F81004B1
:101CA0004FF40040C9F810044FF08050C9F81004F8
:101CB00048208DF814001420C0474FF48050C9F814
:101CC00010047820C047D946DFF824B20120FEF77F
:101CD0008AFE7820C0471120FEF785FE7820C04795
:101CE00006A93A200122D8478249C0200222D847BB
:101CF0008149C1200222D8478049C2200122D84709
:101D00007F49C5200422D8477E49E0200F22D847CA
:101D10007D49E1200F22D8472020FEF764FE05A967
:101D200036200122D84700200021FFF783F8292020
:101D3000FEF759FE9620C04700206421FFF77AF88D
:101D40000220307086F851A096F85100002800F06B
:101D5000A38003206D49C8463070786ABC82FC823B
:101D6000A7F80740C7F80340A7F80140A7F80D40BF
:101D7000C7F80940C7E91544C7E91744C7E919443A
:101D80003C82C7E91310C7E91B400220FC734FF4E3
:101D9000906108F8100B5E48FEF78EFA5DA1404690
:101DA0001C22FEF762FA624862494FF48A42062C0E
:101DB00008D000EBC403013459621A85F7E700BF6D
:101DC000000801405C4806A90822FFF75BF9F8B15A
:101DD0009DF818004D281BD19DF81900422817D1F5
:101DE0009DF81A00012813D19DF81B40012C0FD833
:101DF0009DF81C80B8F1020F0AD806A80621FFF74B
:101E0000E5FABDF81E10814204BF89F800807C709D
:101E1000FFF7FAFB0020304C0690206B016806911A
:101E200002214068069006982520FEF763FB434890
:101E300020210160206BC16841F02001C1600620B3
:101E40006421FEF7F7FF00F0D1FA3D4C042030701A
:101E5000786AF96B411AB060B1F5FA7F09D3F8637B
:101E600055F8041C01F4005141EA014181F400518C
:101E7000296000F0B5F9386C796C884209D000F01F
:101E8000070004EB0010FFF7BBFA386C0130386430
:101E9000F2E700F0ABFADBE7FEF746FFB000002008
:101EA00002030405060708090A0B0C0D0E0F10109B
:101EB0000102000000000000000000000102030415
:101EC000060708090000002000080140ED02000894
:101ED000780500200038014080010020000000004B
:101EE000010203049CFFFF0F44000020DD020008F4
:101EF0000D170008B444000894440008B6440008D4
:101F0000B744000896440008A5440008BC440008F3
:101F1000D0050020D09DD0B5D18220D0BAD0BED07F
:101F2000BCD0BFD0BED0B7D0B8D186D0B8D0B80062
:101F30002C010020C0B6060000F01F0004E100E004
:101F4000481C00202DE9F04F89B08346A3489146F4
:101F500088460793B0F91C10B0F920200A445A456E
:101F600040F3A18009EB0B048C4240F39C80B0F954
:101F70001E10408C0844404540F3958009EB08074B
:101F80008F4240F3908002206421DDF81CA00BF109
:101F90000406464DA9F10802022399FBF0F00892CD
:101FA000CDF800A00690C9EB0910400090FBF1F0BD
:101FB000414605903046A847089A3C4DB91E304628
:101FC0000223CDF800A0A84708F10407089B374D6D
:101FD00058460222CDF800A03946A847A01E089B0B
:101FE000324C39460222CDF800A0A047A9F10A04DC
:101FF000002549F69959042D0ED06808CDF80090B7
:1020000000FB0471E807304618BF20440322032375
:10201000FFF782FA0135EEE70699059A01EB080011
:1020200001EB0B07514202FB02F60390501C814268
:10203000C8BF084604900291500001300190501F23
:1020400040430690101F00FB00FB501E40430890C9
:102050000498814227D00398DDE901A801FB01F42F
:1020600005914518BAF1000F1AD008FB0849B1458F
:1020700002D80898814504D2D94505D806988145EB
:1020800002D30798FEF7B6FCB9F1060F03D84EF657
:102090007F70FEF7AFFCAAF1010A08F10108E1E741
:1020A00005990131D4E709B0BDE8F08F1915000892
:1020B000E0B54AB2B2F1FF3F11DD0C22B1FBF2F202
:1020C000531EA2EB820201EB820108A20093C9B267
:1020D00052F8213011A2102102F006F88CBD002127
:1020E000817042F62D5101808CBD00BFCB5C000891
:1020F0004F5C0008CD5C0008525C0008D65C00080C
:10210000D85C0008555C0008DA5C0008585C0008E0
:10211000944400084C5C0008C95C000825732564E1
:102120000000000080B501462B482F22FDF7FAFF82
:1021300000214FF4F0721A2380F82F10A148016D8E
:1021400001F5FA61C16600201C21BDE88040FFF75F
:1021500069BA00BFFEF74AFDF8B51F4D95F871202A
:10216000202A37D1B0B3A9B3002621226E6785F8A3
:102170007120944AA5F85410546AA5F85610A96B1A
:102180002A6C81F4805151EA02070CBF06460746CB
:10219000B5F85600B8B180202146FEF7C7FCB0B9AB
:1021A00027B117F8010B296B486006E036F8021BCF
:1021B000286B00276FF35F214160B5F856000138A6
:1021C000A5F85600E4E740202146FEF7AFFC2020AA
:1021D00085F87100F8BD00BF80010020B00000202C
:1021E0002DE9F04F87B077498346886CABEB000050
:1021F0000A28C0F0DF80DFF8D091744C744B0E4693
:102200000522C9F808B0C1F848B02068D0F800A08D
:1022100019680191016821F040010160016862F3D1
:10222000C5010160016841F0400101604FF080404C
:102230009860D12001F0E6FE00250DF11207052D72
:1022400006D0D12001F0DEFE27F815000135F6E7B3
:10225000912001F0D7FE4FF0000802ADB8F1050F54
:1022600007D0912001F0CEFE25F8180008F10108F2
:10227000F4E7902001F0C6FE55494FF48040B44683
:1022800088602068016821F040010160C0F800A06A
:1022900001200221052818D00A469AB1BB18BE5A5F
:1022A00033F8024CA6423CBF23F8026C1C80AB18EA
:1022B000AE5A33F8024CA6423CBF23F8026C1C8095
:1022C000023AEAE702310130E4E7BDF81400BDF854
:1022D00018100A1ABDF80C10BDF81600502A0FD8B5
:1022E000BDF80A20BDF80E309A1A502A08D838B125
:1022F00040F6FF72904203D0914201D000295CD198
:10230000002289F84520324A324C1268C2F38022FA
:1023100089F8442040F23F12A9F83C00A9F83E1089
:1023200001FB02F34FF638110022591A91FBF4F524
:1023300029498B424FF0000138BF05F23F114EF69C
:10234000C525AB42254B40F2DF1538BF40F23F11A7
:10235000A9F8401000FB053393FBF4F300FB05F4F0
:102360001F4884424FF0000038BF03F2DF101D4BBE
:102370009C4238BF40F2DF10A9F84200D9F838304B
:102380000133C9F8383099F84530DCE910452C1B89
:10239000072C0FD8144F05F0070401352601CCF89F
:1023A000445007EB0414BA55627323736081218192
:1023B000C4F804B007B0BDE8F08F019B012222EA07
:1023C00093229EE7B0000020440000207805002002
:1023D000080C01408CF1FFFF380A1300C889FEFF8A
:1023E000B88F1C00C5670100481C00202DE9F04F84
:1023F000A5B0DFF8F88EDFF8F81ED8F824000C90AE
:10240000086B0D9088690B90C8690A90486A09901A
:10241000886A089000208861C86148628862D8F89C
:102420002410C8F8501098F80F1059B1B8F81610C9
:10243000A8F81410C8F85C0088F80F000FF6B46014
:10244000FFF770FED8F85C0050B1D8F85010D8F8FB
:102450007420891A652924BF0020C8F85C0000E0B8
:102460000020DFF8A47EDFF8A46EDFF8A4BE4FF4EE
:10247000007A8AE2D8F85050AAF1010AC8F87450DC
:10248000B8F814006FF35F203A5CB8F8140001301C
:102490000129A8F814000AD0B9B90020A52A40F0F3
:1024A0007482A52030700120C8F85C006DE25A2AC1
:1024B0001DBFA2F1A500B0FA80F040095A2004BF68
:1024C00070700220C8F85C005FE2481C7254032858
:1024D000C8F85C0007D1F12A80F05482DFF8344E4E
:1024E000D31DA36002E0DFF82C3E9B68984240F0C9
:1024F0004C828819033910F8010C40EA0224B01C00
:10250000FEF764FF844240F03D823179B4787079FF
:10251000402908BF322C32D0412940F09980302C1C
:1025200000F29680DFF8F00D00F110052846FDF767
:102530000FFEA04207D1711D28462246FDF70FFE6F
:10254000002800F01F82711D28462246FDF78DFEEF
:102550000020285598F8040040B90820CE214FF4F7
:10256000AA723223FFF75EF898F80400022840F0C0
:102570000982082024214FF48472DA2300E2012822
:10258000CAD198F80800CDF838A098F80790302202
:102590000F9098F80500049098F806000590D8F878
:1025A00054000690D8F858000790DFF8680D00F145
:1025B000240110A8FDF759FEB779F079317A727AC3
:1025C00096F80AB088F8070007F00F0A06F10B002A
:1025D00088F8061088F8052088F808A0006800BF71
:1025E0000446C8F8580006F10F00006800BF844296
:1025F000C8F8540088BFC8F858000BF03F0407F033
:1026000001074FF000081336B8F1060F4BD0DFF882
:10261000040D717800EBC80B30788BF8291000F0AE
:1026200007008BF82800B01C006800BFCD49884225
:1026300028BF0846CBF824001FB124FA08F0C007D1
:1026400002D100208BF82800063608F10108DBE7EC
:10265000422908BF072C00F0AE80432908BF042C94
:1026600000F0FD80512908BF012C40F08B8198F8C3
:102670000D10002900F08681DFF8981CF278097EA1
:102680008A4240F07F810021002888F80D1000F078
:10269000798101280FF684400FF69C4108BF084657
:1026A000FFF740FD6EE1DFF8448C012088F8090057
:1026B0000F98C8F87850504506D0002000214FF4FC
:1026C000F0721C23FEF7AEFF98F80400DDF838A086
:1026D000DFF8347C042800F0EE80022800F0D78078
:1026E000002840F005814FF0000B4FF00808BBF1C7
:1026F000300F00F01A8110A800EB0B0A50F80B7095
:102700009AF8045038462946FEF782FA0646DFF862
:10271000040C00EB0B09D9F8240099F82810FEF7F7
:1027200077FA86421FD0DFF8F01BA0EB0603DFF834
:102730002C2CC8BF331A02240978515C4B22514318
:102740006422B1FBF2F28642C8BF3046C2F14B01AF
:1027500049B291FBF4F149B208EB0104C0F18001E8
:102760002046FEF75FFFDFF8840B407820B1D9F8F0
:102770002400874206D009E099F829009AF805104C
:10278000814203D199F8280085420FD0404682212A
:102790004B221223FEF746FF99F82800854205D008
:1027A000404696214B223023FEF73CFF08F14E08AD
:1027B0000BF1080B9BE7757A052D3FF64EAF96F9A6
:1027C0000A90B9F1000F3FF548AF701D006800BFD7
:1027D000012188F81010D8F86810411A58BFC8F8BD
:1027E000680096F80BC00022B2F5906F19D00BEB81
:1027F0000203DC7A9CB19C7A8CB11C7AAC420ED17B
:10280000BCF1000F08D15C7A31463E465FFA89F789
:10281000BC4237460E4602D1002458609C720C32EE
:10282000E2E7BCF1000F00F0AD80D8F86410602240
:10283000B1FBF2F202EB4202A1EB4212013102EBD8
:102840004202C8F864100BEB82014BF8220040F200
:1028500001124A8181F809900D72486092E0701D62
:10286000006800BF0446D8F86800201AB0F1FF3FA6
:1028700007DC58464FF49061FDF71EFD0020C8F8B4
:1028800064000120C8F8684088F810007AE0D8F8A1
:1028900058000799DFF854BEDFF8486E814207D12F
:1028A000D8F854000699814202D1FEF792F869D017
:1028B000FEF7AEF864E098F80C00DFF830BEDFF801
:1028C000246E00285ED198F80310DFF81C2E10A8A3
:1028D00000EBC10002EBC10108222431FDF73FFCEF
:1028E00000284FD008205A214FF4E872A02347E077
:1028F000032839D198F80210B1B398F80700DFF82F
:10290000ECBDDFF8E06D814509D198F80600059926
:10291000814204D198F805000499814232D0002008
:1029200054214FF4F072B4232AE0DFF8AC8D0799FC
:10293000DFF8B8BDDDF838A0DFF8A47DDFF8A46DBE
:10294000D8F85800814207D1D8F85400069981423E
:1029500002D1FEF73EF815D00820CE214FF4E872E0
:1029600032230DE000093D00DFF880BDDFF8746D13
:10297000012807D1FEF72DF804D00020FEF72EF82D
:10298000FEF750FE0020C8F85C000146B8F81400BD
:10299000B8F81620904218BFBAF1000F7FF46AAD64
:1029A00098F80900012816D1D8F85000D8F8781006
:1029B000401A40F2DD5188420DD300200021A8F8D2
:1029C0000800062920D0DFF8202D02EBC1020131DA
:1029D00082F82800F5E798F80D00012824D1DFF8E7
:1029E000080DD8F850100068081AB0F5967F1BD370
:1029F00098F8120003280DD3002088F80D000FF678
:102A0000F840FFF78FFB0FE0002088F80D00FEF77D
:102A1000FBFD09E0013088F81200DFF8CC0C40F82B
:102A2000151B0D21FFF798FBD8F86C0058B1D8F8AA
:102A30005010081A07D40020FDF7D0FFC8F86C002A
:102A40000020FEF7EFFD98F80400012815D198F852
:102A5000100090B1D8F85000D8F87010411AC82969
:102A60000BD3C8F87000002036214FF4F072D22347
:102A700088F810000020FEF7D5FD98F81100012815
:102A80003CD198F80B00C8BB98F80810D8F8600043
:102A900001F00201084331D1DFF84C0CD8F8501096
:102AA0004068081A41F28831884227D3F04800254F
:102AB00006211195109098F801008DF84300DFF879
:102AC000300C00788DF8440010A8FEF77FFCE94C2C
:102AD000ADF846002046FEF7ADFA48B110A92046F1
:102AE0000822FEF7DBFA18B1002088F8110005E093
:102AF000DFF82C0C88F81150FFF714FBD8F84C00C5
:102B0000002800F03F85D8F86000002800F03A85E2
:102B1000DFF8101C4FF4F0724FF4A0738888B1F8FE
:102B200006B0A8F820000868BBF1020FC8F81C0026
:102B300041F2C50028BF4FF0020B0021A8F822B0D7
:102B4000FDF76FFF41F64715002000214FF4F072AA
:102B50001C230095FEF7E0FCDFF8CC2B01240A20B3
:102B600006214EF67F73009401F0B8F998F808003A
:102B70000FF6BC3245F29563009410F00100DFF8C7
:102B8000AC0B08BF024608BF49F69953062140F234
:102B9000591001F0A3F998F8040049F6995A04284D
:102BA00000F2FD83DFE810F00500B100E5006801E8
:102BB000BD01DFF8608CCDF83CB00026522710AC88
:102BC0004FF0010940F22620874200F08282DFF8B0
:102BD000180B00EBC60B9BF82810DBF82400FEF75F
:102BE00017F80346DFF8080BDFF8082B022546F636
:102BF000DF510091C3F180010078105C4B225043FB
:102C00006422B0FBF2F2C2F14B0040B290FBF5F04F
:102C1000A7F14A0540B22844FEF77EFCDFF8B81A57
:102C20009BF82800497800F0020011B120B9002378
:102C30000AE080B9FF2110E0DBF824004FF47A713C
:102C400000F5FA70B0FBF1F3DFF8C42B2046202129
:102C500001F04AFA04E09BF829102046FFF728FA11
:102C6000204601F0A7F900EBC000022122464EF6F3
:102C70007F73CDF80090C0F14B0090FBF1F0822102
:102C800038444A3801F02AF941F6471096214B2280
:102C9000302300902846C047284696214B22012326
:102CA000FDF7BCFE2846C5214B220123FDF7B6FEE9
:102CB0002846962101223023FDF7B0FE38469621A2
:102CC00001223023FDF7AAFE9BF8280046F6DF53C9
:102CD000800758BF5346A7F144009C212422FFF7E8
:102CE00031F90136DFF8102B20462021334601F060
:102CF000FBF9A7F11B00A621224646F6DF53CDF8CB
:102D0000009001F0EBF84E375CE798F80800CDF83A
:102D10003CB0D8F868B04FF00108DFF8D82A49F67F
:102D20009953CDF800800007DFF8C40A58BF024667
:102D30002221082001F0D2F8DFF8BC9ADFF8BCAA03
:102D400000270C2410AD062F00F027827E1C284699
:102D500010214A46334601F0C7F93AF817302046A9
:102D600038212A46CDF8008001F0B8F84E343746B5
:102D7000E9E741F6471024214FF48472DA23FDF786
:102D800018FEDFF8482ADFF8C8690127142030212F
:102D9000FDF74BFEDFF8580952214EF67F7300977E
:102DA00000F110021420B047DFF8242A1420732108
:102DB000FDF73BFED8F8581010AC204601F008F99A
:102DC000D8F8541021AD284601F002F90220B421B0
:102DD000224646F6DF5300901420B0471420E2212B
:102DE0002A46FDF722FE98F8080044F27D41DFF8FC
:102DF000E889DFF8545901918007DFF8D80948BF06
:102E0000404600902421C02230234FF48C70A84704
:102E1000DFF8C80942F2A9145C215C22FDF709FE23
:102E2000DFF8BC095C215C223023019400904FF450
:102E3000BE70A847DFF8AC099421C022FDF7F9FD68
:102E4000DFF894080097DFF8A42949F69953007A2F
:102E50004107DFF8941948BF4146800758BF0A462A
:102E6000DFF874884FF49070D921B04795E200BF25
:102E70004D42010000F01F0098F8020042F269255F
:102E8000002842F2692018BF42F2A91001902221C5
:102E9000E4223023DFF8F00800900820FEF74EFA15
:102EA00098F8020042F2A917002842F2A91018BFB0
:102EB00042F2692001902221E4223023DFF8CC087D
:102EC0000090F420FEF73AFA98F80200002800F08B
:102ED00074830120DFF8CC28562149F69953082441
:102EE0000090082000F0FAFFDFF8BC58DFF8BC685B
:102EF000B4F5EF7F00F0AF8315F8010B98F80510DB
:102F0000814242F2A91008BF42F2692002CE582243
:102F10003023CDE9001020466C21FEF70FFA5E3415
:102F2000E6E7DFF82008DFF8204842F2A91A98F80F
:102F30000360222138223023CDF804A0009008201D
:102F4000A04798F80300DFF8042810AD2021431CA7
:102F5000284601F0C9F8DFF8F8774FF00108AA20F9
:102F600032212A4646F6DF53CDF80080B8470FF2EB
:102F7000E470222138223023CDE9000A4FF4D070CA
:102F8000A04741F647105A21A0226823FDF711FD02
:102F900012207921282246F6DF53FEF7D3FFDFF80F
:102FA000480700EBC606284696F82910FFF780F878
:102FB000022070212A464EF67F7300904520B847C4
:102FC00096F82800DFF89437CDF80080DFF89027D6
:102FD000DFF80487C107DFF8801708BF0B468007BA
:102FE00058BF1A461120A92149F69953B84796F8B7
:102FF000280042F26921DFF8702710F0010008BFB5
:1030000042F2A9110191DFF85C17002808BF0A46B7
:1030100000920820CA21A0223023A0470FF24C7052
:103020005A2132223023CDE9000AB020A047706A2D
:103030004FF47A71DFF83827B0FBF1F34FF61841FF
:1030400003FB01000A2180B2B0FBF1F020210090C7
:10305000284601F049F8E8205A21B8223023CDE96A
:10306000005AA0470FF20C705A2132223023CDE9CA
:10307000000A4FF4D370A04796F82800DFF8FC163A
:10308000CDF804A04FF494724007DFF8EC0658BF67
:10309000014600913023B0209221A04796F82800E5
:1030A0004BF6EA11DFF8DC2641F6471510F0020076
:1030B00008BF44F27D410191DFF8C416002808BF23
:1030C0000A460092B020CA214FF494723023A047E0
:1030D00065E141F64710CE214FF4AA723223FDF785
:1030E00068FCDFF80C060126D3214EF67F730096AC
:1030F00000F11002102000F0F1FEDFF8DC85D8F8B6
:10310000581021AC204600F063FFD8F854101DADD4
:10311000284600F05DFF009510ADDFF8FC26202169
:103120002346284600F0E0FF1020E5212A46FDF75F
:103130004BFC42F2A910F9214FF4A27203234FF481
:10314000A27400901020FEF7E7F9D8F854207AB165
:10315000D8F858000023A0FB0401FDF723F802462D
:1031600046F6DF50F921032300901020FEF7D4F932
:1031700098F8080044F27D410191DFF85C16800761
:10318000DFF8500658BF01460091742232234FF4F5
:10319000B270CE21FEF7D2F8FDE041F6471056217D
:1031A0004FF4DC72A823202400902020FEF7B4F90D
:1031B000BBF5FA594FF0010842F2A91B38BF4FF096
:1031C0000009052710AD4E46F7B12846314600F0FC
:1031D000FFFEB4F5E27F2046CDF800802A4649F68E
:1031E000995308BF4FF4DA70462100F077FE20466D
:1031F00056210122A823CDF800B0FEF78DF9013F3A
:1032000006F5FA666934DFE7DFF8444501250FF279
:10321000F05201205F21FDF7E9FB0FF2E852012097
:103220008F21FDF7E3FB0FF2E0520120BF21FDF7F4
:10323000DDFB0FF2D8520120EF21FDF7D7FBDFF8BD
:10324000980409F5FA544FF4DB754FF4FA584FF02F
:10325000000B00F16806BBF5906F00F08380DFF88B
:103260008C0400EB0B02907AD17A0028304608BF1C
:10327000101DB9B30168B1EB090033D4DFF86C0459
:10328000DFF8543450F80B009B6E1B1A2AD4137AC3
:10329000577A3AF81320324B0092B0EB090248BF3C
:1032A0004846A14228BF2146091AA0EB09006943FC
:1032B000B1FBF8F2022A98BF022268430021B0FB5A
:1032C000F8F0A1EB8701203011F5A87FD8BF19468F
:1032D00011F1AB0FA8BF6FF0AA0101F5D371032361
:1032E000FEF71AF90BF10C0BB5E700BFB000002098
:1032F00044000020D09ED188D0B8D0B1D0BAD0B090
:103300002055415254000000481A0020500A002065
:10331000D00500202C01002000000020D09ED18884
:10332000D0B8D0B1D0BAD0B020D0BAD0BED0BCD0F6
:10333000B0D0BDD0B4D18B00D09AD0BED0BCD0B06C
:10334000D0BDD0B4D0B020D0BDD0B5D0B4D0BED1D7
:1033500081D182D183D0BFD0BDD0B000146100082C
:10336000B0FEFFFFDFF870834EF67F710122A823C5
:1033700001F58451D8F8680089B200914FF4DB71EF
:10338000A0EB090048434FF4FA51B0FBF1F056218D
:103390002030FEF7C1F8DDF83CB041F647150020BB
:1033A0004FF484714FF4F072382300950025FEF736
:1033B000B3F8DFF86864DFF86CA30424042D1AD096
:1033C00098F80400854203D080F00400284302D11D
:1033D00042F60B2001E041F6471056F82510562220
:1033E0003023CDE9001020464FF48671FDF7A6FF8B
:1033F0005C340135E2E74BF6EA104FF48671662241
:1034000030230190DFF8180400904FF4BB70FDF7F3
:1034100095FF98F80C00012859D141F2C5001C21F4
:103420004FF4F072EC230024FDF7FBFADFF8F423ED
:1034300001270820282149F69953009700F04EFDF6
:1034400042F2A9180FF2E0302021302230234FF051
:103450002009CDE900088220FDF770FF41F64710F2
:103460006121AA223423FDF7A4FA9F4873214EF666
:103470007F73009700F10C020E2000F02FFD44F244
:103480007D40CC21AA2230230190E84800900820FA
:10349000FDF754FFE64F03255E260C2C17D057F896
:1034A000240058223223CDF804800090E0B2B0FB13
:1034B000F5F0C0EBC001A0EB8000204409EBC10196
:1034C000C0B27043BE30FDF739FF0134E5E78248F2
:1034D000C06E70B14BF6EA10FDF780FAFDF7A1FA65
:1034E0000120D44A21214EF67F730090082000F07D
:1034F000F5FCDFF844C3BAF90440D04FD9464FEA8F
:103500004B0200260CEB4B004FEA440EA3B2A0F195
:1035100002084E450ED000204146A04205DA37F899
:10352000105001300D801144F7E77744A8F10208EC
:103530000136EEE7BAF802000022BAF80010CDE931
:1035400000C902924A464844C0F5A07080B200F01B
:10355000AFFDBAF80200DFF880814844AAF8020003
:10356000BAF80600B0EB0900AAF806000AD1D8F8AC
:1035700060000AF108010138C8F86000C200504636
:10358000FCF773FE5549086B0D9A904208D10B98D1
:1035900088610A98C861099848620898886209E0B9
:1035A000D8F824000C9A801A486100200862C86A82
:1035B0000130C86225B0BDE8F08F754A01260820A9
:1035C0005A2149F699530824009600F087FC98F890
:1035D000010000286F4808BF42F26927019758216F
:1035E0009B22302300909620FDF7A8FE98F801005A
:1035F0000028694808BF42F2A915019558219F2269
:103600003023009040F23910FDF798FE634A0820FD
:103610009621FDF7D9F9624D0026032E3FF4BDAE89
:10362000344810AF10212A46835D384600F05CFD17
:103630002F480078864242F2A91008BF42F2692062
:10364000CDE90070AE21982230232046FDF776FEAA
:103650009C340136E1E798F8070042F26921554AA7
:10366000394C002808BF42F2A911019150490028A5
:1036700008BF0A4600920820AE2196223023A047B8
:103680004BF6EA10AE219622302301904A48009072
:10369000A620A04744F27D40AE2194223023019021
:1036A000464800904FF4A270A04798F807100122F6
:1036B00098F80600434B0092414A002908BF134680
:1036C000414A002808BF1A4649F699530820EB21C1
:1036D00000F004FC61E600BFB000002044000020C0
:1036E000481A0020500A00202C010020D00500209C
:1036F0000000002014610008D09DD0B5D18220D0F8
:10370000BED182D0B2D0B5D182D0B020D0BDD0B0A1
:1037100020D0BAD0BED0BCD0B0D0BDD0B4D1830000
:103720001F5E000878040020245D00084F60000838
:103730003620D09CD09ED0A2D09ED0A0D09ED09239
:1037400000000000C75C00083D130008A85C0008EA
:10375000DD3E00083E000000AD6000081D6000086E
:10376000775D0008565F00083F5F00082D000000ED
:10377000C95D00082B000000625C00087F5C000847
:10378000935F0008575E0008D6600008D85D000807
:1037900074600008B85F0008A95F0008075E0008B1
:1037A0005B5C0008CC5F0008144800080048000873
:1037B000625F0008495F0008305D0008CF5C0008C8
:1037C000E95D00085D5D0008FC5F00087E5F0008A1
:1037D0000E5D00084A5E0008C15F0008A260000894
:1037E00097600008E1600008F160000830600008A0
:1037F0008E5E0008BE6000083E5D0008086100089B
:1038000043360000433500004334000043330000DA
:10381000C05D000819150008365D00083C5C000812
:103820004D5D00088D5D0008580000006C5E0008CA
:10383000D047000880010020C8120020480B00205B
:1038400010B549494C6DCCB10828D8BF08204FF4B9
:10385000AA72B0F5AE7F28BF4FF4AE7008380023CF
:10386000A4FB0001FCF79EFC0246844298BF621E46
:1038700002200021BDE8104000F002B810BD00BFDA
:10388000B0B51D4C18B1637B0BB128A005E040B169
:10389000237A13F0010304D119A0BDE8B040FEF76C
:1038A00041BC164D0623A8765020EB7545F6A5239E
:1038B000E9761C216876A07BA5F815300130A0734D
:1038C00028760020202905D022FA00F308306B5416
:1038D0000131F7E705F117000921FDF777FD28848D
:1038E00001200D21A0746073206D286005F1150082
:1038F000BDE8B040FEF730BCB00000202C01002035
:10390000D09DD0B5D18220D181D0B2D18FD0B7D0C7
:10391000B820D18120D183D181D182D180D0BED0B5
:10392000B9D181D182D0B2D0BED0BC00D09FD0BEA0
:10393000D0B4D0BED0B6D0B4D0B8D182D0B520D01B
:10394000BED182D0B2D0B5D182D0B000064801211C
:103950004FF4F072EC234174006D0449486000207C
:103960001C21FDF75FBE00BFB00000202C0100202D
:103970002DE9F047DFF844950C460546B0F5BB7FCE
:1039800099F8031019DBA808762816D8B4F5867FB5
:1039900013DBA0084E2816D80020002100220024A6
:1039A000FFF76EFF99F80C00012803D1FDF730F8FE
:1039B000FDF738FE89F80C4005E0B4F5847F04DBA0
:1039C000B5F5B87F0ADBBDE8F08799F80C0001284F
:1039D00013D1822D33DA082DF5DB37E000201C21CE
:1039E0004FF4F0724FF4927389F80C005C2095FB51
:1039F000F0F089F8040000205BE299F80400042844
:103A0000E1D8DFE800F004037898B800DBE7082D80
:103A1000D9DBE8083A2804D8222C02DBC52C40F276
:103A20006881A808562800F24281CE2CC0F23F815E
:103A3000FF2CC8D82846BDE8F047FFF701BFB12DDD
:103A400004D8202C02DB4F2C40F2C081B12D15D8B8
:103A5000CC2C13DBFB2CB6D8DFF86C0400F10C0285
:103A600000201378A3F13004092C00F28F8000EBC2
:103A70008000013203EB40003038F2E7BE2DA2D3C4
:103A8000E8083A289FD8202CFFF69DAFFF2C3FF680
:103A90009AAFA5F1BE015E2288B2B0FBF2F06FF0E2
:103AA0005D0200FB021189B257293FF68CAFA4F1E9
:103AB00020023823D1B2B1FBF3F1A1EBC10302EB39
:103AC000C302D2B2312A3FF67EAFDFF8FC8301EBAE
:103AD00041010E1808F10C052846FCF739FB044695
:103AE000092E00F0B0810B2E40F0AF81002C00F0C9
:103AF000CA81601EC4E1B5F58C7FFFF664AFE808AB
:103B00003A2804D8242C02DB532C40F2DB80A9088D
:103B10005C2900F2D9805C2CC0F2D6808B2C00F29C
:103B2000DB80D9F8580042F21071421A4FF00000C1
:103B300038BF024641E1082D3CDA99F8020001281D
:103B400040D1DFF88073A4F19C08602640F2362A49
:103B5000564551D0A6F15800A84209DC18F1300FA3
:103B600006D3AE4204DD3A7807200021FFF788FE35
:103B700001375E36ECE7082DC0F299813F2D50D811
:103B8000222C4EDB512C55D8481D45E12E2B46D119
:103B9000541C642500220A262378302B72D3392B3B
:103BA0006FD8002D6DD0303B013403FB0522B5FBEF
:103BB000F6F5F1E7EB2D4CD8222C4ADB512CBCD882
:103BC000002052E0962D53DADFF8F482DE3C002626
:103BD000A027032E3FF4F7AEA7F19800A84208DC17
:103BE00014F1300F05D3AF4203DD88F80060FFF712
:103BF000ADFE9C370136ECE7082DFFF6E4AE9D2DB7
:103C000000F29980AE2CC0F29680DD2C3FF6DBAE40
:103C100099F80700B0FA80F042090820CEE00022AF
:103C200030E0B5F5D07F6ED2E82D80F0A580B02DC4
:103C300080F0D080A72D00F23A81CA2CC0F23781E3
:103C4000F92C00F23481A048FCF7DCFE824304200A
:103C50002BE1A5F1F400E3283FF66FAF222CFFF62D
:103C60006CAF512C3FF669AF012089F802001EE1CC
:103C7000B5F5987F6ED8582C6CDB872CA4D8002023
:103C800074E00123B0F57A6F0CD85BB94FF47A7306
:103C900000FB032244F62060824203D38C48824218
:103CA00040F291808C48BDE8F047FEF73BBAA5F59D
:103CB000B27073283FF687AECE2CFFF684AEFF2C91
:103CC0003FF681AE012011E0A5F5BE715B2903D856
:103CD0005C2C01DB8B2C64D93A283FF674AE942C13
:103CE000FFF671AEC32C3FF66EAE0220002100221B
:103CF00065E004204E2189F80400A5F1080080B297
:103D0000B0FBF1F08FE0E8083A2804D8222C02DB5F
:103D1000512C40F28080A5F5D370312860D85A2C00
:103D20005EDB892C5CD86848684C694AFCF745FE24
:103D300038BFC218B8E0A62DFFF445AEA8084E283B
:103D400074D8AE2C72DBDD2C3FF63DAE092000218D
:103D5000012234E0A5F239109E283FF635AF582CE9
:103D6000FFF632AF872C3FF62FAF012089F8010014
:103D7000BDE8F047FFF7EABD5A2C31DB892C2FD87C
:103D800051484FF47A7200EBC1010C30496AB1FB23
:103D9000F2F350A2092100F0A7F9012089F81300DD
:103DA00015E0D9E9150142F21072114402460028CB
:103DB00018BF013A814238BF0A4602200021BDE8FF
:103DC000F047FFF75DBD0320FFF75AFD002089F89B
:103DD0000C006CE0E12D03D85A2C01DB892C5AD958
:103DE000E8083A2803D8922C01DBC12C0CD93A28D8
:103DF0005DD8CA2C5BDBF92C59D83348FCF702FE9E
:103E000022EA5002052050E02F48FCF7FBFD22EA91
:103E10009002062049E0481C0621B0FBF1F101EBBD
:103E20004101A0EB410089F8030040E0A5F5A27034
:103E300093283FF6C8ADAE2CFFF6C5ADDD2C3FF69E
:103E4000C2AD0A2052E72E2704E006F131070A2E00
:103E500008BF302799F81300012803D1002488F8FF
:103E60000C4001E0062C0ED8F8B22E2804D12846CA
:103E70002E21FCF763F930B908EB04000773601CCE
:103E800040440021017300206121AA22342389F8D3
:103E9000130008200DE00C4847F22F5444F620622E
:103EA000FCF78BFD88BFC21A0320FFF7E9FCFCF783
:103EB000AFFDBDE8F047FDF7B5BB00BFB000002087
:103EC00000000020144800082C010020F1E13C0013
:103ED00000093D00256C7500A25D00082DE9F04F3A
:103EE00085B01C467E4BCDE903020291B3F91E005A
:103EF0005B8C03448B4257DD0E9F029901EB071147
:103F0000814251DD07EBC7000190107800284BD0AB
:103F10000398B0F5F07F47DA04A800F096F8A0F116
:103F2000200BBBF15F0F14D3A0F582613F2902D8AB
:103F3000A0F2B13B0DE040F251414FF01F0B88421F
:103F400008BF4FF0A00B40F20141884208BF4FF07C
:103F50009F0B4FF00008B8F1100F1FD00298039E7E
:103F60004FF0000A08FB0705114800EB4B1030F832
:103F70001890BAF1090F0ED029FA0AF0C00706D03E
:103F8000304629463A463B460094FDF7C5FA3E4482
:103F90000AF1010AEDE708F10108DCE7039801994D
:103FA000049A08440390B0E705B0BDE8F08F00BF65
:103FB0001A480008BCB50190002401AD007828B172
:103FC000284600F042F801980134F7E72046BCBDCE
:103FD000E0B54FF47A723C23B1FBF2F2B2FBF3F39B
:103FE000C3EB0313A2EB830200924EF66022B1FBF7
:103FF000F2F302A2102100F077F88CBD25753A2566
:1040000030327500E0B500218DF805000DF1050096
:1040100003221423ADF806100DF10201FCF7E0FBBA
:1040200048B99DF803009DF80410400140EAD10012
:104030006FF31F308CBDFCF74AF980B5C822FCF73E
:104040002BFB00B980BDFCF742F9B0B50268531CE8
:10405000036092F90040E1B2B4F1FF3F24DC01F0CB
:10406000E004C02C07D11C782CB14FF4F86404EAAA
:104070008111022410E001F0F004E02C13D11B7830
:104080008BB1931C03605478957804F03F0461F37E
:1040900089145DB1A101032422440260187800F064
:1040A0003F00014300E03F210846B0BD2146FBE749
:1040B0007CB50B4C656A079E0196069E0096FDF73F
:1040C0007DF80849606A8A69401B10448861086B62
:1040D00001300863606ABDE87C40FEF781B800BF2C
:1040E000B0000020440000200FB47CB50C0009ADE6
:1040F00001D0611E00E00021CDE90001064B6A46B7
:104100002946089800F01AF8002C02D0009A0021E5
:1041100011707CBC5DF814FB7F44000802E008C805
:10412000121F08C1002AFAD170477047002001E031
:1041300001C1121F002AFBD1704700002DE9FF4F7B
:104140008BB088460546002606E025280BD0DDE921
:104150000D1290476D1C761C28780028F5D10FB001
:104160003046BDE8F08F0024A146A2460122AE49A8
:1041700000E0044315F8013F203B02FA03F0084237
:10418000F7D128782A2810D06FF02F022878A0F1D4
:104190003001092915D809EB890102EB410144F0EE
:1041A000020400EB01096D1CF0E758F8041B5FEAFC
:1041B000010903D544F40054C9F1000944F0020494
:1041C0006D1C28782E2817D115F8010F44F004042F
:1041D0002A280ED06FF02F022878A0F1300109298B
:1041E0000AD80AEB8A0102EB410100EB010A6D1CBF
:1041F000F2E758F804AB6D1C28786C280FD006DC69
:104200004C2817D068280DD06A2814D104E07428EF
:1042100010D07A280FD10DE044F400140AE044F4E1
:10422000801401E044F440146978814202D104F51D
:1042300080146D1C6D1C2878692865D006DC002868
:104240008DD0632827D0642806D15DE06E2808D081
:1042500073282AD0752877D0DDE90D129047761C97
:10426000E0E0C4F30250022809D003280DD0D8F8AA
:10427000001004280DD00E6008F10408D2E0D8F830
:104280000010F217C1E90062F6E7D8F800100E80BE
:10429000F2E70E70F0E718F8041B8DF8001000200C
:1042A0008DF80100EB46012003E058F804BB4FF005
:1042B000FF3061074FF0000701D40AE07F1C57452B
:1042C0000DDA8742FADB1BF807100029F6D106E069
:1042D0007F1C8742FCDB1BF807100029F8D1DDE9C1
:1042E0000D23A9EB07008146214600F0B1F83044C8
:1042F000C61904E0DDE90D121BF8010B90477F1E83
:10430000F8D22146484688E058F8040BC4F302511D
:104310004FF00A0B032900D100B2042900D140B2AA
:10432000002802DA40422D2102E0210505D52B218B
:104330008DF82410012104E006E0E10710D02021CF
:10434000F6E708AF089113E058F8040BC4F30251E4
:104350004FF00A0B032900D180B2042900D1C0B26A
:104360000021EEE75946FBF707FF303107F8011D42
:104370000028F7D1ADEB070000F1200B600702D554
:1043800024F4803401E04FF0010ADA4502DDAAEBA3
:104390000B0000E00020824600EB0B01089801446E
:1043A000A9EB01000A90E00306D4DDE90D232146C4
:1043B0000A9800F04DF806444FF0000908E009A9FA
:1043C00011F80900DDE90D12904709F10109761C89
:1043D00008998945F3DBE0030CD5DDE90D2321467F
:1043E0000A9800F035F8064404E0DDE90D123020AB
:1043F0009047761CBAF10001AAF1010AF5DC05E04C
:10440000DDE90D1217F8010B9047761CBBF1000196
:10441000ABF1010BF4DC0A982146DDE90D2300F035
:1044200005F806446D1C97E6092801002DE9F041C6
:10443000044600251E461746880404D405E0394684
:104440002020B0476D1C641EF9D52846BDE8F081D8
:104450002DE9F041044600251E469046C80301D5CB
:10446000302700E02027880404D505E0414638467F
:10447000B0476D1C641EF9D52846BDE8F0814A6836
:10448000002A06D00A68531C0B6010704868401E52
:104490004860704741000F1F1C0C0F084898370AEE
:1044A0001304110D000F322E0B0D05477537061042
:1044B000032420000E0E5500000000000200000042
:1044C0004001E001B14000085D0C000885100008C3
:1044D0009D10000835100008A104000859210008AB
:1044E00055210008350E0008200025002E00300060
:1044F0003100320033003400350036003700380018
:10450000390041004300460048004B004C004F007A
:1045100052005300540055001004110412041304F7
:104520001404150416041704180419041A041B04AF
:104530001C041D041E041F0420042104220423045F
:1045400025042604270428042B042C042D042E04FF
:104550002F04000000000000000000000000000028
:10456000442A2A54B0A848000000000000000000BF
:1045700000000002000000000E11111111110E00C8
:1045800000000000080C0A080808080000000000ED
:104590000E11100804021F00000000000E11100C84
:1045A00010110E0000000000181412113F1010002E
:1045B000000000001E020F1110110E00000000008C
:1045C0000E110F1111110E00000000001F08080449
:1045D00004020200000000000E11110E11110E0065
:1045E000000000000E1111111E110E00000000004D
:1045F000081414223E224100000000001C22020286
:1046000002221C00000000001E02020E0202020034
:10461000000000002222223E222222000000000090
:104620004222120A16224200000000000202020288
:1046300002023E00000000003C42424242423C0076
:10464000000000001E22221E122222000000000094
:104650001C22021C20221C00000000003E0808084A
:1046600008080800000000002222222222221C004A
:1046700000000000081414223E2241000000000047
:104680001E02021E22221E00000000001E22223EE8
:1046900022221E00000000001E020202020202008E
:1046A000000000003C24242424227F41410000001B
:1046B0003E02023E02023E00000000009392543887
:1046C00054921100000000000E11100C10110E0089
:1046D0000000000022322A2A2626220000001C00A8
:1046E00022322A2A262622000000000022120A0670
:1046F0000A122200000000003E2222222222210073
:1047000000000000416355494141410000000000A4
:104710002222223E22222200000000003C4242428D
:1047200042423C00000000003E22222222222200BF
:10473000000000001E22221E0202020000000000F3
:104740001C22020202221C00000000003E08080891
:1047500008080800000000002222141408080600BF
:10476000000000002214080814224100000000008C
:104770002222222222227E404000000022222222E7
:104780003C20200000000000929292929292FE0043
:10479000000000004141414F51514F000000000016
:1047A0000202021E22221E00000000001C222038ED
:1047B00020221C0000000000F20A0A0E0A0AF20081
:1047C000000000003C22223C2422220000000000C5
:1047D0009A5C00089E5C0008A05C0008A45C0008CD
:1047E000A65C0008BD5C0008BF5C0008C35C000854
:1047F000C55C0008605C00087D5C0008C75C0008C0
:104800008A6000089C5C0008A25C0008C15C00088B
:10481000BA5C00080001020307000000000000006D
:104820000000000000000000000000000000000088
:104830000000000000000000000000000000180060
:1048400018001800180018001800080000001800D0
:10485000180000000000000000000000000034000C
:1048600034003400000000000000000000000000E0
:104870000000000000000000000000000000000038
:1048800024002400FE00240024007F0034001400D3
:1048900016000000000000000000000000001000F2
:1048A0003C0016001A001E003C00780068006800FA
:1048B0003E0008000C000000000000000000460060
:1048C0006B002B001600180008007C0054005200FA
:1048D00073000000000000000000000000001C0049
:1048E0003600360016000C004E007B00730072008C
:1048F0005E00000000000000000000000000180042
:104900001800180000000000000000000000000077
:104910000000000000000000000000000000200077
:104920001000180008000C000400040004000C0033
:104930000800180010002000000000000000040023
:104940000C00180010001000300030003000100083
:10495000100018000C000400000000000000080017
:104960002A003C003C002A00080000000000000073
:104970000000000000000000000000000000000037
:10498000000000001800180018007F001800180030
:1049900018000000000000000000000000000000FF
:1049A00000000000000000000000000000001800EF
:1049B000180018000C0000000000000000000000BB
:1049C000000000000000000000003C0000000000AB
:1049D00000000000000000000000000000000000D7
:1049E00000000000000000000000000000001800AF
:1049F000180000000000000000000000000020007F
:104A00002000300010001800080008000C0004000E
:104A1000060002000000000000000000000000008E
:104A20003C006600620072005A00460062002600E8
:104A30003C0000000000000000000000000000003A
:104A400018001E001A00180018001800180018009E
:104A50007E000000000000000000000000000000D8
:104A60001C00220020002000300018000C0006006E
:104A70007E000000000000000000000000000000B8
:104A80001E002000200030003C006000600020007C
:104A90001E000000000000000000000000000000F8
:104AA000300038003C003400360032007F00300017
:104AB00030000000000000000000000000000000C6
:104AC0003E000600060006003E0060006000200078
:104AD0001E000000000000000000000000000000B8
:104AE00038000C0006003E006600420042006600EE
:104AF0003C0000000000000000000000000000007A
:104B00007E006000200030001000180008000C003B
:104B10000400000000000000000000000000000091
:104B20003C006600620026003C00760062006600E1
:104B30003C00000000000000000000000000000039
:104B40003C0026006200620066007C0060003000CD
:104B50001E00000000000000000000000000000037
:104B600000000000180018000000000000001800FD
:104B7000180000000000000000000000000000001D
:104B800000000000180018000000000000001800DD
:104B9000180018000C0000000000000000000000D9
:104BA0000000200030000800060006000800300069
:104BB00020000000000000000000000000000000D5
:104BC00000000000000000007E0000007E000000E9
:104BD00000000000000000000000000000000000D5
:104BE000000004000C0018003000300018000C0019
:104BF00004000000000000000000000000001C0095
:104C000030002000200020001800080000000800EC
:104C10000800000000000000000000000000380054
:104C200064004200C200FB00BD00F500D500550045
:104C30007D00030022001C000000000000000000B6
:104C400018001C0034002400260066007E0043008B
:104C5000C300000000000000000000000000000091
:104C60003E006200620022003E00620062006200BC
:104C70003E000000000000000000000000000000F6
:104C80003C00460002000200020002000200460052
:104C90003C000000000000000000000000000000D8
:104CA0003E006200620042004200420062003200A8
:104CB0001E000000000000000000000000000000D6
:104CC0007E000600060006003E0006000600060004
:104CD0007E00000000000000000000000000000056
:104CE0007E000600060006003E00060006000600E4
:104CF00006000000000000000000000000000000AE
:104D00003C004600020003007300430042004600DE
:104D10007C00000000000000000000000000000017
:104D200042004200420042007E0042004200420037
:104D30004200000000000000000000000000000031
:104D40007E0018001800180018001800180018003D
:104D50007E000000000000000000000000000000D5
:104D60003E00200020002000200020002000320013
:104D70001C00000000000000000000000000000017
:104D80006200320012000A000E000A001200320017
:104D900062000000000000000000000000000000B1
:104DA00006000600060006000600060006000600D3
:104DB0007E00000000000000000000000000000075
:104DC00062006600460057005B004B004300430052
:104DD0004300000000000000000000000000000090
:104DE000460046004E004A004A005200720062002F
:104DF0006200000000000000000000000000000051
:104E00003C0066004200430043004300420066004D
:104E10003C00000000000000000000000000000056
:104E20003E0062004200620062003E00020002009A
:104E30000200000000000000000000000000000070
:104E40003C0066004200430043004300420066000D
:104E50003C001800F000000000000000000000000E
:104E60003E002200620022001E003200220062008A
:104E700062000000000000000000000000000000D0
:104E80003C000600020006003C006000600060007C
:104E90003E000000000000000000000000000000D4
:104EA0007F001800180018001800180018001800DB
:104EB00018000000000000000000000000000000DA
:104EC00042004200420042004200420042006600AE
:104ED0003C00000000000000000000000000000096
:104EE000C300430062006600260024003C001C0052
:104EF000180000000000000000000000000000009A
:104F00004300430043005B005A005A00560066000D
:104F1000660000000000000000000000000000002B
:104F20006200260034001C0018001C0034006600DB
:104F3000430000000000000000000000000000002E
:104F4000C3006200260034001C001800180018007E
:104F50001800000000000000000000000000000039
:104F60007E00200030001000080008000400060049
:104F70007E000000000000000000000000003C0077
:104F80000C000C000C000C000C000C000C000C00C1
:104F90000C000C000C003C000000000000000600AB
:104FA000040004000C00080018001000300020006D
:104FB00020006000000000000000000000001C0055
:104FC0001000100010001000100010001000100061
:104FD0001000100010001C00000000000000000085
:104FE00018001C0024006200000000000000000007
:104FF00000000000000000000000000000000000B1
:1050000000000000000000000000000000000000A0
:10501000000000000000FF0000000000000004008D
:105020000800000000000000000000000000000078
:105030000000000000000000000000000000000070
:10504000000000003C00620060007C00660062001E
:105050007E000000000000000000000000000200D0
:10506000020002003E00660042004200620026008C
:105070003E000000000000000000000000000000F2
:105080000000000078000400060002000600060090
:105090007C00000000000000000000000000600034
:1050A000600060007C0066006200620062007600C2
:1050B0007C00000000000000000000000000000074
:1050C000000000003C00660062007E000200060056
:1050D0007C000000000000000000000000007000E4
:1050E0001800080008007F000800080008000800F9
:1050F00008000000000000000000000000000000A8
:10510000000000007C002600220026001E00020095
:105110007E00420062003E0000000000000002002D
:10512000020002003E00660062006200620062004F
:1051300062000000000000000000000000001800F5
:10514000180000001E0018001800180018001800B1
:105150007E000000000000000000000000003000A1
:10516000300000003E0030003000300030003000E1
:105170003000300010001E0000000000000006009B
:1051800006000600660036001E000E001E003600F7
:1051900066000000000000000000000000001E008B
:1051A000180018001800180018001800180018003F
:1051B0007E00000000000000000000000000000071
:1051C000000000006E005A005A004A004A004A00DF
:1051D0004A00000000000000000000000000000085
:1051E000000000003A006600620062006200620097
:1051F000620000000000000000000000000000004D
:10520000000000003C0066004200420042006600D0
:105210003C00000000000000000000000000000052
:10522000000000003A0066004200420062002600D2
:105230003E0002000200020000000000000000002A
:10524000000000007C0066006200620062007600E0
:105250007C006000600060000000000000000000B2
:10526000000000003E006E0046000600060006003A
:105270000600000000000000000000000000000028
:10528000000000003C00060006003C0060006000DA
:105290003E000000000000000000000000000000D0
:1052A0000C000C007F000C000C000C000C000C002B
:1052B0007800000000000000000000000000000076
:1052C000000000006200620062006200620076007E
:1052D0007C00000000000000000000000000000052
:1052E00000000000420062002600240034001C0080
:1052F0001800000000000000000000000000000096
:1053000000000000430043005B005A005A00760092
:105310006600000000000000000000000000000027
:1053200000000000660024001C0018003C0026005D
:10533000620000000000000000000000000000000B
:1053400000000000420062002600240014001C003F
:10535000180008000C00070000000000000000001A
:10536000000000003E002000100008000C000400B7
:105370007E0000000000000000000000000030007F
:1053800018000800080008000800060008000800CF
:105390000800080018003000000000001800180085
:1053A000180018001800180018001800180018003D
:1053B00018001800180018000000000000000E007F
:1053C00018001800180018001000700010001800D5
:1053D0001800180018000E00000000000000000077
:1053E00000000000000000004E005A0073000000A2
:1053F00000000000000000000000000000000000AD
:1054000018001C0034002400260066007E004300C3
:10541000C3000000000000000000000000000000C9
:105420007E000200020002003E00620042006200B4
:105430003E0000000000000000000000000000002E
:105440003E006200620022003E00620062006200D4
:105450003E0000000000000000000000000000000E
:105460007E00060006000600060006000600060094
:105470000600000000000000000000000000000026
:105480007C006400640064006400640066006200E4
:10549000FF00C100C100000000000000000000008B
:1054A0007E000600060006003E000600060006001C
:1054B0007E0000000000000000000000000000006E
:1054C000DB005A007E003C003C003E007A005A009F
:1054D000DB000000000000000000000000000000F1
:1054E0003E002000200020003E0060006000200000
:1054F0001E0000000000000000000000000000008E
:1055000062006200720052005A004A0046004600E3
:105510004200000000000000000024001C00000009
:1055200062006200720052005A004A0046004600C3
:105530004200000000000000000000000000000029
:105540006200320012000A000E000A00120032004F
:1055500062000000000000000000000000000000E9
:105560007C006C00640064006400640066006600F7
:1055700063000000000000000000000000000000C8
:1055800062006600460057005B004B00430043008A
:1055900043000000000000000000000000000000C8
:1055A00042004200420042007E00420042004200AF
:1055B00042000000000000000000000000000000A9
:1055C0003C00660042004300430043004200660086
:1055D0003C0000000000000000000000000000008F
:1055E0007E0042004200420042004200420042006F
:1055F0004200000000000000000000000000000069
:105600003E0062004200620062003E0002000200B2
:105610000200000000000000000000000000000088
:105620003C004600020002000200020002004600A8
:105630003C0000000000000000000000000000002E
:105640007F00180018001800180018001800180033
:105650001800000000000000000000000000000032
:105660004200660024002C003800180018000800D2
:105670000E0000000000000000000000000000001C
:1056800018003C007A005B00DB005B007A003C0005
:1056900018000000000000000000000000000000F2
:1056A0006200260034001C0018001C003400660054
:1056B00043000000000000000000000000000000A7
:1056C00062006200620062006200620062006200CA
:1056D000FE00C000C000000000000000000000004C
:1056E00042004200420066007C0040004000400052
:1056F000400000000000000000000000000000006A
:105700004B004B004B004B004B004B004B004B0041
:105710007F0000000000000000000000000000000A
:105720004B004B004B004B004B004B004B004B0021
:10573000FF00C000C00000000000000000000000EA
:1057400007000400040004003C00640044006400FE
:105750003C0000000000000000000000000000000D
:1057600043004300430043004F00530053005300E5
:105770004F000000000000000000000000000000DA
:1057800002000200020002003E00620042006200CD
:105790003E000000000000000000000000000000CB
:1057A0001E003200600040007E00400060002200C9
:1057B0001E000000000000000000000000000000CB
:1057C00073005B004B004B00CF00CB004B005B0035
:1057D0007300000000000000000000000000000056
:1057E0007C006600660066007C006400660066005F
:1057F0006200000000000000000000000000000047
:10580000000000003C00620060007C006600620056
:105810007E000000000000000000000000003800D2
:105820000C0006003A00660042004200420066009A
:105830003C0000000000000000000000000000002C
:10584000000000003E00620062003E006200620054
:105850003E0000000000000000000000000000000A
:10586000000000007C0004000400040004000400A8
:105870000400000000000000000000000000000024
:10588000000000007C0064006400640064006600A6
:10589000FF00C100C1000000000000000000000087
:1058A000000000003C00660062007E00020006006E
:1058B0007C0000000000000000000000000000006C
:1058C000000000004B006A003C003C003E006A0003
:1058D000CB000000000000000000000000000000FD
:1058E000000000003E00200020003C00600060003E
:1058F0003E0000000000000000000000000000006A
:10590000000000006200720072007A006E00660003
:1059100066000000000000000000000000002400FD
:105920001C0000006200720072007A006E006600C7
:105930006600000000000000000000000000000001
:1059400000000000660036001E000E001E0036003B
:1059500066000000000000000000000000000000E1
:10596000000000007C006C006400640064006600BD
:1059700063000000000000000000000000000000C4
:10598000000000006600660057005B005B004300FB
:1059900043000000000000000000000000000000C4
:1059A000000000006200620062007E00620062008F
:1059B0006200000000000000000000000000000085
:1059C000000000003C006600420042004200660009
:1059D0003C0000000000000000000000000000008B
:1059E000000000007E00620062006200620062004F
:1059F0006200000000000000000000000000000045
:105A0000000000003A0066004200420062002600EA
:105A10003E00020002000200000000000000000042
:105A200000000000780004000600020006000600E6
:105A30007C000000000000000000000000000000EA
:105A4000000000007E001800180018001800180060
:105A5000180000000000000000000000000000002E
:105A600000000000420062002600240014001C0018
:105A7000180008000C0007000000000000001800DB
:105A8000180018003C007A005B00DB005B007A0025
:105A90003E00180018001800000000000000000080
:105AA00000000000660024001C0018003C002600D6
:105AB0006200000000000000000000000000000084
:105AC000000000006200620062006200620062008A
:105AD0007E004000400000000000000000000000C8
