:020000040800F2
:10000000C813002001010008090100080B010008C5
:100010000D0100080F010008110100080000000098
:1000200000000000000000000000000013010008B4
:10003000150100080000000017010008DD07000896
:100040001B0100081B0100081B0100081B01000820
:100050001B0100081B0100081B0100081B01000810
:100060001B0100081B0100081B0100081B01000800
:100070001B0100081B0100081B0100081B010008F0
:100080001B0100081B0100081B0100081B010008E0
:100090001B0100081B0100081B0100081B010008D0
:1000A0001B0100081B0100081B0100081B010008C0
:1000B0001B0100081B0100081B0100081B010008B0
:1000C0001B0100081B0100081B0100081B010008A0
:1000D0001B010008EB0700081B0100081B010008BA
:1000E0001B0100081B0100081B010008DFF80CD0F1
:1000F00000F018F800480047450D0008C81300201C
:100100000648804706480047FEE7FEE7FEE7FEE7B1
:10011000FEE7FEE7FEE7FEE7FEE7FEE7E907000889
:10012000ED000008064C074D06E0E06840F00103D2
:1001300094E8070098471034AC42F6D3FFF7DAFF93
:10014000A01A0008C01A0008D2B201E000F8012B82
:10015000491EFBD270470022F6E710B513460A4647
:1001600004461946FFF7F0FF204610BDEFF310805C
:1001700072B600F0D5FCFCE7E64901304A684B68EE
:100180009B1A8342FBD370472DE9FC4F5E4A042340
:100190004FF0000A4FF001084FF00009904208BFED
:1001A0000323009300250C6834FA05F208BFBDE86C
:1001B000FC8F08FA05FE14EA0E0F00F0A1804F68CC
:1001C000032F16D9112F26D0122F28D0524A97422A
:1001D00013D0524A974210D0514A97420DD0514AFB
:1001E00097420AD0504A974207D0504A974204D0CB
:1001F00022E0DFE807F002181B1F8C6844B1012CD5
:1002000014BFC0F814E0C0F810E04FF0080913E084
:100210004FF0040910E0CC6804F104090CE0CC684C
:1002200004F10C0908E0D1F80C9005E0CC6804F169
:10023000080901E04FF0000954460746082D4FF029
:100240000F0228BF203C28BF04373B6802FA04F69F
:1002500009FA04F4B34323433B60CB79DB064FD563
:100260002C4A2A4C1368A4F57E7C43F001031360EA
:1002700013682F4A03F0010390420193019B25F07C
:1002800003035CF803B008D02A4A904207D02A4AF8
:10029000009E904208BF022602E0002600E00126F0
:1002A0000AF00C030F22AF0802FA03F406FA03F374
:1002B000164E174A2BEA040423434CF827304F68A4
:1002C000FB02B36854BF23EA0E0443EA0E04B46091
:1002D000BB02136854BF23EA0E0443EA0E04146001
:1002E000BB03736854BF23EA0E0443EA0E04746030
:1002F000FB03336854BF23EA0E0243EA0E02326066
:100300000AF1040A01354EE70014014000040140DF
:100310000C040140181002400000111000001210DF
:1003200000002110000022100000311000003210E7
:1003300000080140000C01400010014010B50F49B9
:100340004FF47A728968B1FBF2F14A1E0021B1EBD9
:10035000126F11D10A4BF0245A600A4A1470996046
:1003600007210F28196007D84FF0FF300F2100F048
:100370000BF8D5480121017010BD00BF000000201E
:1003800010E000E023ED00E010B5104A00F00F038C
:100390000F4C043B02442344002848BF03F10C02E5
:1003A00020684FF0FF34C0F30220C31E80F0070026
:1003B00038BF0023042828BF042004FA00F021EAF3
:1003C000000098400001107010BD00BF00E400E084
:1003D0000CED00E0F8B5BC4DD64C0B46696894F8BE
:1003E0005160012E05D130B12BB194F85060012E2F
:1003F00003D10220F8BD0120F8BD0326012784F8AF
:10040000516000266665E38684F85070A3862063F9
:10041000A687A663C4E91066E687A7682668B7F5CD
:10042000004F07D1376827F040073760376847F437
:100430008047376037687F0603D4376847F0400746
:100440003760E768D4F804C0B7F5006F1ED1BCF17F
:10045000000F18BF012B06D130F8023BF360206378
:10046000E38E013BE3862368E68E86B39E68B6077B
:1004700004D46E68761A9642F6D343E030F8026BE5
:10048000DE602063E68E013EE686EDE7BCF1000FFC
:1004900018BF012B07D100783073206B0130206327
:1004A000E38E013BE3862368E68E86B19E68B6073D
:1004B00004D46E68761A9642F6D323E00078187357
:1004C000206B01302063E68E013EE686ECE71046A5
:1004D00000F016F908B120206065A06838B9002046
:1004E00000902068C1680091806800900098012009
:1004F00084F85100002084F85000606D002818BF77
:100500000120F8BD002084F85000012084F851003B
:100510000320F8BD78000020F8B5DFF8A8CEAE4E75
:100520008E46DCF8041096F85170012F07D120B1E7
:10053000BEF1000F18BF002A0BD101250EE075682F
:10054000B5F5827F09D1B46802253CB9042FEED0FD
:1005500004E096F85040012C02D102252846F8BD4F
:10056000012486F8504096F85140042C1CBF052405
:1005700086F8514000247465F287F286C6F838E0A8
:10058000B2873063C6E91044B28635682C686406C9
:1005900003D42C6844F040042C60F4687768B4F508
:1005A000006F33D10FB1012A06D130F8022BEA6077
:1005B0003063F28E013AF28632680125F48E14B966
:1005C000F48F002C60D09468A4070BD5F48E4CB146
:1005D000012D07D130F8024B0025D4603063F48E32
:1005E000013CF4869468E4070AD0F48F44B1D468DF
:1005F00001252EF8024BC6F838E0F48F013CF48751
:10060000DCF80440641A9C42D8D335E00FB1012ACB
:1006100007D100782873306B01303063F08E0138D9
:10062000F0860120F28E0AB9F28F6AB332689468BC
:10063000A4070DD5F48E5CB1012809D1306B007888
:100640001073306B01303063F08E0138F08600207B
:100650009468E4070BD0F48F4CB1B06BD268027091
:10066000B06B0130B063F08F0138F0870120DCF807
:100670000420521A9A42D5D30020032586F8500050
:10068000012086F8510069E7184600F039F828B1D2
:10069000002086F85000202070654EE7B06838B919
:1006A000002000903068C168009180680090009838
:1006B000012086F85100002086F85000756D002D4D
:1006C00018BF01254AE700BF78000020079007986F
:1006D000686940F004006861686900F004000790F0
:1006E00003200B9002200990704700210022284728
:1006F00003204146CDE90AA001200990704700007F
:1007000070B50C460546022001212A46234600F01A
:1007100013F838B9802000212A462346002600F02D
:100720000BF828B12C480326416D41F020014165AA
:10073000304670BD6C030020F8B5E24CDFF8B0CE57
:1007400065685B1B9D18DE4A92686668C2F3CB320F
:100750006A430092DCF800309F6807403F1AB7FAFE
:1007600087F77F098F4204BF0020F8BD6768BF1B71
:10077000AF4207D2009F009A013A0092002F08BFB3
:100780003D46E9E7586820F0E0005860DCF80400D6
:10079000B0F5827F0BD1DCF80800B0F5004F02D035
:1007A000B0F5806F03D1186820F040001860DCF8C5
:1007B0002800B0F5005F07D1186820F400501860D9
:1007C000186840F40050186000208CF85000012098
:1007D0008CF851000320F8BD6C030020E348416809
:1007E00001314160704700BF704700F099B90000C7
:1007F0000648BFF34F8F064A016801F4E0611143D8
:100800000160BFF34F8F00BFFDE700BF0CED00E0BC
:100810000400FA0582B022486421224CDFF88CA043
:100820004FF4A07B406900EB800001EB8008502171
:1008300001EB80053C2101EB8006282101EB8009BA
:100840004F46B7F5F07F29D215484FF420718761E4
:100850002046FFF780FC144A082049464FF2CA237D
:10086000D0470820314612A24FF2CA23D0470820B1
:10087000294614A24AF6D753D047082041461DA264
:100880004AF6D753D047B9B200204FF4A0720123E3
:10089000CDE9004B00F06EF90137D2E7FFF766FCB7
:1008A00078000020EC0000205C1A0008510C0008C1
:1008B000D09ED0A8D098D091D09AD09020464C41CC
:1008C00053480000D09ED091D09DD09ED092D09819
:1008D000D0A2D09520D0A0D095D0A1D0A3D0A0D028
:1008E000A1D0AB20D0ADD09AD0A0D090D09DD09048
:1008F00000000000D097D090D093D0A0D0A3D09784
:10090000D0A7D098D09A205541525420D094D09E50
:10091000D0A1D0A2D0A3D09FD095D09D0000000040
:100920002DE9F04F87B0DFF898C104460628084645
:1009300028BF0624642928BF6420DCF800E0744541
:100940000CD1DCF80420904202D107B0BDE8F08F52
:10095000632903D8821A01D3052AF6D3594E0025FC
:100960000022F768944206D027FA02F3013203F01E
:1009700001031D44F6E7012205EB85050DF117087B
:10098000A2401743F7602427BEF1630918BF07EBA5
:100990008509382707EB8503BEF1630F4A4F08BF6F
:1009A0004FF4F07303936329336994BF23EA02027F
:1009B0001A433261F625CCE900402522ADF81A2011
:1009C0006422B0FBF2F242F030028DF817200A22C6
:1009D000B0FBF2F303FB0505B3FBF2F202EB82027C
:1009E00045F03005A3EB42028DF81950012542F085
:1009F00030020A284FF001008DF8182038BF02207D
:100A0000642938BF8044039881459ED238464FF40C
:100A10002071CDF81090C6F81890FFF79CFB0820C5
:100A200010212AA24EF69E7300F012F94FF0000B2F
:100A30004FF00009B9F1070F2DD0F06805FA09FA57
:100A400010EA0A0F24D02CA028214AF6D75350F8D8
:100A500029200BEB8B0001EB80070820394600F0C2
:100A6000F7F82CA24C454EF69E7108BF42463069FD
:100A700010EA0A0028A018BF0246284808BF084606
:100A800083B239464FF4887000F0E2F80BF1010BA5
:100A900009F10109CEE7DDF810900B4F4FF4A0707B
:100AA0004FF4A0720123C6F814B0019000201FFA81
:100AB00089F1009700F05EF809F10109A3E700BF92
:100AC0000000002078000020EC000020D098D09D8D
:100AD000D098D0A6D098D090D09BD098D097D090D6
:100AE000D0A6D098D0AF20D0A1D098D0A1D0A2D0FD
:100AF00095D09CD0AB000000841A0008CE190008E5
:100B0000E91900083E1A00081C1A0008931A000888
:100B1000001A00082E2E2E004F4B0000668EFFFF9D
:100B200010B51248C16AD9B10A6812F0280F17D05F
:100B30004968120702D00021816011E0EFF31082B2
:100B400072B1C9B282680AA3A1F15004B4FA84F464
:100B50009B5C64098B4208BF541C8460042C00D049
:100B600010BD00218160FFF743FE00BF7800002028
:100B7000504348522DE9F043B1B0002A64D01D46DD
:100B8000002B61D00E46010A8DF8C10010440DF112
:100B9000C0081446DDE93879042201388DF8C01008
:100BA00041468DF8C300000A8DF8C2002A2000F0EB
:100BB000ADF8300A414604228DF8C1608DF8C000BE
:100BC000701901388DF8C300000A8DF8C2002B207F
:100BD00000F09CF85A4E4FF0004030604FF000504B
:100BE00030602C2000F086F84FF40050B0463060A2
:100BF00005FB04F06D46461E0020711C1BD037F823
:100C0000021B09BA090C29520230C02804D1284617
:100C1000C02100F03EFD00205EB1B6FBF4F101FB07
:100C2000146100294FF0000108BFA9EB040107EB94
:100C30004107013EE1E718B181B2684600F029FDA5
:100C40004FF40040C8F8000031B0BDE8F08300BFA9
:100C50002DE9F04F234CDFF894C0DFF894E004EB6B
:100C60004009214CD4F818B01778CFB3C02F07D360
:100C70005478023204F03F0467F38A14274600E0F8
:100C800001320024E046352C26D03EF81460B742ED
:100C900003D008F10C080134F5E74FF0000ABAF16F
:100CA0000C0F19D018F80A400AEB01060027082F8C
:100CB0000FD024FA07F5ED0709D0B34507DBC519B6
:100CC000AD09042D03D8B345D8BF29F81730013733
:100CD000EDE70AF1010AE2E709F110090830C3E77C
:100CE000BDE8F08FEC0000207800002052170008CB
:100CF000E8160008E0B58DF80700002002218DF805
:100D000006000DF1060000F0C4FC8CBD70B50C4E61
:100D10000D464FF00041144631604FF000513160F4
:100D2000FFF7E8FF4FF4005030602CB115F8010BCD
:100D3000FFF7E0FF013CF8E74FF40040306070BD82
:100D4000100C01408CB0BA4C4FF6FF02206840F006
:100D500010002060B74801681140B74A1143016094
:100D60000F20FFF7EBFAB54D0222686940F0010051
:100D70006861686900F0010008900898A86940F06F
:100D80008050A861A86900F0805008900898AC488D
:100D9000016862F31A610160286800F00C00042801
:100DA00019D0286800F00C00082802D12868C00378
:100DB00011D455F8040C40F4803045F8040CDFF8E9
:100DC0000406416855F8042C920306D44268521A6E
:100DD000642AF7D98BE055F8040C286800F00C0061
:100DE00008285FD1286800F47410B0F5E81F7ED1A0
:100DF000206810F0060F09D12068022161F302007B
:100E00002060206800F00700022870D1286840F4B4
:100E1000E0602860286840F460502860286820F06E
:100E2000F000286055F8040C800160D52868022184
:100E3000DFF8907561F3010041F28831286078682D
:100E40002A6802F00C02082A04D07A68121A8A4230
:100E5000F6D94CE0206800F00700032809D3206889
:100E6000022161F302002060206800F007000228E0
:100E70003DD12868042161F30A202860286820F405
:100E8000605028606F48296801F00C02082A39D1A7
:100E9000C1F383420FF23053C9039A5C29D46A48E4
:100EA00050432FE0694900200860DFF818054268C8
:100EB00055F8043C9B0104D543689B1A022BF7D9D3
:100EC00015E02A6822F400322A602A6822F474129B
:100ED00002F5E8122A6001220A60416855F8042CE4
:100EE00092013FF585AF4268521A022AF6D9FFF700
:100EF0003DF9296850430FF2E042C1F34041515C93
:100F0000B0FBF1F029680FF2D442DFF8E0444FF073
:100F10001008C1F30311515CC840A0603878002864
:100F20004FF0100018BF0F20FFF708FA6869484A11
:100F3000484E4FF47041DFF8BCB44FF0000A40F067
:100F4000100091466861686900F0100008900898E8
:100F5000686940F020006861686900F0200008902E
:100F60000898686940F004006861686900F004004E
:100F700008900898686940F008006861686900F0A6
:100F80000800089008984FF400503060C2F81080B4
:100F9000C2F8101403210DF12008CDF828A00B9100
:100FA0000121CDE9080102F500604146D847FFF76D
:100FB0009FFB102008904846D847012009F580691A
:100FC0004146CDE909A04FF4806008904846D847D3
:100FD000FFF78EFB4FF4704008904846D8471E48F4
:100FE000DFF814944FF400710A234FF48272A0F5D5
:100FF0000060C9E903AAC9E905A1C9F81CA0C9E9AB
:1010000008AAC9E90AA389E8050499F851302BB365
:1010100000234FF0000B4FF0000C4FF0000E069332
:101020000023059300230493002303935DE000BF96
:10103000002002400CED00E00003FA05041002401D
:101040000400014000127A0000093D0060004242A5
:1010500000080140101001400038014089F850A0FC
:10106000CDF828A00DF120086869414640F4805071
:101070006861686900F48050FFF728FBA0200890A1
:101080000798DB488346FFF77FF840204146CDE9CB
:1010900009AA08905846FFF777F8D9E90001D9F86E
:1010A0002020D9E904CBD9F828E00291D9F808101A
:1010B00002F080020EF40053059206930191D9F8D4
:1010C0000C100091D9E9061808F0380204920BF0D0
:1010D00001020CF0020B0392009A02F4006C019AD8
:1010E00002F4044E029A02F48272022342EA0E02D1
:1010F00089F8513042EA0C02D0F8008042EA0B0233
:1011000028F040030360039B1A4301F400731A4361
:10111000049B1A43059B1A43069B1A430260042250
:1011200002EA1141B54A4160C169934621F4006168
:10113000C1610120C9F854A04FF4E13189F8510090
:101140000C20C7E90B21C7E90DAAC7E911AAC7E915
:101150000FA097F86D0030B1A5494FF0000C0022A8
:101160005846884627E04FF000090DF1200A87F81D
:101170006C90CDF828905146686940F480406861D1
:10118000686900F48040FFF7A1FA4FF400700890FE
:10119000079897488046FEF7F7FF4FF48060514666
:1011A000CDE9099908904046FEF7EEFFF86AD7E9C5
:1011B0000DC2D7F844A024234FF0200987F86D30E2
:1011C000C36823F40053C360036923F440531A43F4
:1011D000026141F20C62D7E90FE3C16891434EEA24
:1011E0000C021A4311430822C160416921F4407185
:1011F00041EA0A014FF0000A4161584508BF0B223D
:10120000D4F808C02B688049DFF800B223FA02F254
:101210007BA302F007029A5C19232CFA02F25A43CC
:101220003B6B9B00B2FBF3F26423B2FBF3F505FBCF
:101230000121322202EB0111B1FBF3F101F0F002C6
:1012400001F00F0102EB051211448160016921F4E4
:1012500090410161416921F02A014161C16841F475
:101260000051C160C7F870A087F86D9087F86E9044
:10127000C7F860A084F81CA0C4F818C07868606142
:101280004FF0005030600120207355208DF8200071
:101290004FF48040C8F810044FF40040C8F8100420
:1012A0004FF08050C8F8100448208DF81C0014201E
:1012B000D8474FF48050C8F810047820D847544DD0
:1012C0000120FFF712FA7820D8471120FFF70DFA16
:1012D0007820D84708A93A200122A8474D49C020C4
:1012E0000222A8474C49C1200222A8474B49C220EC
:1012F0000122A8474A49C52004224FF00408A84704
:101300004849E0200F22A8474749E1200F22A8477B
:101310002020FFF7EAF907A936200122A84700207C
:101320000021FFF7FDFA2920FFF7DFF99620D847C3
:1013300000206421FFF7F4FA02202073012084F8D2
:101340005D0094F85D00D0B303202073CDF820A099
:10135000F86A0168089102214068089008982520E1
:10136000FFF712F83148C0F80090F86AC16841F000
:101370002001C16006206421FFF7D2FA00F046F98F
:1013800084F80C807868F969411A6061B1F5FA7FD8
:1013900009D3F86156F8041C01F4005141EA0141F7
:1013A00081F40051316000F043F8D7E9080181422F
:1013B00002D001303862FAE700F028F9E2E7FFF7DF
:1013C00029FA00BF78000020020304050607080977
:1013D0000A0B0C0D0E0F101001020000000000009F
:1013E00000000000010203040607080900000020B5
:1013F00000080140890100086C030020003801400A
:1014000000000000010203049CFFFF0F79010008A7
:101410000D0D0008DE160008E0160008E2160008B0
:10142000E3160008C0160008CF16000804E100E02B
:101430002DE9F04F87B0DFF81C92D9F82810411A37
:101440000A29C0F0CC80DFF81082DFF8A4A1694B34
:101450000522C8F81400C9F82800DAF80000D0F80E
:1014600000B019680191016821F040010160016834
:1014700062F3C5010160016841F0400101604FF075
:1014800080409860D12000F0E9F800260DF11207A5
:10149000052E06D0D12000F0E1F827F8160001361D
:1014A000F6E7912000F0DAF8002402AE052C06D011
:1014B000912000F0D3F826F814000134F6E79020CC
:1014C00000F0CCF84B494FF480408860DAF8000017
:1014D000016821F040010160C0F800B00120022144
:1014E000052818D00A469AB1BB18BC5A33F8025CDA
:1014F000AC423CBF23F8024C1D80B318B45A33F8F9
:10150000025CAC423CBF23F8024C1D80023AEAE781
:1015100002310130E4E7BDF81400BDF818100A1AD2
:10152000BDF80C10BDF81600502A0FD8BDF80A20DF
:10153000BDF80E309A1A502A08D838B140F6FF721A
:10154000904203D0914201D000294BD1002288F86B
:101550005120284A284B294C00251268C2F38022CA
:1015600088F8502040F23F12A8F84800A8F84A1026
:1015700051434FF638128A1AA14292FBF3F24FF010
:10158000000438BF02F23F144EF6C52291421C49B6
:1015900040F2DF1238BF40F23F14A8F84C4000FB85
:1015A00002115043174A91FBF3F1904238BF01F208
:1015B000DF151549884238BF40F2DF15A8F84E50B4
:1015C000D8F844000130C8F8440098F85100D9E92F
:1015D0000810411A07299CBF0130C9F8240007B040
:1015E000BDE8F08F019B012222EA9322AFE700BF02
:1015F0006C030020080C01408CF1FFFF380A130037
:10160000C889FEFFB88F1C00C5670100F0B5114AFC
:1016100011480027D2F804C0C16BD0F824E0846AD6
:10162000056B466B47628762076347635368C36B0A
:101630008B4205D1C0F824E0846205634663F0BDA7
:101640005168A1EB0C010162C762816B01318163BA
:10165000F0BD00BF7800002000000020E0B50021B0
:101660008DF805000DF1050003221423ADF80610D6
:101670000DF10201FEF750FF48B99DF803009DF8F7
:101680000410400140EAD1006FF31F308CBDFEF71B
:101690006DFD80B5C822FEF79DFE00B980BDFEF746
:1016A00065FD02E008C8121F08C1002AFAD1704780
:1016B0007047002001E001C1121F002AFBD17047D2
:1016C0000F1F1C0C0F084898370A1304110D000F48
:1016D000322E0B0D054775370610032420000E0E21
:1016E0004100550000000000200025002E003000C1
:1016F0003100320033003400350036003700380046
:10170000390041004300460048004B004C004F00A8
:101710005200530054005500100411041204130425
:101720001404150416041704180419041A041B04DD
:101730001C041D041E041F0420042104220423048D
:1017400025042604270428042B042C042D042E042D
:101750002F04000000000000000000000000000056
:10176000442A2A54B0A848000000000000000000ED
:1017700000000002000000000E11111111110E00F6
:1017800000000000080C0A0808080800000000001B
:101790000E11100804021F00000000000E11100CB2
:1017A00010110E0000000000181412113F1010005C
:1017B000000000001E020F1110110E0000000000BA
:1017C0000E110F1111110E00000000001F08080477
:1017D00004020200000000000E11110E11110E0093
:1017E000000000000E1111111E110E00000000007B
:1017F000081414223E224100000000001C220202B4
:1018000002221C00000000001E02020E0202020062
:10181000000000002222223E2222220000000000BE
:101820004222120A162242000000000002020202B6
:1018300002023E00000000003C42424242423C00A4
:10184000000000001E22221E1222220000000000C2
:101850001C22021C20221C00000000003E08080878
:1018600008080800000000002222222222221C0078
:1018700000000000081414223E2241000000000075
:101880001E02021E22221E00000000001E22223E16
:1018900022221E00000000001E02020202020200BC
:1018A000000000003C24242424227F414100000049
:1018B0003E02023E02023E000000000093925438B5
:1018C00054921100000000000E11100C10110E00B7
:1018D0000000000022322A2A2626220000001C00D6
:1018E00022322A2A262622000000000022120A069E
:1018F0000A122200000000003E22222222222100A1
:1019000000000000416355494141410000000000D2
:101910002222223E22222200000000003C424242BB
:1019200042423C00000000003E22222222222200ED
:10193000000000001E22221E020202000000000021
:101940001C22020202221C00000000003E080808BF
:1019500008080800000000002222141408080600ED
:1019600000000000221408081422410000000000BA
:101970002222222222227E40400000002222222215
:101980003C20200000000000929292929292FE0071
:10199000000000004141414F51514F000000000044
:1019A0000202021E22221E00000000001C2220381B
:1019B00020221C0000000000F20A0A0E0A0AF200AF
:1019C000000000003C22223C242222000000D09C87
:1019D000D098D09AD0A0D09ED0A1D0A5D095D09CA0
:1019E000D09020464C41534800D0A1D0A2D098D0EE
:1019F000A0D090D09DD098D09520464C415348001F
:101A0000D0A1D098D0A1D0A2D095D09CD09020D0F9
:101A100093D09ED0A2D09ED092D09000D09FD0A044
:101A2000D09ED092D095D0A0D09AD09020D0A0D0E7
:101A300095D0A1D0A3D0A0D0A1D09ED09200D09715
:101A4000D090D09FD098D0A1D0AC20D0A0D095D0AD
:101A5000A1D0A3D0A0D0A1D09ED09200D09ED0A8DB
:101A6000D098D091D09AD09020D098D09DD098D0B6
:101A7000A6D098D090D09BD098D097D090D0A6D018
:101A800098D09800D094D098D0A1D09FD09BD095DA
:101A9000D09900D09CD09ED094D0A3D09BD0AC0045
:101AA000C01A00080000002078000000A2160008FC
:101AB000381B00087800002050130000B216000800
:101AC000630000006300000000127A0000000000C4
:101AD0006C03002000000000000000000000000077
:101AE00000000000000000000000000000000000F6
:101AF00000000000000000000000000000000000E6
:101B000000000000000000000000000000000000D5
:101B100000000000000000000000000000000000C5
:101B200000000000000000000000000000000000B5
:081B30000000000000000000AD
:04000005080000ED02
:00000001FF
