:020000040800F2
:100000009824002001010008090100080B010008E4
:100010000D0100080F010008110100080000000098
:1000200000000000000000000000000013010008B4
:1000300015010008000000001701000881090008F0
:100040001B0100081B0100081B0100081B01000820
:100050001B0100081B0100081B0100081B01000810
:100060001B0100081B0100081B0100081B01000800
:100070001B0100081B0100081B0100081B010008F0
:100080001B0100081B0100081B0100081B010008E0
:100090001B0100081B0100081B0100081B010008D0
:1000A0001B0100081B0100081B0100081B010008C0
:1000B0001B0100081B0100081B0100081B010008B0
:1000C0001B0100081B0100081B0100081B010008A0
:1000D0001B010008290A00081B0100081B01000879
:1000E0001B0100081B0100081B010008DFF80CD0F1
:1000F00000F018F800480047D911000898240020A3
:100100000648804706480047FEE7FEE7FEE7FEE7B1
:10011000FEE7FEE7FEE7FEE7FEE7FEE78D090008E3
:10012000ED000008064C074D06E0E06840F00103D2
:1001300094E8070098471034AC42F6D3FFF7DAFF93
:10014000002200082022000810B5431A934209D269
:100150008318881803E010F8011D03F8011D521ED2
:10016000F9D210BD40EA01039B0703D009E008C99A
:10017000121F08C0042AFAD203E011F8013B00F86C
:10018000013B521EF9D210BDD2B201E000F8012BA2
:10019000491EFBD270470022F6E710B513460A4607
:1001A00004461946FFF7F0FF204610BDEFF310801C
:1001B00072B600F0BBFEFCE7ED4901304A684B68BF
:1001C0009B1A8342FBD370472DE9FC4F5E4A042300
:1001D0004FF0000A4FF001084FF00009904208BFAD
:1001E0000323009300250C6834FA05F208BFBDE82C
:1001F000FC8F08FA05FE14EA0E0F00F0A1804F688C
:10020000032F16D9112F26D0122F28D0524A9742E9
:1002100013D0524A974210D0514A97420DD0514ABA
:1002200097420AD0504A974207D0504A974204D08A
:1002300022E0DFE807F002181B1F8C6844B1012C94
:1002400014BFC0F814E0C0F810E04FF0080913E044
:100250004FF0040910E0CC6804F104090CE0CC680C
:1002600004F10C0908E0D1F80C9005E0CC6804F129
:10027000080901E04FF0000954460746082D4FF0E9
:100280000F0228BF203C28BF04373B6802FA04F65F
:1002900009FA04F4B34323433B60CB79DB064FD523
:1002A0002C4A2A4C1368A4F57E7C43F001031360AA
:1002B00013682F4A03F0010390420193019B25F03C
:1002C00003035CF803B008D02A4A904207D02A4AB8
:1002D000009E904208BF022602E0002600E00126B0
:1002E0000AF00C030F22AF0802FA03F406FA03F334
:1002F000164E174A2BEA040423434CF827304F6864
:10030000FB02B36854BF23EA0E0443EA0E04B46050
:10031000BB02136854BF23EA0E0443EA0E041460C0
:10032000BB03736854BF23EA0E0443EA0E047460EF
:10033000FB03336854BF23EA0E0243EA0E02326025
:100340000AF1040A01354EE700140140000401409F
:100350000C0401401810024000001110000012109F
:1003600000002110000022100000311000003210A7
:1003700000080140000C014000100140CD484068D9
:10038000704700BF10B50F494FF47A728968B1FB0E
:10039000F2F14A1E0021B1EB126F11D10A4BF02489
:1003A0005A600A4A1470996007210F28196007D80B
:1003B0004FF0FF300F2100F00BF8BE480121017013
:1003C00010BD00BF0000002010E000E023ED00E0C1
:1003D00010B5104A00F00F030F4C043B02442344B5
:1003E000002848BF03F10C0220684FF0FF34C0F32F
:1003F0000220C31E80F0070038BF0023042828BF56
:10040000042004FA00F021EA000098400001107076
:1004100010BD00BF00E400E00CED00E0F8B5A64D13
:1004200014460A4695F85110012919D16E68B6F59F
:10043000827F0BD1A96849B90421234685F8511060
:10044000014601B0BDE8F04000F038B9DFF82CCD2E
:10045000DCF8043030B12AB195F85070012F03D187
:100460000220F8BD0120F8BD0427012185F8517054
:1004700000276F65EA8785F85010AA87A863AF86C2
:100480002F63C5E91077EF86A9682A68B1F5004F98
:1004900007D1116821F040011160116821F48041F9
:1004A00011601168490603D4116841F040011160E0
:1004B000E96829B32A68E98F31B39168C90705D182
:1004C000DCF80410C91AA142F5D331E0D16820F854
:1004D000021BA863E98F0139E987ECE72A68916874
:1004E000C90705D1DCF80410C91AA14208D31FE0DE
:1004F000117B0170A86B0130A863E98F0139E9878E
:10050000E98F0029EAD16E68B6F5827F18D1A86814
:10051000B0F5004F02D0B0F5806F11D12968B0F569
:10052000806F0A6822F040020A6009D1012008E0C9
:10053000002085F85000012085F851000320F8BD07
:1005400080200021224600F0C9F928B1686D40F0F2
:100550002000686520206865012085F85100002092
:1005600085F85000686D002818BF0120F8BD00BF55
:1005700078000020F8B5BD4DD74C0B46696894F85B
:100580005160012E05D130B12BB194F85060012E8D
:1005900003D10220F8BD0120F8BD0326012784F80D
:1005A000516000266665E38684F85070A386206358
:1005B000A687A663C4E91066E687A7682668B7F52C
:1005C000004F07D1376827F040073760376847F496
:1005D0008047376037687F0603D4376847F04007A5
:1005E0003760E768D4F804C0B7F5006F1ED1BCF1DE
:1005F000000F18BF012B06D130F8023BF3602063D7
:10060000E38E013BE3862368E68E86B39E68B607D9
:1006100004D46E68761A9642F6D343E030F8026B43
:10062000DE602063E68E013EE686EDE7BCF1000F5A
:1006300018BF012B07D100783073206B0130206385
:10064000E38E013BE3862368E68E86B19E68B6079B
:1006500004D46E68761A9642F6D323E000781873B5
:10066000206B01302063E68E013EE686ECE7104603
:1006700000F018F908B120206065A06838B90020A2
:1006800000902068C1680091806800900098012067
:1006900084F85100002084F85000606D002818BFD5
:1006A0000120F8BD002084F85000012084F851009A
:1006B0000320F8BD780000206C030020F8B5DFF8B7
:1006C000BCCAAE4E8E46DCF8041096F85170012F6D
:1006D00007D120B1BEF1000F18BF002A0BD10125B0
:1006E0000EE07568B5F5827F09D1B46802253CB982
:1006F000042FEED004E096F85040012C02D10225E0
:100700002846F8BD012486F8504096F85140042C44
:100710001CBF052486F8514000247465F287F286D8
:10072000C6F838E0B2873063C6E91044B28635684F
:100730002C68640603D42C6844F040042C60F468F0
:100740007768B4F5006F33D10FB1012A06D130F8C4
:10075000022BEA603063F28E013AF286326801259C
:10076000F48E14B9F48F002C60D09468A4070BD5D4
:10077000F48E4CB1012D07D130F8024B0025D46026
:100780003063F48E013CF4869468E4070AD0F48F59
:1007900044B1D46801252EF8024BC6F838E0F48F36
:1007A000013CF487DCF80440641A9C42D8D335E05D
:1007B0000FB1012A07D100782873306B0130306304
:1007C000F08E0138F0860120F28E0AB9F28F6AB3FA
:1007D00032689468A4070DD5F48E5CB1012809D164
:1007E000306B00781073306B01303063F08E01385D
:1007F000F08600209468E4070BD0F48F4CB1B06B06
:10080000D2680270B06B0130B063F08F0138F087AE
:100810000120DCF80420521A9A42D5D30020032587
:1008200086F85000012086F8510069E7184600F06C
:1008300039F828B1002086F85000202070654EE776
:10084000B06838B9002000903068C16800918068B5
:1008500000900098012086F85100002086F8500092
:10086000756D002D18BF01254AE700BF78000020F4
:1008700007900798706940F004007061706900F09B
:100880000400079003200B9002200990704700217C
:100890000022504703204146CDE90AA001200990DB
:1008A0007047000070B50C460546022001212A461B
:1008B000234600F013F838B9802000212A46234649
:1008C000002600F00BF828B12C480326416D41F0BA
:1008D00020014165304670BD6C030020F8B5B84C6E
:1008E000DFF898C065685B1B9D18914A926866683E
:1008F000C2F3CB326A430092DCF800309F680740B5
:100900003F1AB7FA87F77F098F4204BF0020F8BD6E
:100910006768BF1BAF4207D2009F009A013A00925E
:10092000002F08BF3D46E9E7586820F0E000586016
:10093000DCF80400B0F5827F0BD1DCF80800B0F5DC
:10094000004F02D0B0F5806F03D1186820F040004E
:100950001860DCF82800B0F5005F07D1186820F4B3
:1009600000501860186840F40050186000208CF89F
:10097000500001208CF851000320F8BD6C030020CA
:100980008F48416801314160704700BF70470000E7
:1009900018B58B4AD36A1C680440844204BF002007
:1009A00018BD5468641A142C84BF032018BDDC6879
:1009B0006407F0D54028EED08028ECD01C682407CE
:1009C000E9D50020009018680090586800900098C1
:1009D000D06A50E8030FD16A20F4907041E8030315
:1009E000002BF5D1D06A50E8050FD16A20F0010044
:1009F00041E80503002BF5D1D06D012809D1D06A5B
:100A000050E8030FD16A20F0100041E80303002BE7
:100A1000F5D1202082F86E000020D06582F86C00AD
:100A200008201067012018BD00F080BA0D48BFF300
:100A30004F8F0D4A016801F4E06111430160BFF37B
:100A40004F8F00BFFDE700BF0648BFF34F8F064A38
:100A5000016801F4E06111430160BFF34F8F00BFF3
:100A6000FDE700BF0CED00E00400FA052DE9F843B6
:100A700006462D480C462D4F016841F080710160FB
:100A8000386840F0010038600320D7F804808DF802
:100A90000000300A8DF803608DF80200300C8DF8EC
:100AA00001000020B0EB124F2ED1F8494FF4801016
:100AB000154664220860894668460421FFF75AFDFE
:100AC00020B9A9B22046C822FFF7A8FC1021C9F816
:100AD00000107968A1EB0802C1498B684F6B3A445A
:100AE0004A634FF47A72B3FBF2F24B6BB3FBF2F250
:100AF0008A620A6B2A440A6340B10A228E6581F831
:100B00006420B0FA80F04009BDE8F883002EF8D1E7
:100B1000042DF6D30022042AF3D0A35C8D180132F1
:100B200085F85E30F7E700BFFCED00E0001000E064
:100B30000000002082B022486421224CDFF88CA003
:100B40004FF4A07B406900EB800001EB800850214E
:100B500001EB80053C2101EB8006282101EB800997
:100B60004F46B7F5F07F29D215484FF420718761C1
:100B70002046FFF710FB144A082049464FF2CA23CB
:100B8000D0470820314612A24FF2CA23D04708208E
:100B9000294614A24AF6D753D047082041461DA241
:100BA0004AF6D753D047B9B200204FF4A0720123C0
:100BB000CDE9004B00F0E4F90137D2E7FFF7F6FA90
:100BC00078000020EC000020BC2100085D10000827
:100BD000D09ED0A8D098D091D09AD09020464C41A9
:100BE00053480000D09ED091D09DD09ED092D098F6
:100BF000D0A2D09520D0A0D095D0A1D0A3D0A0D005
:100C0000A1D0AB20D0ADD09AD0A0D090D09DD09024
:100C100000000000D097D090D093D0A0D0A3D09760
:100C2000D0A7D098D09A205541525420D094D09E2D
:100C3000D0A1D0A2D0A3D09FD095D09D000000001D
:100C40002DE9F04F87B0DFF898C104460628084622
:100C500028BF0624642928BF6420DCF800E074451E
:100C60000CD1DCF80420904202D107B0BDE8F08F2F
:100C7000632903D8821A01D3052AF6D3594E0025D9
:100C80000022F768944206D027FA02F3013203F0FB
:100C900001031D44F6E7012205EB85050DF1170858
:100CA000A2401743F7602427BEF1630918BF07EB82
:100CB0008509382707EB8503BEF1630F4A4F08BF4C
:100CC0004FF4F07303936329336994BF23EA02025C
:100CD0001A433261F625CCE900402522ADF81A20EE
:100CE0006422B0FBF2F242F030028DF817200A22A3
:100CF000B0FBF2F303FB0505B3FBF2F202EB820259
:100D000045F03005A3EB42028DF81950012542F061
:100D100030020A284FF001008DF8182038BF022059
:100D2000642938BF8044039881459ED238464FF4E9
:100D30002071CDF81090C6F81890FFF72CFA082013
:100D400010212AA24EF69E7300F088F94FF0000B96
:100D50004FF00009B9F1070F2DD0F06805FA09FA34
:100D600010EA0A0F24D02CA028214AF6D75350F8B5
:100D700029200BEB8B0001EB80070820394600F09F
:100D80006DF92CA24C454EF69E7108BF4246306963
:100D900010EA0A0028A018BF0246284808BF0846E3
:100DA00083B239464FF4887000F058F90BF1010B0B
:100DB00009F10109CEE7DDF810900B4F4FF4A07058
:100DC0004FF4A0720123C6F814B0019000201FFA5E
:100DD00089F1009700F0D4F809F10109A3E700BFF9
:100DE0000000002078000020EC000020D098D09D6A
:100DF000D098D0A6D098D090D09BD098D097D090B3
:100E0000D0A6D098D0AF20D0A1D098D0A1D0A2D0D9
:100E100095D09CD0AB000000E42100082E210008F2
:100E2000492100089E2100087C210008F3210008C8
:100E3000602100082E2E2E004F4B0000668EFFFF13
:100E40001CB520218DF807008DF80410010A8DF8DB
:100E50000610010C8DF805100B4908421CBF00203C
:100E60001CBD00F05BF900F049F9C54C4FF480104F
:100E70000421206001A800F088FF1020206000F00D
:100E80004DF901201CBD00BFFF0FE0FF100801401D
:100E9000B0F5001F05D8C0F50013934228BFFFF737
:100EA000E5BD0020704700002DE9F84FB0F5001FA8
:100EB00005D80646C0F500101446904202D2002024
:100EC000BDE8F88F0D464FF4801AE8464FF0100B3E
:100ED00044B302208DF803608DF80000300A8DF8CD
:100EE0000200300C8DF8010000F018F900F006F94E
:100EF000A34804218146C0F800A0404600F045FF09
:100F0000F0B2C0F580772846A74228BF2746394669
:100F100000F03BFFC9F800B0E41B3E443D4400F044
:100F2000FDF8D5E70120BDE8F88F00BF10B51248E5
:100F3000C16AD9B10A6812F0280F17D049681207A0
:100F400002D00021816011E0EFF3108272B1C9B2CA
:100F500082680AA3A1F15004B4FA84F49B5C64098A
:100F60008B4208BF541C8460042C00D010BD0021AB
:100F70008160FFF75BFD00BF7800002050434852BE
:100F80002DE9F043B1B0002A64D01D46002B61D09A
:100F90000E46010A8DF8C10010440DF1C008144638
:100FA000DDE93879042201388DF8C01041468DF80A
:100FB000C300000A8DF8C2002A2000F0F1F8300AC0
:100FC000414604228DF8C1608DF8C00070190138C7
:100FD0008DF8C300000A8DF8C2002B2000F0E0F865
:100FE0007C4E4FF0004030604FF0005030602C20BD
:100FF00000F0CAF84FF40050B046306005FB04F032
:101000006D46461E0020711C1BD037F8021B09BA22
:10101000090C29520230C02804D12846C02100F012
:10102000B4FE00205EB1B6FBF4F101FB14610029AF
:101030004FF0000108BFA9EB040107EB4107013E97
:10104000E1E718B181B2684600F09FFE4FF400401E
:10105000C8F8000031B0BDE8F08300BF2DE9F04FC3
:10106000234CDFF890C0DFF890E004EB4009434CDC
:10107000D4F818B01778CFB3C02F07D35478023202
:1010800004F03F0467F38A14274600E0013200248D
:10109000E046352C26D03EF81460B74203D008F164
:1010A0000C080134F5E74FF0000ABAF10C0F19D023
:1010B00018F80A400AEB01060027082F0FD024FA7F
:1010C00007F5ED0709D0B34507DBC519AD09042DB8
:1010D00003D8B345D8BF29F817300137EDE70AF137
:1010E000010AE2E709F110090830C3E7BDE8F08F13
:1010F000EC000020B21E0008481E00081CB5204C61
:101100004FF480100121206006208DF807000DF1BA
:10111000070000F03AFE102020601CBD2DE9F84FBA
:101120001648174E174C4FF480190DF1030A0DF1B4
:10113000020B102540F6B938476805208DF80300EA
:1011400050460121C6F8009000F01FFE58460121CC
:101150006422FFF763F970B99DF80200074984F82B
:101160005C0035604968C91B414504D2C00708BF0F
:10117000BDE8F88FE4E7FFF719F800BF780000201A
:101180001008014000000020E0B58DF807000020A5
:1011900002218DF806000DF1060000F0F6FD8CBD71
:1011A00070B50C4E0D464FF00041144631604FF0C3
:1011B00000513160FFF7E8FF4FF4005030602CB170
:1011C00015F8010BFFF7E0FF013CF8E74FF4004092
:1011D000306070BD100C01408CB0BA4C4FF6FF026D
:1011E000206840F010002060B74801681140B74AFD
:1011F000114301600F20FFF7C5F8B54E0222706958
:1012000040F001007061706900F0010008900898DA
:10121000B06940F08050B061B06900F08050089033
:101220000898AC48016862F31A610160306800F008
:101230000C00042819D0306800F00C00082802D1F6
:101240003068C00311D456F8040C40F4803046F8DE
:10125000040CDFF84006416856F8042C920306D4CB
:101260004268521A642AF7D98BE056F8040C3068A9
:1012700000F00C0008285FD1306800F47410B0F55D
:10128000E81F7ED1206810F0060F09D120680221E6
:1012900061F302002060206800F00700022870D18E
:1012A000306840F4E0603060306840F46050306096
:1012B000306820F0F000306056F8040C800160D5F2
:1012C00030680221DFF8CC7561F3010041F288310A
:1012D00030607868326802F00C02082A04D07A681C
:1012E000121A8A42F6D94CE0206800F00700032861
:1012F00009D32068022161F302002060206800F019
:10130000070002283DD13068042161F30A203060D3
:10131000306820F4605030606F48316801F00C0292
:10132000082A39D1C1F383420FF26C53C9039A5C86
:1013300029D46A4850432FE0694900200860DFF84B
:101340005405426856F8043C9B0104D543689B1A37
:10135000022BF7D915E0326822F40032326032688D
:1013600022F4741202F5E812326001220A60416828
:1013700056F8042C92013FF585AF4268521A022AB2
:10138000F6D9FEF713FF316850430FF21C52C1F338
:101390004041515CB0FBF1F031680FF21052DFF8C0
:1013A0001C454FF01008C1F30311515CC840A06008
:1013B000387800284FF0100018BF0F20FEF7E2FF2A
:1013C0007069484A484D4FF47041DFF8F8B44FF067
:1013D000000A40F0100091467061706900F0100042
:1013E00008900898706940F020007061706900F002
:1013F000200008900898706940F0040070617069DE
:1014000000F0040008900898706940F008007061CE
:10141000706900F00800089008984FF400502860A8
:10142000C2F81080C2F8101403210DF12008CDF885
:1014300028A00B910121CDE9080102F50060414689
:10144000D847FFF727FA102008904846D8470120D0
:1014500009F580694146CDE909A04FF48060089004
:101460004846D847FFF716FA4FF4704008904846B0
:10147000D8471E48DFF850944FF400710A234FF408
:101480008272A0F50060C9E903AAC9E905A1C9F8FB
:101490001CA0C9E908AAC9E90AA389E8050499F8C2
:1014A00051302BB300234FF0000B4FF0000C4FF0E6
:1014B000000E069300230593002304930023039357
:1014C0005DE000BF002002400CED00E00003FA05E3
:1014D000041002400400014000127A0000093D009F
:1014E00060004242000801401010014000380140F5
:1014F00089F850A0CDF828A00DF120087069414668
:1015000040F480507061706900F48050FFF7B0F9CA
:10151000A02008900798EA488346FEF755FE402031
:101520004146CDE909AA08905846FEF74DFED9E993
:101530000001D9F82020D9E904CBD9F828E002919C
:10154000D9F8081002F080020EF4005305920693B9
:101550000191D9F80C100091D9E9061808F0380269
:1015600004920BF001020CF0020B0392009A02F4B9
:10157000006C019A02F4044E029A02F48272022371
:1015800042EA0E0289F8513042EA0C02D0F800809B
:1015900042EA0B0228F040030360039B1A4301F464
:1015A00000731A43049B1A43059B1A43069B1A4374
:1015B0000260042202EA1141C44A4160C1699046B6
:1015C00021F40061C1610120C9F854A04FF4E13158
:1015D00089F851000C20C7E90B21C7E90DAAC7E91A
:1015E00011AAC7E90FA097F86D0030B1B4494FF0C8
:1015F000000C002240468B4627E04FF000090DF119
:10160000200A87F86C90CDF828905146706940F414
:1016100080407061706900F48040FFF729F94FF451
:10162000007008900798A6488346FEF7CDFD4FF45A
:1016300080605146CDE9099908905846FEF7C4FDEF
:10164000F86AD7E90DC2D7F844A024234FF0010966
:1016500087F86D30C36823F40053C360036923F433
:1016600040531A43026141F20C62D7E90FE3C168AB
:1016700091434EEA0C021A4311430822C1604169AA
:1016800021F4407141EA0A014161404508BF0B2243
:10169000D4F808C0336890494FF0000823FA02F2EA
:1016A0008BA302F007029A5C19232CFA02F25A4328
:1016B0003B6B9B00B2FBF3F26423B2FBF3F606FB39
:1016C0000121322202EB0111B1FBF3F101F0F00232
:1016D00001F00F0102EB0612804E11448160016996
:1016E00021F490410161416921F02A014161C16801
:1016F00041F40051C1602020C7F8708087F86D0068
:1017000087F86E00C7F8608084F81C80C4F818C0A1
:10171000786860614FF000502860552084F80C9084
:101720008DF820004FF48040CBF810044FF40040B7
:10173000CBF810044FF08050CBF8100448208DF8FF
:101740001C001420B0474FF48050CBF810047820D0
:10175000B047DFF88CA10120FFF799F87820B04757
:101760001120FFF794F87820B04708A93A20012209
:10177000D0475C49C0200222D0475B49C1200222E9
:10178000D0475A49C2200122D0475949C5200422D6
:101790004FF0040BD0475749E0200F22D04756495D
:1017A000E1200F22D0472020FFF771F807A936204B
:1017B0000122D04700200021FFF742FA2920FFF73D
:1017C00066F89620B04700206421FFF739FA02201E
:1017D000207384F85D9094F85D00002857D0474E40
:1017E00003204FF49A71207306F12400FEF7D3FC16
:1017F0004348444B4FF4707C4FF4A07E4FF4F07993
:10180000C6E903C800F6787100F5F06286E8084280
:10181000316200F57061C6E90502F161CDF8208002
:10182000F86A01680891022140680890089825200C
:10183000FEF7CEFD344820210160F86AC16841F00E
:101840002001C16006206421FFF7FAF900F08EF94B
:1018500084F80CB07868F969411A6061B1F5FA7FD3
:1018600009D3F86155F8041C01F4005141EA014123
:1018700081F40051296000F089F8D7E9080181421C
:1018800002D001303862FAE700F070F9E2E7FFF7C2
:1018900051F900BF7800002002030405060708097B
:1018A0000A0B0C0D0E0F10100102000000000000CA
:1018B00000000000010203040607080900000020E0
:1018C00000080140C90100086C03002000380140F5
:1018D00000000000010203049CFFFF0FB901000893
:1018E000A1110008101E0008121E0008141E000896
:1018F000151E0008F21D0008011E000840130020FC
:10190000C40300201C1E000804E100E0FFF79CF85F
:10191000F8B58E4D95F86D20202A36D1A8B3A1B325
:10192000002621222E6785F86D20A5F850106C68DE
:10193000A5F85210696BEA6B81F4805151EA0207F5
:101940000CBF06460746B5F85200B8B180202146C4
:10195000FFF71EF8B0B927B117F8010BE96A486024
:1019600006E036F8021BE86A00276FF35F2141604A
:10197000B5F852000138A5F85200E4E740202146AE
:10198000FFF706F8202085F86D00F8BD2DE9F04F2F
:1019900087B0DFF83894D9F82810411A0A29C0F026
:1019A000CC80DFF82C84DFF8A8A16A4B0522C8F8A8
:1019B0001400C9F82800DAF80000D0F800B019685F
:1019C0000191016821F040010160016862F3C501E5
:1019D0000160016841F0400101604FF08040986073
:1019E000D12000F0B7F900260DF11207052E06D020
:1019F000D12000F0AFF927F816000136F6E7912064
:101A000000F0A8F9002402AE052C06D0912000F0C9
:101A1000A1F926F814000134F6E7902000F09AF9B5
:101A20004C494FF480408860DAF80000016821F0EA
:101A300040010160C0F800B001200221052818D043
:101A40000A469AB1BB18BC5A33F8025CAC423CBFA0
:101A500023F8024C1D80B318B45A33F8025CAC4230
:101A60003CBF23F8024C1D80023AEAE70231013004
:101A7000E4E7BDF81400BDF818100A1ABDF80C1000
:101A8000BDF81600502A0FD8BDF80A20BDF80E3058
:101A90009A1A502A08D838B140F6FF72904203D003
:101AA000914201D000294BD1002288F85120294AC7
:101AB000294B2A4C00251268C2F3802288F8502056
:101AC00040F23F12A8F84800A8F84A1051434FF6D8
:101AD00038128A1AA14292FBF3F24FF0000438BF89
:101AE00002F23F144EF6C52291421D4940F2DF1228
:101AF00038BF40F23F14A8F84C4000FB021150439D
:101B0000184A91FBF3F1904238BF01F2DF151649F4
:101B1000884238BF40F2DF15A8F84E50D8F844008C
:101B20000130C8F8440098F85100D9E90810411A6A
:101B300007299CBF0130C9F8240007B0BDE8F08F29
:101B4000019B012222EA9322AFE700BF7800002028
:101B50006C030020080C01408CF1FFFF380A1300D1
:101B6000C889FEFFB88F1C00C56701002DE9F04F42
:101B70008FB0964F964C764A0020D7F80480D4F860
:101B80003CB0D4F82490A66A256B636B6062A062B7
:101B90002063606382F854017868D2F82401002839
:101BA00000F0C18011688868002800F0BC800591B1
:101BB0000790CDE909B30BA8936AD168546ACDF8B0
:101BC00038804FF0000A80E86002506915461AB26A
:101BD000B1FBF2F19AB2B1EB234F38BF42EA0143B5
:101BE0004FEA23491AB209EB244E4FEA4208BEF5E8
:101BF000A07F7146CDF810E0A8BF4FF4A07E0893F7
:101C000023B2D11823EAE37CB1F5F07FA8BF4FF4EB
:101C1000F0710694261426EAE477A7EB244404FB2B
:101C200002C4E31A00EB430B77450ADA5B466446CD
:101C30008C4203DA23F802AB0134F9E7C3440137DD
:101C4000F2E7059C6B68AA46A1888B4214D1E18813
:101C5000DAF808308B420FD1089D0021079C1FFA4B
:101C600089F30291B1B2AAB2CDE90002069880B21E
:101C7000A047DDE909B32DE06FF00101DDF824B0E4
:101C8000002701EB49054FEA49014F450FDADAF821
:101C900018305C190023934205DA30F813600133E1
:101CA00026800C44F7E74044023D0137EDE7DAF8BF
:101CB0001810DAF8080000231FFA89F2089D079C23
:101CC0008DE80E000499ABB2401A069980B289B231
:101CD000A0470A9BBAF82A003D4CDDF838803B4FFC
:101CE000DDE90C69A0EB1541AAF82A10BAF8261014
:101CF00001EB1541AAF82610BAF828100029294648
:101D00000B9D02D0090C88420DD1DAF824010AF1AA
:101D10002C01421E0AF12400CAF82421D2009A465E
:101D2000FEF712FA5346E06B584505D1C4F82490EB
:101D3000A6622563636308E07868A0EB0800206270
:101D40000020E062A06B0130A0630FB0BDE8F08F0F
:101D500040130020E0B500218DF805000DF10500CD
:101D600003221423ADF806100DF10201FEF7A6FCC4
:101D700048B99DF803009DF80410400140EAD100E5
:101D80006FF31F308CBDFEF711FA80B5C822FEF745
:101D9000F1FB00B980BDFEF709FA00007CB50B4CE1
:101DA0006568079E0196069E0096FFF7E9F80849C8
:101DB00060684A6A401B10444862C86B0130C863BF
:101DC0006068BDE87C40FFF7E1BD00BF78000020FF
:101DD0000000002002E008C8121F08C1002AFAD142
:101DE00070477047002001E001C1121F002AFBD19B
:101DF00070470F1F1C0C0F084898370A1304110D69
:101E0000000F322E0B0D05477537061003242000F6
:101E10000E0E41005500000000000000020000000E
:101E20004001E0019D1D00086D0A0008910E0008A8
:101E3000A90E0008410E00087D03000811190008D2
:101E40000D190008410C0008200025002E0030006C
:101E500031003200330034003500360037003800DE
:101E6000390041004300460048004B004C004F0041
:101E700052005300540055001004110412041304BE
:101E80001404150416041704180419041A041B0476
:101E90001C041D041E041F04200421042204230426
:101EA00025042604270428042B042C042D042E04C6
:101EB0002F040000000000000000000000000000EF
:101EC000442A2A54B0A84800000000000000000086
:101ED00000000002000000000E11111111110E008F
:101EE00000000000080C0A080808080000000000B4
:101EF0000E11100804021F00000000000E11100C4B
:101F000010110E0000000000181412113F101000F4
:101F1000000000001E020F1110110E000000000052
:101F20000E110F1111110E00000000001F0808040F
:101F300004020200000000000E11110E11110E002B
:101F4000000000000E1111111E110E000000000013
:101F5000081414223E224100000000001C2202024C
:101F600002221C00000000001E02020E02020200FB
:101F7000000000002222223E222222000000000057
:101F80004222120A1622420000000000020202024F
:101F900002023E00000000003C42424242423C003D
:101FA000000000001E22221E12222200000000005B
:101FB0001C22021C20221C00000000003E08080811
:101FC00008080800000000002222222222221C0011
:101FD00000000000081414223E224100000000000E
:101FE0001E02021E22221E00000000001E22223EAF
:101FF00022221E00000000001E0202020202020055
:10200000000000003C24242424227F4141000000E1
:102010003E02023E02023E0000000000939254384D
:1020200054921100000000000E11100C10110E004F
:102030000000000022322A2A2626220000001C006E
:1020400022322A2A262622000000000022120A0636
:102050000A122200000000003E2222222222210039
:10206000000000004163554941414100000000006B
:102070002222223E22222200000000003C42424254
:1020800042423C00000000003E2222222222220086
:10209000000000001E22221E0202020000000000BA
:1020A0001C22020202221C00000000003E08080858
:1020B0000808080000000000222214140808060086
:1020C0000000000022140808142241000000000053
:1020D0002222222222227E404000000022222222AE
:1020E0003C20200000000000929292929292FE000A
:1020F000000000004141414F51514F0000000000DD
:102100000202021E22221E00000000001C222038B3
:1021100020221C0000000000F20A0A0E0A0AF20047
:10212000000000003C22223C242222000000D09C1F
:10213000D098D09AD0A0D09ED0A1D0A5D095D09C38
:10214000D09020464C41534800D0A1D0A2D098D086
:10215000A0D090D09DD098D09520464C41534800B7
:10216000D0A1D098D0A1D0A2D095D09CD09020D092
:1021700093D09ED0A2D09ED092D09000D09FD0A0DD
:10218000D09ED092D095D0A0D09AD09020D0A0D080
:1021900095D0A1D0A3D0A0D0A1D09ED09200D097AE
:1021A000D090D09FD098D0A1D0AC20D0A0D095D046
:1021B000A1D0A3D0A0D0A1D09ED09200D09ED0A874
:1021C000D098D091D09AD09020D098D09DD098D04F
:1021D000A6D098D090D09BD098D097D090D0A6D0B1
:1021E00098D09800D094D098D0A1D09FD09BD09573
:1021F000D09900D09CD09ED094D0A3D09BD0AC00DE
:10220000202200080000002078000000D41D0008F3
:10221000982200087800002020240000E41D000817
:10222000630000006300000000127A00000000005C
:102230006C0300200000000000000000000000000F
:10224000000000000000000000000000000000008E
:10225000000000000000000000000000000000007E
:10226000000000000000000000000000000000006E
:10227000000000000000000000000000000000005E
:10228000000000000000000000000000000000004E
:08229000000000000000000046
:04000005080000ED02
:00000001FF
